Component: ARM Compiler 5.06 update 3 (build 300) Tool: armlink [4d35c9]

==============================================================================

Section Cross References

    startup_stm32f030.o(STACK) refers (Special) to heapauxi.o(.text) for __use_two_region_memory
    startup_stm32f030.o(HEAP) refers (Special) to heapauxi.o(.text) for __use_two_region_memory
    startup_stm32f030.o(RESET) refers (Special) to heapauxi.o(.text) for __use_two_region_memory
    startup_stm32f030.o(RESET) refers to startup_stm32f030.o(STACK) for __initial_sp
    startup_stm32f030.o(RESET) refers to startup_stm32f030.o(.text) for Reset_Handler
    startup_stm32f030.o(RESET) refers to hal_sleep.o(.text) for RTC_IRQHandler
    startup_stm32f030.o(RESET) refers to phy.o(.text) for EXTI4_15_IRQHandler
    startup_stm32f030.o(RESET) refers to hal_timer.o(.text) for TIM3_IRQHandler
    startup_stm32f030.o(RESET) refers to hal_uart.o(.text) for USART1_IRQHandler
    startup_stm32f030.o(.text) refers (Special) to heapauxi.o(.text) for __use_two_region_memory
    startup_stm32f030.o(.text) refers to startup_stm32f030.o(STACK) for __initial_sp
    startup_stm32f030.o(.text) refers to system_stm32f0xx.o(.text) for SystemInit
    startup_stm32f030.o(.text) refers to __main.o(!!!main) for __main
    startup_stm32f030.o(.text) refers to startup_stm32f030.o(HEAP) for Heap_Mem
    system_stm32f0xx.o(.text) refers to aeabi_sdiv.o(.text) for __aeabi_uidivmod
    system_stm32f0xx.o(.text) refers to system_stm32f0xx.o(.data) for SystemCoreClock
    app.o(.text) refers to aeabi_memset.o(.text) for __aeabi_memset
    app.o(.text) refers to sub_module.o(.text) for sub_module_init
==============================================================================

Removing Unused input sections from the image.

    Removing system_stm32f0xx.o(.rev16_text), (4 bytes).
    Removing system_stm32f0xx.o(.revsh_text), (4 bytes).
    Removing app.o(.rev16_text), (4 bytes).
    Removing app.o(.revsh_text), (4 bytes).
    Removing hal.o(.rev16_text), (4 bytes).
    Removing hal.o(.revsh_text), (4 bytes).
    Removing hal_adc.o(.rev16_text), (4 bytes).
    Removing hal_adc.o(.revsh_text), (4 bytes).
    Removing hal_aes.o(.rev16_text), (4 bytes).
    Removing hal_aes.o(.revsh_text), (4 bytes).
    Removing hal_flash.o(.rev16_text), (4 bytes).
    Removing hal_flash.o(.revsh_text), (4 bytes).
    Removing hal_led.o(.rev16_text), (4 bytes).
    Removing hal_led.o(.revsh_text), (4 bytes).
    Removing hal_rnd.o(.rev16_text), (4 bytes).
    Removing hal_rnd.o(.revsh_text), (4 bytes).
    Removing hal_sleep.o(.rev16_text), (4 bytes).
    Removing hal_sleep.o(.revsh_text), (4 bytes).
==============================================================================

Image Symbol Table

    Local Symbols

    Symbol Name                              Value     Ov Type        Size  Object(Section)

    ../clib/angel/boardlib.s                 0x00000000   Number         0  boardinit3.o ABSOLUTE
    ../clib/angel/boardlib.s                 0x00000000   Number         0  boardshut.o ABSOLUTE
    ../clib/angel/boardlib.s                 0x00000000   Number         0  boardinit1.o ABSOLUTE
    ../clib/angel/boardlib.s                 0x00000000   Number         0  boardinit2.o ABSOLUTE
    ../clib/angel/handlers.s                 0x00000000   Number         0  __scatter_zi.o ABSOLUTE
    ../clib/angel/handlers.s                 0x00000000   Number         0  __scatter_copy.o ABSOLUTE
    ../clib/angel/kernel.s                   0x00000000   Number         0  __rtentry.o ABSOLUTE
    ../clib/angel/kernel.s                   0x00000000   Number         0  __rtentry4.o ABSOLUTE
    ../clib/angel/kernel.s                   0x00000000   Number         0  rtexit2.o ABSOLUTE
    ../clib/angel/kernel.s                   0x00000000   Number         0  rtexit.o ABSOLUTE
    ../clib/angel/kernel.s                   0x00000000   Number         0  __rtentry2.o ABSOLUTE
    ../clib/angel/rt.s                       0x00000000   Number         0  aeabi_idiv0_sigfpe.o ABSOLUTE
    ../clib/angel/rt.s                       0x00000000   Number         0  rt_div0.o ABSOLUTE
    ../clib/angel/rt.s                       0x00000000   Number         0  aeabi_idiv0.o ABSOLUTE
    ../clib/angel/rt.s                       0x00000000   Number         0  rt_raise.o ABSOLUTE
    ../clib/angel/scatterp.s                 0x00000000   Number         0  __scatter.o ABSOLUTE
    ../clib/angel/startup.s                  0x00000000   Number         0  __main.o ABSOLUTE
    ../clib/angel/sys.s                      0x00000000   Number         0  indicate_semi.o ABSOLUTE
    ../clib/angel/sys.s                      0x00000000   Number         0  use_no_semi_2.o ABSOLUTE
    ../clib/angel/sys.s                      0x00000000   Number         0  tempstk.o ABSOLUTE
    ../clib/angel/sys.s                      0x00000000   Number         0  libspace.o ABSOLUTE
    ../clib/angel/sys.s                      0x00000000   Number         0  sys_stackheap_outer.o ABSOLUTE
    ../clib/angel/sys.s                      0x00000000   Number         0  use_no_semi.o ABSOLUTE
    ../clib/angel/sysapp.c                   0x00000000   Number         0  sys_command.o ABSOLUTE
    ../clib/angel/sysapp.c                   0x00000000   Number         0  sys_wrch.o ABSOLUTE
    ../clib/armsys.c                         0x00000000   Number         0  argv_veneer.o ABSOLUTE
    ../clib/armsys.c                         0x00000000   Number         0  no_argv.o ABSOLUTE
    ../clib/armsys.c                         0x00000000   Number         0  _get_argv_nomalloc.o ABSOLUTE
    ../clib/division.c                       0x00000000   Number         0  rtudiv10.o ABSOLUTE
    ../clib/division.s                       0x00000000   Number         0  aeabi_sdiv_div0.o ABSOLUTE
    ../clib/division.s                       0x00000000   Number         0  aeabi_sdiv.o ABSOLUTE
    ../clib/heapalloc.c                      0x00000000   Number         0  hrguard.o ABSOLUTE
    ../clib/heapaux.c                        0x00000000   Number         0  heapauxi.o ABSOLUTE
    ../clib/libinit.s                        0x00000000   Number         0  libshutdown2.o ABSOLUTE
    ../clib/libinit.s                        0x00000000   Number         0  libinit2.o ABSOLUTE
    ../clib/libinit.s                        0x00000000   Number         0  libinit.o ABSOLUTE
    ../clib/libinit.s                        0x00000000   Number         0  libshutdown.o ABSOLUTE
    ../clib/memcpset.c                       0x00000000   Number         0  aeabi_memset.o ABSOLUTE
    ../clib/memcpset.c                       0x00000000   Number         0  rt_memcpy.o ABSOLUTE
    ../clib/memcpset.c                       0x00000000   Number         0  rt_memclr.o ABSOLUTE
    ../clib/memcpset.c                       0x00000000   Number         0  rt_memcpy.o ABSOLUTE
    ../clib/misc.s                           0x00000000   Number         0  printf_stubs.o ABSOLUTE
    ../clib/printf.c                         0x00000000   Number         0  __printf_flags_wp.o ABSOLUTE
    ../clib/printf.c                         0x00000000   Number         0  __printf_ss_wp.o ABSOLUTE
    ../clib/printf.c                         0x00000000   Number         0  _printf_pad.o ABSOLUTE
    ../clib/printf.c                         0x00000000   Number         0  _printf_hex_int_ll.o ABSOLUTE
    ../clib/printf.c                         0x00000000   Number         0  __printf_flags_ss_wp.o ABSOLUTE
    ../clib/printf.c                         0x00000000   Number         0  _printf_hex_ll.o ABSOLUTE
    ../clib/printf.c                         0x00000000   Number         0  __printf.o ABSOLUTE
    ../clib/printf.c                         0x00000000   Number         0  _printf_hex_ptr.o ABSOLUTE
    ../clib/printf.c                         0x00000000   Number         0  _printf_hex_ll_ptr.o ABSOLUTE
    ../clib/printf.c                         0x00000000   Number         0  _printf_hex_int_ll_ptr.o ABSOLUTE
    ../clib/printf.c                         0x00000000   Number         0  _printf_hex_int_ptr.o ABSOLUTE
    ../clib/printf.c                         0x00000000   Number         0  __2printf.o ABSOLUTE
    ../clib/printf.c                         0x00000000   Number         0  __printf_nopercent.o ABSOLUTE
    ../clib/printf.c                         0x00000000   Number         0  _printf_hex_int.o ABSOLUTE
    ../clib/printf.c                         0x00000000   Number         0  __printf_flags.o ABSOLUTE
    ../clib/printf.c                         0x00000000   Number         0  noretval__2printf.o ABSOLUTE
    ../clib/printf.c                         0x00000000   Number         0  _printf_char_file.o ABSOLUTE
    ../clib/printf.c                         0x00000000   Number         0  _printf_char_common.o ABSOLUTE
    ../clib/printf.c                         0x00000000   Number         0  _printf_dec.o ABSOLUTE
    ../clib/printf.c                         0x00000000   Number         0  _printf_str.o ABSOLUTE
    ../clib/printf.c                         0x00000000   Number         0  __printf_ss.o ABSOLUTE
    ../clib/printf.c                         0x00000000   Number         0  __printf_flags_ss.o ABSOLUTE
    ../clib/printf.c                         0x00000000   Number         0  __printf_wp.o ABSOLUTE
    ../clib/printf.c                         0x00000000   Number         0  _printf_intcommon.o ABSOLUTE
    ../clib/printf.c                         0x00000000   Number         0  _printf_char.o ABSOLUTE
    ../clib/printf_percent.s                 0x00000000   Number         0  _printf_s.o ABSOLUTE
    ../clib/printf_percent.s                 0x00000000   Number         0  _printf_x.o ABSOLUTE
    ../clib/printf_percent.s                 0x00000000   Number         0  _printf_c.o ABSOLUTE
    ../clib/printf_percent.s                 0x00000000   Number         0  _printf_d.o ABSOLUTE
    ../clib/printf_percent.s                 0x00000000   Number         0  _printf_percent.o ABSOLUTE
    ../clib/printf_percent.s                 0x00000000   Number         0  _printf_percent_end.o ABSOLUTE
    ../clib/signal.c                         0x00000000   Number         0  defsig_general.o ABSOLUTE
    ../clib/signal.c                         0x00000000   Number         0  __raise.o ABSOLUTE
    ../clib/signal.c                         0x00000000   Number         0  defsig_rtred_inner.o ABSOLUTE
    ../clib/signal.c                         0x00000000   Number         0  defsig_pvfn_inner.o ABSOLUTE
    ../clib/signal.c                         0x00000000   Number         0  defsig_cppl_inner.o ABSOLUTE
    ../clib/signal.c                         0x00000000   Number         0  defsig_segv_inner.o ABSOLUTE
    ../clib/signal.c                         0x00000000   Number         0  defsig_other.o ABSOLUTE
    ../clib/signal.c                         0x00000000   Number         0  defsig_rtmem_formal.o ABSOLUTE
    ../clib/signal.c                         0x00000000   Number         0  defsig_fpe_outer.o ABSOLUTE
    ../clib/signal.c                         0x00000000   Number         0  defsig_fpe_formal.o ABSOLUTE
    ../clib/signal.c                         0x00000000   Number         0  defsig_fpe_inner.o ABSOLUTE
    ../clib/signal.c                         0x00000000   Number         0  defsig_stak_inner.o ABSOLUTE
    ../clib/signal.c                         0x00000000   Number         0  defsig_rtmem_inner.o ABSOLUTE
    ../clib/signal.c                         0x00000000   Number         0  defsig_rtmem_outer.o ABSOLUTE
    ../clib/signal.c                         0x00000000   Number         0  defsig_exit.o ABSOLUTE
    ../clib/signal.c                         0x00000000   Number         0  defsig_abrt_inner.o ABSOLUTE
    ../clib/signal.s                         0x00000000   Number         0  defsig.o ABSOLUTE
    ../clib/stdlib.c                         0x00000000   Number         0  rand.o ABSOLUTE
    ../clib/stdlib.c                         0x00000000   Number         0  rand.o ABSOLUTE
    ../clib/stdlib.c                         0x00000000   Number         0  exit.o ABSOLUTE
    ../clib/string.c                         0x00000000   Number         0  memcmp.o ABSOLUTE
    ../fplib/cfplib/cmpret.c                 0x00000000   Number         0  cmpret.o ABSOLUTE
    ../fplib/cfplib/d2f.c                    0x00000000   Number         0  d2f.o ABSOLUTE
    ../fplib/cfplib/ddiv.c                   0x00000000   Number         0  ddiv.o ABSOLUTE
    ../fplib/cfplib/f2d.c                    0x00000000   Number         0  f2d.o ABSOLUTE
    ../fplib/cfplib/fcmpin.c                 0x00000000   Number         0  fcmpin.o ABSOLUTE
    ../fplib/cfplib/fdiv.c                   0x00000000   Number         0  fdiv.o ABSOLUTE
    ../fplib/cfplib/ffix.c                   0x00000000   Number         0  ffixui.o ABSOLUTE
    ../fplib/cfplib/fflt.c                   0x00000000   Number         0  fflti.o ABSOLUTE
    ../fplib/cfplib/fpinit.c                 0x00000000   Number         0  fpinit.o ABSOLUTE
    ../fplib/cfplib/nan2.c                   0x00000000   Number         0  fnan2.o ABSOLUTE
    ../fplib/cfplib/retnan.c                 0x00000000   Number         0  retnan.o ABSOLUTE
    ../fplib/faddsub6m.s                     0x00000000   Number         0  faddsub.o ABSOLUTE
    ../fplib/fmul6m.s                        0x00000000   Number         0  fmul.o ABSOLUTE
    ../fplib/frleqf6m.s                      0x00000000   Number         0  frlef.o ABSOLUTE
    ../fplib/usenofp.s                       0x00000000   Number         0  usenofp.o ABSOLUTE
    app\\app.c                               0x00000000   Number         0  app.o ABSOLUTE
    app\app.c                                0x00000000   Number         0  app.o ABSOLUTE
    dc.s                                     0x00000000   Number         0  dc.o ABSOLUTE
    hal\\hal.c                               0x00000000   Number         0  hal.o ABSOLUTE
    hal\\hal_adc.c                           0x00000000   Number         0  hal_adc.o ABSOLUTE
    hal\\hal_aes.c                           0x00000000   Number         0  hal_aes.o ABSOLUTE
    hal\\hal_clock.c                         0x00000000   Number         0  hal_clock.o ABSOLUTE
    hal\\hal_flash.c                         0x00000000   Number         0  hal_flash.o ABSOLUTE
    hal\\hal_led.c                           0x00000000   Number         0  hal_led.o ABSOLUTE
    hal\\hal_rnd.c                           0x00000000   Number         0  hal_rnd.o ABSOLUTE
    hal\\hal_sleep.c                         0x00000000   Number         0  hal_sleep.o ABSOLUTE
    hal\\hal_timer.c                         0x00000000   Number         0  hal_timer.o ABSOLUTE
    hal\\hal_uart.c                          0x00000000   Number         0  hal_uart.o ABSOLUTE
    hal\\hal_wait.c                          0x00000000   Number         0  hal_wait.o ABSOLUTE
    hal\\hal_wdt.c                           0x00000000   Number         0  hal_wdt.o ABSOLUTE
    hal\hal.c                                0x00000000   Number         0  hal.o ABSOLUTE
    hal\hal_adc.c                            0x00000000   Number         0  hal_adc.o ABSOLUTE
    hal\hal_aes.c                            0x00000000   Number         0  hal_aes.o ABSOLUTE
    hal\hal_clock.c                          0x00000000   Number         0  hal_clock.o ABSOLUTE
    hal\hal_flash.c                          0x00000000   Number         0  hal_flash.o ABSOLUTE
    hal\hal_led.c                            0x00000000   Number         0  hal_led.o ABSOLUTE
    hal\hal_rnd.c                            0x00000000   Number         0  hal_rnd.o ABSOLUTE
    hal\hal_sleep.c                          0x00000000   Number         0  hal_sleep.o ABSOLUTE
    hal\hal_timer.c                          0x00000000   Number         0  hal_timer.o ABSOLUTE
    hal\hal_uart.c                           0x00000000   Number         0  hal_uart.o ABSOLUTE
    hal\hal_wait.c                           0x00000000   Number         0  hal_wait.o ABSOLUTE
    hal\hal_wdt.c                            0x00000000   Number         0  hal_wdt.o ABSOLUTE
    lib\CMSIS\Device\ST\STM32F0xx\Source\Templates\arm\startup_stm32f030.s 0x00000000   Number         0  startup_stm32f030.o ABSOLUTE
    lib\CMSIS\Device\ST\STM32F0xx\Source\Templates\system_stm32f0xx.c 0x00000000   Number         0  system_stm32f0xx.o ABSOLUTE
    lib\STM32F0xx_StdPeriph_Driver\src\stm32f0xx_adc.c 0x00000000   Number         0  stm32f0xx_adc.o ABSOLUTE
    lib\STM32F0xx_StdPeriph_Driver\src\stm32f0xx_can.c 0x00000000   Number         0  stm32f0xx_can.o ABSOLUTE
    lib\STM32F0xx_StdPeriph_Driver\src\stm32f0xx_cec.c 0x00000000   Number         0  stm32f0xx_cec.o ABSOLUTE
    lib\STM32F0xx_StdPeriph_Driver\src\stm32f0xx_comp.c 0x00000000   Number         0  stm32f0xx_comp.o ABSOLUTE
    lib\STM32F0xx_StdPeriph_Driver\src\stm32f0xx_crc.c 0x00000000   Number         0  stm32f0xx_crc.o ABSOLUTE
    lib\STM32F0xx_StdPeriph_Driver\src\stm32f0xx_crs.c 0x00000000   Number         0  stm32f0xx_crs.o ABSOLUTE
    lib\STM32F0xx_StdPeriph_Driver\src\stm32f0xx_dac.c 0x00000000   Number         0  stm32f0xx_dac.o ABSOLUTE
    lib\STM32F0xx_StdPeriph_Driver\src\stm32f0xx_dbgmcu.c 0x00000000   Number         0  stm32f0xx_dbgmcu.o ABSOLUTE
    lib\STM32F0xx_StdPeriph_Driver\src\stm32f0xx_dma.c 0x00000000   Number         0  stm32f0xx_dma.o ABSOLUTE
    lib\STM32F0xx_StdPeriph_Driver\src\stm32f0xx_exti.c 0x00000000   Number         0  stm32f0xx_exti.o ABSOLUTE
    lib\STM32F0xx_StdPeriph_Driver\src\stm32f0xx_flash.c 0x00000000   Number         0  stm32f0xx_flash.o ABSOLUTE
    lib\STM32F0xx_StdPeriph_Driver\src\stm32f0xx_gpio.c 0x00000000   Number         0  stm32f0xx_gpio.o ABSOLUTE
    lib\STM32F0xx_StdPeriph_Driver\src\stm32f0xx_i2c.c 0x00000000   Number         0  stm32f0xx_i2c.o ABSOLUTE
    lib\STM32F0xx_StdPeriph_Driver\src\stm32f0xx_iwdg.c 0x00000000   Number         0  stm32f0xx_iwdg.o ABSOLUTE
    lib\STM32F0xx_StdPeriph_Driver\src\stm32f0xx_misc.c 0x00000000   Number         0  stm32f0xx_misc.o ABSOLUTE
    lib\STM32F0xx_StdPeriph_Driver\src\stm32f0xx_pwr.c 0x00000000   Number         0  stm32f0xx_pwr.o ABSOLUTE
    lib\STM32F0xx_StdPeriph_Driver\src\stm32f0xx_rcc.c 0x00000000   Number         0  stm32f0xx_rcc.o ABSOLUTE
    lib\STM32F0xx_StdPeriph_Driver\src\stm32f0xx_rtc.c 0x00000000   Number         0  stm32f0xx_rtc.o ABSOLUTE
    lib\STM32F0xx_StdPeriph_Driver\src\stm32f0xx_spi.c 0x00000000   Number         0  stm32f0xx_spi.o ABSOLUTE
    lib\STM32F0xx_StdPeriph_Driver\src\stm32f0xx_syscfg.c 0x00000000   Number         0  stm32f0xx_syscfg.o ABSOLUTE
    lib\STM32F0xx_StdPeriph_Driver\src\stm32f0xx_tim.c 0x00000000   Number         0  stm32f0xx_tim.o ABSOLUTE
    lib\STM32F0xx_StdPeriph_Driver\src\stm32f0xx_usart.c 0x00000000   Number         0  stm32f0xx_usart.o ABSOLUTE
    lib\STM32F0xx_StdPeriph_Driver\src\stm32f0xx_wwdg.c 0x00000000   Number         0  stm32f0xx_wwdg.o ABSOLUTE
    lib\\CMSIS\\Device\\ST\\STM32F0xx\\Source\\Templates\\system_stm32f0xx.c 0x00000000   Number         0  system_stm32f0xx.o ABSOLUTE
    lib\\STM32F0xx_StdPeriph_Driver\\src\\stm32f0xx_adc.c 0x00000000   Number         0  stm32f0xx_adc.o ABSOLUTE
    lib\\STM32F0xx_StdPeriph_Driver\\src\\stm32f0xx_can.c 0x00000000   Number         0  stm32f0xx_can.o ABSOLUTE
    lib\\STM32F0xx_StdPeriph_Driver\\src\\stm32f0xx_cec.c 0x00000000   Number         0  stm32f0xx_cec.o ABSOLUTE
    lib\\STM32F0xx_StdPeriph_Driver\\src\\stm32f0xx_comp.c 0x00000000   Number         0  stm32f0xx_comp.o ABSOLUTE
    lib\\STM32F0xx_StdPeriph_Driver\\src\\stm32f0xx_crc.c 0x00000000   Number         0  stm32f0xx_crc.o ABSOLUTE
    lib\\STM32F0xx_StdPeriph_Driver\\src\\stm32f0xx_crs.c 0x00000000   Number         0  stm32f0xx_crs.o ABSOLUTE
    lib\\STM32F0xx_StdPeriph_Driver\\src\\stm32f0xx_dac.c 0x00000000   Number         0  stm32f0xx_dac.o ABSOLUTE
    lib\\STM32F0xx_StdPeriph_Driver\\src\\stm32f0xx_dbgmcu.c 0x00000000   Number         0  stm32f0xx_dbgmcu.o ABSOLUTE
    lib\\STM32F0xx_StdPeriph_Driver\\src\\stm32f0xx_dma.c 0x00000000   Number         0  stm32f0xx_dma.o ABSOLUTE
    lib\\STM32F0xx_StdPeriph_Driver\\src\\stm32f0xx_exti.c 0x00000000   Number         0  stm32f0xx_exti.o ABSOLUTE
    lib\\STM32F0xx_StdPeriph_Driver\\src\\stm32f0xx_flash.c 0x00000000   Number         0  stm32f0xx_flash.o ABSOLUTE
    lib\\STM32F0xx_StdPeriph_Driver\\src\\stm32f0xx_gpio.c 0x00000000   Number         0  stm32f0xx_gpio.o ABSOLUTE
    lib\\STM32F0xx_StdPeriph_Driver\\src\\stm32f0xx_i2c.c 0x00000000   Number         0  stm32f0xx_i2c.o ABSOLUTE
    lib\\STM32F0xx_StdPeriph_Driver\\src\\stm32f0xx_iwdg.c 0x00000000   Number         0  stm32f0xx_iwdg.o ABSOLUTE
    lib\\STM32F0xx_StdPeriph_Driver\\src\\stm32f0xx_misc.c 0x00000000   Number         0  stm32f0xx_misc.o ABSOLUTE
    lib\\STM32F0xx_StdPeriph_Driver\\src\\stm32f0xx_pwr.c 0x00000000   Number         0  stm32f0xx_pwr.o ABSOLUTE
    lib\\STM32F0xx_StdPeriph_Driver\\src\\stm32f0xx_rcc.c 0x00000000   Number         0  stm32f0xx_rcc.o ABSOLUTE
    lib\\STM32F0xx_StdPeriph_Driver\\src\\stm32f0xx_rtc.c 0x00000000   Number         0  stm32f0xx_rtc.o ABSOLUTE
    lib\\STM32F0xx_StdPeriph_Driver\\src\\stm32f0xx_spi.c 0x00000000   Number         0  stm32f0xx_spi.o ABSOLUTE
    lib\\STM32F0xx_StdPeriph_Driver\\src\\stm32f0xx_syscfg.c 0x00000000   Number         0  stm32f0xx_syscfg.o ABSOLUTE
    lib\\STM32F0xx_StdPeriph_Driver\\src\\stm32f0xx_tim.c 0x00000000   Number         0  stm32f0xx_tim.o ABSOLUTE
    lib\\STM32F0xx_StdPeriph_Driver\\src\\stm32f0xx_usart.c 0x00000000   Number         0  stm32f0xx_usart.o ABSOLUTE
    lib\\STM32F0xx_StdPeriph_Driver\\src\\stm32f0xx_wwdg.c 0x00000000   Number         0  stm32f0xx_wwdg.o ABSOLUTE
    libiar\mlist.c                           0x00000000   Number         0  mlist.o ABSOLUTE
    libiar\mqueue.c                          0x00000000   Number         0  mqueue.o ABSOLUTE
    net\\ctrl.c                              0x00000000   Number         0  ctrl.o ABSOLUTE
    net\\link.c                              0x00000000   Number         0  link.o ABSOLUTE
    net\\net.c                               0x00000000   Number         0  net.o ABSOLUTE
    net\\nwk.c                               0x00000000   Number         0  nwk.o ABSOLUTE
    net\\phy.c                               0x00000000   Number         0  phy.o ABSOLUTE
    net\ctrl.c                               0x00000000   Number         0  ctrl.o ABSOLUTE
    net\link.c                               0x00000000   Number         0  link.o ABSOLUTE
    net\net.c                                0x00000000   Number         0  net.o ABSOLUTE
    net\nwk.c                                0x00000000   Number         0  nwk.o ABSOLUTE
    net\phy.c                                0x00000000   Number         0  phy.o ABSOLUTE
    os\\os.c                                 0x00000000   Number         0  os.o ABSOLUTE
    os\\os_timer.c                           0x00000000   Number         0  os_timer.o ABSOLUTE
    os\os.c                                  0x00000000   Number         0  os.o ABSOLUTE
    os\os_timer.c                            0x00000000   Number         0  os_timer.o ABSOLUTE
    os\stm32f0xx_it.c                        0x00000000   Number         0  stm32f0xx_it.o ABSOLUTE
    sub_module\\button.c                     0x00000000   Number         0  button.o ABSOLUTE
    sub_module\\device.c                     0x00000000   Number         0  device.o ABSOLUTE
    sub_module\\devices\\att7053_collect.c   0x00000000   Number         0  att7053_collect.o ABSOLUTE
    sub_module\\devices\\bodysensor0.c       0x00000000   Number         0  bodysensor0.o ABSOLUTE
    sub_module\\devices\\bs102.c             0x00000000   Number         0  bs102.o ABSOLUTE
    sub_module\\devices\\colorlight.c        0x00000000   Number         0  colorlight.o ABSOLUTE
    sub_module\\devices\\curtaincontrol.c    0x00000000   Number         0  curtaincontrol.o ABSOLUTE
    sub_module\\devices\\h_t_collect.c       0x00000000   Number         0  h_t_collect.o ABSOLUTE
    sub_module\\devices\\i2c_eeprom.c        0x00000000   Number         0  i2c_eeprom.o ABSOLUTE
    sub_module\\devices\\lightcontrol.c      0x00000000   Number         0  lightcontrol.o ABSOLUTE
    sub_module\\devices\\simple_sensor.c     0x00000000   Number         0  simple_sensor.o ABSOLUTE
    sub_module\\devices\\socket.c            0x00000000   Number         0  socket.o ABSOLUTE
    sub_module\\devices\\socket_tmp.c        0x00000000   Number         0  socket_tmp.o ABSOLUTE
    sub_module\\devices\\switch.c            0x00000000   Number         0  switch.o ABSOLUTE
    sub_module\\devices\\testdev.c           0x00000000   Number         0  testdev.o ABSOLUTE
    sub_module\\devices\\windowmagnet0.c     0x00000000   Number         0  windowmagnet0.o ABSOLUTE
    sub_module\\devices\\windowpusher.c      0x00000000   Number         0  windowpusher.o ABSOLUTE
    sub_module\\devices\\wm102.c             0x00000000   Number         0  wm102.o ABSOLUTE
    sub_module\\sub_module.c                 0x00000000   Number         0  sub_module.o ABSOLUTE
    sub_module\button.c                      0x00000000   Number         0  button.o ABSOLUTE
    sub_module\device.c                      0x00000000   Number         0  device.o ABSOLUTE
    sub_module\devices\att7053_collect.c     0x00000000   Number         0  att7053_collect.o ABSOLUTE
    sub_module\devices\bodysensor0.c         0x00000000   Number         0  bodysensor0.o ABSOLUTE
    sub_module\devices\bs102.c               0x00000000   Number         0  bs102.o ABSOLUTE
    sub_module\devices\colorlight.c          0x00000000   Number         0  colorlight.o ABSOLUTE
    sub_module\devices\curtaincontrol.c      0x00000000   Number         0  curtaincontrol.o ABSOLUTE
    sub_module\devices\h_t_collect.c         0x00000000   Number         0  h_t_collect.o ABSOLUTE
    sub_module\devices\i2c_eeprom.c          0x00000000   Number         0  i2c_eeprom.o ABSOLUTE
    sub_module\devices\lightcontrol.c        0x00000000   Number         0  lightcontrol.o ABSOLUTE
    sub_module\devices\simple_sensor.c       0x00000000   Number         0  simple_sensor.o ABSOLUTE
    sub_module\devices\socket.c              0x00000000   Number         0  socket.o ABSOLUTE
    sub_module\devices\socket_tmp.c          0x00000000   Number         0  socket_tmp.o ABSOLUTE
    sub_module\devices\switch.c              0x00000000   Number         0  switch.o ABSOLUTE
    sub_module\devices\testdev.c             0x00000000   Number         0  testdev.o ABSOLUTE
    sub_module\devices\windowmagnet0.c       0x00000000   Number         0  windowmagnet0.o ABSOLUTE
    sub_module\devices\windowpusher.c        0x00000000   Number         0  windowpusher.o ABSOLUTE
    sub_module\devices\wm102.c               0x00000000   Number         0  wm102.o ABSOLUTE
    sub_module\sub_module.c                  0x00000000   Number         0  sub_module.o ABSOLUTE
    RESET                                    0x08000000   Section      180  startup_stm32f030.o(RESET)
    !!!main                                  0x080000b4   Section        8  __main.o(!!!main)
    !!!scatter                               0x080000bc   Section       60  __scatter.o(!!!scatter)
    !!handler_copy                           0x080000f8   Section       26  __scatter_copy.o(!!handler_copy)
    !!handler_zi                             0x08000114   Section       28  __scatter_zi.o(!!handler_zi)
    .ARM.Collect$$_printf_percent$$00000000  0x08000130   Section        2  _printf_percent.o(.ARM.Collect$$_printf_percent$$00000000)
    .ARM.Collect$$_printf_percent$$00000009  0x08000132   Section       10  _printf_d.o(.ARM.Collect$$_printf_percent$$00000009)
    .ARM.Collect$$_printf_percent$$0000000C  0x0800013c   Section       10  _printf_x.o(.ARM.Collect$$_printf_percent$$0000000C)
    .ARM.Collect$$_printf_percent$$00000013  0x08000146   Section       10  _printf_c.o(.ARM.Collect$$_printf_percent$$00000013)
    .ARM.Collect$$_printf_percent$$00000014  0x08000150   Section       10  _printf_s.o(.ARM.Collect$$_printf_percent$$00000014)
    .ARM.Collect$$_printf_percent$$00000017  0x0800015a   Section        4  _printf_percent_end.o(.ARM.Collect$$_printf_percent$$00000017)
    .ARM.Collect$$libinit$$00000000          0x0800015e   Section        2  libinit.o(.ARM.Collect$$libinit$$00000000)
    .ARM.Collect$$libinit$$00000002          0x08000160   Section        0  libinit2.o(.ARM.Collect$$libinit$$00000002)
    .ARM.Collect$$libinit$$00000004          0x08000160   Section        0  libinit2.o(.ARM.Collect$$libinit$$00000004)
    .ARM.Collect$$libinit$$0000000A          0x08000160   Section        0  libinit2.o(.ARM.Collect$$libinit$$0000000A)
    .ARM.Collect$$libinit$$0000000C          0x08000160   Section        0  libinit2.o(.ARM.Collect$$libinit$$0000000C)
    .ARM.Collect$$libinit$$0000000D          0x08000160   Section        4  libinit2.o(.ARM.Collect$$libinit$$0000000D)
    .ARM.Collect$$libinit$$0000000E          0x08000164   Section        0  libinit2.o(.ARM.Collect$$libinit$$0000000E)
    .ARM.Collect$$libinit$$00000011          0x08000164   Section        0  libinit2.o(.ARM.Collect$$libinit$$00000011)
    .ARM.Collect$$libinit$$00000013          0x08000164   Section        0  libinit2.o(.ARM.Collect$$libinit$$00000013)
    .ARM.Collect$$libinit$$00000015          0x08000164   Section        0  libinit2.o(.ARM.Collect$$libinit$$00000015)
    .ARM.Collect$$libinit$$00000017          0x08000164   Section        0  libinit2.o(.ARM.Collect$$libinit$$00000017)
    .ARM.Collect$$libinit$$00000019          0x08000164   Section        0  libinit2.o(.ARM.Collect$$libinit$$00000019)
    .ARM.Collect$$libinit$$0000001B          0x08000164   Section        0  libinit2.o(.ARM.Collect$$libinit$$0000001B)
    .ARM.Collect$$libinit$$0000001D          0x08000164   Section        0  libinit2.o(.ARM.Collect$$libinit$$0000001D)
    .ARM.Collect$$libinit$$0000001F          0x08000164   Section        0  libinit2.o(.ARM.Collect$$libinit$$0000001F)
    .ARM.Collect$$libinit$$00000021          0x08000164   Section        0  libinit2.o(.ARM.Collect$$libinit$$00000021)
    .ARM.Collect$$libinit$$00000023          0x08000164   Section        0  libinit2.o(.ARM.Collect$$libinit$$00000023)
    .ARM.Collect$$libinit$$00000025          0x08000164   Section        0  libinit2.o(.ARM.Collect$$libinit$$00000025)
    .ARM.Collect$$libinit$$0000002C          0x08000164   Section        0  libinit2.o(.ARM.Collect$$libinit$$0000002C)
    .ARM.Collect$$libinit$$0000002E          0x08000164   Section        0  libinit2.o(.ARM.Collect$$libinit$$0000002E)
    .ARM.Collect$$libinit$$00000030          0x08000164   Section        0  libinit2.o(.ARM.Collect$$libinit$$00000030)
    .ARM.Collect$$libinit$$00000032          0x08000164   Section        0  libinit2.o(.ARM.Collect$$libinit$$00000032)
    .ARM.Collect$$libinit$$00000033          0x08000164   Section        2  libinit2.o(.ARM.Collect$$libinit$$00000033)
    .ARM.Collect$$libshutdown$$00000000      0x08000166   Section        2  libshutdown.o(.ARM.Collect$$libshutdown$$00000000)
    .ARM.Collect$$libshutdown$$00000002      0x08000168   Section        0  libshutdown2.o(.ARM.Collect$$libshutdown$$00000002)
    .ARM.Collect$$libshutdown$$00000004      0x08000168   Section        0  libshutdown2.o(.ARM.Collect$$libshutdown$$00000004)
    .ARM.Collect$$libshutdown$$00000007      0x08000168   Section        0  libshutdown2.o(.ARM.Collect$$libshutdown$$00000007)
    .ARM.Collect$$libshutdown$$0000000A      0x08000168   Section        0  libshutdown2.o(.ARM.Collect$$libshutdown$$0000000A)
    .ARM.Collect$$libshutdown$$0000000C      0x08000168   Section        0  libshutdown2.o(.ARM.Collect$$libshutdown$$0000000C)
    .ARM.Collect$$libshutdown$$0000000F      0x08000168   Section        0  libshutdown2.o(.ARM.Collect$$libshutdown$$0000000F)
    .ARM.Collect$$libshutdown$$00000010      0x08000168   Section        2  libshutdown2.o(.ARM.Collect$$libshutdown$$00000010)
    .ARM.Collect$$rtentry$$00000000          0x0800016a   Section        0  __rtentry.o(.ARM.Collect$$rtentry$$00000000)
    .ARM.Collect$$rtentry$$00000002          0x0800016a   Section        0  __rtentry2.o(.ARM.Collect$$rtentry$$00000002)
    .ARM.Collect$$rtentry$$00000004          0x0800016a   Section        6  __rtentry4.o(.ARM.Collect$$rtentry$$00000004)
    .ARM.Collect$$rtentry$$00000009          0x08000170   Section        0  __rtentry2.o(.ARM.Collect$$rtentry$$00000009)
    .ARM.Collect$$rtentry$$0000000A          0x08000170   Section        4  __rtentry2.o(.ARM.Collect$$rtentry$$0000000A)
    .ARM.Collect$$rtentry$$0000000C          0x08000174   Section        0  __rtentry2.o(.ARM.Collect$$rtentry$$0000000C)
    .ARM.Collect$$rtentry$$0000000D          0x08000174   Section        8  __rtentry2.o(.ARM.Collect$$rtentry$$0000000D)
    .ARM.Collect$$rtexit$$00000000           0x0800017c   Section        2  rtexit.o(.ARM.Collect$$rtexit$$00000000)
    .ARM.Collect$$rtexit$$00000002           0x0800017e   Section        0  rtexit2.o(.ARM.Collect$$rtexit$$00000002)
    .ARM.Collect$$rtexit$$00000003           0x0800017e   Section        4  rtexit2.o(.ARM.Collect$$rtexit$$00000003)
    .ARM.Collect$$rtexit$$00000004           0x08000182   Section        6  rtexit2.o(.ARM.Collect$$rtexit$$00000004)
    .emb_text                                0x08000188   Section       56  rand.o(.emb_text)
    .emb_text                                0x080001c0   Section       56  rt_memcpy.o(.emb_text)
    .text                                    0x080001f8   Section      116  startup_stm32f030.o(.text)
    .text                                    0x0800026c   Section        0  system_stm32f0xx.o(.text)
    SetSysClockHSI                           0x0800026d   Thumb Code   200  system_stm32f0xx.o(.text)
    .text                                    0x0800045c   Section        0  app.o(.text)
    .text                                    0x0800057c   Section        0  hal.o(.text)
    .text                                    0x080005fc   Section        0  hal_adc.o(.text)
    .text                                    0x080006f0   Section        0  hal_aes.o(.text)
    getSBoxValue                             0x080006f1   Thumb Code     8  hal_aes.o(.text)
    getSBoxInvert                            0x080006f9   Thumb Code     8  hal_aes.o(.text)
    KeyExpansion                             0x08000701   Thumb Code   280  hal_aes.o(.text)
    AddRoundKey                              0x08000819   Thumb Code    58  hal_aes.o(.text)
    SubBytes                                 0x08000853   Thumb Code    48  hal_aes.o(.text)
    ShiftRows                                0x08000883   Thumb Code    64  hal_aes.o(.text)
    xtime                                    0x080008c3   Thumb Code    18  hal_aes.o(.text)
    MixColumns                               0x080008d5   Thumb Code   192  hal_aes.o(.text)
    InvMixColumns                            0x08000995   Thumb Code  1190  hal_aes.o(.text)
    InvSubBytes                              0x08000e3b   Thumb Code    52  hal_aes.o(.text)
    InvShiftRows                             0x08000e6f   Thumb Code    66  hal_aes.o(.text)
    Cipher                                   0x08000eb1   Thumb Code   144  hal_aes.o(.text)
    InvCipher                                0x08000f41   Thumb Code   144  hal_aes.o(.text)
    setKey                                   0x08000fd1   Thumb Code    32  hal_aes.o(.text)
    AES128_ECB_encrypt                       0x08000ff1   Thumb Code    20  hal_aes.o(.text)
    AES128_ECB_decrypt                       0x08001005   Thumb Code    20  hal_aes.o(.text)
    numToBigEndian                           0x08001019   Thumb Code    76  hal_aes.o(.text)
    .text                                    0x0800118c   Section        0  hal_flash.o(.text)
    .text                                    0x08001260   Section        0  hal_led.o(.text)
    .text                                    0x0800131c   Section        0  hal_rnd.o(.text)
    .text                                    0x08001378   Section        0  hal_sleep.o(.text)
    _set_sleep_timer                         0x08001379   Thumb Code     2  hal_sleep.o(.text)
    _set_rc_clock                            0x0800137b   Thumb Code     2  hal_sleep.o(.text)
    .text                                    0x08001768   Section        0  hal_timer.o(.text)
    .text                                    0x080017e0   Section        0  hal_uart.o(.text)
    .text                                    0x08001900   Section        0  hal_wait.o(.text)
    .text                                    0x08001a0c   Section        0  hal_wdt.o(.text)
    .text                                    0x08001a4c   Section        0  ctrl.o(.text)
    _ctrl_upgrade_deal                       0x08001a81   Thumb Code     2  ctrl.o(.text)
    .text                                    0x08001aa0   Section        0  link.o(.text)
    _response_link                           0x08001aa1   Thumb Code    38  link.o(.text)
    _link_response_deal                      0x08001ac7   Thumb Code    52  link.o(.text)
    .text                                    0x08001d40   Section        0  net.o(.text)
    .text                                    0x08001d5c   Section        0  nwk.o(.text)
    _recv_list_del                           0x08001dd1   Thumb Code    26  nwk.o(.text)
    _subcache_list_find                      0x08001deb   Thumb Code    22  nwk.o(.text)
    _addto_subcache                          0x08001e01   Thumb Code   146  nwk.o(.text)
    _relay_the_frame                         0x080021fb   Thumb Code   116  nwk.o(.text)
    _subcache_list_foreach                   0x080024e1   Thumb Code    40  nwk.o(.text)
    _recv_list_foreach                       0x08002509   Thumb Code    60  nwk.o(.text)
    .text                                    0x0800261c   Section        0  phy.o(.text)
    _radio_set_mode                          0x08002795   Thumb Code   142  phy.o(.text)
    .text                                    0x0800338c   Section        0  os.o(.text)
    .text                                    0x080033c4   Section        0  os_timer.o(.text)
    _timer_list_foreach                      0x080033d5   Thumb Code   102  os_timer.o(.text)
    .text                                    0x0800356c   Section        0  button.o(.text)
    .text                                    0x08003660   Section        0  device.o(.text)
    _transmit_data                           0x08003661   Thumb Code    56  device.o(.text)
    .text                                    0x08003948   Section        0  sub_module.o(.text)
    _connect_main_module                     0x08003949   Thumb Code   126  sub_module.o(.text)
    _start_connect_main_module               0x080039c7   Thumb Code    50  sub_module.o(.text)
    _send_heartbeat                          0x080039f9   Thumb Code    14  sub_module.o(.text)
    _connect_success                         0x08003a07   Thumb Code    44  sub_module.o(.text)
    _enter_work                              0x08003a33   Thumb Code    36  sub_module.o(.text)
    _enter_buildnet_led_blink                0x08003a57   Thumb Code   124  sub_module.o(.text)
    _enter_buildnet                          0x08003ad3   Thumb Code    74  sub_module.o(.text)
    NVIC_SystemReset                         0x080042bd   Thumb Code    18  sub_module.o(.text)
    .text                                    0x080043fc   Section        0  socket.o(.text)
    _socket_toggle                           0x080044d5   Thumb Code    26  socket.o(.text)
    eventAtt7053Sync                         0x08004531   Thumb Code   338  socket.o(.text)
    measureThread                            0x08004683   Thumb Code   166  socket.o(.text)
    .text                                    0x08004a44   Section        0  att7053_collect.o(.text)
    HalATT7053RwByte                         0x08004a45   Thumb Code    54  att7053_collect.o(.text)
    HalATT7053WrReg                          0x08004a87   Thumb Code    66  att7053_collect.o(.text)
    HalATT7053ParameterInit                  0x08004b45   Thumb Code   298  att7053_collect.o(.text)
    HalATT7053HwReset                        0x08004c6f   Thumb Code    64  att7053_collect.o(.text)
    HalATT7053SpiInit                        0x08004caf   Thumb Code   278  att7053_collect.o(.text)
    HalATT7053ReInit                         0x08004e19   Thumb Code   140  att7053_collect.o(.text)
    HalATT7053CheckBackupReg                 0x08004ea5   Thumb Code   150  att7053_collect.o(.text)
    HalATT7053RdReg                          0x08004f3b   Thumb Code    74  att7053_collect.o(.text)
    HalATT7053SoftReset                      0x080050b3   Thumb Code    76  att7053_collect.o(.text)
    .text                                    0x08005464   Section        0  stm32f0xx_adc.o(.text)
    .text                                    0x08005750   Section        0  stm32f0xx_exti.o(.text)
    .text                                    0x08005848   Section        0  stm32f0xx_flash.o(.text)
    .text                                    0x08005ef8   Section        0  stm32f0xx_gpio.o(.text)
    .text                                    0x08006104   Section        0  stm32f0xx_iwdg.o(.text)
    .text                                    0x08006150   Section        0  stm32f0xx_misc.o(.text)
    .text                                    0x08006204   Section        0  stm32f0xx_pwr.o(.text)
    .text                                    0x08006354   Section        0  stm32f0xx_rcc.o(.text)
    .text                                    0x08006aa4   Section        0  stm32f0xx_rtc.o(.text)
    RTC_ByteToBcd2                           0x08006cc1   Thumb Code    28  stm32f0xx_rtc.o(.text)
    RTC_Bcd2ToByte                           0x08006cdd   Thumb Code    26  stm32f0xx_rtc.o(.text)
    .text                                    0x080076e4   Section        0  stm32f0xx_spi.o(.text)
    .text                                    0x08007aa0   Section        0  stm32f0xx_syscfg.o(.text)
    .text                                    0x08007bbc   Section        0  stm32f0xx_tim.o(.text)
    TI4_Config                               0x08008325   Thumb Code    66  stm32f0xx_tim.o(.text)
    TI3_Config                               0x08008379   Thumb Code    66  stm32f0xx_tim.o(.text)
    TI2_Config                               0x08008409   Thumb Code    66  stm32f0xx_tim.o(.text)
    TI1_Config                               0x0800845d   Thumb Code    54  stm32f0xx_tim.o(.text)
    .text                                    0x080087bc   Section        0  stm32f0xx_usart.o(.text)
    .text                                    0x08008dce   Section        0  mlist.o(.text)
    .text                                    0x08008f1a   Section        0  mqueue.o(.text)
    .text                                    0x08008fd6   Section        2  use_no_semi_2.o(.text)
    .text                                    0x08008fd8   Section        0  noretval__2printf.o(.text)
    .text                                    0x08008ff4   Section        0  _printf_pad.o(.text)
    .text                                    0x08009042   Section        0  _printf_str.o(.text)
    .text                                    0x08009094   Section        0  _printf_dec.o(.text)
    .text                                    0x08009100   Section        0  _printf_hex_int.o(.text)
    .text                                    0x08009158   Section        0  __printf_flags_wp.o(.text)
    .text                                    0x08009290   Section        0  rand.o(.text)
    .text                                    0x080092cc   Section        0  memcmp.o(.text)
    .text                                    0x08009326   Section        0  rt_memcpy.o(.text)
    .text                                    0x080093a8   Section        0  aeabi_memset.o(.text)
    .text                                    0x080093ba   Section        0  rt_memclr.o(.text)
    .text                                    0x080093fa   Section      346  aeabi_sdiv.o(.text)
    .text                                    0x08009554   Section        0  heapauxi.o(.text)
    .text                                    0x0800955c   Section        0  d2f.o(.text)
    .text                                    0x080095d8   Section        0  ddiv.o(.text)
    .text                                    0x08009a20   Section        0  f2d.o(.text)
    .text                                    0x08009a74   Section        0  fdiv.o(.text)
    .text                                    0x08009bd4   Section        0  ffixui.o(.text)
    .text                                    0x08009c04   Section        0  fflti.o(.text)
    .text                                    0x08009c62   Section        2  use_no_semi.o(.text)
    .text                                    0x08009c64   Section        0  _printf_intcommon.o(.text)
    .text                                    0x08009d14   Section        0  _printf_char.o(.text)
    .text                                    0x08009d44   Section        0  _printf_char_file.o(.text)
    .text                                    0x08009d6c   Section        0  rtudiv10.o(.text)
    .text                                    0x08009d94   Section        0  fcmpin.o(.text)
    .text                                    0x08009df8   Section        0  _printf_char_common.o(.text)
    _printf_input_char                       0x08009df9   Thumb Code    10  _printf_char_common.o(.text)
    .text                                    0x08009e28   Section        0  cmpret.o(.text)
    .text                                    0x08009e58   Section        0  fnan2.o(.text)
    .text                                    0x08009e68   Section       62  sys_stackheap_outer.o(.text)
    .text                                    0x08009ea6   Section        0  exit.o(.text)
    .text                                    0x08009eb6   Section        0  retnan.o(.text)
    .text                                    0x08009f14   Section        8  libspace.o(.text)
    i.__ARM_common_switch8                   0x08009f1c   Section        0  sub_module.o(i.__ARM_common_switch8)
    i._is_digit                              0x08009f38   Section        0  __printf_wp.o(i._is_digit)
    x$fpl$fadd                               0x08009f48   Section      140  faddsub.o(x$fpl$fadd)
    _fadd1                                   0x08009f55   Thumb Code     0  faddsub.o(x$fpl$fadd)
    x$fpl$fmul                               0x08009fd4   Section      176  fmul.o(x$fpl$fmul)
    x$fpl$frleqf                             0x0800a084   Section       88  frlef.o(x$fpl$frleqf)
    x$fpl$fsub                               0x0800a0dc   Section      208  faddsub.o(x$fpl$fsub)
    _fsub1                                   0x0800a0e9   Thumb Code     0  faddsub.o(x$fpl$fsub)
    .constdata                               0x0800a1ac   Section        9  hal.o(.constdata)
    x$fpl$usenofp                            0x0800a1ac   Section        0  usenofp.o(x$fpl$usenofp)
    __FUNCTION__                             0x0800a1ac   Data           9  hal.o(.constdata)
    .constdata                               0x0800a1b5   Section      783  hal_aes.o(.constdata)
    sbox                                     0x0800a1c5   Data         256  hal_aes.o(.constdata)
    rsbox                                    0x0800a2c5   Data         256  hal_aes.o(.constdata)
    Rcon                                     0x0800a3c5   Data         255  hal_aes.o(.constdata)
    .constdata                               0x0800a4c4   Section       14  hal_sleep.o(.constdata)
    __FUNCTION__                             0x0800a4c4   Data          14  hal_sleep.o(.constdata)
    .constdata                               0x0800a4d2   Section       25  phy.o(.constdata)
    __FUNCTION__                             0x0800a4d2   Data           9  phy.o(.constdata)
    __FUNCTION__                             0x0800a4db   Data          16  phy.o(.constdata)
    .constdata                               0x0800a4eb   Section       39  device.o(.constdata)
    __FUNCTION__                             0x0800a4eb   Data          15  device.o(.constdata)
    __FUNCTION__                             0x0800a4fa   Data          12  device.o(.constdata)
    __FUNCTION__                             0x0800a506   Data          12  device.o(.constdata)
    .constdata                               0x0800a512   Section      126  sub_module.o(.constdata)
    __FUNCTION__                             0x0800a512   Data          21  sub_module.o(.constdata)
    __FUNCTION__                             0x0800a527   Data          26  sub_module.o(.constdata)
    __FUNCTION__                             0x0800a541   Data          16  sub_module.o(.constdata)
    __FUNCTION__                             0x0800a551   Data          21  sub_module.o(.constdata)
    __FUNCTION__                             0x0800a566   Data          16  sub_module.o(.constdata)
    __FUNCTION__                             0x0800a576   Data          26  sub_module.o(.constdata)
    .constdata                               0x0800a590   Section       72  socket.o(.constdata)
    __FUNCTION__                             0x0800a590   Data          17  socket.o(.constdata)
    __FUNCTION__                             0x0800a5a1   Data          12  socket.o(.constdata)
    __FUNCTION__                             0x0800a5ad   Data          12  socket.o(.constdata)
    __FUNCTION__                             0x0800a5b9   Data          17  socket.o(.constdata)
    __FUNCTION__                             0x0800a5ca   Data          14  socket.o(.constdata)
    .constdata                               0x0800a5d8   Section     1066  att7053_collect.o(.constdata)
    crc32tab                                 0x0800a5d8   Data        1024  att7053_collect.o(.constdata)
    __FUNCTION__                             0x0800a9d8   Data          18  att7053_collect.o(.constdata)
    __FUNCTION__                             0x0800a9ea   Data          24  att7053_collect.o(.constdata)
    .constdata                               0x0800aa02   Section       40  _printf_hex_int.o(.constdata)
    uc_hextab                                0x0800aa02   Data          20  _printf_hex_int.o(.constdata)
    lc_hextab                                0x0800aa16   Data          20  _printf_hex_int.o(.constdata)
    .constdata                               0x0800aa2a   Section       17  __printf_flags_wp.o(.constdata)
    maptable                                 0x0800aa2a   Data          17  __printf_flags_wp.o(.constdata)
    .constdata                               0x0800aa3b   Section      128  ddiv.o(.constdata)
    ddiv_reciptbl                            0x0800aa3b   Data         128  ddiv.o(.constdata)
    .constdata                               0x0800aabb   Section       64  fdiv.o(.constdata)
    fdiv_tab                                 0x0800aabb   Data          64  fdiv.o(.constdata)
    .conststring                             0x0800aafc   Section       88  att7053_collect.o(.conststring)
    .data                                    0x200000c0   Section       20  system_stm32f0xx.o(.data)
    .data                                    0x200000d4   Section       13  hal_aes.o(.data)
    in                                       0x200000d4   Data           4  hal_aes.o(.data)
    out                                      0x200000d8   Data           4  hal_aes.o(.data)
    Key                                      0x200000dc   Data           4  hal_aes.o(.data)
    isBe                                     0x200000e0   Data           1  hal_aes.o(.data)
    .data                                    0x200000e2   Section        2  hal_rnd.o(.data)
    g_seed                                   0x200000e2   Data           2  hal_rnd.o(.data)
    .data                                    0x200000e4   Section        2  hal_sleep.o(.data)
    g_enable                                 0x200000e4   Data           1  hal_sleep.o(.data)
    g_wakeup_state                           0x200000e5   Data           1  hal_sleep.o(.data)
    .data                                    0x200000e8   Section        4  hal_uart.o(.data)
    .data                                    0x200000ec   Section        1  hal_wait.o(.data)
    g_waitType                               0x200000ec   Data           1  hal_wait.o(.data)
    .data                                    0x200000f0   Section       17  link.o(.data)
    g_link_busy                              0x200000f0   Data           1  link.o(.data)
    g_link_busy_time                         0x200000f4   Data           4  link.o(.data)
    g_link_hops                              0x200000f8   Data           1  link.o(.data)
    g_link_state                             0x200000f9   Data           1  link.o(.data)
    g_link_deal_time                         0x200000fc   Data           4  link.o(.data)
    g_link_is_stable                         0x20000100   Data           1  link.o(.data)
    .data                                    0x20000101   Section       12  nwk.o(.data)
    g_segaddr                                0x20000101   Data           4  nwk.o(.data)
    g_myaddr                                 0x20000105   Data           1  nwk.o(.data)
    g_role                                   0x20000106   Data           1  nwk.o(.data)
    g_sleepmode                              0x20000107   Data           1  nwk.o(.data)
    g_mesh_enable                            0x20000108   Data           1  nwk.o(.data)
    g_transmit_fail_count                    0x20000109   Data           1  nwk.o(.data)
    g_trans_id                               0x2000010a   Data           1  nwk.o(.data)
    g_ack_wait_info                          0x2000010b   Data           2  nwk.o(.data)
    .data                                    0x2000010d   Section        2  phy.o(.data)
    g_lock_ctrl_buf                          0x2000010d   Data           1  phy.o(.data)
    .data                                    0x20000110   Section        8  os_timer.o(.data)
    g_nettime                                0x20000110   Data           4  os_timer.o(.data)
    g_systime                                0x20000114   Data           4  os_timer.o(.data)
    .data                                    0x20000118   Section        1  button.o(.data)
    .data                                    0x2000011c   Section       37  device.o(.data)
    g_send_notify                            0x20000138   Data           1  device.o(.data)
    g_notify_fail                            0x20000139   Data           1  device.o(.data)
    g_enable                                 0x2000013a   Data           1  device.o(.data)
    g_first                                  0x20000140   Data           1  device.o(.data)
    .data                                    0x20000144   Section       64  sub_module.o(.data)
    g_real_device_count                      0x20000144   Data           1  sub_module.o(.data)
    g_facinfo                                0x20000145   Data          17  sub_module.o(.data)
    g_devuid                                 0x20000156   Data           7  sub_module.o(.data)
    g_state                                  0x2000015d   Data           1  sub_module.o(.data)
    g_later_enterwork                        0x2000015e   Data           1  sub_module.o(.data)
    g_later_enterwork_time                   0x20000160   Data           4  sub_module.o(.data)
    g_next_connect_time                      0x20000164   Data           4  sub_module.o(.data)
    g_sub_upgrade                            0x20000168   Data           4  sub_module.o(.data)
    g_lastACKtime                            0x2000016c   Data           4  sub_module.o(.data)
    g_lastRebootTime                         0x20000170   Data           4  sub_module.o(.data)
    g_button_pressed_action                  0x20000174   Data           1  sub_module.o(.data)
    g_buttion_flag                           0x20000175   Data           1  sub_module.o(.data)
    led_blink_fig                            0x20000176   Data           1  sub_module.o(.data)
    led_blink_num                            0x20000177   Data           1  sub_module.o(.data)
    retries                                  0x20000179   Data           1  sub_module.o(.data)
    start_link_time                          0x2000017c   Data           4  sub_module.o(.data)
    last_heartbeat_time                      0x20000180   Data           4  sub_module.o(.data)
    .data                                    0x20000184   Section       53  socket.o(.data)
    g_last_state                             0x20000188   Data           1  socket.o(.data)
    g_cur_state                              0x20000189   Data           1  socket.o(.data)
    g_saved_power                            0x2000018c   Data           4  socket.o(.data)
    g_saved_T_Energy                         0x20000190   Data           4  socket.o(.data)
    g_cur_power                              0x20000194   Data           4  socket.o(.data)
    g_cur_T_Energy                           0x20000198   Data           4  socket.o(.data)
    Pre_Watt                                 0x2000019c   Data           4  socket.o(.data)
    Pre_Volt                                 0x200001a0   Data           4  socket.o(.data)
    TOutMeasUpdate                           0x200001a4   Data           4  socket.o(.data)
    ToutEnergyUpdate                         0x200001a8   Data           4  socket.o(.data)
    dubiData                                 0x200001ac   Data           1  socket.o(.data)
    TimeOutMeasure                           0x200001b0   Data           4  socket.o(.data)
    TimeCheckATT                             0x200001b4   Data           4  socket.o(.data)
    SampleCount                              0x200001b8   Data           1  socket.o(.data)
    .data                                    0x200001b9   Section        1  att7053_collect.o(.data)
    g_reInitCount                            0x200001b9   Data           1  att7053_collect.o(.data)
    .data                                    0x200001ba   Section       16  stm32f0xx_rcc.o(.data)
    APBAHBPrescTable                         0x200001ba   Data          16  stm32f0xx_rcc.o(.data)
    .bss                                     0x200001cc   Section       16  app.o(.bss)
    g_aes_key                                0x200001cc   Data          16  app.o(.bss)
    .bss                                     0x200001dc   Section      192  hal_aes.o(.bss)
    state                                    0x200001dc   Data          16  hal_aes.o(.bss)
    RoundKey                                 0x200001ec   Data         176  hal_aes.o(.bss)
    .bss                                     0x2000029c   Section      192  link.o(.bss)
    g_records                                0x2000029c   Data         192  link.o(.bss)
    .bss                                     0x2000035c   Section      512  nwk.o(.bss)
    g_ack_queue                              0x2000035c   Data          24  nwk.o(.bss)
    g_subcache_list                          0x20000374   Data         120  nwk.o(.bss)
    g_my_subcache                            0x200003ec   Data          20  nwk.o(.bss)
    g_recv_list                              0x20000400   Data         284  nwk.o(.bss)
    g_addr_transid                           0x2000051c   Data          64  nwk.o(.bss)
    .bss                                     0x2000055c   Section      217  phy.o(.bss)
    g_ctrl_buf                               0x2000055c   Data          23  phy.o(.bss)
    g_tx_buf                                 0x20000573   Data         128  phy.o(.bss)
    g_rx_buf                                 0x200005f3   Data          66  phy.o(.bss)
    .bss                                     0x20000638   Section      224  os_timer.o(.bss)
    g_timer_list                             0x20000638   Data         224  os_timer.o(.bss)
    .bss                                     0x20000718   Section        9  sub_module.o(.bss)
    g_net_info                               0x20000718   Data           9  sub_module.o(.bss)
    .bss                                     0x20000724   Section       96  socket.o(.bss)
    g_AC_ElectInfo                           0x20000724   Data          32  socket.o(.bss)
    UtempVal                                 0x20000744   Data          32  socket.o(.bss)
    WtempVal                                 0x20000764   Data          32  socket.o(.bss)
    .bss                                     0x20000784   Section       32  att7053_collect.o(.bss)
    g_Att7053Dat                             0x20000784   Data          32  att7053_collect.o(.bss)
    .bss                                     0x200007a4   Section      228  rand.o(.bss)
    .bss                                     0x20000888   Section       96  libspace.o(.bss)
    HEAP                                     0x200008e8   Section      256  startup_stm32f030.o(HEAP)
    Heap_Mem                                 0x200008e8   Data         256  startup_stm32f030.o(HEAP)
    STACK                                    0x200009e8   Section     1280  startup_stm32f030.o(STACK)
    Stack_Mem                                0x200009e8   Data        1280  startup_stm32f030.o(STACK)
    __initial_sp                             0x20000ee8   Data           0  startup_stm32f030.o(STACK)

    Global Symbols

    Symbol Name                              Value     Ov Type        Size  Object(Section)

    BuildAttributes$$THM_ISAv3M$S$PE$A:L22$X:L11$S22$IEEE1$IW$USESV6$~STKCKD$USESV7$~SHL$OSPACE$ROPI$EBA8$UX$STANDARDLIB$REQ8$PRES8$EABIv2 0x00000000   Number         0  anon$$obj.o ABSOLUTE
    __ARM_use_no_argv                        0x00000000   Number         0  os.o ABSOLUTE
    _printf_flags                            0x00000000   Number         0  printf_stubs.o ABSOLUTE
    _printf_return_value                     0x00000000   Number         0  printf_stubs.o ABSOLUTE
    _printf_sizespec                         0x00000000   Number         0  printf_stubs.o ABSOLUTE
    _printf_widthprec                        0x00000000   Number         0  printf_stubs.o ABSOLUTE
    __ARM_exceptions_init                     - Undefined Weak Reference
    __alloca_initialize                       - Undefined Weak Reference
    __arm_preinit_                            - Undefined Weak Reference
    __cpp_initialize__aeabi_                  - Undefined Weak Reference
    __cxa_finalize                            - Undefined Weak Reference
    __rt_locale                               - Undefined Weak Reference
    __sigvec_lookup                           - Undefined Weak Reference
    _atexit_init                              - Undefined Weak Reference
    _call_atexit_fns                          - Undefined Weak Reference
    _clock_init                               - Undefined Weak Reference
    _fp_trap_init                             - Undefined Weak Reference
    _fp_trap_shutdown                         - Undefined Weak Reference
    _get_lc_collate                           - Undefined Weak Reference
    _get_lc_ctype                             - Undefined Weak Reference
    _get_lc_monetary                          - Undefined Weak Reference
    _get_lc_numeric                           - Undefined Weak Reference
    _get_lc_time                              - Undefined Weak Reference
    _getenv_init                              - Undefined Weak Reference
    _handle_redirection                       - Undefined Weak Reference
    _init_alloc                               - Undefined Weak Reference
    _init_user_alloc                          - Undefined Weak Reference
    _initio                                   - Undefined Weak Reference
    _printf_mbtowc                            - Undefined Weak Reference
    _printf_truncate_signed                   - Undefined Weak Reference
    _printf_truncate_unsigned                 - Undefined Weak Reference
    _signal_finish                            - Undefined Weak Reference
    _signal_init                              - Undefined Weak Reference
    _terminate_alloc                          - Undefined Weak Reference
    _terminate_user_alloc                     - Undefined Weak Reference
    _terminateio                              - Undefined Weak Reference
    __Vectors_Size                           0x000000b4   Number         0  startup_stm32f030.o ABSOLUTE
    __Vectors                                0x08000000   Data           4  startup_stm32f030.o(RESET)
    __Vectors_End                            0x080000b4   Data           0  startup_stm32f030.o(RESET)
    __main                                   0x080000b5   Thumb Code     8  __main.o(!!!main)
    __scatterload                            0x080000bd   Thumb Code     0  __scatter.o(!!!scatter)
    __scatterload_rt2                        0x080000bd   Thumb Code    52  __scatter.o(!!!scatter)
    __scatterload_rt2_thumb_only             0x080000bd   Thumb Code     0  __scatter.o(!!!scatter)
    __scatterload_null                       0x080000cd   Thumb Code     0  __scatter.o(!!!scatter)
    __scatterload_copy                       0x080000f9   Thumb Code    26  __scatter_copy.o(!!handler_copy)
    __scatterload_zeroinit                   0x08000115   Thumb Code    28  __scatter_zi.o(!!handler_zi)
    _printf_percent                          0x08000131   Thumb Code     0  _printf_percent.o(.ARM.Collect$$_printf_percent$$00000000)
    _printf_d                                0x08000133   Thumb Code     0  _printf_d.o(.ARM.Collect$$_printf_percent$$00000009)
    _printf_x                                0x0800013d   Thumb Code     0  _printf_x.o(.ARM.Collect$$_printf_percent$$0000000C)
    _printf_c                                0x08000147   Thumb Code     0  _printf_c.o(.ARM.Collect$$_printf_percent$$00000013)
    _printf_s                                0x08000151   Thumb Code     0  _printf_s.o(.ARM.Collect$$_printf_percent$$00000014)
    _printf_percent_end                      0x0800015b   Thumb Code     0  _printf_percent_end.o(.ARM.Collect$$_printf_percent$$00000017)
    __rt_lib_init                            0x0800015f   Thumb Code     0  libinit.o(.ARM.Collect$$libinit$$00000000)
    __rt_lib_init_fp_1                       0x08000161   Thumb Code     0  libinit2.o(.ARM.Collect$$libinit$$00000002)
    __rt_lib_init_heap_1                     0x08000161   Thumb Code     0  libinit2.o(.ARM.Collect$$libinit$$0000000A)
    __rt_lib_init_preinit_1                  0x08000161   Thumb Code     0  libinit2.o(.ARM.Collect$$libinit$$00000004)
    __rt_lib_init_rand_2                     0x08000161   Thumb Code     0  libinit2.o(.ARM.Collect$$libinit$$0000000D)
    __rt_lib_init_user_alloc_1               0x08000161   Thumb Code     0  libinit2.o(.ARM.Collect$$libinit$$0000000C)
    __rt_lib_init_alloca_1                   0x08000165   Thumb Code     0  libinit2.o(.ARM.Collect$$libinit$$0000002E)
    __rt_lib_init_argv_1                     0x08000165   Thumb Code     0  libinit2.o(.ARM.Collect$$libinit$$0000002C)
    __rt_lib_init_atexit_1                   0x08000165   Thumb Code     0  libinit2.o(.ARM.Collect$$libinit$$0000001B)
    __rt_lib_init_clock_1                    0x08000165   Thumb Code     0  libinit2.o(.ARM.Collect$$libinit$$00000021)
    __rt_lib_init_cpp_1                      0x08000165   Thumb Code     0  libinit2.o(.ARM.Collect$$libinit$$00000032)
    __rt_lib_init_exceptions_1               0x08000165   Thumb Code     0  libinit2.o(.ARM.Collect$$libinit$$00000030)
    __rt_lib_init_fp_trap_1                  0x08000165   Thumb Code     0  libinit2.o(.ARM.Collect$$libinit$$0000001F)
    __rt_lib_init_getenv_1                   0x08000165   Thumb Code     0  libinit2.o(.ARM.Collect$$libinit$$00000023)
    __rt_lib_init_lc_collate_1               0x08000165   Thumb Code     0  libinit2.o(.ARM.Collect$$libinit$$00000011)
    __rt_lib_init_lc_ctype_1                 0x08000165   Thumb Code     0  libinit2.o(.ARM.Collect$$libinit$$00000013)
    __rt_lib_init_lc_monetary_1              0x08000165   Thumb Code     0  libinit2.o(.ARM.Collect$$libinit$$00000015)
    __rt_lib_init_lc_numeric_1               0x08000165   Thumb Code     0  libinit2.o(.ARM.Collect$$libinit$$00000017)
    __rt_lib_init_lc_time_1                  0x08000165   Thumb Code     0  libinit2.o(.ARM.Collect$$libinit$$00000019)
    __rt_lib_init_rand_1                     0x08000165   Thumb Code     0  libinit2.o(.ARM.Collect$$libinit$$0000000E)
    __rt_lib_init_return                     0x08000165   Thumb Code     0  libinit2.o(.ARM.Collect$$libinit$$00000033)
    __rt_lib_init_signal_1                   0x08000165   Thumb Code     0  libinit2.o(.ARM.Collect$$libinit$$0000001D)
    __rt_lib_init_stdio_1                    0x08000165   Thumb Code     0  libinit2.o(.ARM.Collect$$libinit$$00000025)
    __rt_lib_shutdown                        0x08000167   Thumb Code     0  libshutdown.o(.ARM.Collect$$libshutdown$$00000000)
    __rt_lib_shutdown_cpp_1                  0x08000169   Thumb Code     0  libshutdown2.o(.ARM.Collect$$libshutdown$$00000002)
    __rt_lib_shutdown_fp_trap_1              0x08000169   Thumb Code     0  libshutdown2.o(.ARM.Collect$$libshutdown$$00000007)
    __rt_lib_shutdown_heap_1                 0x08000169   Thumb Code     0  libshutdown2.o(.ARM.Collect$$libshutdown$$0000000F)
    __rt_lib_shutdown_return                 0x08000169   Thumb Code     0  libshutdown2.o(.ARM.Collect$$libshutdown$$00000010)
    __rt_lib_shutdown_signal_1               0x08000169   Thumb Code     0  libshutdown2.o(.ARM.Collect$$libshutdown$$0000000A)
    __rt_lib_shutdown_stdio_1                0x08000169   Thumb Code     0  libshutdown2.o(.ARM.Collect$$libshutdown$$00000004)
    __rt_lib_shutdown_user_alloc_1           0x08000169   Thumb Code     0  libshutdown2.o(.ARM.Collect$$libshutdown$$0000000C)
    __rt_entry                               0x0800016b   Thumb Code     0  __rtentry.o(.ARM.Collect$$rtentry$$00000000)
    __rt_entry_presh_1                       0x0800016b   Thumb Code     0  __rtentry2.o(.ARM.Collect$$rtentry$$00000002)
    __rt_entry_sh                            0x0800016b   Thumb Code     0  __rtentry4.o(.ARM.Collect$$rtentry$$00000004)
    __rt_entry_li                            0x08000171   Thumb Code     0  __rtentry2.o(.ARM.Collect$$rtentry$$0000000A)
    __rt_entry_postsh_1                      0x08000171   Thumb Code     0  __rtentry2.o(.ARM.Collect$$rtentry$$00000009)
    __rt_entry_main                          0x08000175   Thumb Code     0  __rtentry2.o(.ARM.Collect$$rtentry$$0000000D)
    __rt_entry_postli_1                      0x08000175   Thumb Code     0  __rtentry2.o(.ARM.Collect$$rtentry$$0000000C)
    __rt_exit                                0x0800017d   Thumb Code     0  rtexit.o(.ARM.Collect$$rtexit$$00000000)
    __rt_exit_ls                             0x0800017f   Thumb Code     0  rtexit2.o(.ARM.Collect$$rtexit$$00000003)
    __rt_exit_prels_1                        0x0800017f   Thumb Code     0  rtexit2.o(.ARM.Collect$$rtexit$$00000002)
    __rt_exit_exit                           0x08000183   Thumb Code     0  rtexit2.o(.ARM.Collect$$rtexit$$00000004)
    rand                                     0x08000189   Thumb Code    52  rand.o(.emb_text)
    __aeabi_memcpy4                          0x080001c1   Thumb Code    56  rt_memcpy.o(.emb_text)
    __aeabi_memcpy8                          0x080001c1   Thumb Code     0  rt_memcpy.o(.emb_text)
    Reset_Handler                            0x080001f9   Thumb Code    38  startup_stm32f030.o(.text)
    NMI_Handler                              0x0800021f   Thumb Code     2  startup_stm32f030.o(.text)
    HardFault_Handler                        0x08000221   Thumb Code     2  startup_stm32f030.o(.text)
    SVC_Handler                              0x08000223   Thumb Code     2  startup_stm32f030.o(.text)
    PendSV_Handler                           0x08000225   Thumb Code     2  startup_stm32f030.o(.text)
    SysTick_Handler                          0x08000227   Thumb Code     2  startup_stm32f030.o(.text)
    ADC1_IRQHandler                          0x08000229   Thumb Code     0  startup_stm32f030.o(.text)
    DMA1_Channel1_IRQHandler                 0x08000229   Thumb Code     0  startup_stm32f030.o(.text)
    DMA1_Channel2_3_IRQHandler               0x08000229   Thumb Code     0  startup_stm32f030.o(.text)
    DMA1_Channel4_5_IRQHandler               0x08000229   Thumb Code     0  startup_stm32f030.o(.text)
    EXTI0_1_IRQHandler                       0x08000229   Thumb Code     0  startup_stm32f030.o(.text)
    EXTI2_3_IRQHandler                       0x08000229   Thumb Code     0  startup_stm32f030.o(.text)
    FLASH_IRQHandler                         0x08000229   Thumb Code     0  startup_stm32f030.o(.text)
    I2C1_IRQHandler                          0x08000229   Thumb Code     0  startup_stm32f030.o(.text)
    I2C2_IRQHandler                          0x08000229   Thumb Code     0  startup_stm32f030.o(.text)
    RCC_IRQHandler                           0x08000229   Thumb Code     0  startup_stm32f030.o(.text)
    SPI1_IRQHandler                          0x08000229   Thumb Code     0  startup_stm32f030.o(.text)
    SPI2_IRQHandler                          0x08000229   Thumb Code     0  startup_stm32f030.o(.text)
    TIM14_IRQHandler                         0x08000229   Thumb Code     0  startup_stm32f030.o(.text)
    TIM15_IRQHandler                         0x08000229   Thumb Code     0  startup_stm32f030.o(.text)
    TIM16_IRQHandler                         0x08000229   Thumb Code     0  startup_stm32f030.o(.text)
    TIM17_IRQHandler                         0x08000229   Thumb Code     0  startup_stm32f030.o(.text)
    TIM1_BRK_UP_TRG_COM_IRQHandler           0x08000229   Thumb Code     0  startup_stm32f030.o(.text)
    TIM1_CC_IRQHandler                       0x08000229   Thumb Code     0  startup_stm32f030.o(.text)
    USART2_IRQHandler                        0x08000229   Thumb Code     0  startup_stm32f030.o(.text)
    WWDG_IRQHandler                          0x08000229   Thumb Code     0  startup_stm32f030.o(.text)
    __user_initial_stackheap                 0x0800022d   Thumb Code     0  startup_stm32f030.o(.text)
    SystemInit                               0x08000335   Thumb Code   110  system_stm32f0xx.o(.text)
    SystemCoreClockUpdate                    0x080003a3   Thumb Code   154  system_stm32f0xx.o(.text)
    app_init                                 0x0800045d   Thumb Code    18  app.o(.text)
    app_get_trans_payload                    0x0800046f   Thumb Code    12  app.o(.text)
    app_get_key                              0x0800047b   Thumb Code    12  app.o(.text)
    app_decrypt                              0x08000487   Thumb Code    48  app.o(.text)
    app_rf_recv_deal                         0x080004b7   Thumb Code    54  app.o(.text)
    app_encrypt                              0x080004ed   Thumb Code    48  app.o(.text)
    app_transmit                             0x0800051d   Thumb Code    56  app.o(.text)
    app_poll                                 0x08000555   Thumb Code     8  app.o(.text)
    app_ack_sync_content_cb                  0x0800055d   Thumb Code    16  app.o(.text)
    app_ack_sync_content_set                 0x0800056d   Thumb Code    12  app.o(.text)
    hal_init                                 0x0800057d   Thumb Code    76  hal.o(.text)
    hal_poll                                 0x080005c9   Thumb Code    12  hal.o(.text)
    hal_adc_int                              0x080005fd   Thumb Code   122  hal_adc.o(.text)
    hal_adc_get_vol                          0x08000677   Thumb Code   112  hal_adc.o(.text)
    AesCTREncrypt                            0x08001065   Thumb Code   106  hal_aes.o(.text)
    AesCTRDecrypt                            0x080010cf   Thumb Code    30  hal_aes.o(.text)
    AesEncrypt                               0x080010ed   Thumb Code    90  hal_aes.o(.text)
    AesDecrypt                               0x08001147   Thumb Code    50  hal_aes.o(.text)
    hal_flash_write                          0x0800118d   Thumb Code   212  hal_flash.o(.text)
    hal_led_set_up                           0x08001261   Thumb Code    66  hal_led.o(.text)
    hal_led_on                               0x080012a3   Thumb Code    16  hal_led.o(.text)
    hal_led_off                              0x080012b3   Thumb Code    16  hal_led.o(.text)
    hal_led_toggle                           0x080012c3   Thumb Code    32  hal_led.o(.text)
    hal_led_blink                            0x080012e3   Thumb Code    58  hal_led.o(.text)
    hal_rnd_init                             0x0800131d   Thumb Code     2  hal_rnd.o(.text)
    hal_rnd_get                              0x0800131f   Thumb Code    32  hal_rnd.o(.text)
    hal_rnd_seed                             0x0800133f   Thumb Code    12  hal_rnd.o(.text)
    hal_rnd_range                            0x0800134b   Thumb Code    30  hal_rnd.o(.text)
    hal_rnd_feed_seed                        0x08001369   Thumb Code    12  hal_rnd.o(.text)
    Init_sotpmode_port                       0x0800137d   Thumb Code   160  hal_sleep.o(.text)
    RTC_Config                               0x0800141d   Thumb Code   408  hal_sleep.o(.text)
    hal_sleep_pm2                            0x080015b5   Thumb Code   218  hal_sleep.o(.text)
    hal_sleep_pm2_int_off                    0x0800168f   Thumb Code    14  hal_sleep.o(.text)
    hal_sleep_set_enable                     0x0800169d   Thumb Code     6  hal_sleep.o(.text)
    hal_sleep_get_enable                     0x080016a3   Thumb Code     6  hal_sleep.o(.text)
    SYSCLKConfig_STOP                        0x080016a9   Thumb Code    56  hal_sleep.o(.text)
    Enter_StopMode                           0x080016e1   Thumb Code    12  hal_sleep.o(.text)
    RTC_IRQHandler                           0x080016ed   Thumb Code    32  hal_sleep.o(.text)
    TIM3_Config                              0x08001769   Thumb Code    54  hal_timer.o(.text)
    TIM3_Init                                0x0800179f   Thumb Code    28  hal_timer.o(.text)
    hal_timer_init                           0x080017bb   Thumb Code    12  hal_timer.o(.text)
    TIM3_IRQHandler                          0x080017c7   Thumb Code    16  hal_timer.o(.text)
    _sys_exit                                0x080017e1   Thumb Code     8  hal_uart.o(.text)
    fputc                                    0x080017e9   Thumb Code    32  hal_uart.o(.text)
    ferror                                   0x08001809   Thumb Code     8  hal_uart.o(.text)
    USART1_IRQHandler                        0x08001811   Thumb Code    12  hal_uart.o(.text)
    hal_uart_init                            0x0800181d   Thumb Code   110  hal_uart.o(.text)
    hal_uart_write                           0x0800188b   Thumb Code    40  hal_uart.o(.text)
    UART_send_byte                           0x080018b3   Thumb Code    22  hal_uart.o(.text)
    uart_putc                                0x080018c9   Thumb Code    22  hal_uart.o(.text)
    uart_puts                                0x080018df   Thumb Code    22  hal_uart.o(.text)
    TIM14_Config_Ms                          0x08001901   Thumb Code    44  hal_wait.o(.text)
    TIM14_Config_Us                          0x0800192d   Thumb Code    42  hal_wait.o(.text)
    TIM14_Init                               0x08001957   Thumb Code    30  hal_wait.o(.text)
    hal_wait_init                            0x08001975   Thumb Code    30  hal_wait.o(.text)
    hal_wait_check                           0x08001993   Thumb Code    20  hal_wait.o(.text)
    hal_wait                                 0x080019a7   Thumb Code    50  hal_wait.o(.text)
    hal_wait_us                              0x080019d9   Thumb Code    20  hal_wait.o(.text)
    hal_wait_ms                              0x080019ed   Thumb Code    20  hal_wait.o(.text)
    hal_wdt_init                             0x08001a0d   Thumb Code    48  hal_wdt.o(.text)
    hal_wdt_feed                             0x08001a3d   Thumb Code     8  hal_wdt.o(.text)
    ctrl_upgrade_transmit                    0x08001a4d   Thumb Code    42  ctrl.o(.text)
    ctrl_upgrade_get_trans_payload           0x08001a77   Thumb Code    10  ctrl.o(.text)
    ctrl_deal                                0x08001a83   Thumb Code    30  ctrl.o(.text)
    link_init                                0x08001afb   Thumb Code    40  link.o(.text)
    link_request                             0x08001b23   Thumb Code    82  link.o(.text)
    link_disattach                           0x08001b75   Thumb Code    34  link.o(.text)
    link_add_record                          0x08001b97   Thumb Code    50  link.o(.text)
    link_get_record                          0x08001bc9   Thumb Code    36  link.o(.text)
    link_get_father                          0x08001bed   Thumb Code     6  link.o(.text)
    link_is_child                            0x08001bf3   Thumb Code    48  link.o(.text)
    link_is_build                            0x08001c23   Thumb Code    16  link.o(.text)
    link_recv_cb                             0x08001c33   Thumb Code   166  link.o(.text)
    link_set_stable                          0x08001cd9   Thumb Code     6  link.o(.text)
    link_poll                                0x08001cdf   Thumb Code    66  link.o(.text)
    net_init                                 0x08001d41   Thumb Code    18  net.o(.text)
    net_poll                                 0x08001d53   Thumb Code     8  net.o(.text)
    nwk_init                                 0x08001d5d   Thumb Code    64  nwk.o(.text)
    nwk_set_segaddr                          0x08001d9d   Thumb Code    16  nwk.o(.text)
    nwk_get_segaddr                          0x08001dad   Thumb Code     4  nwk.o(.text)
    nwk_set_myaddr                           0x08001db1   Thumb Code     6  nwk.o(.text)
    nwk_get_myaddr                           0x08001db7   Thumb Code     6  nwk.o(.text)
    nwk_set_role                             0x08001dbd   Thumb Code    14  nwk.o(.text)
    nwk_set_sleepmode                        0x08001dcb   Thumb Code     6  nwk.o(.text)
    nwk_transmit                             0x08001e93   Thumb Code   474  nwk.o(.text)
    nwk_reply_acks                           0x0800206d   Thumb Code   164  nwk.o(.text)
    nwk_transmit_onehop                      0x08002111   Thumb Code   234  nwk.o(.text)
    nwk_subcache_del                         0x0800226f   Thumb Code    36  nwk.o(.text)
    nwk_recv_cb                              0x08002293   Thumb Code   580  nwk.o(.text)
    nwk_get_trans_payload                    0x080024d7   Thumb Code    10  nwk.o(.text)
    nwk_poll                                 0x08002545   Thumb Code   184  nwk.o(.text)
    nwk_get_role                             0x080025fd   Thumb Code     6  nwk.o(.text)
    nwk_mesh_enable                          0x08002603   Thumb Code     6  nwk.o(.text)
    SPI_FLASH_SendByte                       0x0800261d   Thumb Code   168  phy.o(.text)
    halSpiStrobe                             0x080026c5   Thumb Code    96  phy.o(.text)
    halSpiReadStatus                         0x08002725   Thumb Code   112  phy.o(.text)
    phy_set_rx_state                         0x08002823   Thumb Code    24  phy.o(.text)
    _rx_dma_cb                               0x0800283b   Thumb Code   116  phy.o(.text)
    phy_rf_config_upgrade                    0x080028af   Thumb Code     2  phy.o(.text)
    halSpiWriteReg                           0x080028b1   Thumb Code   104  phy.o(.text)
    halRfWriteRfSettings                     0x08002919   Thumb Code   272  phy.o(.text)
    phy_rf_config_normal                     0x08002a29   Thumb Code     8  phy.o(.text)
    _radio_dma_init                          0x08002a31   Thumb Code     2  phy.o(.text)
    GPIO_GDO0_ENABLE                         0x08002a33   Thumb Code    34  phy.o(.text)
    phy_init1                                0x08002a55   Thumb Code    30  phy.o(.text)
    SPI_CC1101_ReadID                        0x08002a73   Thumb Code    40  phy.o(.text)
    Delay                                    0x08002a9b   Thumb Code    22  phy.o(.text)
    CC1101_POWER_RESET                       0x08002ab1   Thumb Code   206  phy.o(.text)
    SPI_CC1101_Init                          0x08002b7f   Thumb Code   246  phy.o(.text)
    NVIC_Configuration                       0x08002c75   Thumb Code    22  phy.o(.text)
    phy_init                                 0x08002c8b   Thumb Code    66  phy.o(.text)
    _is_not_busy                             0x08002ccd   Thumb Code     4  phy.o(.text)
    halSpiWriteBurstReg                      0x08002cd1   Thumb Code   132  phy.o(.text)
    halRfSendPacket                          0x08002d55   Thumb Code   162  phy.o(.text)
    GPIO_GDO0_DISABLE                        0x08002df7   Thumb Code    26  phy.o(.text)
    phy_transmit                             0x08002e11   Thumb Code   174  phy.o(.text)
    phy_set_channel                          0x08002ebf   Thumb Code    44  phy.o(.text)
    phy_poll                                 0x08002eeb   Thumb Code    24  phy.o(.text)
    phy_get_trans_payload                    0x08002f03   Thumb Code     4  phy.o(.text)
    _tx_done                                 0x08002f07   Thumb Code    36  phy.o(.text)
    SPI_FLASH_ReadByte                       0x08002f2b   Thumb Code    10  phy.o(.text)
    halRfSendData                            0x08002f35   Thumb Code   158  phy.o(.text)
    halSpiReadReg                            0x08002fd3   Thumb Code   112  phy.o(.text)
    halSpiReadBurstReg                       0x08003043   Thumb Code   134  phy.o(.text)
    halRfReceivePacket                       0x080030c9   Thumb Code    76  phy.o(.text)
    EXTI4_15_IRQHandler                      0x08003115   Thumb Code   142  phy.o(.text)
    CC1101_WOR_Init                          0x080031a3   Thumb Code   168  phy.o(.text)
    CC1101_WOR_Send                          0x0800324b   Thumb Code   286  phy.o(.text)
    RF_CC1101_SLEEP                          0x08003369   Thumb Code    16  phy.o(.text)
    g_rx_buf_clear                           0x08003379   Thumb Code    12  phy.o(.text)
    os_own_init                              0x0800338d   Thumb Code     8  os.o(.text)
    os_init                                  0x08003395   Thumb Code    24  os.o(.text)
    main                                     0x080033ad   Thumb Code    24  os.o(.text)
    os_timer_get_systime                     0x080033c5   Thumb Code    16  os_timer.o(.text)
    os_timer_init                            0x0800343b   Thumb Code    24  os_timer.o(.text)
    os_timer_poll                            0x08003453   Thumb Code    12  os_timer.o(.text)
    os_timer_set                             0x0800345f   Thumb Code    76  os_timer.o(.text)
    os_timer_is_valid                        0x080034ab   Thumb Code    24  os_timer.o(.text)
    os_timer_reset                           0x080034c3   Thumb Code    26  os_timer.o(.text)
    os_timer_del                             0x080034dd   Thumb Code    24  os_timer.o(.text)
    os_timer_pass_ms                         0x080034f5   Thumb Code    22  os_timer.o(.text)
    os_timer_get_nettime                     0x0800350b   Thumb Code    16  os_timer.o(.text)
    os_timer_add_systime                     0x0800351b   Thumb Code    32  os_timer.o(.text)
    os_timer_set_nettime                     0x0800353b   Thumb Code    16  os_timer.o(.text)
    os_timer_get_interval                    0x0800354b   Thumb Code    18  os_timer.o(.text)
    button_init                              0x0800356d   Thumb Code   104  button.o(.text)
    button_state                             0x080035d5   Thumb Code    22  button.o(.text)
    Button_IRQHandler                        0x080035eb   Thumb Code   114  button.o(.text)
    device_get_state                         0x08003699   Thumb Code    18  device.o(.text)
    device_init                              0x080036ab   Thumb Code    10  device.o(.text)
    device_start_work                        0x080036b5   Thumb Code    10  device.o(.text)
    device_control                           0x080036bf   Thumb Code   266  device.o(.text)
    device_poll                              0x080037c9   Thumb Code   168  device.o(.text)
    device_button_pressed                    0x08003871   Thumb Code    18  device.o(.text)
    device_send_fail                         0x08003883   Thumb Code     6  device.o(.text)
    device_send                              0x08003889   Thumb Code    80  device.o(.text)
    device_first_report                      0x080038d9   Thumb Code     8  device.o(.text)
    _later_enter_work                        0x08003b1d   Thumb Code    10  sub_module.o(.text)
    sub_module_init                          0x08003b27   Thumb Code   280  sub_module.o(.text)
    _transmit_device_info                    0x08003c3f   Thumb Code    48  sub_module.o(.text)
    sub_module_recv_deal                     0x08003c6f   Thumb Code   934  sub_module.o(.text)
    sub_module_start_upgrade                 0x08004015   Thumb Code     2  sub_module.o(.text)
    sub_module_poll                          0x08004017   Thumb Code   438  sub_module.o(.text)
    sub_module_enter_buildnet                0x080041cd   Thumb Code     8  sub_module.o(.text)
    sub_module_get_key                       0x080041d5   Thumb Code     8  sub_module.o(.text)
    sub_module_ack_sync_content_cb           0x080041dd   Thumb Code    56  sub_module.o(.text)
    sub_module_ack_sync_content_set          0x08004215   Thumb Code    30  sub_module.o(.text)
    sub_module_devuid                        0x08004233   Thumb Code     4  sub_module.o(.text)
    sub_module_reset_factory                 0x08004237   Thumb Code    34  sub_module.o(.text)
    sub_module_button_pressed                0x08004259   Thumb Code   100  sub_module.o(.text)
    _turn_on_off                             0x080043fd   Thumb Code   216  socket.o(.text)
    IO_GP_INIT                               0x080044ef   Thumb Code    66  socket.o(.text)
    socket_init                              0x08004729   Thumb Code   138  socket.o(.text)
    socket_start_work                        0x080047b3   Thumb Code     8  socket.o(.text)
    socket_poll                              0x080047bb   Thumb Code    84  socket.o(.text)
    socket_control                           0x0800480f   Thumb Code    18  socket.o(.text)
    socket_get_state                         0x08004821   Thumb Code   110  socket.o(.text)
    socket_button_pressed                    0x0800488f   Thumb Code   338  socket.o(.text)
    socket_reboot                            0x080049e1   Thumb Code    70  socket.o(.text)
    SysWait                                  0x08004a7b   Thumb Code    12  att7053_collect.o(.text)
    HalATT7053SetGphsGP                      0x08004ac9   Thumb Code   124  att7053_collect.o(.text)
    HalATT7053Init                           0x08004dc5   Thumb Code    30  att7053_collect.o(.text)
    HalInit                                  0x08004de3   Thumb Code    16  att7053_collect.o(.text)
    HalSetInterruptEnable                    0x08004df3   Thumb Code    20  att7053_collect.o(.text)
    HalGetInterruptEnable                    0x08004e07   Thumb Code    18  att7053_collect.o(.text)
    HalATT7053GetURms                        0x08004f85   Thumb Code    62  att7053_collect.o(.text)
    HalATT7053GetP1                          0x08004fc3   Thumb Code    94  att7053_collect.o(.text)
    HalATT7053GetQ1                          0x08005021   Thumb Code    94  att7053_collect.o(.text)
    HalATT7053GetEP                          0x0800507f   Thumb Code    52  att7053_collect.o(.text)
    HalATT7053ResetAdjust                    0x080050ff   Thumb Code    30  att7053_collect.o(.text)
    HalATT7053AdjustGphs                     0x0800511d   Thumb Code   178  att7053_collect.o(.text)
    HalATT7053AdjustVDK                      0x080051cf   Thumb Code    30  att7053_collect.o(.text)
    HalATT7053AdjustGP                       0x080051ed   Thumb Code   284  att7053_collect.o(.text)
    HalATT7053AdjustPDK                      0x08005309   Thumb Code    30  att7053_collect.o(.text)
    HalATT7053AdjustEcnt                     0x08005327   Thumb Code     6  att7053_collect.o(.text)
    HalATT7053SaveAdjDat                     0x0800532d   Thumb Code   164  att7053_collect.o(.text)
    HalGetATT7053WorkStatus                  0x080053d1   Thumb Code    20  att7053_collect.o(.text)
    HalCheckATT7053Parameter                 0x080053e5   Thumb Code    68  att7053_collect.o(.text)
    HalCalCRC32                              0x08005429   Thumb Code    42  att7053_collect.o(.text)
    ADC_DeInit                               0x08005465   Thumb Code    28  stm32f0xx_adc.o(.text)
    ADC_Init                                 0x08005481   Thumb Code    40  stm32f0xx_adc.o(.text)
    ADC_StructInit                           0x080054a9   Thumb Code    16  stm32f0xx_adc.o(.text)
    ADC_Cmd                                  0x080054b9   Thumb Code    24  stm32f0xx_adc.o(.text)
    ADC_ClockModeConfig                      0x080054d1   Thumb Code     4  stm32f0xx_adc.o(.text)
    ADC_JitterCmd                            0x080054d5   Thumb Code    20  stm32f0xx_adc.o(.text)
    ADC_AutoPowerOffCmd                      0x080054e9   Thumb Code    28  stm32f0xx_adc.o(.text)
    ADC_WaitModeCmd                          0x08005505   Thumb Code    28  stm32f0xx_adc.o(.text)
    ADC_AnalogWatchdogCmd                    0x08005521   Thumb Code    28  stm32f0xx_adc.o(.text)
    ADC_AnalogWatchdogThresholdsConfig       0x0800553d   Thumb Code     8  stm32f0xx_adc.o(.text)
    ADC_AnalogWatchdogSingleChannelConfig    0x08005545   Thumb Code    28  stm32f0xx_adc.o(.text)
    ADC_AnalogWatchdogSingleChannelCmd       0x08005561   Thumb Code    28  stm32f0xx_adc.o(.text)
    ADC_TempSensorCmd                        0x0800557d   Thumb Code    36  stm32f0xx_adc.o(.text)
    ADC_VrefintCmd                           0x080055a1   Thumb Code    36  stm32f0xx_adc.o(.text)
    ADC_VbatCmd                              0x080055c5   Thumb Code    36  stm32f0xx_adc.o(.text)
    ADC_ChannelConfig                        0x080055e9   Thumb Code    24  stm32f0xx_adc.o(.text)
    ADC_ContinuousModeCmd                    0x08005601   Thumb Code    28  stm32f0xx_adc.o(.text)
    ADC_DiscModeCmd                          0x0800561d   Thumb Code    28  stm32f0xx_adc.o(.text)
    ADC_OverrunModeCmd                       0x08005639   Thumb Code    28  stm32f0xx_adc.o(.text)
    ADC_GetCalibrationFactor                 0x08005655   Thumb Code    60  stm32f0xx_adc.o(.text)
    ADC_StopOfConversion                     0x08005691   Thumb Code    10  stm32f0xx_adc.o(.text)
    ADC_StartOfConversion                    0x0800569b   Thumb Code    10  stm32f0xx_adc.o(.text)
    ADC_GetConversionValue                   0x080056a5   Thumb Code     8  stm32f0xx_adc.o(.text)
    ADC_DMACmd                               0x080056ad   Thumb Code    24  stm32f0xx_adc.o(.text)
    ADC_DMARequestModeConfig                 0x080056c5   Thumb Code    16  stm32f0xx_adc.o(.text)
    ADC_ITConfig                             0x080056d5   Thumb Code    20  stm32f0xx_adc.o(.text)
    ADC_GetFlagStatus                        0x080056e9   Thumb Code    48  stm32f0xx_adc.o(.text)
    ADC_ClearFlag                            0x08005719   Thumb Code     4  stm32f0xx_adc.o(.text)
    ADC_GetITStatus                          0x0800571d   Thumb Code    34  stm32f0xx_adc.o(.text)
    ADC_ClearITPendingBit                    0x0800573f   Thumb Code     4  stm32f0xx_adc.o(.text)
    EXTI_DeInit                              0x08005751   Thumb Code    20  stm32f0xx_exti.o(.text)
    EXTI_Init                                0x08005765   Thumb Code   132  stm32f0xx_exti.o(.text)
    EXTI_StructInit                          0x080057e9   Thumb Code    16  stm32f0xx_exti.o(.text)
    EXTI_GenerateSWInterrupt                 0x080057f9   Thumb Code    12  stm32f0xx_exti.o(.text)
    EXTI_GetFlagStatus                       0x08005805   Thumb Code    22  stm32f0xx_exti.o(.text)
    EXTI_ClearFlag                           0x0800581b   Thumb Code     6  stm32f0xx_exti.o(.text)
    EXTI_GetITStatus                         0x08005821   Thumb Code    22  stm32f0xx_exti.o(.text)
    EXTI_ClearITPendingBit                   0x08005837   Thumb Code     6  stm32f0xx_exti.o(.text)
    FLASH_SetLatency                         0x08005849   Thumb Code    24  stm32f0xx_flash.o(.text)
    FLASH_PrefetchBufferCmd                  0x08005861   Thumb Code    32  stm32f0xx_flash.o(.text)
    FLASH_GetPrefetchBufferStatus            0x08005881   Thumb Code    22  stm32f0xx_flash.o(.text)
    FLASH_Unlock                             0x08005897   Thumb Code    24  stm32f0xx_flash.o(.text)
    FLASH_Lock                               0x080058af   Thumb Code    14  stm32f0xx_flash.o(.text)
    FLASH_GetStatus                          0x080058bd   Thumb Code    54  stm32f0xx_flash.o(.text)
    FLASH_WaitForLastOperation               0x080058f3   Thumb Code    40  stm32f0xx_flash.o(.text)
    FLASH_ErasePage                          0x0800591b   Thumb Code    72  stm32f0xx_flash.o(.text)
    FLASH_EraseAllPages                      0x08005963   Thumb Code    68  stm32f0xx_flash.o(.text)
    FLASH_ProgramWord                        0x080059a7   Thumb Code   104  stm32f0xx_flash.o(.text)
    FLASH_ProgramHalfWord                    0x08005a0f   Thumb Code    62  stm32f0xx_flash.o(.text)
    FLASH_OB_Unlock                          0x08005a4d   Thumb Code    26  stm32f0xx_flash.o(.text)
    FLASH_OB_Lock                            0x08005a67   Thumb Code    16  stm32f0xx_flash.o(.text)
    FLASH_OB_Launch                          0x08005a77   Thumb Code    16  stm32f0xx_flash.o(.text)
    FLASH_OB_GetRDP                          0x08005a87   Thumb Code    22  stm32f0xx_flash.o(.text)
    FLASH_OB_Erase                           0x08005a9d   Thumb Code   144  stm32f0xx_flash.o(.text)
    FLASH_OB_EnableWRP                       0x08005b2d   Thumb Code   172  stm32f0xx_flash.o(.text)
    FLASH_OB_RDPConfig                       0x08005bd9   Thumb Code   156  stm32f0xx_flash.o(.text)
    FLASH_OB_UserConfig                      0x08005c75   Thumb Code    80  stm32f0xx_flash.o(.text)
    FLASH_OB_BOOTConfig                      0x08005cc5   Thumb Code    70  stm32f0xx_flash.o(.text)
    FLASH_OB_BOOT0Config                     0x08005d0b   Thumb Code    70  stm32f0xx_flash.o(.text)
    FLASH_OB_BOOT0SWConfig                   0x08005d51   Thumb Code    70  stm32f0xx_flash.o(.text)
    FLASH_OB_VDDAConfig                      0x08005d97   Thumb Code    70  stm32f0xx_flash.o(.text)
    FLASH_OB_SRAMParityConfig                0x08005ddd   Thumb Code    70  stm32f0xx_flash.o(.text)
    FLASH_OB_WriteUser                       0x08005e23   Thumb Code    66  stm32f0xx_flash.o(.text)
    FLASH_OB_ProgramData                     0x08005e65   Thumb Code    66  stm32f0xx_flash.o(.text)
    FLASH_OB_GetUser                         0x08005ea7   Thumb Code    10  stm32f0xx_flash.o(.text)
    FLASH_OB_GetWRP                          0x08005eb1   Thumb Code     6  stm32f0xx_flash.o(.text)
    FLASH_ITConfig                           0x08005eb7   Thumb Code    28  stm32f0xx_flash.o(.text)
    FLASH_GetFlagStatus                      0x08005ed3   Thumb Code    22  stm32f0xx_flash.o(.text)
    FLASH_ClearFlag                          0x08005ee9   Thumb Code     6  stm32f0xx_flash.o(.text)
    GPIO_DeInit                              0x08005ef9   Thumb Code   156  stm32f0xx_gpio.o(.text)
    GPIO_Init                                0x08005f95   Thumb Code   144  stm32f0xx_gpio.o(.text)
    GPIO_StructInit                          0x08006025   Thumb Code    20  stm32f0xx_gpio.o(.text)
    GPIO_PinLockConfig                       0x08006039   Thumb Code    34  stm32f0xx_gpio.o(.text)
    GPIO_ReadInputDataBit                    0x0800605b   Thumb Code    20  stm32f0xx_gpio.o(.text)
    GPIO_ReadInputData                       0x0800606f   Thumb Code     6  stm32f0xx_gpio.o(.text)
    GPIO_ReadOutputDataBit                   0x08006075   Thumb Code    20  stm32f0xx_gpio.o(.text)
    GPIO_ReadOutputData                      0x08006089   Thumb Code     6  stm32f0xx_gpio.o(.text)
    GPIO_SetBits                             0x0800608f   Thumb Code     4  stm32f0xx_gpio.o(.text)
    GPIO_ResetBits                           0x08006093   Thumb Code     4  stm32f0xx_gpio.o(.text)
    GPIO_WriteBit                            0x08006097   Thumb Code    12  stm32f0xx_gpio.o(.text)
    GPIO_Write                               0x080060a3   Thumb Code     4  stm32f0xx_gpio.o(.text)
    GPIO_PinAFConfig                         0x080060a7   Thumb Code    68  stm32f0xx_gpio.o(.text)
    IWDG_WriteAccessCmd                      0x08006105   Thumb Code     6  stm32f0xx_iwdg.o(.text)
    IWDG_SetPrescaler                        0x0800610b   Thumb Code     6  stm32f0xx_iwdg.o(.text)
    IWDG_SetReload                           0x08006111   Thumb Code     6  stm32f0xx_iwdg.o(.text)
    IWDG_ReloadCounter                       0x08006117   Thumb Code     8  stm32f0xx_iwdg.o(.text)
    IWDG_SetWindowValue                      0x0800611f   Thumb Code     6  stm32f0xx_iwdg.o(.text)
    IWDG_Enable                              0x08006125   Thumb Code     8  stm32f0xx_iwdg.o(.text)
    IWDG_GetFlagStatus                       0x0800612d   Thumb Code    22  stm32f0xx_iwdg.o(.text)
    NVIC_Init                                0x08006151   Thumb Code   106  stm32f0xx_misc.o(.text)
    NVIC_SystemLPConfig                      0x080061bb   Thumb Code    28  stm32f0xx_misc.o(.text)
    SysTick_CLKSourceConfig                  0x080061d7   Thumb Code    32  stm32f0xx_misc.o(.text)
    PWR_DeInit                               0x08006205   Thumb Code    22  stm32f0xx_pwr.o(.text)
    PWR_BackupAccessCmd                      0x0800621b   Thumb Code    36  stm32f0xx_pwr.o(.text)
    PWR_PVDLevelConfig                       0x0800623f   Thumb Code    28  stm32f0xx_pwr.o(.text)
    PWR_PVDCmd                               0x0800625b   Thumb Code    32  stm32f0xx_pwr.o(.text)
    PWR_WakeUpPinCmd                         0x0800627b   Thumb Code    28  stm32f0xx_pwr.o(.text)
    PWR_EnterSleepMode                       0x08006297   Thumb Code    28  stm32f0xx_pwr.o(.text)
    PWR_EnterSTOPMode                        0x080062b3   Thumb Code    90  stm32f0xx_pwr.o(.text)
    PWR_EnterSTANDBYMode                     0x0800630d   Thumb Code    28  stm32f0xx_pwr.o(.text)
    PWR_GetFlagStatus                        0x08006329   Thumb Code    22  stm32f0xx_pwr.o(.text)
    PWR_ClearFlag                            0x0800633f   Thumb Code    14  stm32f0xx_pwr.o(.text)
    RCC_DeInit                               0x08006355   Thumb Code   102  stm32f0xx_rcc.o(.text)
    RCC_HSEConfig                            0x080063bb   Thumb Code    12  stm32f0xx_rcc.o(.text)
    RCC_GetFlagStatus                        0x080063c7   Thumb Code    68  stm32f0xx_rcc.o(.text)
    RCC_WaitForHSEStartUp                    0x0800640b   Thumb Code    60  stm32f0xx_rcc.o(.text)
    RCC_AdjustHSICalibrationValue            0x08006447   Thumb Code    26  stm32f0xx_rcc.o(.text)
    RCC_HSICmd                               0x08006461   Thumb Code    32  stm32f0xx_rcc.o(.text)
    RCC_AdjustHSI14CalibrationValue          0x08006481   Thumb Code    26  stm32f0xx_rcc.o(.text)
    RCC_HSI14Cmd                             0x0800649b   Thumb Code    32  stm32f0xx_rcc.o(.text)
    RCC_HSI14ADCRequestCmd                   0x080064bb   Thumb Code    32  stm32f0xx_rcc.o(.text)
    RCC_LSEConfig                            0x080064db   Thumb Code    34  stm32f0xx_rcc.o(.text)
    RCC_LSEDriveConfig                       0x080064fd   Thumb Code    22  stm32f0xx_rcc.o(.text)
    RCC_LSICmd                               0x08006513   Thumb Code    32  stm32f0xx_rcc.o(.text)
    RCC_PLLConfig                            0x08006533   Thumb Code    30  stm32f0xx_rcc.o(.text)
    RCC_PLLCmd                               0x08006551   Thumb Code    36  stm32f0xx_rcc.o(.text)
    RCC_HSI48Cmd                             0x08006575   Thumb Code    36  stm32f0xx_rcc.o(.text)
    RCC_PREDIV1Config                        0x08006599   Thumb Code    24  stm32f0xx_rcc.o(.text)
    RCC_ClockSecuritySystemCmd               0x080065b1   Thumb Code    36  stm32f0xx_rcc.o(.text)
    RCC_MCOConfig                            0x080065d5   Thumb Code    24  stm32f0xx_rcc.o(.text)
    RCC_SYSCLKConfig                         0x080065ed   Thumb Code    24  stm32f0xx_rcc.o(.text)
    RCC_GetSYSCLKSource                      0x08006605   Thumb Code    10  stm32f0xx_rcc.o(.text)
    RCC_HCLKConfig                           0x0800660f   Thumb Code    28  stm32f0xx_rcc.o(.text)
    RCC_PCLKConfig                           0x0800662b   Thumb Code    30  stm32f0xx_rcc.o(.text)
    RCC_ADCCLKConfig                         0x08006649   Thumb Code    52  stm32f0xx_rcc.o(.text)
    RCC_CECCLKConfig                         0x0800667d   Thumb Code    22  stm32f0xx_rcc.o(.text)
    RCC_I2CCLKConfig                         0x08006693   Thumb Code    22  stm32f0xx_rcc.o(.text)
    RCC_USARTCLKConfig                       0x080066a9   Thumb Code    68  stm32f0xx_rcc.o(.text)
    RCC_USBCLKConfig                         0x080066ed   Thumb Code    22  stm32f0xx_rcc.o(.text)
    RCC_GetClocksFreq                        0x08006703   Thumb Code   576  stm32f0xx_rcc.o(.text)
    RCC_RTCCLKConfig                         0x08006943   Thumb Code    12  stm32f0xx_rcc.o(.text)
    RCC_RTCCLKCmd                            0x0800694f   Thumb Code    36  stm32f0xx_rcc.o(.text)
    RCC_BackupResetCmd                       0x08006973   Thumb Code    36  stm32f0xx_rcc.o(.text)
    RCC_AHBPeriphClockCmd                    0x08006997   Thumb Code    28  stm32f0xx_rcc.o(.text)
    RCC_APB2PeriphClockCmd                   0x080069b3   Thumb Code    28  stm32f0xx_rcc.o(.text)
    RCC_APB1PeriphClockCmd                   0x080069cf   Thumb Code    28  stm32f0xx_rcc.o(.text)
    RCC_AHBPeriphResetCmd                    0x080069eb   Thumb Code    28  stm32f0xx_rcc.o(.text)
    RCC_APB2PeriphResetCmd                   0x08006a07   Thumb Code    28  stm32f0xx_rcc.o(.text)
    RCC_APB1PeriphResetCmd                   0x08006a23   Thumb Code    28  stm32f0xx_rcc.o(.text)
    RCC_ITConfig                             0x08006a3f   Thumb Code    28  stm32f0xx_rcc.o(.text)
    RCC_ClearFlag                            0x08006a5b   Thumb Code    16  stm32f0xx_rcc.o(.text)
    RCC_GetITStatus                          0x08006a6b   Thumb Code    22  stm32f0xx_rcc.o(.text)
    RCC_ClearITPendingBit                    0x08006a81   Thumb Code     6  stm32f0xx_rcc.o(.text)
    RTC_WaitForSynchro                       0x08006aa5   Thumb Code   104  stm32f0xx_rtc.o(.text)
    RTC_EnterInitMode                        0x08006b0d   Thumb Code    82  stm32f0xx_rtc.o(.text)
    RTC_DeInit                               0x08006b5f   Thumb Code    98  stm32f0xx_rtc.o(.text)
    RTC_ExitInitMode                         0x08006bc1   Thumb Code    14  stm32f0xx_rtc.o(.text)
    RTC_Init                                 0x08006bcf   Thumb Code    84  stm32f0xx_rtc.o(.text)
    RTC_StructInit                           0x08006c23   Thumb Code    14  stm32f0xx_rtc.o(.text)
    RTC_WriteProtectionCmd                   0x08006c31   Thumb Code    24  stm32f0xx_rtc.o(.text)
    RTC_RefClockCmd                          0x08006c49   Thumb Code    72  stm32f0xx_rtc.o(.text)
    RTC_BypassShadowCmd                      0x08006c91   Thumb Code    48  stm32f0xx_rtc.o(.text)
    RTC_SetTime                              0x08006cf7   Thumb Code   208  stm32f0xx_rtc.o(.text)
    RTC_TimeStructInit                       0x08006dc7   Thumb Code    12  stm32f0xx_rtc.o(.text)
    RTC_GetTime                              0x08006dd3   Thumb Code    84  stm32f0xx_rtc.o(.text)
    RTC_GetSubSecond                         0x08006e27   Thumb Code    10  stm32f0xx_rtc.o(.text)
    RTC_SetDate                              0x08006e31   Thumb Code   220  stm32f0xx_rtc.o(.text)
    RTC_DateStructInit                       0x08006f0d   Thumb Code    14  stm32f0xx_rtc.o(.text)
    RTC_GetDate                              0x08006f1b   Thumb Code    88  stm32f0xx_rtc.o(.text)
    RTC_SetAlarm                             0x08006f73   Thumb Code   210  stm32f0xx_rtc.o(.text)
    RTC_AlarmStructInit                      0x08007045   Thumb Code    22  stm32f0xx_rtc.o(.text)
    RTC_GetAlarm                             0x0800705b   Thumb Code   112  stm32f0xx_rtc.o(.text)
    RTC_AlarmCmd                             0x080070cb   Thumb Code   106  stm32f0xx_rtc.o(.text)
    RTC_AlarmSubSecondConfig                 0x08007135   Thumb Code    34  stm32f0xx_rtc.o(.text)
    RTC_GetAlarmSubSecond                    0x08007157   Thumb Code    16  stm32f0xx_rtc.o(.text)
    RTC_WakeUpClockConfig                    0x08007167   Thumb Code    34  stm32f0xx_rtc.o(.text)
    RTC_SetWakeUpCounter                     0x08007189   Thumb Code    20  stm32f0xx_rtc.o(.text)
    RTC_GetWakeUpCounter                     0x0800719d   Thumb Code     8  stm32f0xx_rtc.o(.text)
    RTC_WakeUpCmd                            0x080071a5   Thumb Code   112  stm32f0xx_rtc.o(.text)
    RTC_DayLightSavingConfig                 0x08007215   Thumb Code    44  stm32f0xx_rtc.o(.text)
    RTC_GetStoreOperation                    0x08007241   Thumb Code    12  stm32f0xx_rtc.o(.text)
    RTC_OutputConfig                         0x0800724d   Thumb Code    44  stm32f0xx_rtc.o(.text)
    RTC_CalibOutputCmd                       0x08007279   Thumb Code    64  stm32f0xx_rtc.o(.text)
    RTC_CalibOutputConfig                    0x080072b9   Thumb Code    38  stm32f0xx_rtc.o(.text)
    RTC_SmoothCalibConfig                    0x080072df   Thumb Code    92  stm32f0xx_rtc.o(.text)
    RTC_TimeStampCmd                         0x0800733b   Thumb Code    56  stm32f0xx_rtc.o(.text)
    RTC_GetTimeStamp                         0x08007373   Thumb Code   152  stm32f0xx_rtc.o(.text)
    RTC_GetTimeStampSubSecond                0x0800740b   Thumb Code     6  stm32f0xx_rtc.o(.text)
    RTC_TamperTriggerConfig                  0x08007411   Thumb Code    40  stm32f0xx_rtc.o(.text)
    RTC_TamperCmd                            0x08007439   Thumb Code    36  stm32f0xx_rtc.o(.text)
    RTC_TamperFilterConfig                   0x0800745d   Thumb Code    28  stm32f0xx_rtc.o(.text)
    RTC_TamperSamplingFreqConfig             0x08007479   Thumb Code    28  stm32f0xx_rtc.o(.text)
    RTC_TamperPinsPrechargeDuration          0x08007495   Thumb Code    28  stm32f0xx_rtc.o(.text)
    RTC_TimeStampOnTamperDetectionCmd        0x080074b1   Thumb Code    40  stm32f0xx_rtc.o(.text)
    RTC_TamperPullUpCmd                      0x080074d9   Thumb Code    44  stm32f0xx_rtc.o(.text)
    RTC_WriteBackupRegister                  0x08007505   Thumb Code    26  stm32f0xx_rtc.o(.text)
    RTC_ReadBackupRegister                   0x0800751f   Thumb Code    28  stm32f0xx_rtc.o(.text)
    RTC_OutputTypeConfig                     0x0800753b   Thumb Code    28  stm32f0xx_rtc.o(.text)
    RTC_SynchroShiftConfig                   0x08007557   Thumb Code   118  stm32f0xx_rtc.o(.text)
    RTC_ITConfig                             0x080075cd   Thumb Code    94  stm32f0xx_rtc.o(.text)
    RTC_GetFlagStatus                        0x0800762b   Thumb Code    34  stm32f0xx_rtc.o(.text)
    RTC_ClearFlag                            0x0800764d   Thumb Code    26  stm32f0xx_rtc.o(.text)
    RTC_GetITStatus                          0x08007667   Thumb Code    90  stm32f0xx_rtc.o(.text)
    RTC_ClearITPendingBit                    0x080076c1   Thumb Code    30  stm32f0xx_rtc.o(.text)
    SPI_I2S_DeInit                           0x080076e5   Thumb Code    52  stm32f0xx_spi.o(.text)
    SPI_StructInit                           0x08007719   Thumb Code    30  stm32f0xx_spi.o(.text)
    SPI_Init                                 0x08007737   Thumb Code    76  stm32f0xx_spi.o(.text)
    I2S_StructInit                           0x08007783   Thumb Code    20  stm32f0xx_spi.o(.text)
    I2S_Init                                 0x08007797   Thumb Code   228  stm32f0xx_spi.o(.text)
    SPI_Cmd                                  0x0800787b   Thumb Code    26  stm32f0xx_spi.o(.text)
    SPI_TIModeCmd                            0x08007895   Thumb Code    26  stm32f0xx_spi.o(.text)
    I2S_Cmd                                  0x080078af   Thumb Code    26  stm32f0xx_spi.o(.text)
    SPI_DataSizeConfig                       0x080078c9   Thumb Code    20  stm32f0xx_spi.o(.text)
    SPI_RxFIFOThresholdConfig                0x080078dd   Thumb Code    16  stm32f0xx_spi.o(.text)
    SPI_BiDirectionalLineConfig              0x080078ed   Thumb Code    28  stm32f0xx_spi.o(.text)
    SPI_NSSInternalSoftwareConfig            0x08007909   Thumb Code    32  stm32f0xx_spi.o(.text)
    SPI_SSOutputCmd                          0x08007929   Thumb Code    24  stm32f0xx_spi.o(.text)
    SPI_NSSPulseModeCmd                      0x08007941   Thumb Code    26  stm32f0xx_spi.o(.text)
    SPI_SendData8                            0x0800795b   Thumb Code    10  stm32f0xx_spi.o(.text)
    SPI_I2S_SendData16                       0x08007965   Thumb Code     4  stm32f0xx_spi.o(.text)
    SPI_ReceiveData8                         0x08007969   Thumb Code    12  stm32f0xx_spi.o(.text)
    SPI_I2S_ReceiveData16                    0x08007975   Thumb Code     6  stm32f0xx_spi.o(.text)
    SPI_CRCLengthConfig                      0x0800797b   Thumb Code    16  stm32f0xx_spi.o(.text)
    SPI_CalculateCRC                         0x0800798b   Thumb Code    26  stm32f0xx_spi.o(.text)
    SPI_TransmitCRC                          0x080079a5   Thumb Code    12  stm32f0xx_spi.o(.text)
    SPI_GetCRC                               0x080079b1   Thumb Code    16  stm32f0xx_spi.o(.text)
    SPI_GetCRCPolynomial                     0x080079c1   Thumb Code     6  stm32f0xx_spi.o(.text)
    SPI_I2S_DMACmd                           0x080079c7   Thumb Code    20  stm32f0xx_spi.o(.text)
    SPI_LastDMATransferCmd                   0x080079db   Thumb Code    16  stm32f0xx_spi.o(.text)
    SPI_I2S_ITConfig                         0x080079eb   Thumb Code    34  stm32f0xx_spi.o(.text)
    SPI_GetTransmissionFIFOStatus            0x08007a0d   Thumb Code    12  stm32f0xx_spi.o(.text)
    SPI_GetReceptionFIFOStatus               0x08007a19   Thumb Code    12  stm32f0xx_spi.o(.text)
    SPI_I2S_GetFlagStatus                    0x08007a25   Thumb Code    20  stm32f0xx_spi.o(.text)
    SPI_I2S_ClearFlag                        0x08007a39   Thumb Code     6  stm32f0xx_spi.o(.text)
    SPI_I2S_GetITStatus                      0x08007a3f   Thumb Code    56  stm32f0xx_spi.o(.text)
    SYSCFG_DeInit                            0x08007aa1   Thumb Code    40  stm32f0xx_syscfg.o(.text)
    SYSCFG_MemoryRemapConfig                 0x08007ac9   Thumb Code    24  stm32f0xx_syscfg.o(.text)
    SYSCFG_DMAChannelRemapConfig             0x08007ae1   Thumb Code    28  stm32f0xx_syscfg.o(.text)
    SYSCFG_I2CFastModePlusConfig             0x08007afd   Thumb Code    28  stm32f0xx_syscfg.o(.text)
    SYSCFG_IRDAEnvSelection                  0x08007b19   Thumb Code    22  stm32f0xx_syscfg.o(.text)
    SYSCFG_EXTILineConfig                    0x08007b2f   Thumb Code    66  stm32f0xx_syscfg.o(.text)
    SYSCFG_GetPendingIT                      0x08007b71   Thumb Code    20  stm32f0xx_syscfg.o(.text)
    SYSCFG_BreakConfig                       0x08007b85   Thumb Code    12  stm32f0xx_syscfg.o(.text)
    SYSCFG_GetFlagStatus                     0x08007b91   Thumb Code    26  stm32f0xx_syscfg.o(.text)
    SYSCFG_ClearFlag                         0x08007bab   Thumb Code    12  stm32f0xx_syscfg.o(.text)
    TIM_DeInit                               0x08007bbd   Thumb Code   228  stm32f0xx_tim.o(.text)
    TIM_TimeBaseInit                         0x08007ca1   Thumb Code    90  stm32f0xx_tim.o(.text)
    TIM_TimeBaseStructInit                   0x08007cfb   Thumb Code    18  stm32f0xx_tim.o(.text)
    TIM_PrescalerConfig                      0x08007d0d   Thumb Code     6  stm32f0xx_tim.o(.text)
    TIM_CounterModeConfig                    0x08007d13   Thumb Code    20  stm32f0xx_tim.o(.text)
    TIM_SetCounter                           0x08007d27   Thumb Code     4  stm32f0xx_tim.o(.text)
    TIM_SetAutoreload                        0x08007d2b   Thumb Code     4  stm32f0xx_tim.o(.text)
    TIM_GetCounter                           0x08007d2f   Thumb Code     6  stm32f0xx_tim.o(.text)
    TIM_GetPrescaler                         0x08007d35   Thumb Code     6  stm32f0xx_tim.o(.text)
    TIM_UpdateDisableConfig                  0x08007d3b   Thumb Code    26  stm32f0xx_tim.o(.text)
    TIM_UpdateRequestConfig                  0x08007d55   Thumb Code    26  stm32f0xx_tim.o(.text)
    TIM_ARRPreloadConfig                     0x08007d6f   Thumb Code    26  stm32f0xx_tim.o(.text)
    TIM_SelectOnePulseMode                   0x08007d89   Thumb Code    18  stm32f0xx_tim.o(.text)
    TIM_SetClockDivision                     0x08007d9b   Thumb Code    16  stm32f0xx_tim.o(.text)
    TIM_Cmd                                  0x08007dab   Thumb Code    26  stm32f0xx_tim.o(.text)
    TIM_BDTRConfig                           0x08007dc5   Thumb Code    32  stm32f0xx_tim.o(.text)
    TIM_BDTRStructInit                       0x08007de5   Thumb Code    18  stm32f0xx_tim.o(.text)
    TIM_CtrlPWMOutputs                       0x08007df7   Thumb Code    34  stm32f0xx_tim.o(.text)
    TIM_OC1Init                              0x08007e19   Thumb Code   122  stm32f0xx_tim.o(.text)
    TIM_OC2Init                              0x08007e93   Thumb Code   144  stm32f0xx_tim.o(.text)
    TIM_OC3Init                              0x08007f23   Thumb Code   190  stm32f0xx_tim.o(.text)
    TIM_OC4Init                              0x08007fe1   Thumb Code    88  stm32f0xx_tim.o(.text)
    TIM_OCStructInit                         0x08008039   Thumb Code    20  stm32f0xx_tim.o(.text)
    TIM_SelectOCxM                           0x0800804d   Thumb Code    82  stm32f0xx_tim.o(.text)
    TIM_SetCompare1                          0x0800809f   Thumb Code     4  stm32f0xx_tim.o(.text)
    TIM_SetCompare2                          0x080080a3   Thumb Code     4  stm32f0xx_tim.o(.text)
    TIM_SetCompare3                          0x080080a7   Thumb Code     4  stm32f0xx_tim.o(.text)
    TIM_SetCompare4                          0x080080ab   Thumb Code     4  stm32f0xx_tim.o(.text)
    TIM_ForcedOC1Config                      0x080080af   Thumb Code    20  stm32f0xx_tim.o(.text)
    TIM_ForcedOC2Config                      0x080080c3   Thumb Code    20  stm32f0xx_tim.o(.text)
    TIM_ForcedOC3Config                      0x080080d7   Thumb Code    20  stm32f0xx_tim.o(.text)
    TIM_ForcedOC4Config                      0x080080eb   Thumb Code    20  stm32f0xx_tim.o(.text)
    TIM_CCPreloadControl                     0x080080ff   Thumb Code    26  stm32f0xx_tim.o(.text)
    TIM_OC1PreloadConfig                     0x08008119   Thumb Code    22  stm32f0xx_tim.o(.text)
    TIM_OC2PreloadConfig                     0x0800812f   Thumb Code    20  stm32f0xx_tim.o(.text)
    TIM_OC3PreloadConfig                     0x08008143   Thumb Code    22  stm32f0xx_tim.o(.text)
    TIM_OC4PreloadConfig                     0x08008159   Thumb Code    20  stm32f0xx_tim.o(.text)
    TIM_OC1FastConfig                        0x0800816d   Thumb Code    22  stm32f0xx_tim.o(.text)
    TIM_OC2FastConfig                        0x08008183   Thumb Code    20  stm32f0xx_tim.o(.text)
    TIM_OC3FastConfig                        0x08008197   Thumb Code    22  stm32f0xx_tim.o(.text)
    TIM_OC4FastConfig                        0x080081ad   Thumb Code    20  stm32f0xx_tim.o(.text)
    TIM_ClearOC1Ref                          0x080081c1   Thumb Code    22  stm32f0xx_tim.o(.text)
    TIM_ClearOC2Ref                          0x080081d7   Thumb Code    20  stm32f0xx_tim.o(.text)
    TIM_ClearOC3Ref                          0x080081eb   Thumb Code    22  stm32f0xx_tim.o(.text)
    TIM_ClearOC4Ref                          0x08008201   Thumb Code    20  stm32f0xx_tim.o(.text)
    TIM_OC1PolarityConfig                    0x08008215   Thumb Code    22  stm32f0xx_tim.o(.text)
    TIM_OC1NPolarityConfig                   0x0800822b   Thumb Code    22  stm32f0xx_tim.o(.text)
    TIM_OC2PolarityConfig                    0x08008241   Thumb Code    22  stm32f0xx_tim.o(.text)
    TIM_OC2NPolarityConfig                   0x08008257   Thumb Code    22  stm32f0xx_tim.o(.text)
    TIM_OC3PolarityConfig                    0x0800826d   Thumb Code    20  stm32f0xx_tim.o(.text)
    TIM_OC3NPolarityConfig                   0x08008281   Thumb Code    20  stm32f0xx_tim.o(.text)
    TIM_OC4PolarityConfig                    0x08008295   Thumb Code    20  stm32f0xx_tim.o(.text)
    TIM_SelectOCREFClear                     0x080082a9   Thumb Code    18  stm32f0xx_tim.o(.text)
    TIM_CCxCmd                               0x080082bb   Thumb Code    30  stm32f0xx_tim.o(.text)
    TIM_CCxNCmd                              0x080082d9   Thumb Code    30  stm32f0xx_tim.o(.text)
    TIM_SelectCOM                            0x080082f7   Thumb Code    26  stm32f0xx_tim.o(.text)
    TIM_SetIC4Prescaler                      0x08008311   Thumb Code    20  stm32f0xx_tim.o(.text)
    TIM_SetIC3Prescaler                      0x08008367   Thumb Code    18  stm32f0xx_tim.o(.text)
    TIM_SetIC2Prescaler                      0x080083bb   Thumb Code    78  stm32f0xx_tim.o(.text)
    TIM_SetIC1Prescaler                      0x0800844b   Thumb Code    18  stm32f0xx_tim.o(.text)
    TIM_ICInit                               0x08008493   Thumb Code   112  stm32f0xx_tim.o(.text)
    TIM_ICStructInit                         0x08008503   Thumb Code    18  stm32f0xx_tim.o(.text)
    TIM_PWMIConfig                           0x08008515   Thumb Code   124  stm32f0xx_tim.o(.text)
    TIM_GetCapture1                          0x08008591   Thumb Code     6  stm32f0xx_tim.o(.text)
    TIM_GetCapture2                          0x08008597   Thumb Code     6  stm32f0xx_tim.o(.text)
    TIM_GetCapture3                          0x0800859d   Thumb Code     6  stm32f0xx_tim.o(.text)
    TIM_GetCapture4                          0x080085a3   Thumb Code     6  stm32f0xx_tim.o(.text)
    TIM_ITConfig                             0x080085a9   Thumb Code    20  stm32f0xx_tim.o(.text)
    TIM_GenerateEvent                        0x080085bd   Thumb Code     4  stm32f0xx_tim.o(.text)
    TIM_GetFlagStatus                        0x080085c1   Thumb Code    20  stm32f0xx_tim.o(.text)
    TIM_ClearFlag                            0x080085d5   Thumb Code     6  stm32f0xx_tim.o(.text)
    TIM_GetITStatus                          0x080085db   Thumb Code    38  stm32f0xx_tim.o(.text)
    TIM_ClearITPendingBit                    0x08008601   Thumb Code     6  stm32f0xx_tim.o(.text)
    TIM_DMAConfig                            0x08008607   Thumb Code    12  stm32f0xx_tim.o(.text)
    TIM_DMACmd                               0x08008613   Thumb Code    20  stm32f0xx_tim.o(.text)
    TIM_SelectCCDMA                          0x08008627   Thumb Code    26  stm32f0xx_tim.o(.text)
    TIM_InternalClockConfig                  0x08008641   Thumb Code    12  stm32f0xx_tim.o(.text)
    TIM_SelectInputTrigger                   0x0800864d   Thumb Code    22  stm32f0xx_tim.o(.text)
    TIM_ITRxExternalClockConfig              0x08008663   Thumb Code    24  stm32f0xx_tim.o(.text)
    TIM_TIxExternalClockConfig               0x0800867b   Thumb Code    58  stm32f0xx_tim.o(.text)
    TIM_ETRConfig                            0x080086b5   Thumb Code    24  stm32f0xx_tim.o(.text)
    TIM_ETRClockMode1Config                  0x080086cd   Thumb Code    48  stm32f0xx_tim.o(.text)
    TIM_ETRClockMode2Config                  0x080086fd   Thumb Code    34  stm32f0xx_tim.o(.text)
    TIM_SelectOutputTrigger                  0x0800871f   Thumb Code    18  stm32f0xx_tim.o(.text)
    TIM_SelectSlaveMode                      0x08008731   Thumb Code    18  stm32f0xx_tim.o(.text)
    TIM_SelectMasterSlaveMode                0x08008743   Thumb Code    18  stm32f0xx_tim.o(.text)
    TIM_EncoderInterfaceConfig               0x08008755   Thumb Code    60  stm32f0xx_tim.o(.text)
    TIM_SelectHallSensor                     0x08008791   Thumb Code    26  stm32f0xx_tim.o(.text)
    TIM_RemapConfig                          0x080087ab   Thumb Code     6  stm32f0xx_tim.o(.text)
    USART_DeInit                             0x080087bd   Thumb Code   206  stm32f0xx_usart.o(.text)
    USART_Init                               0x0800888b   Thumb Code   226  stm32f0xx_usart.o(.text)
    USART_StructInit                         0x0800896d   Thumb Code    24  stm32f0xx_usart.o(.text)
    USART_ClockInit                          0x08008985   Thumb Code    36  stm32f0xx_usart.o(.text)
    USART_ClockStructInit                    0x080089a9   Thumb Code    12  stm32f0xx_usart.o(.text)
    USART_Cmd                                0x080089b5   Thumb Code    24  stm32f0xx_usart.o(.text)
    USART_DirectionModeCmd                   0x080089cd   Thumb Code    20  stm32f0xx_usart.o(.text)
    USART_OverSampling8Cmd                   0x080089e1   Thumb Code    28  stm32f0xx_usart.o(.text)
    USART_OneBitMethodCmd                    0x080089fd   Thumb Code    28  stm32f0xx_usart.o(.text)
    USART_MSBFirstCmd                        0x08008a19   Thumb Code    28  stm32f0xx_usart.o(.text)
    USART_DataInvCmd                         0x08008a35   Thumb Code    28  stm32f0xx_usart.o(.text)
    USART_InvPinCmd                          0x08008a51   Thumb Code    20  stm32f0xx_usart.o(.text)
    USART_SWAPPinCmd                         0x08008a65   Thumb Code    28  stm32f0xx_usart.o(.text)
    USART_ReceiverTimeOutCmd                 0x08008a81   Thumb Code    28  stm32f0xx_usart.o(.text)
    USART_SetReceiverTimeOut                 0x08008a9d   Thumb Code    16  stm32f0xx_usart.o(.text)
    USART_SetPrescaler                       0x08008aad   Thumb Code    18  stm32f0xx_usart.o(.text)
    USART_STOPModeCmd                        0x08008abf   Thumb Code    24  stm32f0xx_usart.o(.text)
    USART_StopModeWakeUpSourceConfig         0x08008ad7   Thumb Code    18  stm32f0xx_usart.o(.text)
    USART_AutoBaudRateCmd                    0x08008ae9   Thumb Code    28  stm32f0xx_usart.o(.text)
    USART_AutoBaudRateConfig                 0x08008b05   Thumb Code    18  stm32f0xx_usart.o(.text)
    USART_SendData                           0x08008b17   Thumb Code     8  stm32f0xx_usart.o(.text)
    USART_ReceiveData                        0x08008b1f   Thumb Code    10  stm32f0xx_usart.o(.text)
    USART_SetAddress                         0x08008b29   Thumb Code    18  stm32f0xx_usart.o(.text)
    USART_MuteModeCmd                        0x08008b3b   Thumb Code    28  stm32f0xx_usart.o(.text)
    USART_MuteModeWakeUpConfig               0x08008b57   Thumb Code    18  stm32f0xx_usart.o(.text)
    USART_AddressDetectionConfig             0x08008b69   Thumb Code    16  stm32f0xx_usart.o(.text)
    USART_LINBreakDetectLengthConfig         0x08008b79   Thumb Code    16  stm32f0xx_usart.o(.text)
    USART_LINCmd                             0x08008b89   Thumb Code    68  stm32f0xx_usart.o(.text)
    USART_HalfDuplexCmd                      0x08008bcd   Thumb Code    24  stm32f0xx_usart.o(.text)
    USART_SetGuardTime                       0x08008be5   Thumb Code    16  stm32f0xx_usart.o(.text)
    USART_SmartCardCmd                       0x08008bf5   Thumb Code    24  stm32f0xx_usart.o(.text)
    USART_SmartCardNACKCmd                   0x08008c0d   Thumb Code    24  stm32f0xx_usart.o(.text)
    USART_SetAutoRetryCount                  0x08008c25   Thumb Code    20  stm32f0xx_usart.o(.text)
    USART_SetBlockLength                     0x08008c39   Thumb Code    18  stm32f0xx_usart.o(.text)
    USART_IrDAConfig                         0x08008c4b   Thumb Code    16  stm32f0xx_usart.o(.text)
    USART_IrDACmd                            0x08008c5b   Thumb Code    24  stm32f0xx_usart.o(.text)
    USART_DECmd                              0x08008c73   Thumb Code    28  stm32f0xx_usart.o(.text)
    USART_DEPolarityConfig                   0x08008c8f   Thumb Code    18  stm32f0xx_usart.o(.text)
    USART_SetDEAssertionTime                 0x08008ca1   Thumb Code    20  stm32f0xx_usart.o(.text)
    USART_SetDEDeassertionTime               0x08008cb5   Thumb Code    20  stm32f0xx_usart.o(.text)
    USART_DMACmd                             0x08008cc9   Thumb Code    20  stm32f0xx_usart.o(.text)
    USART_DMAReceptionErrorConfig            0x08008cdd   Thumb Code    18  stm32f0xx_usart.o(.text)
    USART_ITConfig                           0x08008cef   Thumb Code    66  stm32f0xx_usart.o(.text)
    USART_RequestCmd                         0x08008d31   Thumb Code    20  stm32f0xx_usart.o(.text)
    USART_OverrunDetectionConfig             0x08008d45   Thumb Code    18  stm32f0xx_usart.o(.text)
    USART_GetFlagStatus                      0x08008d57   Thumb Code    20  stm32f0xx_usart.o(.text)
    USART_ClearFlag                          0x08008d6b   Thumb Code     4  stm32f0xx_usart.o(.text)
    USART_GetITStatus                        0x08008d6f   Thumb Code    78  stm32f0xx_usart.o(.text)
    USART_ClearITPendingBit                  0x08008dbd   Thumb Code    18  stm32f0xx_usart.o(.text)
    mlist_init                               0x08008dcf   Thumb Code    32  mlist.o(.text)
    mlist_find                               0x08008def   Thumb Code    72  mlist.o(.text)
    mlist_foreach                            0x08008e37   Thumb Code    60  mlist.o(.text)
    mlist_add                                0x08008e73   Thumb Code   104  mlist.o(.text)
    mlist_del                                0x08008edb   Thumb Code    24  mlist.o(.text)
    mlist_get                                0x08008ef3   Thumb Code    40  mlist.o(.text)
    mqueue_init                              0x08008f1b   Thumb Code    18  mqueue.o(.text)
    mqueue_is_full                           0x08008f2d   Thumb Code    18  mqueue.o(.text)
    mqueue_in                                0x08008f3f   Thumb Code    72  mqueue.o(.text)
    mqueue_is_empty                          0x08008f87   Thumb Code    16  mqueue.o(.text)
    mqueue_first                             0x08008f97   Thumb Code    30  mqueue.o(.text)
    mqueue_out                               0x08008fb5   Thumb Code    34  mqueue.o(.text)
    __use_no_semihosting                     0x08008fd7   Thumb Code     2  use_no_semi_2.o(.text)
    __2printf                                0x08008fd9   Thumb Code    22  noretval__2printf.o(.text)
    _printf_pre_padding                      0x08008ff5   Thumb Code    44  _printf_pad.o(.text)
    _printf_post_padding                     0x08009021   Thumb Code    34  _printf_pad.o(.text)
    _printf_str                              0x08009043   Thumb Code    82  _printf_str.o(.text)
    _printf_int_dec                          0x08009095   Thumb Code    90  _printf_dec.o(.text)
    _printf_int_hex                          0x08009101   Thumb Code    84  _printf_hex_int.o(.text)
    _printf_longlong_hex                     0x08009101   Thumb Code     0  _printf_hex_int.o(.text)
    __printf                                 0x08009159   Thumb Code   306  __printf_flags_wp.o(.text)
    srand                                    0x08009291   Thumb Code    44  rand.o(.text)
    _rand_init                               0x080092bd   Thumb Code     4  rand.o(.text)
    memcmp                                   0x080092cd   Thumb Code    90  memcmp.o(.text)
    __aeabi_memcpy                           0x08009327   Thumb Code   130  rt_memcpy.o(.text)
    __rt_memcpy                              0x08009327   Thumb Code     0  rt_memcpy.o(.text)
    __aeabi_memset                           0x080093a9   Thumb Code    18  aeabi_memset.o(.text)
    _memset_w                                0x080093bb   Thumb Code    26  rt_memclr.o(.text)
    _memset                                  0x080093d5   Thumb Code    30  rt_memclr.o(.text)
    __aeabi_memclr                           0x080093f3   Thumb Code     4  rt_memclr.o(.text)
    __rt_memclr                              0x080093f3   Thumb Code     0  rt_memclr.o(.text)
    __aeabi_memclr4                          0x080093f7   Thumb Code     0  rt_memclr.o(.text)
    __aeabi_memclr8                          0x080093f7   Thumb Code     0  rt_memclr.o(.text)
    __rt_memclr_w                            0x080093f7   Thumb Code     4  rt_memclr.o(.text)
    __aeabi_uidiv                            0x080093fb   Thumb Code     0  aeabi_sdiv.o(.text)
    __aeabi_uidivmod                         0x080093fb   Thumb Code    20  aeabi_sdiv.o(.text)
    __aeabi_idiv                             0x0800940f   Thumb Code     0  aeabi_sdiv.o(.text)
    __aeabi_idivmod                          0x0800940f   Thumb Code   326  aeabi_sdiv.o(.text)
    __use_two_region_memory                  0x08009555   Thumb Code     2  heapauxi.o(.text)
    __rt_heap_escrow$2region                 0x08009557   Thumb Code     2  heapauxi.o(.text)
    __rt_heap_expand$2region                 0x08009559   Thumb Code     2  heapauxi.o(.text)
    __aeabi_d2f                              0x0800955d   Thumb Code     0  d2f.o(.text)
    _d2f                                     0x0800955d   Thumb Code   120  d2f.o(.text)
    __aeabi_ddiv                             0x080095d9   Thumb Code     0  ddiv.o(.text)
    _ddiv                                    0x080095d9   Thumb Code  1072  ddiv.o(.text)
    _drdiv                                   0x08009a09   Thumb Code    20  ddiv.o(.text)
    __aeabi_f2d                              0x08009a21   Thumb Code     0  f2d.o(.text)
    _f2d                                     0x08009a21   Thumb Code    80  f2d.o(.text)
    __aeabi_fdiv                             0x08009a75   Thumb Code     0  fdiv.o(.text)
    _fdiv                                    0x08009a75   Thumb Code   334  fdiv.o(.text)
    _frdiv                                   0x08009bc3   Thumb Code     8  fdiv.o(.text)
    __aeabi_f2uiz                            0x08009bd5   Thumb Code     0  ffixui.o(.text)
    _ffixu                                   0x08009bd5   Thumb Code    48  ffixui.o(.text)
    __aeabi_i2f_normalise                    0x08009c05   Thumb Code    72  fflti.o(.text)
    __aeabi_i2f                              0x08009c4d   Thumb Code    16  fflti.o(.text)
    _fflt                                    0x08009c4d   Thumb Code     0  fflti.o(.text)
    __aeabi_ui2f                             0x08009c5d   Thumb Code     6  fflti.o(.text)
    _ffltu                                   0x08009c5d   Thumb Code     0  fflti.o(.text)
    __I$use$semihosting                      0x08009c63   Thumb Code     0  use_no_semi.o(.text)
    __use_no_semihosting_swi                 0x08009c63   Thumb Code     2  use_no_semi.o(.text)
    _printf_int_common                       0x08009c65   Thumb Code   176  _printf_intcommon.o(.text)
    _printf_cs_common                        0x08009d15   Thumb Code    22  _printf_char.o(.text)
    _printf_char                             0x08009d2b   Thumb Code    16  _printf_char.o(.text)
    _printf_string                           0x08009d3b   Thumb Code     8  _printf_char.o(.text)
    _printf_char_file                        0x08009d45   Thumb Code    34  _printf_char_file.o(.text)
    __rt_udiv10                              0x08009d6d   Thumb Code    40  rtudiv10.o(.text)
    __fpl_fcmp_InfNaN                        0x08009d95   Thumb Code    96  fcmpin.o(.text)
    _printf_char_common                      0x08009e03   Thumb Code    32  _printf_char_common.o(.text)
    __fpl_cmpreturn                          0x08009e29   Thumb Code    46  cmpret.o(.text)
    __fpl_fcheck_NaN2                        0x08009e59   Thumb Code    10  fnan2.o(.text)
    __user_setup_stackheap                   0x08009e69   Thumb Code    62  sys_stackheap_outer.o(.text)
    exit                                     0x08009ea7   Thumb Code    16  exit.o(.text)
    __fpl_return_NaN                         0x08009eb7   Thumb Code    94  retnan.o(.text)
    __user_libspace                          0x08009f15   Thumb Code     8  libspace.o(.text)
    __user_perproc_libspace                  0x08009f15   Thumb Code     0  libspace.o(.text)
    __user_perthread_libspace                0x08009f15   Thumb Code     0  libspace.o(.text)
    __ARM_common_switch8                     0x08009f1d   Thumb Code    28  sub_module.o(i.__ARM_common_switch8)
    _is_digit                                0x08009f39   Thumb Code    14  __printf_wp.o(i._is_digit)
    __aeabi_fadd                             0x08009f49   Thumb Code     0  faddsub.o(x$fpl$fadd)
    _fadd                                    0x08009f49   Thumb Code   134  faddsub.o(x$fpl$fadd)
    __aeabi_fmul                             0x08009fd5   Thumb Code     0  fmul.o(x$fpl$fmul)
    _fmul                                    0x08009fd5   Thumb Code   172  fmul.o(x$fpl$fmul)
    __aeabi_cfrcmple                         0x0800a085   Thumb Code     0  frlef.o(x$fpl$frleqf)
    _frcmple                                 0x0800a085   Thumb Code    84  frlef.o(x$fpl$frleqf)
    __aeabi_fsub                             0x0800a0dd   Thumb Code     0  faddsub.o(x$fpl$fsub)
    _fsub                                    0x0800a0dd   Thumb Code   204  faddsub.o(x$fpl$fsub)
    __I$use$fp                               0x0800a1ac   Number         0  usenofp.o(x$fpl$usenofp)
    iv                                       0x0800a1b5   Data          16  hal_aes.o(.constdata)
    Region$$Table$$Base                      0x0800ab54   Number         0  anon$$obj.o(Region$$Table)
    Region$$Table$$Limit                     0x0800ab74   Number         0  anon$$obj.o(Region$$Table)
    SystemCoreClock                          0x200000c0   Data           4  system_stm32f0xx.o(.data)
    AHBPrescTable                            0x200000c4   Data          16  system_stm32f0xx.o(.data)
    __stdout                                 0x200000e8   Data           4  hal_uart.o(.data)
    rf_sleep_up                              0x2000010e   Data           1  phy.o(.data)
    button_sleep_fig                         0x20000118   Data           1  button.o(.data)
    g_device                                 0x2000011c   Data          28  device.o(.data)
    rf_recv_fig                              0x2000013b   Data           1  device.o(.data)
    notify_time_wait                         0x2000013c   Data           4  device.o(.data)
    myaddr_num                               0x20000178   Data           1  sub_module.o(.data)
    train_time_wait                          0x20000184   Data           4  socket.o(.data)
    _random_number_data                      0x200007a4   Data         228  rand.o(.bss)
    __libspace_start                         0x20000888   Data          96  libspace.o(.bss)
    __temporary_stack_top$libspace           0x200008e8   Data           0  libspace.o(.bss)



==============================================================================

Memory Map of the image

  Image Entry point : 0x080000b5

  Load Region LR_IROM1 (Base: 0x08000000, Size: 0x0000ac80, Max: 0x00010000, ABSOLUTE)

    Execution Region ER_IROM1 (Exec base: 0x08000000, Load base: 0x08000000, Size: 0x0000ab74, Max: 0x00010000, ABSOLUTE)

    Exec Addr    Load Addr    Size         Type   Attr      Idx    E Section Name        Object

    0x08000000   0x08000000   0x000000b4   Data   RO            3    RESET               startup_stm32f030.o
    0x080000b4   0x080000b4   0x00000008   Code   RO         2085  * !!!main             c_p.l(__main.o)
    0x080000bc   0x080000bc   0x0000003c   Code   RO         2298    !!!scatter          c_p.l(__scatter.o)
    0x080000f8   0x080000f8   0x0000001a   Code   RO         2300    !!handler_copy      c_p.l(__scatter_copy.o)
    0x08000112   0x08000112   0x00000002   PAD
    0x08000114   0x08000114   0x0000001c   Code   RO         2302    !!handler_zi        c_p.l(__scatter_zi.o)
    0x08000130   0x08000130   0x00000002   Code   RO         2063    .ARM.Collect$$_printf_percent$$00000000  c_p.l(_printf_percent.o)
    0x08000132   0x08000132   0x0000000a   Code   RO         2062    .ARM.Collect$$_printf_percent$$00000009  c_p.l(_printf_d.o)
    0x0800013c   0x0800013c   0x0000000a   Code   RO         2061    .ARM.Collect$$_printf_percent$$0000000C  c_p.l(_printf_x.o)
    0x08000146   0x08000146   0x0000000a   Code   RO         2059    .ARM.Collect$$_printf_percent$$00000013  c_p.l(_printf_c.o)
    0x08000150   0x08000150   0x0000000a   Code   RO         2060    .ARM.Collect$$_printf_percent$$00000014  c_p.l(_printf_s.o)
    0x0800015a   0x0800015a   0x00000004   Code   RO         2124    .ARM.Collect$$_printf_percent$$00000017  c_p.l(_printf_percent_end.o)
    0x0800015e   0x0800015e   0x00000002   Code   RO         2222    .ARM.Collect$$libinit$$00000000  c_p.l(libinit.o)
    0x08000160   0x08000160   0x00000000   Code   RO         2128    .ARM.Collect$$libinit$$00000002  c_p.l(libinit2.o)
    0x08000160   0x08000160   0x00000000   Code   RO         2130    .ARM.Collect$$libinit$$00000004  c_p.l(libinit2.o)
    0x08000160   0x08000160   0x00000000   Code   RO         2133    .ARM.Collect$$libinit$$0000000A  c_p.l(libinit2.o)
    0x08000160   0x08000160   0x00000000   Code   RO         2135    .ARM.Collect$$libinit$$0000000C  c_p.l(libinit2.o)
    0x08000160   0x08000160   0x00000004   Code   RO         2136    .ARM.Collect$$libinit$$0000000D  c_p.l(libinit2.o)
    0x08000164   0x08000164   0x00000000   Code   RO         2137    .ARM.Collect$$libinit$$0000000E  c_p.l(libinit2.o)
    0x08000164   0x08000164   0x00000000   Code   RO         2140    .ARM.Collect$$libinit$$00000011  c_p.l(libinit2.o)
    0x08000164   0x08000164   0x00000000   Code   RO         2142    .ARM.Collect$$libinit$$00000013  c_p.l(libinit2.o)
    0x08000164   0x08000164   0x00000000   Code   RO         2144    .ARM.Collect$$libinit$$00000015  c_p.l(libinit2.o)
    0x08000164   0x08000164   0x00000000   Code   RO         2146    .ARM.Collect$$libinit$$00000017  c_p.l(libinit2.o)
    0x08000164   0x08000164   0x00000000   Code   RO         2148    .ARM.Collect$$libinit$$00000019  c_p.l(libinit2.o)
    0x08000164   0x08000164   0x00000000   Code   RO         2150    .ARM.Collect$$libinit$$0000001B  c_p.l(libinit2.o)
    0x08000164   0x08000164   0x00000000   Code   RO         2152    .ARM.Collect$$libinit$$0000001D  c_p.l(libinit2.o)
    0x08000164   0x08000164   0x00000000   Code   RO         2154    .ARM.Collect$$libinit$$0000001F  c_p.l(libinit2.o)
    0x08000164   0x08000164   0x00000000   Code   RO         2156    .ARM.Collect$$libinit$$00000021  c_p.l(libinit2.o)
    0x08000164   0x08000164   0x00000000   Code   RO         2158    .ARM.Collect$$libinit$$00000023  c_p.l(libinit2.o)
    0x08000164   0x08000164   0x00000000   Code   RO         2160    .ARM.Collect$$libinit$$00000025  c_p.l(libinit2.o)
    0x08000164   0x08000164   0x00000000   Code   RO         2164    .ARM.Collect$$libinit$$0000002C  c_p.l(libinit2.o)
    0x08000164   0x08000164   0x00000000   Code   RO         2166    .ARM.Collect$$libinit$$0000002E  c_p.l(libinit2.o)
    0x08000164   0x08000164   0x00000000   Code   RO         2168    .ARM.Collect$$libinit$$00000030  c_p.l(libinit2.o)
    0x08000164   0x08000164   0x00000000   Code   RO         2170    .ARM.Collect$$libinit$$00000032  c_p.l(libinit2.o)
    0x08000164   0x08000164   0x00000002   Code   RO         2171    .ARM.Collect$$libinit$$00000033  c_p.l(libinit2.o)
    0x08000166   0x08000166   0x00000002   Code   RO         2265    .ARM.Collect$$libshutdown$$00000000  c_p.l(libshutdown.o)
    0x08000168   0x08000168   0x00000000   Code   RO         2281    .ARM.Collect$$libshutdown$$00000002  c_p.l(libshutdown2.o)
    0x08000168   0x08000168   0x00000000   Code   RO         2283    .ARM.Collect$$libshutdown$$00000004  c_p.l(libshutdown2.o)
    0x08000168   0x08000168   0x00000000   Code   RO         2286    .ARM.Collect$$libshutdown$$00000007  c_p.l(libshutdown2.o)
    0x08000168   0x08000168   0x00000000   Code   RO         2289    .ARM.Collect$$libshutdown$$0000000A  c_p.l(libshutdown2.o)
    0x08000168   0x08000168   0x00000000   Code   RO         2291    .ARM.Collect$$libshutdown$$0000000C  c_p.l(libshutdown2.o)
    0x08000168   0x08000168   0x00000000   Code   RO         2294    .ARM.Collect$$libshutdown$$0000000F  c_p.l(libshutdown2.o)
    0x08000168   0x08000168   0x00000002   Code   RO         2295    .ARM.Collect$$libshutdown$$00000010  c_p.l(libshutdown2.o)
    0x0800016a   0x0800016a   0x00000000   Code   RO         2113    .ARM.Collect$$rtentry$$00000000  c_p.l(__rtentry.o)
    0x0800016a   0x0800016a   0x00000000   Code   RO         2176    .ARM.Collect$$rtentry$$00000002  c_p.l(__rtentry2.o)
    0x0800016a   0x0800016a   0x00000006   Code   RO         2188    .ARM.Collect$$rtentry$$00000004  c_p.l(__rtentry4.o)
    0x08000170   0x08000170   0x00000000   Code   RO         2178    .ARM.Collect$$rtentry$$00000009  c_p.l(__rtentry2.o)
    0x08000170   0x08000170   0x00000004   Code   RO         2179    .ARM.Collect$$rtentry$$0000000A  c_p.l(__rtentry2.o)
    0x08000174   0x08000174   0x00000000   Code   RO         2181    .ARM.Collect$$rtentry$$0000000C  c_p.l(__rtentry2.o)
    0x08000174   0x08000174   0x00000008   Code   RO         2182    .ARM.Collect$$rtentry$$0000000D  c_p.l(__rtentry2.o)
    0x0800017c   0x0800017c   0x00000002   Code   RO         2231    .ARM.Collect$$rtexit$$00000000  c_p.l(rtexit.o)
    0x0800017e   0x0800017e   0x00000000   Code   RO         2247    .ARM.Collect$$rtexit$$00000002  c_p.l(rtexit2.o)
    0x0800017e   0x0800017e   0x00000004   Code   RO         2248    .ARM.Collect$$rtexit$$00000003  c_p.l(rtexit2.o)
    0x08000182   0x08000182   0x00000006   Code   RO         2249    .ARM.Collect$$rtexit$$00000004  c_p.l(rtexit2.o)
    0x08000188   0x08000188   0x00000038   Code   RO         2064    .emb_text           c_p.l(rand.o)
    0x080001c0   0x080001c0   0x00000038   Code   RO         2071    .emb_text           c_p.l(rt_memcpy.o)
    0x080001f8   0x080001f8   0x00000074   Code   RO            4    .text               startup_stm32f030.o
    0x0800026c   0x0800026c   0x000001f0   Code   RO           12    .text               system_stm32f0xx.o
    0x0800045c   0x0800045c   0x00000120   Code   RO           99    .text               app.o
    0x0800057c   0x0800057c   0x00000080   Code   RO          199    .text               hal.o
    0x080005fc   0x080005fc   0x000000f4   Code   RO          266    .text               hal_adc.o
    0x080006f0   0x080006f0   0x00000a9c   Code   RO          335    .text               hal_aes.o
    0x0800118c   0x0800118c   0x000000d4   Code   RO          381    .text               hal_flash.o
    0x08001260   0x08001260   0x000000bc   Code   RO          404    .text               hal_led.o
    0x0800131c   0x0800131c   0x0000005c   Code   RO          430    .text               hal_rnd.o
    0x08001378   0x08001378   0x000003f0   Code   RO          461    .text               hal_sleep.o
    0x08001768   0x08001768   0x00000078   Code   RO          497    .text               hal_timer.o
    0x080017e0   0x080017e0   0x00000120   Code   RO          520    .text               hal_uart.o
    0x08001900   0x08001900   0x0000010c   Code   RO          550    .text               hal_wait.o
    0x08001a0c   0x08001a0c   0x00000040   Code   RO          575    .text               hal_wdt.o
    0x08001a4c   0x08001a4c   0x00000054   Code   RO          624    .text               ctrl.o
    0x08001aa0   0x08001aa0   0x000002a0   Code   RO          662    .text               link.o
    0x08001d40   0x08001d40   0x0000001a   Code   RO          685    .text               net.o
    0x08001d5a   0x08001d5a   0x00000002   PAD
    0x08001d5c   0x08001d5c   0x000008c0   Code   RO          705    .text               nwk.o
    0x0800261c   0x0800261c   0x00000d70   Code   RO          731    .text               phy.o
    0x0800338c   0x0800338c   0x00000038   Code   RO          799    .text               os.o
    0x080033c4   0x080033c4   0x000001a8   Code   RO          880    .text               os_timer.o
    0x0800356c   0x0800356c   0x000000f4   Code   RO          912    .text               button.o
    0x08003660   0x08003660   0x000002e8   Code   RO          998    .text               device.o
    0x08003948   0x08003948   0x00000ab4   Code   RO         1023    .text               sub_module.o
    0x080043fc   0x080043fc   0x00000648   Code   RO         1322    .text               socket.o
    0x08004a44   0x08004a44   0x00000a20   Code   RO         1463    .text               att7053_collect.o
    0x08005464   0x08005464   0x000002ec   Code   RO         1491    .text               stm32f0xx_adc.o
    0x08005750   0x08005750   0x000000f8   Code   RO         1689    .text               stm32f0xx_exti.o
    0x08005848   0x08005848   0x000006b0   Code   RO         1709    .text               stm32f0xx_flash.o
    0x08005ef8   0x08005ef8   0x0000020c   Code   RO         1729    .text               stm32f0xx_gpio.o
    0x08006104   0x08006104   0x0000004c   Code   RO         1772    .text               stm32f0xx_iwdg.o
    0x08006150   0x08006150   0x000000b4   Code   RO         1792    .text               stm32f0xx_misc.o
    0x08006204   0x08006204   0x00000150   Code   RO         1812    .text               stm32f0xx_pwr.o
    0x08006354   0x08006354   0x00000750   Code   RO         1832    .text               stm32f0xx_rcc.o
    0x08006aa4   0x08006aa4   0x00000c40   Code   RO         1854    .text               stm32f0xx_rtc.o
    0x080076e4   0x080076e4   0x000003bc   Code   RO         1874    .text               stm32f0xx_spi.o
    0x08007aa0   0x08007aa0   0x0000011c   Code   RO         1894    .text               stm32f0xx_syscfg.o
    0x08007bbc   0x08007bbc   0x00000c00   Code   RO         1914    .text               stm32f0xx_tim.o
    0x080087bc   0x080087bc   0x00000612   Code   RO         1934    .text               stm32f0xx_usart.o
    0x08008dce   0x08008dce   0x0000014c   Code   RO         1972    .text               mlist.o
    0x08008f1a   0x08008f1a   0x000000bc   Code   RO         1987    .text               mqueue.o
    0x08008fd6   0x08008fd6   0x00000002   Code   RO         2004    .text               c_p.l(use_no_semi_2.o)
    0x08008fd8   0x08008fd8   0x0000001c   Code   RO         2008    .text               c_p.l(noretval__2printf.o)
    0x08008ff4   0x08008ff4   0x0000004e   Code   RO         2012    .text               c_p.l(_printf_pad.o)
    0x08009042   0x08009042   0x00000052   Code   RO         2014    .text               c_p.l(_printf_str.o)
    0x08009094   0x08009094   0x0000006c   Code   RO         2016    .text               c_p.l(_printf_dec.o)
    0x08009100   0x08009100   0x00000058   Code   RO         2021    .text               c_p.l(_printf_hex_int.o)
    0x08009158   0x08009158   0x00000138   Code   RO         2051    .text               c_p.l(__printf_flags_wp.o)
    0x08009290   0x08009290   0x0000003c   Code   RO         2065    .text               c_p.l(rand.o)
    0x080092cc   0x080092cc   0x0000005a   Code   RO         2069    .text               c_p.l(memcmp.o)
    0x08009326   0x08009326   0x00000082   Code   RO         2072    .text               c_p.l(rt_memcpy.o)
    0x080093a8   0x080093a8   0x00000012   Code   RO         2075    .text               c_p.l(aeabi_memset.o)
    0x080093ba   0x080093ba   0x00000040   Code   RO         2077    .text               c_p.l(rt_memclr.o)
    0x080093fa   0x080093fa   0x0000015a   Code   RO         2079    .text               c_p.l(aeabi_sdiv.o)
    0x08009554   0x08009554   0x00000006   Code   RO         2083    .text               c_p.l(heapauxi.o)
    0x0800955a   0x0800955a   0x00000002   PAD
    0x0800955c   0x0800955c   0x0000007c   Code   RO         2087    .text               fz_ps.l(d2f.o)
    0x080095d8   0x080095d8   0x00000448   Code   RO         2089    .text               fz_ps.l(ddiv.o)
    0x08009a20   0x08009a20   0x00000054   Code   RO         2092    .text               fz_ps.l(f2d.o)
    0x08009a74   0x08009a74   0x00000160   Code   RO         2100    .text               fz_ps.l(fdiv.o)
    0x08009bd4   0x08009bd4   0x00000030   Code   RO         2103    .text               fz_ps.l(ffixui.o)
    0x08009c04   0x08009c04   0x0000005e   Code   RO         2105    .text               fz_ps.l(fflti.o)
    0x08009c62   0x08009c62   0x00000002   Code   RO         2111    .text               c_p.l(use_no_semi.o)
    0x08009c64   0x08009c64   0x000000b0   Code   RO         2118    .text               c_p.l(_printf_intcommon.o)
    0x08009d14   0x08009d14   0x0000002e   Code   RO         2120    .text               c_p.l(_printf_char.o)
    0x08009d42   0x08009d42   0x00000002   PAD
    0x08009d44   0x08009d44   0x00000028   Code   RO         2122    .text               c_p.l(_printf_char_file.o)
    0x08009d6c   0x08009d6c   0x00000028   Code   RO         2125    .text               c_p.l(rtudiv10.o)
    0x08009d94   0x08009d94   0x00000064   Code   RO         2172    .text               fz_ps.l(fcmpin.o)
    0x08009df8   0x08009df8   0x00000030   Code   RO         2192    .text               c_p.l(_printf_char_common.o)
    0x08009e28   0x08009e28   0x0000002e   Code   RO         2196    .text               fz_ps.l(cmpret.o)
    0x08009e56   0x08009e56   0x00000002   PAD
    0x08009e58   0x08009e58   0x00000010   Code   RO         2198    .text               fz_ps.l(fnan2.o)
    0x08009e68   0x08009e68   0x0000003e   Code   RO         2202    .text               c_p.l(sys_stackheap_outer.o)
    0x08009ea6   0x08009ea6   0x00000010   Code   RO         2207    .text               c_p.l(exit.o)
    0x08009eb6   0x08009eb6   0x0000005e   Code   RO         2223    .text               fz_ps.l(retnan.o)
    0x08009f14   0x08009f14   0x00000008   Code   RO         2227    .text               c_p.l(libspace.o)
    0x08009f1c   0x08009f1c   0x0000001c   Code   RO         1043    i.__ARM_common_switch8  sub_module.o
    0x08009f38   0x08009f38   0x0000000e   Code   RO         2049    i._is_digit         c_p.l(__printf_wp.o)
    0x08009f46   0x08009f46   0x00000002   PAD
    0x08009f48   0x08009f48   0x0000008c   Code   RO         2094    x$fpl$fadd          fz_ps.l(faddsub.o)
    0x08009fd4   0x08009fd4   0x000000b0   Code   RO         2107    x$fpl$fmul          fz_ps.l(fmul.o)
    0x0800a084   0x0800a084   0x00000058   Code   RO         2109    x$fpl$frleqf        fz_ps.l(frlef.o)
    0x0800a0dc   0x0800a0dc   0x000000d0   Code   RO         2096    x$fpl$fsub          fz_ps.l(faddsub.o)
    0x0800a1ac   0x0800a1ac   0x00000000   Code   RO         2174    x$fpl$usenofp       fz_ps.l(usenofp.o)
    0x0800a1ac   0x0800a1ac   0x00000009   Data   RO          200    .constdata          hal.o
    0x0800a1b5   0x0800a1b5   0x0000030f   Data   RO          337    .constdata          hal_aes.o
    0x0800a4c4   0x0800a4c4   0x0000000e   Data   RO          462    .constdata          hal_sleep.o
    0x0800a4d2   0x0800a4d2   0x00000019   Data   RO          733    .constdata          phy.o
    0x0800a4eb   0x0800a4eb   0x00000027   Data   RO          999    .constdata          device.o
    0x0800a512   0x0800a512   0x0000007e   Data   RO         1025    .constdata          sub_module.o
    0x0800a590   0x0800a590   0x00000048   Data   RO         1324    .constdata          socket.o
    0x0800a5d8   0x0800a5d8   0x0000042a   Data   RO         1465    .constdata          att7053_collect.o
    0x0800aa02   0x0800aa02   0x00000028   Data   RO         2022    .constdata          c_p.l(_printf_hex_int.o)
    0x0800aa2a   0x0800aa2a   0x00000011   Data   RO         2052    .constdata          c_p.l(__printf_flags_wp.o)
    0x0800aa3b   0x0800aa3b   0x00000080   Data   RO         2090    .constdata          fz_ps.l(ddiv.o)
    0x0800aabb   0x0800aabb   0x00000040   Data   RO         2101    .constdata          fz_ps.l(fdiv.o)
    0x0800aafb   0x0800aafb   0x00000001   PAD
    0x0800aafc   0x0800aafc   0x00000058   Data   RO         1466    .conststring        att7053_collect.o
    0x0800ab54   0x0800ab54   0x00000020   Data   RO         2296    Region$$Table       anon$$obj.o


    Execution Region RW_IRAM1 (Exec base: 0x200000c0, Load base: 0x0800ab74, Size: 0x00000e28, Max: 0x00002000, ABSOLUTE)

    Exec Addr    Load Addr    Size         Type   Attr      Idx    E Section Name        Object

    0x200000c0   0x0800ab74   0x00000014   Data   RW           13    .data               system_stm32f0xx.o
    0x200000d4   0x0800ab88   0x0000000d   Data   RW          338    .data               hal_aes.o
    0x200000e1   0x0800ab95   0x00000001   PAD
    0x200000e2   0x0800ab96   0x00000002   Data   RW          431    .data               hal_rnd.o
    0x200000e4   0x0800ab98   0x00000002   Data   RW          463    .data               hal_sleep.o
    0x200000e6   0x0800ab9a   0x00000002   PAD
    0x200000e8   0x0800ab9c   0x00000004   Data   RW          521    .data               hal_uart.o
    0x200000ec   0x0800aba0   0x00000001   Data   RW          551    .data               hal_wait.o
    0x200000ed   0x0800aba1   0x00000003   PAD
    0x200000f0   0x0800aba4   0x00000011   Data   RW          664    .data               link.o
    0x20000101   0x0800abb5   0x0000000c   Data   RW          707    .data               nwk.o
    0x2000010d   0x0800abc1   0x00000002   Data   RW          734    .data               phy.o
    0x2000010f   0x0800abc3   0x00000001   PAD
    0x20000110   0x0800abc4   0x00000008   Data   RW          882    .data               os_timer.o
    0x20000118   0x0800abcc   0x00000001   Data   RW          913    .data               button.o
    0x20000119   0x0800abcd   0x00000003   PAD
    0x2000011c   0x0800abd0   0x00000025   Data   RW         1000    .data               device.o
    0x20000141   0x0800abf5   0x00000003   PAD
    0x20000144   0x0800abf8   0x00000040   Data   RW         1026    .data               sub_module.o
    0x20000184   0x0800ac38   0x00000035   Data   RW         1325    .data               socket.o
    0x200001b9   0x0800ac6d   0x00000001   Data   RW         1467    .data               att7053_collect.o
    0x200001ba   0x0800ac6e   0x00000010   Data   RW         1833    .data               stm32f0xx_rcc.o
    0x200001ca   0x0800ac7e   0x00000002   PAD
    0x200001cc        -       0x00000010   Zero   RW          100    .bss                app.o
    0x200001dc        -       0x000000c0   Zero   RW          336    .bss                hal_aes.o
    0x2000029c        -       0x000000c0   Zero   RW          663    .bss                link.o
    0x2000035c        -       0x00000200   Zero   RW          706    .bss                nwk.o
    0x2000055c        -       0x000000d9   Zero   RW          732    .bss                phy.o
    0x20000635   0x0800ac7e   0x00000003   PAD
    0x20000638        -       0x000000e0   Zero   RW          881    .bss                os_timer.o
    0x20000718        -       0x00000009   Zero   RW         1024    .bss                sub_module.o
    0x20000721   0x0800ac7e   0x00000003   PAD
    0x20000724        -       0x00000060   Zero   RW         1323    .bss                socket.o
    0x20000784        -       0x00000020   Zero   RW         1464    .bss                att7053_collect.o
    0x200007a4        -       0x000000e4   Zero   RW         2066    .bss                c_p.l(rand.o)
    0x20000888        -       0x00000060   Zero   RW         2228    .bss                c_p.l(libspace.o)
    0x200008e8        -       0x00000100   Zero   RW            2    HEAP                startup_stm32f030.o
    0x200009e8        -       0x00000500   Zero   RW            1    STACK               startup_stm32f030.o


==============================================================================

Image component sizes


      Code (inc. data)   RO Data    RW Data    ZI Data      Debug   Object Name

       288          4          0          0         16      25887   app.o
      2592        162       1154          1         32      12884   att7053_collect.o
       244          4          0          1          0       2544   button.o
        84          0          0          0          0       7805   ctrl.o
       744        104         39         37          0       3541   device.o
       128         40          9          0          0       8578   hal.o
       244         10          0          0          0      17088   hal_adc.o
      2716         62        783         13        192       7165   hal_aes.o
         0          0          0          0          0        660   hal_clock.o
       212          0          0          0          0       1374   hal_flash.o
       188          0          0          0          0       1769   hal_led.o
        92          4          0          2          0       1352   hal_rnd.o
      1008         92         14          2          0       3010   hal_sleep.o
       120         10          0          0          0        879   hal_timer.o
       288         12          0          4          0       3729   hal_uart.o
       268         12          0          1          0       1943   hal_wait.o
        64          8          0          0          0        584   hal_wdt.o
       672         32          0         17        192       3899   link.o
       332          0          0          0          0       3200   mlist.o
       188          0          0          0          0       2555   mqueue.o
        26          0          0          0          0        512   net.o
      2240        150          0         12        512       9665   nwk.o
        56          0          0          0          0       8669   os.o
       424         16          0          8        224       4900   os_timer.o
      3440        182         25          2        217      10995   phy.o
      1608        346         72         53         96       5208   socket.o
       116         56        180          0       1536        740   startup_stm32f030.o
       748         14          0          0          0       7115   stm32f0xx_adc.o
       248         12          0          0          0       2243   stm32f0xx_exti.o
      1712         30          0          0          0       7789   stm32f0xx_flash.o
       524         26          0          0          0       3765   stm32f0xx_gpio.o
        76         14          0          0          0       1437   stm32f0xx_iwdg.o
       180         14          0          0          0       1368   stm32f0xx_misc.o
       336          8          0          0          0       2218   stm32f0xx_pwr.o
      1872         52          0         16          0       9196   stm32f0xx_rcc.o
      3136         58          0          0          0      14102   stm32f0xx_rtc.o
       956         42          0          0          0       7747   stm32f0xx_spi.o
       284          6          0          0          0       2386   stm32f0xx_syscfg.o
      3072        136          0          0          0      22949   stm32f0xx_tim.o
      1554         40          0          0          0      12022   stm32f0xx_usart.o
      2768        768        126         64          9      12842   sub_module.o
       496         32          0         20          0     228563   system_stm32f0xx.o

    ----------------------------------------------------------------------
     36346       2558       2434        268       3032     486877   Object Totals
         0          0         32          0          0          0   (incl. Generated)
         2          0          0         15          6          0   (incl. Padding)

    ----------------------------------------------------------------------

      Code (inc. data)   RO Data    RW Data    ZI Data      Debug   Library Member Name

         8          0          0          0          0         68   __main.o
       312          6         17          0          0         76   __printf_flags_wp.o
        14          0          0          0          0         60   __printf_wp.o
         0          0          0          0          0          0   __rtentry.o
        12          0          0          0          0          0   __rtentry2.o
         6          0          0          0          0          0   __rtentry4.o
        60          8          0          0          0          0   __scatter.o
        26          0          0          0          0          0   __scatter_copy.o
        28          0          0          0          0          0   __scatter_zi.o
        10          0          0          0          0          0   _printf_c.o
        46          0          0          0          0        100   _printf_char.o
        48          6          0          0          0         88   _printf_char_common.o
        40          6          0          0          0         72   _printf_char_file.o
        10          0          0          0          0          0   _printf_d.o
       108         18          0          0          0         76   _printf_dec.o
        88          4         40          0          0         72   _printf_hex_int.o
       176          0          0          0          0         84   _printf_intcommon.o
        78          0          0          0          0        100   _printf_pad.o
         2          0          0          0          0          0   _printf_percent.o
         4          0          0          0          0          0   _printf_percent_end.o
        10          0          0          0          0          0   _printf_s.o
        82          0          0          0          0         72   _printf_str.o
        10          0          0          0          0          0   _printf_x.o
        18          0          0          0          0         68   aeabi_memset.o
       346          0          0          0          0         92   aeabi_sdiv.o
        16          0          0          0          0         68   exit.o
         6          0          0          0          0        136   heapauxi.o
         2          0          0          0          0          0   libinit.o
         6          0          0          0          0          0   libinit2.o
         2          0          0          0          0          0   libshutdown.o
         2          0          0          0          0          0   libshutdown2.o
         8          4          0          0         96         68   libspace.o
        90          0          0          0          0         68   memcmp.o
        28          6          0          0          0         84   noretval__2printf.o
       116         16          0          0        228        156   rand.o
        64          0          0          0          0        108   rt_memclr.o
       186          0          0          0          0        144   rt_memcpy.o
         2          0          0          0          0          0   rtexit.o
        10          0          0          0          0          0   rtexit2.o
        40          0          0          0          0         60   rtudiv10.o
        62          0          0          0          0         80   sys_stackheap_outer.o
         2          0          0          0          0         68   use_no_semi.o
         2          0          0          0          0         68   use_no_semi_2.o
        46          0          0          0          0         60   cmpret.o
       124          4          0          0          0         72   d2f.o
      1096         26        128          0          0        112   ddiv.o
        84          4          0          0          0         60   f2d.o
       348          8          0          0          0        160   faddsub.o
       100          4          0          0          0         68   fcmpin.o
       352         10         64          0          0         92   fdiv.o
        48          0          0          0          0         60   ffixui.o
        94          0          0          0          0         92   fflti.o
       176          4          0          0          0         80   fmul.o
        16          6          0          0          0         68   fnan2.o
        88          4          0          0          0         76   frlef.o
        94          0          0          0          0         68   retnan.o
         0          0          0          0          0          0   usenofp.o

    ----------------------------------------------------------------------
      4862        144        250          0        324       3204   Library Totals
        10          0          1          0          0          0   (incl. Padding)

    ----------------------------------------------------------------------

      Code (inc. data)   RO Data    RW Data    ZI Data      Debug   Library Name

      2186         74         57          0        324       2136   c_p.l
      2666         70        192          0          0       1068   fz_ps.l

    ----------------------------------------------------------------------
      4862        144        250          0        324       3204   Library Totals

    ----------------------------------------------------------------------

==============================================================================


      Code (inc. data)   RO Data    RW Data    ZI Data      Debug   

     41208       2702       2684        268       3356     484557   Grand Totals
     41208       2702       2684        268       3356     484557   ELF Image Totals
     41208       2702       2684        268          0          0   ROM Totals

==============================================================================

    Total RO  Size (Code + RO Data)                43892 (  42.86kB)
    Total RW  Size (RW Data + ZI Data)              3624 (   3.54kB)
    Total ROM Size (Code + RO Data + RW Data)      44160 (  43.13kB)

==============================================================================

