Component: ARM Compiler 5.06 update 3 (build 300) Tool: armlink [4d35c9]

==============================================================================

Section Cross References

    stm32f10x_it.o(.text) refers to os_timer.o(.text) for os_timer_pass_ms
    os_timer.o(.text) refers to mlist.o(.text) for mlist_del
    os_timer.o(.text) refers to cloud_helper.o(.text) for ch_timer_ms
    os_timer.o(.text) refers to os_timer.o(.data) for g_systime
    os_timer.o(.text) refers to os_timer.o(.bss) for g_timer_list
    os_timer.o(.text) refers to usersys.o(.data) for g_LwIPLocalTime
    hal.o(.text) refers to _printf_percent.o(.ARM.Collect$$_printf_percent$$00000000) for _printf_percent
    hal.o(.text) refers to _printf_d.o(.ARM.Collect$$_printf_percent$$00000009) for _printf_d
    hal.o(.text) refers to _printf_s.o(.ARM.Collect$$_printf_percent$$00000014) for _printf_s
    hal.o(.text) refers to _printf_dec.o(.text) for _printf_int_dec
    hal.o(.text) refers to _printf_str.o(.text) for _printf_str
    hal.o(.text) refers to haluart.o(.text) for HalUartConfig
    hal.o(.text) refers to moduletester.o(.text) for ModuleTesterCheckUpdate
    hal.o(.text) refers to halgpio.o(.text) for HalGPIOInitialize
    hal.o(.text) refers to hal_timer.o(.text) for HalTimerInit
    hal.o(.text) refers to noretval__2printf.o(.text) for __2printf
    hal.o(.text) refers to hal_wdt.o(.text) for hal_wdt_feed
    hal.o(.text) refers to hal.o(.constdata) for __func__
==============================================================================

Removing Unused input sections from the image.

    Removing stm32f10x_it.o(.rev16_text), (4 bytes).
    Removing stm32f10x_it.o(.revsh_text), (4 bytes).
    Removing stm32f10x_it.o(.rrx_text), (6 bytes).
    Removing misc.o(.rev16_text), (4 bytes).
    Removing misc.o(.revsh_text), (4 bytes).
    Removing misc.o(.rrx_text), (6 bytes).
    Removing os_timer.o(.rev16_text), (4 bytes).
    Removing os_timer.o(.revsh_text), (4 bytes).
    Removing os_timer.o(.rrx_text), (6 bytes).
    Removing hal.o(.rev16_text), (4 bytes).
    Removing hal.o(.revsh_text), (4 bytes).
    Removing hal.o(.rrx_text), (6 bytes).
    Removing hal_aes.o(.rev16_text), (4 bytes).
    Removing hal_aes.o(.revsh_text), (4 bytes).
    Removing hal_aes.o(.rrx_text), (6 bytes).
    Removing hal_aes.o(.text), (2800 bytes).
    Removing hal_aes.o(.bss), (208 bytes).
    Removing hal_aes.o(.constdata), (767 bytes).
==============================================================================

Image Symbol Table

    Local Symbols

    Symbol Name                              Value     Ov Type        Size  Object(Section)

    ../clib/angel/boardlib.s                 0x00000000   Number         0  boardshut.o ABSOLUTE
    ../clib/angel/boardlib.s                 0x00000000   Number         0  boardinit1.o ABSOLUTE
    ../clib/angel/boardlib.s                 0x00000000   Number         0  boardinit3.o ABSOLUTE
    ../clib/angel/boardlib.s                 0x00000000   Number         0  boardinit2.o ABSOLUTE
    ../clib/angel/handlers.s                 0x00000000   Number         0  __scatter_zi.o ABSOLUTE
    ../clib/angel/handlers.s                 0x00000000   Number         0  __scatter_copy.o ABSOLUTE
    ../clib/angel/kernel.s                   0x00000000   Number         0  __rtentry.o ABSOLUTE
    ../clib/angel/kernel.s                   0x00000000   Number         0  rtexit2.o ABSOLUTE
    ../clib/angel/kernel.s                   0x00000000   Number         0  rtexit.o ABSOLUTE
    ../clib/angel/kernel.s                   0x00000000   Number         0  __rtentry4.o ABSOLUTE
    ../clib/angel/kernel.s                   0x00000000   Number         0  __rtentry2.o ABSOLUTE
    ../clib/angel/rt.s                       0x00000000   Number         0  rt_raise.o ABSOLUTE
    ../clib/angel/scatter.s                  0x00000000   Number         0  __scatter.o ABSOLUTE
    ../clib/angel/startup.s                  0x00000000   Number         0  __main.o ABSOLUTE
    ../clib/angel/sys.s                      0x00000000   Number         0  libspace.o ABSOLUTE
    ../clib/angel/sys.s                      0x00000000   Number         0  use_no_semi.o ABSOLUTE
    ../clib/angel/sys.s                      0x00000000   Number         0  indicate_semi.o ABSOLUTE
    ../clib/angel/sys.s                      0x00000000   Number         0  sys_stackheap_outer.o ABSOLUTE
    ../clib/angel/sysapp.c                   0x00000000   Number         0  sys_command.o ABSOLUTE
    ../clib/angel/sysapp.c                   0x00000000   Number         0  sys_wrch.o ABSOLUTE
    ../clib/armsys.c                         0x00000000   Number         0  _get_argv_nomalloc.o ABSOLUTE
    ../clib/armsys.c                         0x00000000   Number         0  no_argv.o ABSOLUTE
    ../clib/armsys.c                         0x00000000   Number         0  argv_veneer.o ABSOLUTE
    ../clib/armsys.c                         0x00000000   Number         0  argv_veneer.o ABSOLUTE
    ../clib/heapalloc.c                      0x00000000   Number         0  hrguard.o ABSOLUTE
    ../clib/heapaux.c                        0x00000000   Number         0  heapauxi.o ABSOLUTE
    ../clib/libinit.s                        0x00000000   Number         0  libshutdown.o ABSOLUTE
    ../clib/libinit.s                        0x00000000   Number         0  libshutdown2.o ABSOLUTE
    ../clib/libinit.s                        0x00000000   Number         0  libinit.o ABSOLUTE
    ../clib/libinit.s                        0x00000000   Number         0  libinit2.o ABSOLUTE
    ../clib/memcpset.s                       0x00000000   Number         0  rt_memclr_w.o ABSOLUTE
    ../clib/memcpset.s                       0x00000000   Number         0  rt_memcpy_w.o ABSOLUTE
    ../clib/memcpset.s                       0x00000000   Number         0  rt_memclr.o ABSOLUTE
    ../clib/memcpset.s                       0x00000000   Number         0  rt_memcpy_v6.o ABSOLUTE
    ../clib/memcpset.s                       0x00000000   Number         0  aeabi_memset.o ABSOLUTE
    ../clib/misc.s                           0x00000000   Number         0  printf_stubs.o ABSOLUTE
    ../clib/printf.c                         0x00000000   Number         0  __2printf.o ABSOLUTE
    ../clib/printf.c                         0x00000000   Number         0  noretval__2printf.o ABSOLUTE
    ../clib/printf.c                         0x00000000   Number         0  _printf_str.o ABSOLUTE
    ../clib/printf.c                         0x00000000   Number         0  _printf_dec.o ABSOLUTE
    ../clib/printf.c                         0x00000000   Number         0  _printf_hex_ll.o ABSOLUTE
    ../clib/printf.c                         0x00000000   Number         0  _printf_hex_int.o ABSOLUTE
    ../clib/printf.c                         0x00000000   Number         0  _printf_hex_int_ll_ptr.o ABSOLUTE
    ../clib/printf.c                         0x00000000   Number         0  __printf_ss_wp.o ABSOLUTE
    ../clib/printf.c                         0x00000000   Number         0  __printf_flags_wp.o ABSOLUTE
    ../clib/printf.c                         0x00000000   Number         0  _printf_pad.o ABSOLUTE
    ../clib/printf.c                         0x00000000   Number         0  _printf_intcommon.o ABSOLUTE
    ../clib/printf.c                         0x00000000   Number         0  _printf_char.o ABSOLUTE
    ../clib/printf.c                         0x00000000   Number         0  _printf_char_file.o ABSOLUTE
    ../clib/printf.c                         0x00000000   Number         0  __printf_flags_ss.o ABSOLUTE
    ../clib/printf.c                         0x00000000   Number         0  __printf_wp.o ABSOLUTE
    ../clib/printf.c                         0x00000000   Number         0  __printf_ss.o ABSOLUTE
    ../clib/printf.c                         0x00000000   Number         0  __printf_flags.o ABSOLUTE
    ../clib/printf.c                         0x00000000   Number         0  _printf_char_common.o ABSOLUTE
    ../clib/printf.c                         0x00000000   Number         0  __printf_nopercent.o ABSOLUTE
    ../clib/printf.c                         0x00000000   Number         0  _printf_hex_ptr.o ABSOLUTE
    ../clib/printf.c                         0x00000000   Number         0  _printf_hex_int_ptr.o ABSOLUTE
    ../clib/printf.c                         0x00000000   Number         0  _printf_hex_ll_ptr.o ABSOLUTE
    ../clib/printf.c                         0x00000000   Number         0  _printf_hex_int_ll.o ABSOLUTE
    ../clib/printf.c                         0x00000000   Number         0  __printf.o ABSOLUTE
    ../clib/printf.c                         0x00000000   Number         0  __printf_flags_ss_wp.o ABSOLUTE
    ../clib/printf_percent.s                 0x00000000   Number         0  _printf_percent.o ABSOLUTE
    ../clib/printf_percent.s                 0x00000000   Number         0  _printf_s.o ABSOLUTE
    ../clib/printf_percent.s                 0x00000000   Number         0  _printf_x.o ABSOLUTE
    ../clib/printf_percent.s                 0x00000000   Number         0  _printf_d.o ABSOLUTE
    ../clib/printf_percent.s                 0x00000000   Number         0  _printf_percent_end.o ABSOLUTE
    ../clib/signal.c                         0x00000000   Number         0  defsig_rtmem_outer.o ABSOLUTE
    ../clib/signal.c                         0x00000000   Number         0  defsig_other.o ABSOLUTE
    ../clib/signal.c                         0x00000000   Number         0  defsig_segv_inner.o ABSOLUTE
    ../clib/signal.c                         0x00000000   Number         0  defsig_cppl_inner.o ABSOLUTE
    ../clib/signal.c                         0x00000000   Number         0  defsig_pvfn_inner.o ABSOLUTE
    ../clib/signal.c                         0x00000000   Number         0  defsig_stak_inner.o ABSOLUTE
    ../clib/signal.c                         0x00000000   Number         0  defsig_rtred_inner.o ABSOLUTE
    ../clib/signal.c                         0x00000000   Number         0  defsig_fpe_inner.o ABSOLUTE
    ../clib/signal.c                         0x00000000   Number         0  defsig_abrt_inner.o ABSOLUTE
    ../clib/signal.c                         0x00000000   Number         0  defsig_general.o ABSOLUTE
    ../clib/signal.c                         0x00000000   Number         0  __raise.o ABSOLUTE
    ../clib/signal.c                         0x00000000   Number         0  defsig_rtmem_inner.o ABSOLUTE
    ../clib/signal.c                         0x00000000   Number         0  defsig_exit.o ABSOLUTE
    ../clib/signal.c                         0x00000000   Number         0  defsig_rtmem_formal.o ABSOLUTE
    ../clib/signal.s                         0x00000000   Number         0  defsig.o ABSOLUTE
    ../clib/stdio.c                          0x00000000   Number         0  ferror.o ABSOLUTE
    ../clib/stdio.c                          0x00000000   Number         0  ferror_locked.o ABSOLUTE
    ../clib/stdlib.c                         0x00000000   Number         0  exit.o ABSOLUTE
    ../clib/string.c                         0x00000000   Number         0  strcpy.o ABSOLUTE
    ../clib/string.c                         0x00000000   Number         0  strlen.o ABSOLUTE
    ../clib/string.c                         0x00000000   Number         0  memcmp.o ABSOLUTE
    ../clib/string.c                         0x00000000   Number         0  strstr.o ABSOLUTE
    ../fplib/fpinit.s                        0x00000000   Number         0  fpinit.o ABSOLUTE
    C:\Keil_v5\ARM\PACK\Keil\STM32F1xx_DFP\2.0.0\Device\StdPeriph_Driver\src\stm32f10x_adc.c 0x00000000   Number         0  stm32f10x_adc.o ABSOLUTE
    C:\Keil_v5\ARM\PACK\Keil\STM32F1xx_DFP\2.0.0\Device\StdPeriph_Driver\src\stm32f10x_bkp.c 0x00000000   Number         0  stm32f10x_bkp.o ABSOLUTE
    C:\Keil_v5\ARM\PACK\Keil\STM32F1xx_DFP\2.0.0\Device\StdPeriph_Driver\src\stm32f10x_dma.c 0x00000000   Number         0  stm32f10x_dma.o ABSOLUTE
    C:\Keil_v5\ARM\PACK\Keil\STM32F1xx_DFP\2.0.0\Device\StdPeriph_Driver\src\stm32f10x_exti.c 0x00000000   Number         0  stm32f10x_exti.o ABSOLUTE
    C:\Keil_v5\ARM\PACK\Keil\STM32F1xx_DFP\2.0.0\Device\StdPeriph_Driver\src\stm32f10x_flash.c 0x00000000   Number         0  stm32f10x_flash.o ABSOLUTE
    C:\Keil_v5\ARM\PACK\Keil\STM32F1xx_DFP\2.0.0\Device\StdPeriph_Driver\src\stm32f10x_gpio.c 0x00000000   Number         0  stm32f10x_gpio.o ABSOLUTE
    C:\Keil_v5\ARM\PACK\Keil\STM32F1xx_DFP\2.0.0\Device\StdPeriph_Driver\src\stm32f10x_i2c.c 0x00000000   Number         0  stm32f10x_i2c.o ABSOLUTE
    C:\Keil_v5\ARM\PACK\Keil\STM32F1xx_DFP\2.0.0\Device\StdPeriph_Driver\src\stm32f10x_iwdg.c 0x00000000   Number         0  stm32f10x_iwdg.o ABSOLUTE
    C:\Keil_v5\ARM\PACK\Keil\STM32F1xx_DFP\2.0.0\Device\StdPeriph_Driver\src\stm32f10x_pwr.c 0x00000000   Number         0  stm32f10x_pwr.o ABSOLUTE
    C:\Keil_v5\ARM\PACK\Keil\STM32F1xx_DFP\2.0.0\Device\StdPeriph_Driver\src\stm32f10x_rcc.c 0x00000000   Number         0  stm32f10x_rcc.o ABSOLUTE
    C:\Keil_v5\ARM\PACK\Keil\STM32F1xx_DFP\2.0.0\Device\StdPeriph_Driver\src\stm32f10x_rtc.c 0x00000000   Number         0  stm32f10x_rtc.o ABSOLUTE
    C:\Keil_v5\ARM\PACK\Keil\STM32F1xx_DFP\2.0.0\Device\StdPeriph_Driver\src\stm32f10x_sdio.c 0x00000000   Number         0  stm32f10x_sdio.o ABSOLUTE
    C:\Keil_v5\ARM\PACK\Keil\STM32F1xx_DFP\2.0.0\Device\StdPeriph_Driver\src\stm32f10x_spi.c 0x00000000   Number         0  stm32f10x_spi.o ABSOLUTE
    C:\Keil_v5\ARM\PACK\Keil\STM32F1xx_DFP\2.0.0\Device\StdPeriph_Driver\src\stm32f10x_tim.c 0x00000000   Number         0  stm32f10x_tim.o ABSOLUTE
    C:\Keil_v5\ARM\PACK\Keil\STM32F1xx_DFP\2.0.0\Device\StdPeriph_Driver\src\stm32f10x_usart.c 0x00000000   Number         0  stm32f10x_usart.o ABSOLUTE
    C:\Keil_v5\ARM\PACK\Keil\STM32F1xx_DFP\2.0.0\RTE_Driver\DMA_STM32F10x.c 0x00000000   Number         0  dma_stm32f10x.o ABSOLUTE
    C:\Keil_v5\ARM\PACK\Keil\STM32F1xx_DFP\2.0.0\RTE_Driver\GPIO_STM32F10x.c 0x00000000   Number         0  gpio_stm32f10x.o ABSOLUTE
    C:\\Keil_v5\\ARM\\PACK\\Keil\\STM32F1xx_DFP\\2.0.0\\Device\\StdPeriph_Driver\\src\\stm32f10x_adc.c 0x00000000   Number         0  stm32f10x_adc.o ABSOLUTE
    C:\\Keil_v5\\ARM\\PACK\\Keil\\STM32F1xx_DFP\\2.0.0\\Device\\StdPeriph_Driver\\src\\stm32f10x_bkp.c 0x00000000   Number         0  stm32f10x_bkp.o ABSOLUTE
    C:\\Keil_v5\\ARM\\PACK\\Keil\\STM32F1xx_DFP\\2.0.0\\Device\\StdPeriph_Driver\\src\\stm32f10x_dma.c 0x00000000   Number         0  stm32f10x_dma.o ABSOLUTE
    C:\\Keil_v5\\ARM\\PACK\\Keil\\STM32F1xx_DFP\\2.0.0\\Device\\StdPeriph_Driver\\src\\stm32f10x_exti.c 0x00000000   Number         0  stm32f10x_exti.o ABSOLUTE
    C:\\Keil_v5\\ARM\\PACK\\Keil\\STM32F1xx_DFP\\2.0.0\\Device\\StdPeriph_Driver\\src\\stm32f10x_flash.c 0x00000000   Number         0  stm32f10x_flash.o ABSOLUTE
    C:\\Keil_v5\\ARM\\PACK\\Keil\\STM32F1xx_DFP\\2.0.0\\Device\\StdPeriph_Driver\\src\\stm32f10x_gpio.c 0x00000000   Number         0  stm32f10x_gpio.o ABSOLUTE
    C:\\Keil_v5\\ARM\\PACK\\Keil\\STM32F1xx_DFP\\2.0.0\\Device\\StdPeriph_Driver\\src\\stm32f10x_i2c.c 0x00000000   Number         0  stm32f10x_i2c.o ABSOLUTE
    C:\\Keil_v5\\ARM\\PACK\\Keil\\STM32F1xx_DFP\\2.0.0\\Device\\StdPeriph_Driver\\src\\stm32f10x_iwdg.c 0x00000000   Number         0  stm32f10x_iwdg.o ABSOLUTE
    C:\\Keil_v5\\ARM\\PACK\\Keil\\STM32F1xx_DFP\\2.0.0\\Device\\StdPeriph_Driver\\src\\stm32f10x_pwr.c 0x00000000   Number         0  stm32f10x_pwr.o ABSOLUTE
    C:\\Keil_v5\\ARM\\PACK\\Keil\\STM32F1xx_DFP\\2.0.0\\Device\\StdPeriph_Driver\\src\\stm32f10x_rcc.c 0x00000000   Number         0  stm32f10x_rcc.o ABSOLUTE
    C:\\Keil_v5\\ARM\\PACK\\Keil\\STM32F1xx_DFP\\2.0.0\\Device\\StdPeriph_Driver\\src\\stm32f10x_rtc.c 0x00000000   Number         0  stm32f10x_rtc.o ABSOLUTE
    C:\\Keil_v5\\ARM\\PACK\\Keil\\STM32F1xx_DFP\\2.0.0\\Device\\StdPeriph_Driver\\src\\stm32f10x_sdio.c 0x00000000   Number         0  stm32f10x_sdio.o ABSOLUTE
    C:\\Keil_v5\\ARM\\PACK\\Keil\\STM32F1xx_DFP\\2.0.0\\Device\\StdPeriph_Driver\\src\\stm32f10x_spi.c 0x00000000   Number         0  stm32f10x_spi.o ABSOLUTE
    C:\\Keil_v5\\ARM\\PACK\\Keil\\STM32F1xx_DFP\\2.0.0\\Device\\StdPeriph_Driver\\src\\stm32f10x_tim.c 0x00000000   Number         0  stm32f10x_tim.o ABSOLUTE
    C:\\Keil_v5\\ARM\\PACK\\Keil\\STM32F1xx_DFP\\2.0.0\\Device\\StdPeriph_Driver\\src\\stm32f10x_usart.c 0x00000000   Number         0  stm32f10x_usart.o ABSOLUTE
    C:\\Keil_v5\\ARM\\PACK\\Keil\\STM32F1xx_DFP\\2.0.0\\RTE_Driver\\DMA_STM32F10x.c 0x00000000   Number         0  dma_stm32f10x.o ABSOLUTE
    C:\\Keil_v5\\ARM\\PACK\\Keil\\STM32F1xx_DFP\\2.0.0\\RTE_Driver\\GPIO_STM32F10x.c 0x00000000   Number         0  gpio_stm32f10x.o ABSOLUTE
    RTE\Device\STM32F103VC\misc.c            0x00000000   Number         0  misc.o ABSOLUTE
    RTE\Device\STM32F103VC\startup_stm32f10x_hd.s 0x00000000   Number         0  startup_stm32f10x_hd.o ABSOLUTE
    RTE\Device\STM32F103VC\system_stm32f10x.c 0x00000000   Number         0  system_stm32f10x.o ABSOLUTE
    RTE\\Device\\STM32F103VC\\misc.c         0x00000000   Number         0  misc.o ABSOLUTE
    RTE\\Device\\STM32F103VC\\system_stm32f10x.c 0x00000000   Number         0  system_stm32f10x.o ABSOLUTE
    dc.s                                     0x00000000   Number         0  dc.o ABSOLUTE
    src\\app\\ModuleTester.c                 0x00000000   Number         0  moduletester.o ABSOLUTE
    src\\hal\\src\\Hal.c                     0x00000000   Number         0  hal.o ABSOLUTE
    src\\hal\\src\\HalGPIO.c                 0x00000000   Number         0  halgpio.o ABSOLUTE
    src\\hal\\src\\HalSpi.c                  0x00000000   Number         0  halspi.o ABSOLUTE
    src\\hal\\src\\HalUart.c                 0x00000000   Number         0  haluart.o ABSOLUTE
    src\\hal\\src\\hal_aes.c                 0x00000000   Number         0  hal_aes.o ABSOLUTE
    src\\hal\\src\\hal_flash.c               0x00000000   Number         0  hal_flash.o ABSOLUTE
    src\\hal\\src\\hal_led.c                 0x00000000   Number         0  hal_led.o ABSOLUTE
    src\\hal\\src\\hal_rnd.c                 0x00000000   Number         0  hal_rnd.o ABSOLUTE
    src\\hal\\src\\hal_rtc.c                 0x00000000   Number         0  hal_rtc.o ABSOLUTE
    src\\hal\\src\\hal_timer.c               0x00000000   Number         0  hal_timer.o ABSOLUTE
    src\\hal\\src\\hal_wait.c                0x00000000   Number         0  hal_wait.o ABSOLUTE
    src\\hal\\src\\hal_wdt.c                 0x00000000   Number         0  hal_wdt.o ABSOLUTE
    src\\os\\src\\os_timer.c                 0x00000000   Number         0  os_timer.o ABSOLUTE
    src\\usr\\src\\SysButton.c               0x00000000   Number         0  sysbutton.o ABSOLUTE
    src\\usr\\src\\SysPoll.c                 0x00000000   Number         0  syspoll.o ABSOLUTE
    src\\usr\\src\\SysTimer.c                0x00000000   Number         0  systimer.o ABSOLUTE
    src\\usr\\src\\main.c                    0x00000000   Number         0  main.o ABSOLUTE
    src\\usr\\src\\menuConfig.c              0x00000000   Number         0  menuconfig.o ABSOLUTE
    src\\usr\\src\\userSys.c                 0x00000000   Number         0  usersys.o ABSOLUTE
    src\app\MD5.c                            0x00000000   Number         0  md5.o ABSOLUTE
    src\app\ModuleTester.c                   0x00000000   Number         0  moduletester.o ABSOLUTE
    src\app\cloud_helper.c                   0x00000000   Number         0  cloud_helper.o ABSOLUTE
    src\hal\src\Hal.c                        0x00000000   Number         0  hal.o ABSOLUTE
    src\hal\src\HalGPIO.c                    0x00000000   Number         0  halgpio.o ABSOLUTE
    src\hal\src\HalSpi.c                     0x00000000   Number         0  halspi.o ABSOLUTE
    src\hal\src\HalUart.c                    0x00000000   Number         0  haluart.o ABSOLUTE
    src\hal\src\hal_aes.c                    0x00000000   Number         0  hal_aes.o ABSOLUTE
    src\hal\src\hal_flash.c                  0x00000000   Number         0  hal_flash.o ABSOLUTE
    src\hal\src\hal_led.c                    0x00000000   Number         0  hal_led.o ABSOLUTE
    src\hal\src\hal_rnd.c                    0x00000000   Number         0  hal_rnd.o ABSOLUTE
    src\hal\src\hal_rtc.c                    0x00000000   Number         0  hal_rtc.o ABSOLUTE
    src\hal\src\hal_timer.c                  0x00000000   Number         0  hal_timer.o ABSOLUTE
    src\hal\src\hal_wait.c                   0x00000000   Number         0  hal_wait.o ABSOLUTE
    src\hal\src\hal_wdt.c                    0x00000000   Number         0  hal_wdt.o ABSOLUTE
    src\os\src\os_timer.c                    0x00000000   Number         0  os_timer.o ABSOLUTE
    src\usr\src\SysButton.c                  0x00000000   Number         0  sysbutton.o ABSOLUTE
    src\usr\src\SysPoll.c                    0x00000000   Number         0  syspoll.o ABSOLUTE
    src\usr\src\SysTimer.c                   0x00000000   Number         0  systimer.o ABSOLUTE
    src\usr\src\main.c                       0x00000000   Number         0  main.o ABSOLUTE
    src\usr\src\menuConfig.c                 0x00000000   Number         0  menuconfig.o ABSOLUTE
    src\usr\src\mlist.c                      0x00000000   Number         0  mlist.o ABSOLUTE
    src\usr\src\mqueue.c                     0x00000000   Number         0  mqueue.o ABSOLUTE
    src\usr\src\userSys.c                    0x00000000   Number         0  usersys.o ABSOLUTE
    stm32f10x_it.c                           0x00000000   Number         0  stm32f10x_it.o ABSOLUTE
    stm32f10x_it.c                           0x00000000   Number         0  stm32f10x_it.o ABSOLUTE
    RESET                                    0x08000000   Section      304  startup_stm32f10x_hd.o(RESET)
    !!!main                                  0x08000130   Section        8  __main.o(!!!main)
    !!!scatter                               0x08000138   Section       52  __scatter.o(!!!scatter)
    !!handler_copy                           0x0800016c   Section       26  __scatter_copy.o(!!handler_copy)
    !!handler_zi                             0x08000188   Section       28  __scatter_zi.o(!!handler_zi)
    .ARM.Collect$$_printf_percent$$00000000  0x080001a4   Section        0  _printf_percent.o(.ARM.Collect$$_printf_percent$$00000000)
    .ARM.Collect$$_printf_percent$$00000009  0x080001a4   Section        6  _printf_d.o(.ARM.Collect$$_printf_percent$$00000009)
    .ARM.Collect$$_printf_percent$$0000000C  0x080001aa   Section        6  _printf_x.o(.ARM.Collect$$_printf_percent$$0000000C)
    .ARM.Collect$$_printf_percent$$00000014  0x080001b0   Section        6  _printf_s.o(.ARM.Collect$$_printf_percent$$00000014)
    .ARM.Collect$$_printf_percent$$00000017  0x080001b6   Section        4  _printf_percent_end.o(.ARM.Collect$$_printf_percent$$00000017)
    .ARM.Collect$$libinit$$00000000          0x080001ba   Section        2  libinit.o(.ARM.Collect$$libinit$$00000000)
    .ARM.Collect$$libinit$$00000002          0x080001bc   Section        0  libinit2.o(.ARM.Collect$$libinit$$00000002)
    .ARM.Collect$$libinit$$00000004          0x080001bc   Section        0  libinit2.o(.ARM.Collect$$libinit$$00000004)
    .ARM.Collect$$libinit$$0000000A          0x080001bc   Section        0  libinit2.o(.ARM.Collect$$libinit$$0000000A)
    .ARM.Collect$$libinit$$0000000C          0x080001bc   Section        0  libinit2.o(.ARM.Collect$$libinit$$0000000C)
    .ARM.Collect$$libinit$$0000000E          0x080001bc   Section        0  libinit2.o(.ARM.Collect$$libinit$$0000000E)
    .ARM.Collect$$libinit$$00000011          0x080001bc   Section        0  libinit2.o(.ARM.Collect$$libinit$$00000011)
    .ARM.Collect$$libinit$$00000013          0x080001bc   Section        0  libinit2.o(.ARM.Collect$$libinit$$00000013)
    .ARM.Collect$$libinit$$00000015          0x080001bc   Section        0  libinit2.o(.ARM.Collect$$libinit$$00000015)
    .ARM.Collect$$libinit$$00000017          0x080001bc   Section        0  libinit2.o(.ARM.Collect$$libinit$$00000017)
    .ARM.Collect$$libinit$$00000019          0x080001bc   Section        0  libinit2.o(.ARM.Collect$$libinit$$00000019)
    .ARM.Collect$$libinit$$0000001B          0x080001bc   Section        0  libinit2.o(.ARM.Collect$$libinit$$0000001B)
    .ARM.Collect$$libinit$$0000001D          0x080001bc   Section        0  libinit2.o(.ARM.Collect$$libinit$$0000001D)
    .ARM.Collect$$libinit$$0000001F          0x080001bc   Section        0  libinit2.o(.ARM.Collect$$libinit$$0000001F)
    .ARM.Collect$$libinit$$00000021          0x080001bc   Section        0  libinit2.o(.ARM.Collect$$libinit$$00000021)
    .ARM.Collect$$libinit$$00000023          0x080001bc   Section        0  libinit2.o(.ARM.Collect$$libinit$$00000023)
    .ARM.Collect$$libinit$$00000025          0x080001bc   Section        0  libinit2.o(.ARM.Collect$$libinit$$00000025)
    .ARM.Collect$$libinit$$0000002C          0x080001bc   Section        0  libinit2.o(.ARM.Collect$$libinit$$0000002C)
    .ARM.Collect$$libinit$$0000002E          0x080001bc   Section        0  libinit2.o(.ARM.Collect$$libinit$$0000002E)
    .ARM.Collect$$libinit$$00000030          0x080001bc   Section        0  libinit2.o(.ARM.Collect$$libinit$$00000030)
    .ARM.Collect$$libinit$$00000032          0x080001bc   Section        0  libinit2.o(.ARM.Collect$$libinit$$00000032)
    .ARM.Collect$$libinit$$00000033          0x080001bc   Section        2  libinit2.o(.ARM.Collect$$libinit$$00000033)
    .ARM.Collect$$libshutdown$$00000000      0x080001be   Section        2  libshutdown.o(.ARM.Collect$$libshutdown$$00000000)
    .ARM.Collect$$libshutdown$$00000002      0x080001c0   Section        0  libshutdown2.o(.ARM.Collect$$libshutdown$$00000002)
    .ARM.Collect$$libshutdown$$00000004      0x080001c0   Section        0  libshutdown2.o(.ARM.Collect$$libshutdown$$00000004)
    .ARM.Collect$$libshutdown$$00000007      0x080001c0   Section        0  libshutdown2.o(.ARM.Collect$$libshutdown$$00000007)
    .ARM.Collect$$libshutdown$$0000000A      0x080001c0   Section        0  libshutdown2.o(.ARM.Collect$$libshutdown$$0000000A)
    .ARM.Collect$$libshutdown$$0000000C      0x080001c0   Section        0  libshutdown2.o(.ARM.Collect$$libshutdown$$0000000C)
    .ARM.Collect$$libshutdown$$0000000F      0x080001c0   Section        0  libshutdown2.o(.ARM.Collect$$libshutdown$$0000000F)
    .ARM.Collect$$libshutdown$$00000010      0x080001c0   Section        2  libshutdown2.o(.ARM.Collect$$libshutdown$$00000010)
    .ARM.Collect$$rtentry$$00000000          0x080001c2   Section        0  __rtentry.o(.ARM.Collect$$rtentry$$00000000)
    .ARM.Collect$$rtentry$$00000002          0x080001c2   Section        0  __rtentry2.o(.ARM.Collect$$rtentry$$00000002)
    .ARM.Collect$$rtentry$$00000004          0x080001c2   Section        6  __rtentry4.o(.ARM.Collect$$rtentry$$00000004)
    .ARM.Collect$$rtentry$$00000009          0x080001c8   Section        0  __rtentry2.o(.ARM.Collect$$rtentry$$00000009)
    .ARM.Collect$$rtentry$$0000000A          0x080001c8   Section        4  __rtentry2.o(.ARM.Collect$$rtentry$$0000000A)
    .ARM.Collect$$rtentry$$0000000C          0x080001cc   Section        0  __rtentry2.o(.ARM.Collect$$rtentry$$0000000C)
    .ARM.Collect$$rtentry$$0000000D          0x080001cc   Section        8  __rtentry2.o(.ARM.Collect$$rtentry$$0000000D)
    .ARM.Collect$$rtexit$$00000000           0x080001d4   Section        2  rtexit.o(.ARM.Collect$$rtexit$$00000000)
    .ARM.Collect$$rtexit$$00000002           0x080001d6   Section        0  rtexit2.o(.ARM.Collect$$rtexit$$00000002)
    .ARM.Collect$$rtexit$$00000003           0x080001d6   Section        4  rtexit2.o(.ARM.Collect$$rtexit$$00000003)
    .ARM.Collect$$rtexit$$00000004           0x080001da   Section        6  rtexit2.o(.ARM.Collect$$rtexit$$00000004)
    .text                                    0x080001e0   Section        0  stm32f10x_it.o(.text)
    .text                                    0x08000208   Section        0  misc.o(.text)
    .text                                    0x080002e4   Section        0  os_timer.o(.text)
    _timer_list_foreach                      0x080002f3   Thumb Code    98  os_timer.o(.text)
    .text                                    0x08000494   Section        0  hal.o(.text)
    .text                                    0x080005c4   Section        0  hal_flash.o(.text)
    HalBufferToData                          0x080005c5   Thumb Code    24  hal_flash.o(.text)
    HalFlashErasePage                        0x080005dd   Thumb Code    22  hal_flash.o(.text)
    .text                                    0x080006a6   Section        0  hal_timer.o(.text)
    .text                                    0x080006b4   Section        0  hal_wait.o(.text)
    hal_wait_TIM_config_ms                   0x080006b5   Thumb Code    62  hal_wait.o(.text)
    hal_wait_TIM_config_us                   0x080006f3   Thumb Code    62  hal_wait.o(.text)
    hal_wait_TIM_init                        0x08000731   Thumb Code    12  hal_wait.o(.text)
    .text                                    0x080007cc   Section        0  hal_wdt.o(.text)
    .text                                    0x080007fc   Section        0  halgpio.o(.text)
    HalLedInit                               0x080007fd   Thumb Code   106  halgpio.o(.text)
    HalButtonInit                            0x08000867   Thumb Code    30  halgpio.o(.text)
    .text                                    0x080008cc   Section        0  haluart.o(.text)
    .text                                    0x08000ef8   Section        0  hal_rtc.o(.text)
    .text                                    0x08001230   Section        0  cloud_helper.o(.text)
    data2Num                                 0x08001231   Thumb Code    40  cloud_helper.o(.text)
    getFrameLen                              0x080012db   Thumb Code    12  cloud_helper.o(.text)
    calcChecksum                             0x08001385   Thumb Code    30  cloud_helper.o(.text)
    recv_frame                               0x080013a3   Thumb Code    54  cloud_helper.o(.text)
    send_data                                0x080013d9   Thumb Code    70  cloud_helper.o(.text)
    send_frame                               0x0800141f   Thumb Code    70  cloud_helper.o(.text)
    handle_request_config                    0x08001465   Thumb Code    88  cloud_helper.o(.text)
    comm_test                                0x080014bd   Thumb Code    46  cloud_helper.o(.text)
    handle_operation                         0x080014eb   Thumb Code   150  cloud_helper.o(.text)
    handle_heartbeat                         0x08001581   Thumb Code    44  cloud_helper.o(.text)
    privateInfoReport                        0x080015e1   Thumb Code   374  cloud_helper.o(.text)
    handle_ssid_ret                          0x08001757   Thumb Code    50  cloud_helper.o(.text)
    handle_rom_upgrade                       0x080017a1   Thumb Code   240  cloud_helper.o(.text)
    num_to_data                              0x08001891   Thumb Code    16  cloud_helper.o(.text)
    build_property                           0x080018a1   Thumb Code   156  cloud_helper.o(.text)
    handle_recv                              0x0800193d   Thumb Code   588  cloud_helper.o(.text)
    .text                                    0x080020d0   Section        0  md5.o(.text)
    MD5Decode                                0x080020eb   Thumb Code    50  md5.o(.text)
    MD5Transform                             0x0800211d   Thumb Code  1886  md5.o(.text)
    MD5Encode                                0x08002907   Thumb Code    62  md5.o(.text)
    .text                                    0x08002a14   Section        0  moduletester.o(.text)
    clrUpdateInfo                            0x08002a15   Thumb Code    30  moduletester.o(.text)
    num_to_data                              0x08002a33   Thumb Code    16  moduletester.o(.text)
    checkMd5Val                              0x08002a43   Thumb Code   344  moduletester.o(.text)
    RomDataProcess                           0x08002b9b   Thumb Code   250  moduletester.o(.text)
    RomInfoProcess                           0x08002c95   Thumb Code   234  moduletester.o(.text)
    chEventHandler                           0x08002d7f   Thumb Code   784  moduletester.o(.text)
    chUartWrite                              0x0800308f   Thumb Code    18  moduletester.o(.text)
    getButtonState                           0x080030a1   Thumb Code    32  moduletester.o(.text)
    buttonHandler                            0x080030c1   Thumb Code    86  moduletester.o(.text)
    uartRecv                                 0x08003117   Thumb Code    18  moduletester.o(.text)
    ClearUpdateFlag                          0x080031b7   Thumb Code    28  moduletester.o(.text)
    updatePoll                               0x080031d3   Thumb Code   124  moduletester.o(.text)
    .text                                    0x08003460   Section        0  main.o(.text)
    .text                                    0x08003484   Section        0  mlist.o(.text)
    .text                                    0x080035cc   Section        0  sysbutton.o(.text)
    handleButton                             0x080035d5   Thumb Code    68  sysbutton.o(.text)
    .text                                    0x08003690   Section        0  syspoll.o(.text)
    .text                                    0x08003770   Section        0  systimer.o(.text)
    timerExecute                             0x08003773   Thumb Code    40  systimer.o(.text)
    .text                                    0x08003870   Section        0  usersys.o(.text)
    system_get_time                          0x080038c3   Thumb Code     8  usersys.o(.text)
    fetchTime                                0x080038cb   Thumb Code     8  usersys.o(.text)
    .text                                    0x08003b40   Section        0  menuconfig.o(.text)
    .text                                    0x08003b5c   Section        0  stm32f10x_bkp.o(.text)
    .text                                    0x08003c20   Section        0  stm32f10x_flash.o(.text)
    .text                                    0x080041dc   Section        0  stm32f10x_gpio.o(.text)
    .text                                    0x08004538   Section        0  stm32f10x_iwdg.o(.text)
    .text                                    0x08004578   Section        0  stm32f10x_pwr.o(.text)
    .text                                    0x08004644   Section        0  stm32f10x_rcc.o(.text)
    .text                                    0x080049e8   Section        0  stm32f10x_rtc.o(.text)
    .text                                    0x08004b30   Section        0  stm32f10x_tim.o(.text)
    TI4_Config                               0x08004fd7   Thumb Code   130  stm32f10x_tim.o(.text)
    TI3_Config                               0x0800506b   Thumb Code   122  stm32f10x_tim.o(.text)
    TI2_Config                               0x080050ff   Thumb Code   130  stm32f10x_tim.o(.text)
    TI1_Config                               0x08005193   Thumb Code   108  stm32f10x_tim.o(.text)
    .text                                    0x0800594c   Section        0  stm32f10x_usart.o(.text)
    .text                                    0x08005d54   Section        0  dma_stm32f10x.o(.text)
    NVIC_EnableIRQ                           0x080061d1   Thumb Code    22  dma_stm32f10x.o(.text)
    NVIC_DisableIRQ                          0x080061e7   Thumb Code    18  dma_stm32f10x.o(.text)
    NVIC_ClearPendingIRQ                     0x080061f9   Thumb Code    18  dma_stm32f10x.o(.text)
    .text                                    0x08006218   Section       64  startup_stm32f10x_hd.o(.text)
    .text                                    0x08006258   Section        0  system_stm32f10x.o(.text)
    SetSysClockTo72                          0x08006259   Thumb Code   214  system_stm32f10x.o(.text)
    SetSysClock                              0x0800632f   Thumb Code     8  system_stm32f10x.o(.text)
    .text                                    0x08006438   Section        0  noretval__2printf.o(.text)
    .text                                    0x08006450   Section        0  _printf_pad.o(.text)
    .text                                    0x0800649e   Section        0  _printf_str.o(.text)
    .text                                    0x080064f0   Section        0  _printf_dec.o(.text)
    .text                                    0x08006568   Section        0  _printf_hex_int.o(.text)
    .text                                    0x080065c0   Section        0  __printf_flags_wp.o(.text)
    .text                                    0x080066f8   Section        0  strstr.o(.text)
    .text                                    0x0800671c   Section        0  memcmp.o(.text)
    .text                                    0x08006774   Section        0  strcpy.o(.text)
    .text                                    0x080067bc   Section        0  strlen.o(.text)
    .text                                    0x080067fa   Section      138  rt_memcpy_v6.o(.text)
    .text                                    0x08006884   Section       78  rt_memclr_w.o(.text)
    .text                                    0x080068d2   Section        0  heapauxi.o(.text)
    .text                                    0x080068d8   Section        0  _printf_intcommon.o(.text)
    .text                                    0x0800698a   Section        0  _printf_char.o(.text)
    .text                                    0x080069b8   Section        0  _printf_char_file.o(.text)
    .text                                    0x080069dc   Section      100  rt_memcpy_w.o(.text)
    .text                                    0x08006a40   Section        0  _printf_char_common.o(.text)
    _printf_input_char                       0x08006a41   Thumb Code    10  _printf_char_common.o(.text)
    .text                                    0x08006a70   Section        0  ferror.o(.text)
    .text                                    0x08006a78   Section       74  sys_stackheap_outer.o(.text)
    .text                                    0x08006ac2   Section        0  exit.o(.text)
    .text                                    0x08006ad4   Section        8  libspace.o(.text)
    i._is_digit                              0x08006adc   Section        0  __printf_wp.o(i._is_digit)
    .constdata                               0x08006aea   Section       11  hal.o(.constdata)
    __func__                                 0x08006aea   Data          11  hal.o(.constdata)
    .constdata                               0x08006af5   Section       12  hal_rtc.o(.constdata)
    .constdata                               0x08006b04   Section       65  cloud_helper.o(.constdata)
    g_send_frame                             0x08006b04   Data           4  cloud_helper.o(.constdata)
    __func__                                 0x08006b08   Data          10  cloud_helper.o(.constdata)
    __func__                                 0x08006b12   Data          12  cloud_helper.o(.constdata)
    __func__                                 0x08006b1e   Data          19  cloud_helper.o(.constdata)
    __func__                                 0x08006b31   Data          20  cloud_helper.o(.constdata)
    .constdata                               0x08006b45   Section       71  moduletester.o(.constdata)
    __func__                                 0x08006b45   Data          15  moduletester.o(.constdata)
    __func__                                 0x08006b54   Data          14  moduletester.o(.constdata)
    __func__                                 0x08006b62   Data          15  moduletester.o(.constdata)
    __func__                                 0x08006b71   Data          15  moduletester.o(.constdata)
    __func__                                 0x08006b80   Data          12  moduletester.o(.constdata)
    .constdata                               0x08006b8c   Section       21  usersys.o(.constdata)
    __func__                                 0x08006b8c   Data          21  usersys.o(.constdata)
    .constdata                               0x08006ba1   Section       40  _printf_hex_int.o(.constdata)
    uc_hextab                                0x08006ba1   Data          20  _printf_hex_int.o(.constdata)
    lc_hextab                                0x08006bb5   Data          20  _printf_hex_int.o(.constdata)
    .constdata                               0x08006bc9   Section       17  __printf_flags_wp.o(.constdata)
    maptable                                 0x08006bc9   Data          17  __printf_flags_wp.o(.constdata)
    .data                                    0x20000000   Section        8  os_timer.o(.data)
    g_nettime                                0x20000000   Data           4  os_timer.o(.data)
    g_systime                                0x20000004   Data           4  os_timer.o(.data)
    .data                                    0x20000008   Section        1  hal_wait.o(.data)
    g_waitType                               0x20000008   Data           1  hal_wait.o(.data)
    .data                                    0x2000000c   Section        4  haluart.o(.data)
    .data                                    0x20000010   Section        2  hal_rtc.o(.data)
    dayCount                                 0x20000010   Data           2  hal_rtc.o(.data)
    .data                                    0x20000014   Section       57  cloud_helper.o(.data)
    g_justResponseConfig                     0x20000014   Data           1  cloud_helper.o(.data)
    g_online                                 0x20000015   Data           1  cloud_helper.o(.data)
    g_wifi_status                            0x20000016   Data           1  cloud_helper.o(.data)
    g_wifi_cfg_type                          0x20000017   Data           1  cloud_helper.o(.data)
    g_wifi_signal                            0x20000018   Data           1  cloud_helper.o(.data)
    g_sys_time                               0x2000001c   Data           4  cloud_helper.o(.data)
    g_last_recv_time                         0x20000020   Data           4  cloud_helper.o(.data)
    g_version                                0x20000024   Data           4  cloud_helper.o(.data)
    g_event_handler                          0x20000028   Data           4  cloud_helper.o(.data)
    g_uart_write                             0x2000002c   Data           4  cloud_helper.o(.data)
    g_recving_frame_buf_count                0x20000030   Data           1  cloud_helper.o(.data)
    g_frame_recved                           0x20000031   Data           1  cloud_helper.o(.data)
    g_use_jd_product_uuid                    0x20000032   Data           1  cloud_helper.o(.data)
    g_jd_product_uuid                        0x20000033   Data           7  cloud_helper.o(.data)
    g_use_wechat_devtype                     0x2000003a   Data           1  cloud_helper.o(.data)
    g_use_gm_type                            0x2000003b   Data           1  cloud_helper.o(.data)
    g_module_ready                           0x2000003c   Data           1  cloud_helper.o(.data)
    g_pro_test_start                         0x2000003d   Data           1  cloud_helper.o(.data)
    g_pro_test_result                        0x2000003e   Data           1  cloud_helper.o(.data)
    g_multiPropertyLen                       0x20000040   Data           2  cloud_helper.o(.data)
    g_historyLen                             0x20000044   Data           4  cloud_helper.o(.data)
    commTestTime                             0x20000048   Data           4  cloud_helper.o(.data)
    first                                    0x2000004c   Data           1  cloud_helper.o(.data)
    .data                                    0x2000004d   Section       64  md5.o(.data)
    .data                                    0x20000090   Section       12  moduletester.o(.data)
    g_lastSyncTime                           0x20000090   Data           4  moduletester.o(.data)
    g_needReset                              0x20000094   Data           1  moduletester.o(.data)
    g_config                                 0x20000098   Data           4  moduletester.o(.data)
    .data                                    0x2000009c   Section        4  sysbutton.o(.data)
    g_buttons                                0x2000009c   Data           4  sysbutton.o(.data)
    .data                                    0x200000a0   Section        4  syspoll.o(.data)
    g_pollNum                                0x200000a0   Data           4  syspoll.o(.data)
    .data                                    0x200000a4   Section       21  usersys.o(.data)
    g_sysInitComplete                        0x200000b3   Data           1  usersys.o(.data)
    g_utcTime                                0x200000b4   Data           4  usersys.o(.data)
    g_tcpSendLock                            0x200000b8   Data           1  usersys.o(.data)
    .data                                    0x200000b9   Section       20  stm32f10x_rcc.o(.data)
    APBAHBPrescTable                         0x200000b9   Data          16  stm32f10x_rcc.o(.data)
    ADCPrescTable                            0x200000c9   Data           4  stm32f10x_rcc.o(.data)
    .data                                    0x200000cd   Section        2  dma_stm32f10x.o(.data)
    DMA1_Channel                             0x200000cd   Data           1  dma_stm32f10x.o(.data)
    DMA2_Channel                             0x200000ce   Data           1  dma_stm32f10x.o(.data)
    .data                                    0x200000d0   Section       20  system_stm32f10x.o(.data)
    .bss                                     0x200000e4   Section      224  os_timer.o(.bss)
    g_timer_list                             0x200000e4   Data         224  os_timer.o(.bss)
    .bss                                     0x200001c4   Section       20  haluart.o(.bss)
    g_uartCbs                                0x200001c4   Data          20  haluart.o(.bss)
    .bss                                     0x200001d8   Section       16  hal_rtc.o(.bss)
    g_rtcTime                                0x200001d8   Data          16  hal_rtc.o(.bss)
    .bss                                     0x200001e8   Section     2197  cloud_helper.o(.bss)
    g_device_type                            0x200001e8   Data          12  cloud_helper.o(.bss)
    g_device_pin                             0x200001f4   Data          33  cloud_helper.o(.bss)
    g_recving_frame_buf                      0x20000215   Data        1031  cloud_helper.o(.bss)
    g_send_buf                               0x2000061c   Data        1031  cloud_helper.o(.bss)
    g_wechat_devtype                         0x20000a23   Data          12  cloud_helper.o(.bss)
    g_gm_model                               0x20000a2f   Data          12  cloud_helper.o(.bss)
    g_gm_pin                                 0x20000a3b   Data          33  cloud_helper.o(.bss)
    g_wifiSSID                               0x20000a5c   Data          33  cloud_helper.o(.bss)
    .bss                                     0x20000a80   Section      124  moduletester.o(.bss)
    g_rtc_time                               0x20000a80   Data          24  moduletester.o(.bss)
    g_ConfigButton                           0x20000a98   Data          16  moduletester.o(.bss)
    g_gw_electInfo                           0x20000aa8   Data          44  moduletester.o(.bss)
    g_updateInfo                             0x20000ad4   Data          40  moduletester.o(.bss)
    .bss                                     0x20000afc   Section      120  syspoll.o(.bss)
    .bss                                     0x20000b74   Section      400  systimer.o(.bss)
    g_timers                                 0x20000b74   Data         400  systimer.o(.bss)
    .bss                                     0x20000d04   Section     2048  usersys.o(.bss)
    secBuf                                   0x20000d04   Data        2048  usersys.o(.bss)
    .bss                                     0x20001504   Section       84  menuconfig.o(.bss)
    g_configInfo                             0x20001504   Data          84  menuconfig.o(.bss)
    .bss                                     0x20001558   Section       96  libspace.o(.bss)
    HEAP                                     0x200015b8   Section      512  startup_stm32f10x_hd.o(HEAP)
    Heap_Mem                                 0x200015b8   Data         512  startup_stm32f10x_hd.o(HEAP)
    STACK                                    0x200017b8   Section     1024  startup_stm32f10x_hd.o(STACK)
    Stack_Mem                                0x200017b8   Data        1024  startup_stm32f10x_hd.o(STACK)
    __initial_sp                             0x20001bb8   Data           0  startup_stm32f10x_hd.o(STACK)

    Global Symbols

    Symbol Name                              Value     Ov Type        Size  Object(Section)

    BuildAttributes$$THM_ISAv4$P$D$K$B$S$PE$A:L22UL41UL21$X:L11$S22US41US21$IEEE1$IW$USESV6$~STKCKD$USESV7$~SHL$OSPACE$ROPI$EBA8$UX$STANDARDLIB$REQ8$PRES8$EABIv2 0x00000000   Number         0  anon$$obj.o ABSOLUTE
    __ARM_use_no_argv                        0x00000000   Number         0  main.o ABSOLUTE
    _printf_flags                            0x00000000   Number         0  printf_stubs.o ABSOLUTE
    _printf_return_value                     0x00000000   Number         0  printf_stubs.o ABSOLUTE
    _printf_sizespec                         0x00000000   Number         0  printf_stubs.o ABSOLUTE
    _printf_widthprec                        0x00000000   Number         0  printf_stubs.o ABSOLUTE
    __ARM_exceptions_init                     - Undefined Weak Reference
    __alloca_initialize                       - Undefined Weak Reference
    __arm_preinit_                            - Undefined Weak Reference
    __cpp_initialize__aeabi_                  - Undefined Weak Reference
    __cxa_finalize                            - Undefined Weak Reference
    __rt_locale                               - Undefined Weak Reference
    __sigvec_lookup                           - Undefined Weak Reference
    _atexit_init                              - Undefined Weak Reference
    _call_atexit_fns                          - Undefined Weak Reference
    _clock_init                               - Undefined Weak Reference
    _fp_trap_init                             - Undefined Weak Reference
    _fp_trap_shutdown                         - Undefined Weak Reference
    _get_lc_collate                           - Undefined Weak Reference
    _get_lc_ctype                             - Undefined Weak Reference
    _get_lc_monetary                          - Undefined Weak Reference
    _get_lc_numeric                           - Undefined Weak Reference
    _get_lc_time                              - Undefined Weak Reference
    _getenv_init                              - Undefined Weak Reference
    _handle_redirection                       - Undefined Weak Reference
    _init_alloc                               - Undefined Weak Reference
    _init_user_alloc                          - Undefined Weak Reference
    _initio                                   - Undefined Weak Reference
    _mutex_acquire                            - Undefined Weak Reference
    _mutex_release                            - Undefined Weak Reference
    _printf_mbtowc                            - Undefined Weak Reference
    _printf_truncate_signed                   - Undefined Weak Reference
    _printf_truncate_unsigned                 - Undefined Weak Reference
    _rand_init                                - Undefined Weak Reference
    _signal_finish                            - Undefined Weak Reference
    _signal_init                              - Undefined Weak Reference
    _terminate_alloc                          - Undefined Weak Reference
    _terminate_user_alloc                     - Undefined Weak Reference
    _terminateio                              - Undefined Weak Reference
    __Vectors_Size                           0x00000130   Number         0  startup_stm32f10x_hd.o ABSOLUTE
    __Vectors                                0x08000000   Data           4  startup_stm32f10x_hd.o(RESET)
    __Vectors_End                            0x08000130   Data           0  startup_stm32f10x_hd.o(RESET)
    __main                                   0x08000131   Thumb Code     8  __main.o(!!!main)
    __scatterload                            0x08000139   Thumb Code     0  __scatter.o(!!!scatter)
    __scatterload_rt2                        0x08000139   Thumb Code    44  __scatter.o(!!!scatter)
    __scatterload_rt2_thumb_only             0x08000139   Thumb Code     0  __scatter.o(!!!scatter)
    __scatterload_null                       0x08000147   Thumb Code     0  __scatter.o(!!!scatter)
    __scatterload_copy                       0x0800016d   Thumb Code    26  __scatter_copy.o(!!handler_copy)
    __scatterload_zeroinit                   0x08000189   Thumb Code    28  __scatter_zi.o(!!handler_zi)
    _printf_d                                0x080001a5   Thumb Code     0  _printf_d.o(.ARM.Collect$$_printf_percent$$00000009)
    _printf_percent                          0x080001a5   Thumb Code     0  _printf_percent.o(.ARM.Collect$$_printf_percent$$00000000)
    _printf_x                                0x080001ab   Thumb Code     0  _printf_x.o(.ARM.Collect$$_printf_percent$$0000000C)
    _printf_s                                0x080001b1   Thumb Code     0  _printf_s.o(.ARM.Collect$$_printf_percent$$00000014)
    _printf_percent_end                      0x080001b7   Thumb Code     0  _printf_percent_end.o(.ARM.Collect$$_printf_percent$$00000017)
    __rt_lib_init                            0x080001bb   Thumb Code     0  libinit.o(.ARM.Collect$$libinit$$00000000)
    __rt_lib_init_alloca_1                   0x080001bd   Thumb Code     0  libinit2.o(.ARM.Collect$$libinit$$0000002E)
    __rt_lib_init_argv_1                     0x080001bd   Thumb Code     0  libinit2.o(.ARM.Collect$$libinit$$0000002C)
    __rt_lib_init_atexit_1                   0x080001bd   Thumb Code     0  libinit2.o(.ARM.Collect$$libinit$$0000001B)
    __rt_lib_init_clock_1                    0x080001bd   Thumb Code     0  libinit2.o(.ARM.Collect$$libinit$$00000021)
    __rt_lib_init_cpp_1                      0x080001bd   Thumb Code     0  libinit2.o(.ARM.Collect$$libinit$$00000032)
    __rt_lib_init_exceptions_1               0x080001bd   Thumb Code     0  libinit2.o(.ARM.Collect$$libinit$$00000030)
    __rt_lib_init_fp_1                       0x080001bd   Thumb Code     0  libinit2.o(.ARM.Collect$$libinit$$00000002)
    __rt_lib_init_fp_trap_1                  0x080001bd   Thumb Code     0  libinit2.o(.ARM.Collect$$libinit$$0000001F)
    __rt_lib_init_getenv_1                   0x080001bd   Thumb Code     0  libinit2.o(.ARM.Collect$$libinit$$00000023)
    __rt_lib_init_heap_1                     0x080001bd   Thumb Code     0  libinit2.o(.ARM.Collect$$libinit$$0000000A)
    __rt_lib_init_lc_collate_1               0x080001bd   Thumb Code     0  libinit2.o(.ARM.Collect$$libinit$$00000011)
    __rt_lib_init_lc_ctype_1                 0x080001bd   Thumb Code     0  libinit2.o(.ARM.Collect$$libinit$$00000013)
    __rt_lib_init_lc_monetary_1              0x080001bd   Thumb Code     0  libinit2.o(.ARM.Collect$$libinit$$00000015)
    __rt_lib_init_lc_numeric_1               0x080001bd   Thumb Code     0  libinit2.o(.ARM.Collect$$libinit$$00000017)
    __rt_lib_init_lc_time_1                  0x080001bd   Thumb Code     0  libinit2.o(.ARM.Collect$$libinit$$00000019)
    __rt_lib_init_preinit_1                  0x080001bd   Thumb Code     0  libinit2.o(.ARM.Collect$$libinit$$00000004)
    __rt_lib_init_rand_1                     0x080001bd   Thumb Code     0  libinit2.o(.ARM.Collect$$libinit$$0000000E)
    __rt_lib_init_return                     0x080001bd   Thumb Code     0  libinit2.o(.ARM.Collect$$libinit$$00000033)
    __rt_lib_init_signal_1                   0x080001bd   Thumb Code     0  libinit2.o(.ARM.Collect$$libinit$$0000001D)
    __rt_lib_init_stdio_1                    0x080001bd   Thumb Code     0  libinit2.o(.ARM.Collect$$libinit$$00000025)
    __rt_lib_init_user_alloc_1               0x080001bd   Thumb Code     0  libinit2.o(.ARM.Collect$$libinit$$0000000C)
    __rt_lib_shutdown                        0x080001bf   Thumb Code     0  libshutdown.o(.ARM.Collect$$libshutdown$$00000000)
    __rt_lib_shutdown_cpp_1                  0x080001c1   Thumb Code     0  libshutdown2.o(.ARM.Collect$$libshutdown$$00000002)
    __rt_lib_shutdown_fp_trap_1              0x080001c1   Thumb Code     0  libshutdown2.o(.ARM.Collect$$libshutdown$$00000007)
    __rt_lib_shutdown_heap_1                 0x080001c1   Thumb Code     0  libshutdown2.o(.ARM.Collect$$libshutdown$$0000000F)
    __rt_lib_shutdown_return                 0x080001c1   Thumb Code     0  libshutdown2.o(.ARM.Collect$$libshutdown$$00000010)
    __rt_lib_shutdown_signal_1               0x080001c1   Thumb Code     0  libshutdown2.o(.ARM.Collect$$libshutdown$$0000000A)
    __rt_lib_shutdown_stdio_1                0x080001c1   Thumb Code     0  libshutdown2.o(.ARM.Collect$$libshutdown$$00000004)
    __rt_lib_shutdown_user_alloc_1           0x080001c1   Thumb Code     0  libshutdown2.o(.ARM.Collect$$libshutdown$$0000000C)
    __rt_entry                               0x080001c3   Thumb Code     0  __rtentry.o(.ARM.Collect$$rtentry$$00000000)
    __rt_entry_presh_1                       0x080001c3   Thumb Code     0  __rtentry2.o(.ARM.Collect$$rtentry$$00000002)
    __rt_entry_sh                            0x080001c3   Thumb Code     0  __rtentry4.o(.ARM.Collect$$rtentry$$00000004)
    __rt_entry_li                            0x080001c9   Thumb Code     0  __rtentry2.o(.ARM.Collect$$rtentry$$0000000A)
    __rt_entry_postsh_1                      0x080001c9   Thumb Code     0  __rtentry2.o(.ARM.Collect$$rtentry$$00000009)
    __rt_entry_main                          0x080001cd   Thumb Code     0  __rtentry2.o(.ARM.Collect$$rtentry$$0000000D)
    __rt_entry_postli_1                      0x080001cd   Thumb Code     0  __rtentry2.o(.ARM.Collect$$rtentry$$0000000C)
    __rt_exit                                0x080001d5   Thumb Code     0  rtexit.o(.ARM.Collect$$rtexit$$00000000)
    __rt_exit_ls                             0x080001d7   Thumb Code     0  rtexit2.o(.ARM.Collect$$rtexit$$00000003)
    __rt_exit_prels_1                        0x080001d7   Thumb Code     0  rtexit2.o(.ARM.Collect$$rtexit$$00000002)
    __rt_exit_exit                           0x080001db   Thumb Code     0  rtexit2.o(.ARM.Collect$$rtexit$$00000004)
    NMI_Handler                              0x080001e1   Thumb Code     2  stm32f10x_it.o(.text)
    HardFault_Handler                        0x080001e3   Thumb Code     4  stm32f10x_it.o(.text)
    MemManage_Handler                        0x080001e7   Thumb Code     4  stm32f10x_it.o(.text)
    BusFault_Handler                         0x080001eb   Thumb Code     4  stm32f10x_it.o(.text)
    UsageFault_Handler                       0x080001ef   Thumb Code     4  stm32f10x_it.o(.text)
    SVC_Handler                              0x080001f3   Thumb Code     2  stm32f10x_it.o(.text)
    DebugMon_Handler                         0x080001f5   Thumb Code     2  stm32f10x_it.o(.text)
    PendSV_Handler                           0x080001f7   Thumb Code     2  stm32f10x_it.o(.text)
    SysTick_Handler                          0x080001f9   Thumb Code     8  stm32f10x_it.o(.text)
    TIM2_IRQHandler                          0x08000201   Thumb Code     2  stm32f10x_it.o(.text)
    TIM3_IRQHandler                          0x08000203   Thumb Code     2  stm32f10x_it.o(.text)
    TIM4_IRQHandler                          0x08000205   Thumb Code     2  stm32f10x_it.o(.text)
    NVIC_PriorityGroupConfig                 0x08000209   Thumb Code    10  misc.o(.text)
    NVIC_Init                                0x08000213   Thumb Code   100  misc.o(.text)
    NVIC_SetVectorTable                      0x08000277   Thumb Code    14  misc.o(.text)
    NVIC_SystemLPConfig                      0x08000285   Thumb Code    34  misc.o(.text)
    SysTick_CLKSourceConfig                  0x080002a7   Thumb Code    40  misc.o(.text)
    os_timer_get_systime                     0x080002e5   Thumb Code    14  os_timer.o(.text)
    os_timer_init                            0x08000355   Thumb Code    24  os_timer.o(.text)
    os_timer_poll                            0x0800036d   Thumb Code    12  os_timer.o(.text)
    os_timer_set                             0x08000379   Thumb Code    80  os_timer.o(.text)
    os_timer_is_valid                        0x080003c9   Thumb Code    22  os_timer.o(.text)
    os_timer_reset                           0x080003df   Thumb Code    24  os_timer.o(.text)
    os_timer_del                             0x080003f7   Thumb Code    22  os_timer.o(.text)
    os_timer_pass_ms                         0x0800040d   Thumb Code    38  os_timer.o(.text)
    os_timer_get_nettime                     0x08000433   Thumb Code    14  os_timer.o(.text)
    os_timer_add_systime                     0x08000441   Thumb Code    30  os_timer.o(.text)
    os_timer_set_nettime                     0x0800045f   Thumb Code    14  os_timer.o(.text)
    os_timer_get_interval                    0x0800046d   Thumb Code    18  os_timer.o(.text)
    HalInit                                  0x08000495   Thumb Code   104  hal.o(.text)
    HalPoll                                  0x080004fd   Thumb Code     8  hal.o(.text)
    HalWdtFeed                               0x08000505   Thumb Code     8  hal.o(.text)
    HalRestart                               0x0800050d   Thumb Code    72  hal.o(.text)
    HalJumpAppAddr                           0x08000555   Thumb Code    32  hal.o(.text)
    hal_flash_write                          0x080005f3   Thumb Code   152  hal_flash.o(.text)
    hal_flash_read                           0x0800068b   Thumb Code    28  hal_flash.o(.text)
    HalTimerInit                             0x080006a7   Thumb Code    14  hal_timer.o(.text)
    hal_wait_init                            0x0800073d   Thumb Code    28  hal_wait.o(.text)
    hal_wait_check                           0x08000759   Thumb Code    20  hal_wait.o(.text)
    hal_wait                                 0x0800076d   Thumb Code    48  hal_wait.o(.text)
    hal_wait_us                              0x0800079d   Thumb Code    20  hal_wait.o(.text)
    hal_wait_ms                              0x080007b1   Thumb Code    20  hal_wait.o(.text)
    hal_wdt_init                             0x080007cd   Thumb Code    38  hal_wdt.o(.text)
    hal_wdt_feed                             0x080007f3   Thumb Code     8  hal_wdt.o(.text)
    HalGPIOInitialize                        0x08000885   Thumb Code    60  halgpio.o(.text)
    HalGPIOPoll                              0x080008c1   Thumb Code     2  halgpio.o(.text)
    _sys_exit                                0x080008cd   Thumb Code     4  haluart.o(.text)
    fputc                                    0x080008d1   Thumb Code    22  haluart.o(.text)
    USART1_Configuration                     0x080008e7   Thumb Code   166  haluart.o(.text)
    USART1_Send_Byte                         0x0800098d   Thumb Code    28  haluart.o(.text)
    USART1_Send_String                       0x080009a9   Thumb Code    22  haluart.o(.text)
    USART1_IRQHandler                        0x080009bf   Thumb Code    54  haluart.o(.text)
    USART2_Configuration                     0x080009f5   Thumb Code   162  haluart.o(.text)
    USART2_Send_Byte                         0x08000a97   Thumb Code    28  haluart.o(.text)
    USART2_Send_String                       0x08000ab3   Thumb Code    22  haluart.o(.text)
    USART2_IRQHandler                        0x08000ac9   Thumb Code    54  haluart.o(.text)
    USART3_Configuration                     0x08000aff   Thumb Code   166  haluart.o(.text)
    USART3_Send_Byte                         0x08000ba5   Thumb Code    28  haluart.o(.text)
    USART3_Send_String                       0x08000bc1   Thumb Code    22  haluart.o(.text)
    USART3_IRQHandler                        0x08000bd7   Thumb Code    54  haluart.o(.text)
    USART4_Configuration                     0x08000c0d   Thumb Code   200  haluart.o(.text)
    USART4_Send_Byte                         0x08000cd5   Thumb Code    28  haluart.o(.text)
    USART4_Send_String                       0x08000cf1   Thumb Code    22  haluart.o(.text)
    UART4_IRQHandler                         0x08000d07   Thumb Code    54  haluart.o(.text)
    USART5_Configuration                     0x08000d3d   Thumb Code   162  haluart.o(.text)
    USART5_Send_Byte                         0x08000ddf   Thumb Code    28  haluart.o(.text)
    USART5_Send_String                       0x08000dfb   Thumb Code    22  haluart.o(.text)
    UART5_IRQHandler                         0x08000e11   Thumb Code    54  haluart.o(.text)
    HalUartConfig                            0x08000e47   Thumb Code    72  haluart.o(.text)
    HalUartWrite                             0x08000e8f   Thumb Code    84  haluart.o(.text)
    hal_uart_rcv_poll                        0x08000ee3   Thumb Code     2  haluart.o(.text)
    RTC_Configuration                        0x08000ef9   Thumb Code   136  hal_rtc.o(.text)
    RTCInit                                  0x08000f81   Thumb Code   102  hal_rtc.o(.text)
    Is_Leap_Year                             0x08000fe7   Thumb Code    58  hal_rtc.o(.text)
    RTCTransSecCount                         0x08001021   Thumb Code   160  hal_rtc.o(.text)
    RTCTransDate                             0x080010c1   Thumb Code   218  hal_rtc.o(.text)
    SetRTCTime                               0x0800119b   Thumb Code    38  hal_rtc.o(.text)
    GetRTCTime                               0x080011c1   Thumb Code    26  hal_rtc.o(.text)
    RTC_IRQHandler                           0x080011db   Thumb Code    34  hal_rtc.o(.text)
    ch_init                                  0x08001259   Thumb Code   130  cloud_helper.o(.text)
    ch_timer_ms                              0x080012e7   Thumb Code    12  cloud_helper.o(.text)
    frame_recv_byte                          0x080012f3   Thumb Code   120  cloud_helper.o(.text)
    ch_uart_data_input                       0x0800136b   Thumb Code    26  cloud_helper.o(.text)
    parseUTCTime                             0x080015ad   Thumb Code    52  cloud_helper.o(.text)
    data_to_num                              0x08001789   Thumb Code    24  cloud_helper.o(.text)
    ch_handle                                0x08001b89   Thumb Code    48  cloud_helper.o(.text)
    ch_set_fault                             0x08001bb9   Thumb Code    38  cloud_helper.o(.text)
    ch_request_nettime                       0x08001bdf   Thumb Code    16  cloud_helper.o(.text)
    ch_sync_property                         0x08001bef   Thumb Code    48  cloud_helper.o(.text)
    ch_find_ssid                             0x08001c1f   Thumb Code    92  cloud_helper.o(.text)
    ch_reset_cloud                           0x08001c7b   Thumb Code    32  cloud_helper.o(.text)
    ch_dev_self_test_ret                     0x08001c9b   Thumb Code    38  cloud_helper.o(.text)
    ch_protocol_test                         0x08001cc1   Thumb Code    38  cloud_helper.o(.text)
    ch_set_wifi_config_type                  0x08001ce7   Thumb Code    32  cloud_helper.o(.text)
    ch_get_wifi_config_type                  0x08001d07   Thumb Code     6  cloud_helper.o(.text)
    ch_get_wifi_signal                       0x08001d0d   Thumb Code     6  cloud_helper.o(.text)
    ch_is_online                             0x08001d13   Thumb Code     6  cloud_helper.o(.text)
    ch_get_wifi_status                       0x08001d19   Thumb Code     6  cloud_helper.o(.text)
    ch_clear_recv                            0x08001d1f   Thumb Code     8  cloud_helper.o(.text)
    ch_send_operation_result                 0x08001d27   Thumb Code    62  cloud_helper.o(.text)
    ch_sync_multi_property                   0x08001d65   Thumb Code    72  cloud_helper.o(.text)
    ch_send_multi_property                   0x08001dad   Thumb Code    50  cloud_helper.o(.text)
    ch_send_history_data_end                 0x08001ddf   Thumb Code    38  cloud_helper.o(.text)
    ch_send_history_data                     0x08001e05   Thumb Code   294  cloud_helper.o(.text)
    ch_request_rom_info                      0x08001f2b   Thumb Code    26  cloud_helper.o(.text)
    ch_request_rom_data                      0x08001f45   Thumb Code   316  cloud_helper.o(.text)
    ch_request_rom_end                       0x08002081   Thumb Code    34  cloud_helper.o(.text)
    MD5Init                                  0x080020d1   Thumb Code    26  md5.o(.text)
    MD5Update                                0x0800287b   Thumb Code   140  md5.o(.text)
    MD5Final                                 0x08002945   Thumb Code   204  md5.o(.text)
    ModuleTesterInit                         0x08003129   Thumb Code   142  moduletester.o(.text)
    ModuleTesterPoll                         0x0800324f   Thumb Code    12  moduletester.o(.text)
    ModuleTesterCheckUpdate                  0x0800325b   Thumb Code    52  moduletester.o(.text)
    main                                     0x08003461   Thumb Code    36  main.o(.text)
    mlist_init                               0x08003485   Thumb Code    34  mlist.o(.text)
    mlist_find                               0x080034a7   Thumb Code    70  mlist.o(.text)
    mlist_foreach                            0x080034ed   Thumb Code    60  mlist.o(.text)
    mlist_add                                0x08003529   Thumb Code   100  mlist.o(.text)
    mlist_del                                0x0800358d   Thumb Code    24  mlist.o(.text)
    mlist_get                                0x080035a5   Thumb Code    40  mlist.o(.text)
    SysButtonInit                            0x080035cd   Thumb Code     8  sysbutton.o(.text)
    SysButtonPoll                            0x08003619   Thumb Code    32  sysbutton.o(.text)
    SysButtonRegister                        0x08003639   Thumb Code    50  sysbutton.o(.text)
    SysButtonUnregister                      0x0800366b   Thumb Code    32  sysbutton.o(.text)
    sysPeriodInit                            0x08003691   Thumb Code    12  syspoll.o(.text)
    sysPeriodPollSet                         0x0800369d   Thumb Code    96  syspoll.o(.text)
    sysPeriodPoll                            0x080036fd   Thumb Code    98  syspoll.o(.text)
    sysPeriodPollClear                       0x0800375f   Thumb Code     8  syspoll.o(.text)
    SysTimerInit                             0x08003771   Thumb Code     2  systimer.o(.text)
    SysTimerUnSet                            0x0800379b   Thumb Code     8  systimer.o(.text)
    SysTimerSet                              0x080037a3   Thumb Code   114  systimer.o(.text)
    SysTimerPoll                             0x08003815   Thumb Code    74  systimer.o(.text)
    SysTimerUpdate                           0x0800385f   Thumb Code    12  systimer.o(.text)
    SysOSInit                                0x08003871   Thumb Code     8  usersys.o(.text)
    SysCheckMacChipVersion                   0x08003879   Thumb Code     4  usersys.o(.text)
    SysInitCompleted                         0x0800387d   Thumb Code     6  usersys.o(.text)
    SysMacChipReset                          0x08003883   Thumb Code     2  usersys.o(.text)
    SysDevicesInit                           0x08003885   Thumb Code    14  usersys.o(.text)
    SysDelay                                 0x08003893   Thumb Code    26  usersys.o(.text)
    SysLwIPPeriodicHandle                    0x080038ad   Thumb Code     2  usersys.o(.text)
    SysPoll                                  0x080038af   Thumb Code    20  usersys.o(.text)
    SysFlashWrite                            0x080038d3   Thumb Code    68  usersys.o(.text)
    SysFlashRead                             0x08003917   Thumb Code    28  usersys.o(.text)
    SysUserDataWriteByte                     0x08003933   Thumb Code    22  usersys.o(.text)
    SysUserDataReadByte                      0x08003949   Thumb Code    20  usersys.o(.text)
    SysUserDataRead                          0x0800395d   Thumb Code    20  usersys.o(.text)
    SysUserDataWrite                         0x08003971   Thumb Code    26  usersys.o(.text)
    SysUserDataEraseAll                      0x0800398b   Thumb Code    14  usersys.o(.text)
    SysRestart                               0x08003999   Thumb Code    18  usersys.o(.text)
    SysGetUTCTimeSeconds                     0x080039ab   Thumb Code     6  usersys.o(.text)
    SysGetUTCTime                            0x080039b1   Thumb Code    54  usersys.o(.text)
    SysSetUTCTimeSeconds                     0x080039e7   Thumb Code    54  usersys.o(.text)
    SysDataPrint                             0x08003a1d   Thumb Code    40  usersys.o(.text)
    SysIsLittleEndian                        0x08003a45   Thumb Code    20  usersys.o(.text)
    SysTcpSendMutexLock                      0x08003a59   Thumb Code     6  usersys.o(.text)
    SysTcpSendMutexState                     0x08003a5f   Thumb Code     6  usersys.o(.text)
    SysAtoi                                  0x08003a65   Thumb Code   110  usersys.o(.text)
    MenuConfigInit                           0x08003b41   Thumb Code    16  menuconfig.o(.text)
    MenuConfigPoll                           0x08003b51   Thumb Code     2  menuconfig.o(.text)
    GetConfig                                0x08003b53   Thumb Code     4  menuconfig.o(.text)
    BKP_DeInit                               0x08003b5d   Thumb Code    16  stm32f10x_bkp.o(.text)
    BKP_TamperPinLevelConfig                 0x08003b6d   Thumb Code     6  stm32f10x_bkp.o(.text)
    BKP_TamperPinCmd                         0x08003b73   Thumb Code     8  stm32f10x_bkp.o(.text)
    BKP_ITConfig                             0x08003b7b   Thumb Code     8  stm32f10x_bkp.o(.text)
    BKP_RTCOutputConfig                      0x08003b83   Thumb Code    22  stm32f10x_bkp.o(.text)
    BKP_SetRTCCalibrationValue               0x08003b99   Thumb Code    22  stm32f10x_bkp.o(.text)
    BKP_WriteBackupRegister                  0x08003baf   Thumb Code    24  stm32f10x_bkp.o(.text)
    BKP_ReadBackupRegister                   0x08003bc7   Thumb Code    26  stm32f10x_bkp.o(.text)
    BKP_GetFlagStatus                        0x08003be1   Thumb Code    10  stm32f10x_bkp.o(.text)
    BKP_ClearFlag                            0x08003beb   Thumb Code    18  stm32f10x_bkp.o(.text)
    BKP_GetITStatus                          0x08003bfd   Thumb Code    10  stm32f10x_bkp.o(.text)
    BKP_ClearITPendingBit                    0x08003c07   Thumb Code    18  stm32f10x_bkp.o(.text)
    FLASH_SetLatency                         0x08003c21   Thumb Code    18  stm32f10x_flash.o(.text)
    FLASH_HalfCycleAccessCmd                 0x08003c33   Thumb Code    22  stm32f10x_flash.o(.text)
    FLASH_PrefetchBufferCmd                  0x08003c49   Thumb Code    22  stm32f10x_flash.o(.text)
    FLASH_Unlock                             0x08003c5f   Thumb Code    12  stm32f10x_flash.o(.text)
    FLASH_UnlockBank1                        0x08003c6b   Thumb Code    12  stm32f10x_flash.o(.text)
    FLASH_Lock                               0x08003c77   Thumb Code    14  stm32f10x_flash.o(.text)
    FLASH_LockBank1                          0x08003c85   Thumb Code    14  stm32f10x_flash.o(.text)
    FLASH_GetBank1Status                     0x08003c93   Thumb Code    48  stm32f10x_flash.o(.text)
    FLASH_WaitForLastOperation               0x08003cc3   Thumb Code    38  stm32f10x_flash.o(.text)
    FLASH_ErasePage                          0x08003ce9   Thumb Code    72  stm32f10x_flash.o(.text)
    FLASH_EraseAllPages                      0x08003d31   Thumb Code    68  stm32f10x_flash.o(.text)
    FLASH_WaitForLastBank1Operation          0x08003d75   Thumb Code    38  stm32f10x_flash.o(.text)
    FLASH_EraseAllBank1Pages                 0x08003d9b   Thumb Code    68  stm32f10x_flash.o(.text)
    FLASH_GetReadOutProtectionStatus         0x08003ddf   Thumb Code    20  stm32f10x_flash.o(.text)
    FLASH_EraseOptionBytes                   0x08003df3   Thumb Code   150  stm32f10x_flash.o(.text)
    FLASH_ProgramWord                        0x08003e89   Thumb Code   102  stm32f10x_flash.o(.text)
    FLASH_ProgramHalfWord                    0x08003eef   Thumb Code    60  stm32f10x_flash.o(.text)
    FLASH_ProgramOptionByteData              0x08003f2b   Thumb Code    72  stm32f10x_flash.o(.text)
    FLASH_EnableWriteProtection              0x08003f73   Thumb Code   200  stm32f10x_flash.o(.text)
    FLASH_ReadOutProtection                  0x0800403b   Thumb Code   156  stm32f10x_flash.o(.text)
    FLASH_UserOptionByteConfig               0x080040d7   Thumb Code    88  stm32f10x_flash.o(.text)
    FLASH_GetUserOptionByte                  0x0800412f   Thumb Code     8  stm32f10x_flash.o(.text)
    FLASH_GetWriteProtectionOptionByte       0x08004137   Thumb Code     6  stm32f10x_flash.o(.text)
    FLASH_GetPrefetchBufferStatus            0x0800413d   Thumb Code    20  stm32f10x_flash.o(.text)
    FLASH_ITConfig                           0x08004151   Thumb Code    26  stm32f10x_flash.o(.text)
    FLASH_GetFlagStatus                      0x0800416b   Thumb Code    42  stm32f10x_flash.o(.text)
    FLASH_ClearFlag                          0x08004195   Thumb Code     6  stm32f10x_flash.o(.text)
    FLASH_GetStatus                          0x0800419b   Thumb Code    48  stm32f10x_flash.o(.text)
    GPIO_DeInit                              0x080041dd   Thumb Code   172  stm32f10x_gpio.o(.text)
    GPIO_AFIODeInit                          0x08004289   Thumb Code    20  stm32f10x_gpio.o(.text)
    GPIO_Init                                0x0800429d   Thumb Code   278  stm32f10x_gpio.o(.text)
    GPIO_StructInit                          0x080043b3   Thumb Code    16  stm32f10x_gpio.o(.text)
    GPIO_ReadInputDataBit                    0x080043c3   Thumb Code    18  stm32f10x_gpio.o(.text)
    GPIO_ReadInputData                       0x080043d5   Thumb Code     8  stm32f10x_gpio.o(.text)
    GPIO_ReadOutputDataBit                   0x080043dd   Thumb Code    18  stm32f10x_gpio.o(.text)
    GPIO_ReadOutputData                      0x080043ef   Thumb Code     8  stm32f10x_gpio.o(.text)
    GPIO_SetBits                             0x080043f7   Thumb Code     4  stm32f10x_gpio.o(.text)
    GPIO_ResetBits                           0x080043fb   Thumb Code     4  stm32f10x_gpio.o(.text)
    GPIO_WriteBit                            0x080043ff   Thumb Code    10  stm32f10x_gpio.o(.text)
    GPIO_Write                               0x08004409   Thumb Code     4  stm32f10x_gpio.o(.text)
    GPIO_PinLockConfig                       0x0800440d   Thumb Code    18  stm32f10x_gpio.o(.text)
    GPIO_EventOutputConfig                   0x0800441f   Thumb Code    26  stm32f10x_gpio.o(.text)
    GPIO_EventOutputCmd                      0x08004439   Thumb Code     6  stm32f10x_gpio.o(.text)
    GPIO_PinRemapConfig                      0x0800443f   Thumb Code   138  stm32f10x_gpio.o(.text)
    GPIO_EXTILineConfig                      0x080044c9   Thumb Code    66  stm32f10x_gpio.o(.text)
    GPIO_ETH_MediaInterfaceConfig            0x0800450b   Thumb Code     8  stm32f10x_gpio.o(.text)
    IWDG_WriteAccessCmd                      0x08004539   Thumb Code     6  stm32f10x_iwdg.o(.text)
    IWDG_SetPrescaler                        0x0800453f   Thumb Code     6  stm32f10x_iwdg.o(.text)
    IWDG_SetReload                           0x08004545   Thumb Code     6  stm32f10x_iwdg.o(.text)
    IWDG_ReloadCounter                       0x0800454b   Thumb Code    10  stm32f10x_iwdg.o(.text)
    IWDG_Enable                              0x08004555   Thumb Code    10  stm32f10x_iwdg.o(.text)
    IWDG_GetFlagStatus                       0x0800455f   Thumb Code    20  stm32f10x_iwdg.o(.text)
    PWR_DeInit                               0x08004579   Thumb Code    22  stm32f10x_pwr.o(.text)
    PWR_BackupAccessCmd                      0x0800458f   Thumb Code     6  stm32f10x_pwr.o(.text)
    PWR_PVDCmd                               0x08004595   Thumb Code     6  stm32f10x_pwr.o(.text)
    PWR_PVDLevelConfig                       0x0800459b   Thumb Code    18  stm32f10x_pwr.o(.text)
    PWR_WakeUpPinCmd                         0x080045ad   Thumb Code     8  stm32f10x_pwr.o(.text)
    PWR_EnterSTOPMode                        0x080045b5   Thumb Code    54  stm32f10x_pwr.o(.text)
    PWR_EnterSTANDBYMode                     0x080045eb   Thumb Code    42  stm32f10x_pwr.o(.text)
    PWR_GetFlagStatus                        0x08004615   Thumb Code    20  stm32f10x_pwr.o(.text)
    PWR_ClearFlag                            0x08004629   Thumb Code    14  stm32f10x_pwr.o(.text)
    RCC_DeInit                               0x08004645   Thumb Code    64  stm32f10x_rcc.o(.text)
    RCC_HSEConfig                            0x08004685   Thumb Code    70  stm32f10x_rcc.o(.text)
    RCC_GetFlagStatus                        0x080046cb   Thumb Code    56  stm32f10x_rcc.o(.text)
    RCC_WaitForHSEStartUp                    0x08004703   Thumb Code    56  stm32f10x_rcc.o(.text)
    RCC_AdjustHSICalibrationValue            0x0800473b   Thumb Code    20  stm32f10x_rcc.o(.text)
    RCC_HSICmd                               0x0800474f   Thumb Code     6  stm32f10x_rcc.o(.text)
    RCC_PLLConfig                            0x08004755   Thumb Code    24  stm32f10x_rcc.o(.text)
    RCC_PLLCmd                               0x0800476d   Thumb Code     6  stm32f10x_rcc.o(.text)
    RCC_SYSCLKConfig                         0x08004773   Thumb Code    18  stm32f10x_rcc.o(.text)
    RCC_GetSYSCLKSource                      0x08004785   Thumb Code    10  stm32f10x_rcc.o(.text)
    RCC_HCLKConfig                           0x0800478f   Thumb Code    18  stm32f10x_rcc.o(.text)
    RCC_PCLK1Config                          0x080047a1   Thumb Code    18  stm32f10x_rcc.o(.text)
    RCC_PCLK2Config                          0x080047b3   Thumb Code    20  stm32f10x_rcc.o(.text)
    RCC_ITConfig                             0x080047c7   Thumb Code    26  stm32f10x_rcc.o(.text)
    RCC_USBCLKConfig                         0x080047e1   Thumb Code     8  stm32f10x_rcc.o(.text)
    RCC_ADCCLKConfig                         0x080047e9   Thumb Code    18  stm32f10x_rcc.o(.text)
    RCC_LSEConfig                            0x080047fb   Thumb Code    50  stm32f10x_rcc.o(.text)
    RCC_LSICmd                               0x0800482d   Thumb Code     6  stm32f10x_rcc.o(.text)
    RCC_RTCCLKConfig                         0x08004833   Thumb Code    12  stm32f10x_rcc.o(.text)
    RCC_RTCCLKCmd                            0x0800483f   Thumb Code     8  stm32f10x_rcc.o(.text)
    RCC_GetClocksFreq                        0x08004847   Thumb Code   192  stm32f10x_rcc.o(.text)
    RCC_AHBPeriphClockCmd                    0x08004907   Thumb Code    26  stm32f10x_rcc.o(.text)
    RCC_APB2PeriphClockCmd                   0x08004921   Thumb Code    26  stm32f10x_rcc.o(.text)
    RCC_APB1PeriphClockCmd                   0x0800493b   Thumb Code    26  stm32f10x_rcc.o(.text)
    RCC_APB2PeriphResetCmd                   0x08004955   Thumb Code    26  stm32f10x_rcc.o(.text)
    RCC_APB1PeriphResetCmd                   0x0800496f   Thumb Code    26  stm32f10x_rcc.o(.text)
    RCC_BackupResetCmd                       0x08004989   Thumb Code     8  stm32f10x_rcc.o(.text)
    RCC_ClockSecuritySystemCmd               0x08004991   Thumb Code     6  stm32f10x_rcc.o(.text)
    RCC_MCOConfig                            0x08004997   Thumb Code     6  stm32f10x_rcc.o(.text)
    RCC_ClearFlag                            0x0800499d   Thumb Code    14  stm32f10x_rcc.o(.text)
    RCC_GetITStatus                          0x080049ab   Thumb Code    20  stm32f10x_rcc.o(.text)
    RCC_ClearITPendingBit                    0x080049bf   Thumb Code     6  stm32f10x_rcc.o(.text)
    RTC_ITConfig                             0x080049e9   Thumb Code    26  stm32f10x_rtc.o(.text)
    RTC_EnterConfigMode                      0x08004a03   Thumb Code    18  stm32f10x_rtc.o(.text)
    RTC_ExitConfigMode                       0x08004a15   Thumb Code    20  stm32f10x_rtc.o(.text)
    RTC_GetCounter                           0x08004a29   Thumb Code    18  stm32f10x_rtc.o(.text)
    RTC_SetCounter                           0x08004a3b   Thumb Code    26  stm32f10x_rtc.o(.text)
    RTC_SetPrescaler                         0x08004a55   Thumb Code    28  stm32f10x_rtc.o(.text)
    RTC_SetAlarm                             0x08004a71   Thumb Code    26  stm32f10x_rtc.o(.text)
    RTC_GetDivider                           0x08004a8b   Thumb Code    22  stm32f10x_rtc.o(.text)
    RTC_WaitForLastTask                      0x08004aa1   Thumb Code    18  stm32f10x_rtc.o(.text)
    RTC_WaitForSynchro                       0x08004ab3   Thumb Code    36  stm32f10x_rtc.o(.text)
    RTC_GetFlagStatus                        0x08004ad7   Thumb Code    22  stm32f10x_rtc.o(.text)
    RTC_ClearFlag                            0x08004aed   Thumb Code    16  stm32f10x_rtc.o(.text)
    RTC_GetITStatus                          0x08004afd   Thumb Code    32  stm32f10x_rtc.o(.text)
    RTC_ClearITPendingBit                    0x08004b1d   Thumb Code    16  stm32f10x_rtc.o(.text)
    TIM_DeInit                               0x08004b31   Thumb Code   424  stm32f10x_tim.o(.text)
    TIM_TimeBaseInit                         0x08004cd9   Thumb Code   122  stm32f10x_tim.o(.text)
    TIM_OC1Init                              0x08004d53   Thumb Code   132  stm32f10x_tim.o(.text)
    TIM_OC2Init                              0x08004dd7   Thumb Code   154  stm32f10x_tim.o(.text)
    TIM_OC3Init                              0x08004e71   Thumb Code   150  stm32f10x_tim.o(.text)
    TIM_OC4Init                              0x08004f07   Thumb Code   182  stm32f10x_tim.o(.text)
    TIM_SetIC4Prescaler                      0x08004fbd   Thumb Code    26  stm32f10x_tim.o(.text)
    TIM_SetIC3Prescaler                      0x08005059   Thumb Code    18  stm32f10x_tim.o(.text)
    TIM_SetIC2Prescaler                      0x080050e5   Thumb Code    26  stm32f10x_tim.o(.text)
    TIM_SetIC1Prescaler                      0x08005181   Thumb Code    18  stm32f10x_tim.o(.text)
    TIM_ICInit                               0x080051ff   Thumb Code   150  stm32f10x_tim.o(.text)
    TIM_PWMIConfig                           0x08005295   Thumb Code   124  stm32f10x_tim.o(.text)
    TIM_BDTRConfig                           0x08005311   Thumb Code    32  stm32f10x_tim.o(.text)
    TIM_TimeBaseStructInit                   0x08005331   Thumb Code    18  stm32f10x_tim.o(.text)
    TIM_OCStructInit                         0x08005343   Thumb Code    20  stm32f10x_tim.o(.text)
    TIM_ICStructInit                         0x08005357   Thumb Code    18  stm32f10x_tim.o(.text)
    TIM_BDTRStructInit                       0x08005369   Thumb Code    40  stm32f10x_tim.o(.text)
    TIM_Cmd                                  0x08005391   Thumb Code    24  stm32f10x_tim.o(.text)
    TIM_CtrlPWMOutputs                       0x080053a9   Thumb Code    30  stm32f10x_tim.o(.text)
    TIM_ITConfig                             0x080053c7   Thumb Code    18  stm32f10x_tim.o(.text)
    TIM_GenerateEvent                        0x080053d9   Thumb Code     4  stm32f10x_tim.o(.text)
    TIM_DMAConfig                            0x080053dd   Thumb Code    10  stm32f10x_tim.o(.text)
    TIM_DMACmd                               0x080053e7   Thumb Code    18  stm32f10x_tim.o(.text)
    TIM_InternalClockConfig                  0x080053f9   Thumb Code    12  stm32f10x_tim.o(.text)
    TIM_SelectInputTrigger                   0x08005405   Thumb Code    18  stm32f10x_tim.o(.text)
    TIM_ITRxExternalClockConfig              0x08005417   Thumb Code    24  stm32f10x_tim.o(.text)
    TIM_TIxExternalClockConfig               0x0800542f   Thumb Code    62  stm32f10x_tim.o(.text)
    TIM_ETRConfig                            0x0800546d   Thumb Code    28  stm32f10x_tim.o(.text)
    TIM_ETRClockMode1Config                  0x08005489   Thumb Code    54  stm32f10x_tim.o(.text)
    TIM_ETRClockMode2Config                  0x080054bf   Thumb Code    32  stm32f10x_tim.o(.text)
    TIM_PrescalerConfig                      0x080054df   Thumb Code     6  stm32f10x_tim.o(.text)
    TIM_CounterModeConfig                    0x080054e5   Thumb Code    18  stm32f10x_tim.o(.text)
    TIM_EncoderInterfaceConfig               0x080054f7   Thumb Code    66  stm32f10x_tim.o(.text)
    TIM_ForcedOC1Config                      0x08005539   Thumb Code    18  stm32f10x_tim.o(.text)
    TIM_ForcedOC2Config                      0x0800554b   Thumb Code    26  stm32f10x_tim.o(.text)
    TIM_ForcedOC3Config                      0x08005565   Thumb Code    18  stm32f10x_tim.o(.text)
    TIM_ForcedOC4Config                      0x08005577   Thumb Code    26  stm32f10x_tim.o(.text)
    TIM_ARRPreloadConfig                     0x08005591   Thumb Code    24  stm32f10x_tim.o(.text)
    TIM_SelectCOM                            0x080055a9   Thumb Code    24  stm32f10x_tim.o(.text)
    TIM_SelectCCDMA                          0x080055c1   Thumb Code    24  stm32f10x_tim.o(.text)
    TIM_CCPreloadControl                     0x080055d9   Thumb Code    24  stm32f10x_tim.o(.text)
    TIM_OC1PreloadConfig                     0x080055f1   Thumb Code    18  stm32f10x_tim.o(.text)
    TIM_OC2PreloadConfig                     0x08005603   Thumb Code    26  stm32f10x_tim.o(.text)
    TIM_OC3PreloadConfig                     0x0800561d   Thumb Code    18  stm32f10x_tim.o(.text)
    TIM_OC4PreloadConfig                     0x0800562f   Thumb Code    26  stm32f10x_tim.o(.text)
    TIM_OC1FastConfig                        0x08005649   Thumb Code    18  stm32f10x_tim.o(.text)
    TIM_OC2FastConfig                        0x0800565b   Thumb Code    26  stm32f10x_tim.o(.text)
    TIM_OC3FastConfig                        0x08005675   Thumb Code    18  stm32f10x_tim.o(.text)
    TIM_OC4FastConfig                        0x08005687   Thumb Code    26  stm32f10x_tim.o(.text)
    TIM_ClearOC1Ref                          0x080056a1   Thumb Code    18  stm32f10x_tim.o(.text)
    TIM_ClearOC2Ref                          0x080056b3   Thumb Code    24  stm32f10x_tim.o(.text)
    TIM_ClearOC3Ref                          0x080056cb   Thumb Code    18  stm32f10x_tim.o(.text)
    TIM_ClearOC4Ref                          0x080056dd   Thumb Code    24  stm32f10x_tim.o(.text)
    TIM_OC1PolarityConfig                    0x080056f5   Thumb Code    18  stm32f10x_tim.o(.text)
    TIM_OC1NPolarityConfig                   0x08005707   Thumb Code    18  stm32f10x_tim.o(.text)
    TIM_OC2PolarityConfig                    0x08005719   Thumb Code    26  stm32f10x_tim.o(.text)
    TIM_OC2NPolarityConfig                   0x08005733   Thumb Code    26  stm32f10x_tim.o(.text)
    TIM_OC3PolarityConfig                    0x0800574d   Thumb Code    26  stm32f10x_tim.o(.text)
    TIM_OC3NPolarityConfig                   0x08005767   Thumb Code    26  stm32f10x_tim.o(.text)
    TIM_OC4PolarityConfig                    0x08005781   Thumb Code    26  stm32f10x_tim.o(.text)
    TIM_CCxCmd                               0x0800579b   Thumb Code    30  stm32f10x_tim.o(.text)
    TIM_CCxNCmd                              0x080057b9   Thumb Code    30  stm32f10x_tim.o(.text)
    TIM_SelectOCxM                           0x080057d7   Thumb Code    82  stm32f10x_tim.o(.text)
    TIM_UpdateDisableConfig                  0x08005829   Thumb Code    24  stm32f10x_tim.o(.text)
    TIM_UpdateRequestConfig                  0x08005841   Thumb Code    24  stm32f10x_tim.o(.text)
    TIM_SelectHallSensor                     0x08005859   Thumb Code    24  stm32f10x_tim.o(.text)
    TIM_SelectOnePulseMode                   0x08005871   Thumb Code    18  stm32f10x_tim.o(.text)
    TIM_SelectOutputTrigger                  0x08005883   Thumb Code    18  stm32f10x_tim.o(.text)
    TIM_SelectSlaveMode                      0x08005895   Thumb Code    18  stm32f10x_tim.o(.text)
    TIM_SelectMasterSlaveMode                0x080058a7   Thumb Code    18  stm32f10x_tim.o(.text)
    TIM_SetCounter                           0x080058b9   Thumb Code     4  stm32f10x_tim.o(.text)
    TIM_SetAutoreload                        0x080058bd   Thumb Code     4  stm32f10x_tim.o(.text)
    TIM_SetCompare1                          0x080058c1   Thumb Code     4  stm32f10x_tim.o(.text)
    TIM_SetCompare2                          0x080058c5   Thumb Code     4  stm32f10x_tim.o(.text)
    TIM_SetCompare3                          0x080058c9   Thumb Code     4  stm32f10x_tim.o(.text)
    TIM_SetCompare4                          0x080058cd   Thumb Code     6  stm32f10x_tim.o(.text)
    TIM_SetClockDivision                     0x080058d3   Thumb Code    18  stm32f10x_tim.o(.text)
    TIM_GetCapture1                          0x080058e5   Thumb Code     6  stm32f10x_tim.o(.text)
    TIM_GetCapture2                          0x080058eb   Thumb Code     6  stm32f10x_tim.o(.text)
    TIM_GetCapture3                          0x080058f1   Thumb Code     6  stm32f10x_tim.o(.text)
    TIM_GetCapture4                          0x080058f7   Thumb Code     8  stm32f10x_tim.o(.text)
    TIM_GetCounter                           0x080058ff   Thumb Code     6  stm32f10x_tim.o(.text)
    TIM_GetPrescaler                         0x08005905   Thumb Code     6  stm32f10x_tim.o(.text)
    TIM_GetFlagStatus                        0x0800590b   Thumb Code    18  stm32f10x_tim.o(.text)
    TIM_ClearFlag                            0x0800591d   Thumb Code     6  stm32f10x_tim.o(.text)
    TIM_GetITStatus                          0x08005923   Thumb Code    34  stm32f10x_tim.o(.text)
    TIM_ClearITPendingBit                    0x08005945   Thumb Code     6  stm32f10x_tim.o(.text)
    USART_DeInit                             0x0800594d   Thumb Code   134  stm32f10x_usart.o(.text)
    USART_Init                               0x080059d3   Thumb Code   210  stm32f10x_usart.o(.text)
    USART_StructInit                         0x08005aa5   Thumb Code    24  stm32f10x_usart.o(.text)
    USART_ClockInit                          0x08005abd   Thumb Code    34  stm32f10x_usart.o(.text)
    USART_ClockStructInit                    0x08005adf   Thumb Code    12  stm32f10x_usart.o(.text)
    USART_Cmd                                0x08005aeb   Thumb Code    24  stm32f10x_usart.o(.text)
    USART_ITConfig                           0x08005b03   Thumb Code    74  stm32f10x_usart.o(.text)
    USART_DMACmd                             0x08005b4d   Thumb Code    18  stm32f10x_usart.o(.text)
    USART_SetAddress                         0x08005b5f   Thumb Code    18  stm32f10x_usart.o(.text)
    USART_WakeUpConfig                       0x08005b71   Thumb Code    18  stm32f10x_usart.o(.text)
    USART_ReceiverWakeUpCmd                  0x08005b83   Thumb Code    24  stm32f10x_usart.o(.text)
    USART_LINBreakDetectLengthConfig         0x08005b9b   Thumb Code    18  stm32f10x_usart.o(.text)
    USART_LINCmd                             0x08005bad   Thumb Code    24  stm32f10x_usart.o(.text)
    USART_SendData                           0x08005bc5   Thumb Code     8  stm32f10x_usart.o(.text)
    USART_ReceiveData                        0x08005bcd   Thumb Code    10  stm32f10x_usart.o(.text)
    USART_SendBreak                          0x08005bd7   Thumb Code    10  stm32f10x_usart.o(.text)
    USART_SetGuardTime                       0x08005be1   Thumb Code    16  stm32f10x_usart.o(.text)
    USART_SetPrescaler                       0x08005bf1   Thumb Code    16  stm32f10x_usart.o(.text)
    USART_SmartCardCmd                       0x08005c01   Thumb Code    24  stm32f10x_usart.o(.text)
    USART_SmartCardNACKCmd                   0x08005c19   Thumb Code    24  stm32f10x_usart.o(.text)
    USART_HalfDuplexCmd                      0x08005c31   Thumb Code    24  stm32f10x_usart.o(.text)
    USART_OverSampling8Cmd                   0x08005c49   Thumb Code    22  stm32f10x_usart.o(.text)
    USART_OneBitMethodCmd                    0x08005c5f   Thumb Code    24  stm32f10x_usart.o(.text)
    USART_IrDAConfig                         0x08005c77   Thumb Code    18  stm32f10x_usart.o(.text)
    USART_IrDACmd                            0x08005c89   Thumb Code    24  stm32f10x_usart.o(.text)
    USART_GetFlagStatus                      0x08005ca1   Thumb Code    26  stm32f10x_usart.o(.text)
    USART_ClearFlag                          0x08005cbb   Thumb Code    18  stm32f10x_usart.o(.text)
    USART_GetITStatus                        0x08005ccd   Thumb Code    84  stm32f10x_usart.o(.text)
    USART_ClearITPendingBit                  0x08005d21   Thumb Code    52  stm32f10x_usart.o(.text)
    DMA_ChannelInitialize                    0x08005d55   Thumb Code   444  dma_stm32f10x.o(.text)
    DMA_ChannelUninitialize                  0x08005f11   Thumb Code   334  dma_stm32f10x.o(.text)
    DMA1_Channel1_Event                      0x0800605f   Thumb Code     2  dma_stm32f10x.o(.text)
    DMA1_Channel2_Event                      0x08006061   Thumb Code     2  dma_stm32f10x.o(.text)
    DMA1_Channel3_Event                      0x08006063   Thumb Code     2  dma_stm32f10x.o(.text)
    DMA1_Channel4_Event                      0x08006065   Thumb Code     2  dma_stm32f10x.o(.text)
    DMA1_Channel5_Event                      0x08006067   Thumb Code     2  dma_stm32f10x.o(.text)
    DMA1_Channel6_Event                      0x08006069   Thumb Code     2  dma_stm32f10x.o(.text)
    DMA1_Channel7_Event                      0x0800606b   Thumb Code     2  dma_stm32f10x.o(.text)
    DMA2_Channel1_Event                      0x0800606d   Thumb Code     2  dma_stm32f10x.o(.text)
    DMA2_Channel2_Event                      0x0800606f   Thumb Code     2  dma_stm32f10x.o(.text)
    DMA2_Channel3_Event                      0x08006071   Thumb Code     2  dma_stm32f10x.o(.text)
    DMA2_Channel4_Event                      0x08006073   Thumb Code     2  dma_stm32f10x.o(.text)
    DMA2_Channel5_Event                      0x08006075   Thumb Code     2  dma_stm32f10x.o(.text)
    DMA1_Channel1_IRQHandler                 0x08006077   Thumb Code    22  dma_stm32f10x.o(.text)
    DMA1_Channel2_IRQHandler                 0x0800608d   Thumb Code    24  dma_stm32f10x.o(.text)
    DMA1_Channel3_IRQHandler                 0x080060a5   Thumb Code    24  dma_stm32f10x.o(.text)
    DMA1_Channel4_IRQHandler                 0x080060bd   Thumb Code    24  dma_stm32f10x.o(.text)
    DMA1_Channel5_IRQHandler                 0x080060d5   Thumb Code    24  dma_stm32f10x.o(.text)
    DMA1_Channel6_IRQHandler                 0x080060ed   Thumb Code    24  dma_stm32f10x.o(.text)
    DMA1_Channel7_IRQHandler                 0x08006105   Thumb Code    24  dma_stm32f10x.o(.text)
    DMA2_Channel1_IRQHandler                 0x0800611d   Thumb Code    26  dma_stm32f10x.o(.text)
    DMA2_Channel2_IRQHandler                 0x08006137   Thumb Code    50  dma_stm32f10x.o(.text)
    DMA2_Channel3_IRQHandler                 0x08006169   Thumb Code    26  dma_stm32f10x.o(.text)
    DMA2_Channel4_IRQHandler                 0x08006183   Thumb Code    26  dma_stm32f10x.o(.text)
    DMA2_Channel4_5_IRQHandler               0x0800619d   Thumb Code    52  dma_stm32f10x.o(.text)
    Reset_Handler                            0x08006219   Thumb Code     8  startup_stm32f10x_hd.o(.text)
    ADC1_2_IRQHandler                        0x08006233   Thumb Code     0  startup_stm32f10x_hd.o(.text)
    ADC3_IRQHandler                          0x08006233   Thumb Code     0  startup_stm32f10x_hd.o(.text)
    CAN1_RX1_IRQHandler                      0x08006233   Thumb Code     0  startup_stm32f10x_hd.o(.text)
    CAN1_SCE_IRQHandler                      0x08006233   Thumb Code     0  startup_stm32f10x_hd.o(.text)
    EXTI0_IRQHandler                         0x08006233   Thumb Code     0  startup_stm32f10x_hd.o(.text)
    EXTI15_10_IRQHandler                     0x08006233   Thumb Code     0  startup_stm32f10x_hd.o(.text)
    EXTI1_IRQHandler                         0x08006233   Thumb Code     0  startup_stm32f10x_hd.o(.text)
    EXTI2_IRQHandler                         0x08006233   Thumb Code     0  startup_stm32f10x_hd.o(.text)
    EXTI3_IRQHandler                         0x08006233   Thumb Code     0  startup_stm32f10x_hd.o(.text)
    EXTI4_IRQHandler                         0x08006233   Thumb Code     0  startup_stm32f10x_hd.o(.text)
    EXTI9_5_IRQHandler                       0x08006233   Thumb Code     0  startup_stm32f10x_hd.o(.text)
    FLASH_IRQHandler                         0x08006233   Thumb Code     0  startup_stm32f10x_hd.o(.text)
    FSMC_IRQHandler                          0x08006233   Thumb Code     0  startup_stm32f10x_hd.o(.text)
    I2C1_ER_IRQHandler                       0x08006233   Thumb Code     0  startup_stm32f10x_hd.o(.text)
    I2C1_EV_IRQHandler                       0x08006233   Thumb Code     0  startup_stm32f10x_hd.o(.text)
    I2C2_ER_IRQHandler                       0x08006233   Thumb Code     0  startup_stm32f10x_hd.o(.text)
    I2C2_EV_IRQHandler                       0x08006233   Thumb Code     0  startup_stm32f10x_hd.o(.text)
    PVD_IRQHandler                           0x08006233   Thumb Code     0  startup_stm32f10x_hd.o(.text)
    RCC_IRQHandler                           0x08006233   Thumb Code     0  startup_stm32f10x_hd.o(.text)
    RTCAlarm_IRQHandler                      0x08006233   Thumb Code     0  startup_stm32f10x_hd.o(.text)
    SDIO_IRQHandler                          0x08006233   Thumb Code     0  startup_stm32f10x_hd.o(.text)
    SPI1_IRQHandler                          0x08006233   Thumb Code     0  startup_stm32f10x_hd.o(.text)
    SPI2_IRQHandler                          0x08006233   Thumb Code     0  startup_stm32f10x_hd.o(.text)
    SPI3_IRQHandler                          0x08006233   Thumb Code     0  startup_stm32f10x_hd.o(.text)
    TAMPER_IRQHandler                        0x08006233   Thumb Code     0  startup_stm32f10x_hd.o(.text)
    TIM1_BRK_IRQHandler                      0x08006233   Thumb Code     0  startup_stm32f10x_hd.o(.text)
    TIM1_CC_IRQHandler                       0x08006233   Thumb Code     0  startup_stm32f10x_hd.o(.text)
    TIM1_TRG_COM_IRQHandler                  0x08006233   Thumb Code     0  startup_stm32f10x_hd.o(.text)
    TIM1_UP_IRQHandler                       0x08006233   Thumb Code     0  startup_stm32f10x_hd.o(.text)
    TIM5_IRQHandler                          0x08006233   Thumb Code     0  startup_stm32f10x_hd.o(.text)
    TIM6_IRQHandler                          0x08006233   Thumb Code     0  startup_stm32f10x_hd.o(.text)
    TIM7_IRQHandler                          0x08006233   Thumb Code     0  startup_stm32f10x_hd.o(.text)
    TIM8_BRK_IRQHandler                      0x08006233   Thumb Code     0  startup_stm32f10x_hd.o(.text)
    TIM8_CC_IRQHandler                       0x08006233   Thumb Code     0  startup_stm32f10x_hd.o(.text)
    TIM8_TRG_COM_IRQHandler                  0x08006233   Thumb Code     0  startup_stm32f10x_hd.o(.text)
    TIM8_UP_IRQHandler                       0x08006233   Thumb Code     0  startup_stm32f10x_hd.o(.text)
    USBWakeUp_IRQHandler                     0x08006233   Thumb Code     0  startup_stm32f10x_hd.o(.text)
    USB_HP_CAN1_TX_IRQHandler                0x08006233   Thumb Code     0  startup_stm32f10x_hd.o(.text)
    USB_LP_CAN1_RX0_IRQHandler               0x08006233   Thumb Code     0  startup_stm32f10x_hd.o(.text)
    WWDG_IRQHandler                          0x08006233   Thumb Code     0  startup_stm32f10x_hd.o(.text)
    __user_initial_stackheap                 0x08006235   Thumb Code     0  startup_stm32f10x_hd.o(.text)
    SystemInit                               0x08006337   Thumb Code    78  system_stm32f10x.o(.text)
    SystemCoreClockUpdate                    0x08006385   Thumb Code   142  system_stm32f10x.o(.text)
    __2printf                                0x08006439   Thumb Code    20  noretval__2printf.o(.text)
    _printf_pre_padding                      0x08006451   Thumb Code    44  _printf_pad.o(.text)
    _printf_post_padding                     0x0800647d   Thumb Code    34  _printf_pad.o(.text)
    _printf_str                              0x0800649f   Thumb Code    82  _printf_str.o(.text)
    _printf_int_dec                          0x080064f1   Thumb Code   104  _printf_dec.o(.text)
    _printf_int_hex                          0x08006569   Thumb Code    84  _printf_hex_int.o(.text)
    _printf_longlong_hex                     0x08006569   Thumb Code     0  _printf_hex_int.o(.text)
    __printf                                 0x080065c1   Thumb Code   308  __printf_flags_wp.o(.text)
    strstr                                   0x080066f9   Thumb Code    36  strstr.o(.text)
    memcmp                                   0x0800671d   Thumb Code    88  memcmp.o(.text)
    strcpy                                   0x08006775   Thumb Code    72  strcpy.o(.text)
    strlen                                   0x080067bd   Thumb Code    62  strlen.o(.text)
    __aeabi_memcpy                           0x080067fb   Thumb Code     0  rt_memcpy_v6.o(.text)
    __rt_memcpy                              0x080067fb   Thumb Code   138  rt_memcpy_v6.o(.text)
    _memcpy_lastbytes                        0x08006861   Thumb Code     0  rt_memcpy_v6.o(.text)
    __aeabi_memclr4                          0x08006885   Thumb Code     0  rt_memclr_w.o(.text)
    __aeabi_memclr8                          0x08006885   Thumb Code     0  rt_memclr_w.o(.text)
    __rt_memclr_w                            0x08006885   Thumb Code    78  rt_memclr_w.o(.text)
    _memset_w                                0x08006889   Thumb Code     0  rt_memclr_w.o(.text)
    __use_two_region_memory                  0x080068d3   Thumb Code     2  heapauxi.o(.text)
    __rt_heap_escrow$2region                 0x080068d5   Thumb Code     2  heapauxi.o(.text)
    __rt_heap_expand$2region                 0x080068d7   Thumb Code     2  heapauxi.o(.text)
    _printf_int_common                       0x080068d9   Thumb Code   178  _printf_intcommon.o(.text)
    _printf_cs_common                        0x0800698b   Thumb Code    20  _printf_char.o(.text)
    _printf_char                             0x0800699f   Thumb Code    16  _printf_char.o(.text)
    _printf_string                           0x080069af   Thumb Code     8  _printf_char.o(.text)
    _printf_char_file                        0x080069b9   Thumb Code    32  _printf_char_file.o(.text)
    __aeabi_memcpy4                          0x080069dd   Thumb Code     0  rt_memcpy_w.o(.text)
    __aeabi_memcpy8                          0x080069dd   Thumb Code     0  rt_memcpy_w.o(.text)
    __rt_memcpy_w                            0x080069dd   Thumb Code   100  rt_memcpy_w.o(.text)
    _memcpy_lastbytes_aligned                0x08006a25   Thumb Code     0  rt_memcpy_w.o(.text)
    _printf_char_common                      0x08006a4b   Thumb Code    32  _printf_char_common.o(.text)
    ferror                                   0x08006a71   Thumb Code     8  ferror.o(.text)
    __user_setup_stackheap                   0x08006a79   Thumb Code    74  sys_stackheap_outer.o(.text)
    exit                                     0x08006ac3   Thumb Code    18  exit.o(.text)
    __user_libspace                          0x08006ad5   Thumb Code     8  libspace.o(.text)
    __user_perproc_libspace                  0x08006ad5   Thumb Code     0  libspace.o(.text)
    __user_perthread_libspace                0x08006ad5   Thumb Code     0  libspace.o(.text)
    _is_digit                                0x08006add   Thumb Code    14  __printf_wp.o(i._is_digit)
    mon_table                                0x08006af5   Data          12  hal_rtc.o(.constdata)
    Region$$Table$$Base                      0x08006bdc   Number         0  anon$$obj.o(Region$$Table)
    Region$$Table$$Limit                     0x08006bfc   Number         0  anon$$obj.o(Region$$Table)
    __stdout                                 0x2000000c   Data           4  haluart.o(.data)
    PADDING                                  0x2000004d   Data          64  md5.o(.data)
    g_LwIPLocalTime                          0x200000a4   Data           4  usersys.o(.data)
    timingdelay                              0x200000a8   Data           4  usersys.o(.data)
    devMAC                                   0x200000ac   Data           6  usersys.o(.data)
    SysIsWdtResetStartup                     0x200000b2   Data           1  usersys.o(.data)
    SystemCoreClock                          0x200000d0   Data           4  system_stm32f10x.o(.data)
    AHBPrescTable                            0x200000d4   Data          16  system_stm32f10x.o(.data)
    g_sys_poll                               0x20000afc   Data         120  syspoll.o(.bss)
    __libspace_start                         0x20001558   Data          96  libspace.o(.bss)
    __temporary_stack_top$libspace           0x200015b8   Data           0  libspace.o(.bss)



==============================================================================

Memory Map of the image

  Image Entry point : 0x08000131

  Load Region LR_IROM1 (Base: 0x08000000, Size: 0x00006ce0, Max: 0x00040000, ABSOLUTE)

    Execution Region ER_IROM1 (Base: 0x08000000, Size: 0x00006bfc, Max: 0x00040000, ABSOLUTE)

    Base Addr    Size         Type   Attr      Idx    E Section Name        Object

    0x08000000   0x00000130   Data   RO         1318    RESET               startup_stm32f10x_hd.o
    0x08000130   0x00000008   Code   RO         1428  * !!!main             c_w.l(__main.o)
    0x08000138   0x00000034   Code   RO         1602    !!!scatter          c_w.l(__scatter.o)
    0x0800016c   0x0000001a   Code   RO         1604    !!handler_copy      c_w.l(__scatter_copy.o)
    0x08000186   0x00000002   PAD
    0x08000188   0x0000001c   Code   RO         1606    !!handler_zi        c_w.l(__scatter_zi.o)
    0x080001a4   0x00000000   Code   RO         1411    .ARM.Collect$$_printf_percent$$00000000  c_w.l(_printf_percent.o)
    0x080001a4   0x00000006   Code   RO         1410    .ARM.Collect$$_printf_percent$$00000009  c_w.l(_printf_d.o)
    0x080001aa   0x00000006   Code   RO         1409    .ARM.Collect$$_printf_percent$$0000000C  c_w.l(_printf_x.o)
    0x080001b0   0x00000006   Code   RO         1408    .ARM.Collect$$_printf_percent$$00000014  c_w.l(_printf_s.o)
    0x080001b6   0x00000004   Code   RO         1437    .ARM.Collect$$_printf_percent$$00000017  c_w.l(_printf_percent_end.o)
    0x080001ba   0x00000002   Code   RO         1474    .ARM.Collect$$libinit$$00000000  c_w.l(libinit.o)
    0x080001bc   0x00000000   Code   RO         1481    .ARM.Collect$$libinit$$00000002  c_w.l(libinit2.o)
    0x080001bc   0x00000000   Code   RO         1483    .ARM.Collect$$libinit$$00000004  c_w.l(libinit2.o)
    0x080001bc   0x00000000   Code   RO         1486    .ARM.Collect$$libinit$$0000000A  c_w.l(libinit2.o)
    0x080001bc   0x00000000   Code   RO         1488    .ARM.Collect$$libinit$$0000000C  c_w.l(libinit2.o)
    0x080001bc   0x00000000   Code   RO         1490    .ARM.Collect$$libinit$$0000000E  c_w.l(libinit2.o)
    0x080001bc   0x00000000   Code   RO         1493    .ARM.Collect$$libinit$$00000011  c_w.l(libinit2.o)
    0x080001bc   0x00000000   Code   RO         1495    .ARM.Collect$$libinit$$00000013  c_w.l(libinit2.o)
    0x080001bc   0x00000000   Code   RO         1497    .ARM.Collect$$libinit$$00000015  c_w.l(libinit2.o)
    0x080001bc   0x00000000   Code   RO         1499    .ARM.Collect$$libinit$$00000017  c_w.l(libinit2.o)
    0x080001bc   0x00000000   Code   RO         1501    .ARM.Collect$$libinit$$00000019  c_w.l(libinit2.o)
    0x080001bc   0x00000000   Code   RO         1503    .ARM.Collect$$libinit$$0000001B  c_w.l(libinit2.o)
    0x080001bc   0x00000000   Code   RO         1505    .ARM.Collect$$libinit$$0000001D  c_w.l(libinit2.o)
    0x080001bc   0x00000000   Code   RO         1507    .ARM.Collect$$libinit$$0000001F  c_w.l(libinit2.o)
    0x080001bc   0x00000000   Code   RO         1509    .ARM.Collect$$libinit$$00000021  c_w.l(libinit2.o)
    0x080001bc   0x00000000   Code   RO         1511    .ARM.Collect$$libinit$$00000023  c_w.l(libinit2.o)
    0x080001bc   0x00000000   Code   RO         1513    .ARM.Collect$$libinit$$00000025  c_w.l(libinit2.o)
    0x080001bc   0x00000000   Code   RO         1517    .ARM.Collect$$libinit$$0000002C  c_w.l(libinit2.o)
    0x080001bc   0x00000000   Code   RO         1519    .ARM.Collect$$libinit$$0000002E  c_w.l(libinit2.o)
    0x080001bc   0x00000000   Code   RO         1521    .ARM.Collect$$libinit$$00000030  c_w.l(libinit2.o)
    0x080001bc   0x00000000   Code   RO         1523    .ARM.Collect$$libinit$$00000032  c_w.l(libinit2.o)
    0x080001bc   0x00000002   Code   RO         1524    .ARM.Collect$$libinit$$00000033  c_w.l(libinit2.o)
    0x080001be   0x00000002   Code   RO         1542    .ARM.Collect$$libshutdown$$00000000  c_w.l(libshutdown.o)
    0x080001c0   0x00000000   Code   RO         1552    .ARM.Collect$$libshutdown$$00000002  c_w.l(libshutdown2.o)
    0x080001c0   0x00000000   Code   RO         1554    .ARM.Collect$$libshutdown$$00000004  c_w.l(libshutdown2.o)
    0x080001c0   0x00000000   Code   RO         1557    .ARM.Collect$$libshutdown$$00000007  c_w.l(libshutdown2.o)
    0x080001c0   0x00000000   Code   RO         1560    .ARM.Collect$$libshutdown$$0000000A  c_w.l(libshutdown2.o)
    0x080001c0   0x00000000   Code   RO         1562    .ARM.Collect$$libshutdown$$0000000C  c_w.l(libshutdown2.o)
    0x080001c0   0x00000000   Code   RO         1565    .ARM.Collect$$libshutdown$$0000000F  c_w.l(libshutdown2.o)
    0x080001c0   0x00000002   Code   RO         1566    .ARM.Collect$$libshutdown$$00000010  c_w.l(libshutdown2.o)
    0x080001c2   0x00000000   Code   RO         1430    .ARM.Collect$$rtentry$$00000000  c_w.l(__rtentry.o)
    0x080001c2   0x00000000   Code   RO         1443    .ARM.Collect$$rtentry$$00000002  c_w.l(__rtentry2.o)
    0x080001c2   0x00000006   Code   RO         1455    .ARM.Collect$$rtentry$$00000004  c_w.l(__rtentry4.o)
    0x080001c8   0x00000000   Code   RO         1445    .ARM.Collect$$rtentry$$00000009  c_w.l(__rtentry2.o)
    0x080001c8   0x00000004   Code   RO         1446    .ARM.Collect$$rtentry$$0000000A  c_w.l(__rtentry2.o)
    0x080001cc   0x00000000   Code   RO         1448    .ARM.Collect$$rtentry$$0000000C  c_w.l(__rtentry2.o)
    0x080001cc   0x00000008   Code   RO         1449    .ARM.Collect$$rtentry$$0000000D  c_w.l(__rtentry2.o)
    0x080001d4   0x00000002   Code   RO         1478    .ARM.Collect$$rtexit$$00000000  c_w.l(rtexit.o)
    0x080001d6   0x00000000   Code   RO         1526    .ARM.Collect$$rtexit$$00000002  c_w.l(rtexit2.o)
    0x080001d6   0x00000004   Code   RO         1527    .ARM.Collect$$rtexit$$00000003  c_w.l(rtexit2.o)
    0x080001da   0x00000006   Code   RO         1528    .ARM.Collect$$rtexit$$00000004  c_w.l(rtexit2.o)
    0x080001e0   0x00000026   Code   RO            4    .text               stm32f10x_it.o
    0x08000206   0x00000002   PAD
    0x08000208   0x000000dc   Code   RO          108    .text               misc.o
    0x080002e4   0x000001b0   Code   RO          135    .text               os_timer.o
    0x08000494   0x00000130   Code   RO          234    .text               hal.o
    0x080005c4   0x000000e2   Code   RO          338    .text               hal_flash.o
    0x080006a6   0x0000000e   Code   RO          414    .text               hal_timer.o
    0x080006b4   0x00000118   Code   RO          438    .text               hal_wait.o
    0x080007cc   0x0000002e   Code   RO          464    .text               hal_wdt.o
    0x080007fa   0x00000002   PAD
    0x080007fc   0x000000d0   Code   RO          488    .text               halgpio.o
    0x080008cc   0x0000062c   Code   RO          536    .text               haluart.o
    0x08000ef8   0x00000338   Code   RO          568    .text               hal_rtc.o
    0x08001230   0x00000ea0   Code   RO          594    .text               cloud_helper.o
    0x080020d0   0x00000944   Code   RO          616    .text               md5.o
    0x08002a14   0x00000a4c   Code   RO          640    .text               moduletester.o
    0x08003460   0x00000024   Code   RO          687    .text               main.o
    0x08003484   0x00000148   Code   RO          711    .text               mlist.o
    0x080035cc   0x000000c4   Code   RO          744    .text               sysbutton.o
    0x08003690   0x000000e0   Code   RO          770    .text               syspoll.o
    0x08003770   0x00000100   Code   RO          801    .text               systimer.o
    0x08003870   0x000002d0   Code   RO          827    .text               usersys.o
    0x08003b40   0x0000001c   Code   RO          859    .text               menuconfig.o
    0x08003b5c   0x000000c4   Code   RO          909    .text               stm32f10x_bkp.o
    0x08003c20   0x000005bc   Code   RO          981    .text               stm32f10x_flash.o
    0x080041dc   0x0000035c   Code   RO         1005    .text               stm32f10x_gpio.o
    0x08004538   0x00000040   Code   RO         1053    .text               stm32f10x_iwdg.o
    0x08004578   0x000000cc   Code   RO         1077    .text               stm32f10x_pwr.o
    0x08004644   0x000003a4   Code   RO         1101    .text               stm32f10x_rcc.o
    0x080049e8   0x00000148   Code   RO         1127    .text               stm32f10x_rtc.o
    0x08004b30   0x00000e1a   Code   RO         1199    .text               stm32f10x_tim.o
    0x0800594a   0x00000002   PAD
    0x0800594c   0x00000408   Code   RO         1223    .text               stm32f10x_usart.o
    0x08005d54   0x000004c4   Code   RO         1247    .text               dma_stm32f10x.o
    0x08006218   0x00000040   Code   RO         1319    .text               startup_stm32f10x_hd.o
    0x08006258   0x000001e0   Code   RO         1326    .text               system_stm32f10x.o
    0x08006438   0x00000018   Code   RO         1357    .text               c_w.l(noretval__2printf.o)
    0x08006450   0x0000004e   Code   RO         1361    .text               c_w.l(_printf_pad.o)
    0x0800649e   0x00000052   Code   RO         1363    .text               c_w.l(_printf_str.o)
    0x080064f0   0x00000078   Code   RO         1365    .text               c_w.l(_printf_dec.o)
    0x08006568   0x00000058   Code   RO         1370    .text               c_w.l(_printf_hex_int.o)
    0x080065c0   0x00000138   Code   RO         1400    .text               c_w.l(__printf_flags_wp.o)
    0x080066f8   0x00000024   Code   RO         1412    .text               c_w.l(strstr.o)
    0x0800671c   0x00000058   Code   RO         1414    .text               c_w.l(memcmp.o)
    0x08006774   0x00000048   Code   RO         1416    .text               c_w.l(strcpy.o)
    0x080067bc   0x0000003e   Code   RO         1418    .text               c_w.l(strlen.o)
    0x080067fa   0x0000008a   Code   RO         1420    .text               c_w.l(rt_memcpy_v6.o)
    0x08006884   0x0000004e   Code   RO         1424    .text               c_w.l(rt_memclr_w.o)
    0x080068d2   0x00000006   Code   RO         1426    .text               c_w.l(heapauxi.o)
    0x080068d8   0x000000b2   Code   RO         1431    .text               c_w.l(_printf_intcommon.o)
    0x0800698a   0x0000002c   Code   RO         1433    .text               c_w.l(_printf_char.o)
    0x080069b6   0x00000002   PAD
    0x080069b8   0x00000024   Code   RO         1435    .text               c_w.l(_printf_char_file.o)
    0x080069dc   0x00000064   Code   RO         1438    .text               c_w.l(rt_memcpy_w.o)
    0x08006a40   0x00000030   Code   RO         1457    .text               c_w.l(_printf_char_common.o)
    0x08006a70   0x00000008   Code   RO         1459    .text               c_w.l(ferror.o)
    0x08006a78   0x0000004a   Code   RO         1463    .text               c_w.l(sys_stackheap_outer.o)
    0x08006ac2   0x00000012   Code   RO         1467    .text               c_w.l(exit.o)
    0x08006ad4   0x00000008   Code   RO         1475    .text               c_w.l(libspace.o)
    0x08006adc   0x0000000e   Code   RO         1398    i._is_digit         c_w.l(__printf_wp.o)
    0x08006aea   0x0000000b   Data   RO          235    .constdata          hal.o
    0x08006af5   0x0000000c   Data   RO          570    .constdata          hal_rtc.o
    0x08006b01   0x00000003   PAD
    0x08006b04   0x00000041   Data   RO          596    .constdata          cloud_helper.o
    0x08006b45   0x00000047   Data   RO          642    .constdata          moduletester.o
    0x08006b8c   0x00000015   Data   RO          829    .constdata          usersys.o
    0x08006ba1   0x00000028   Data   RO         1371    .constdata          c_w.l(_printf_hex_int.o)
    0x08006bc9   0x00000011   Data   RO         1401    .constdata          c_w.l(__printf_flags_wp.o)
    0x08006bda   0x00000002   PAD
    0x08006bdc   0x00000020   Data   RO         1600    Region$$Table       anon$$obj.o


    Execution Region RW_IRAM1 (Base: 0x20000000, Size: 0x00001bb8, Max: 0x0000c000, ABSOLUTE)

    Base Addr    Size         Type   Attr      Idx    E Section Name        Object

    0x20000000   0x00000008   Data   RW          137    .data               os_timer.o
    0x20000008   0x00000001   Data   RW          439    .data               hal_wait.o
    0x20000009   0x00000003   PAD
    0x2000000c   0x00000004   Data   RW          538    .data               haluart.o
    0x20000010   0x00000002   Data   RW          571    .data               hal_rtc.o
    0x20000012   0x00000002   PAD
    0x20000014   0x00000039   Data   RW          597    .data               cloud_helper.o
    0x2000004d   0x00000040   Data   RW          617    .data               md5.o
    0x2000008d   0x00000003   PAD
    0x20000090   0x0000000c   Data   RW          643    .data               moduletester.o
    0x2000009c   0x00000004   Data   RW          745    .data               sysbutton.o
    0x200000a0   0x00000004   Data   RW          772    .data               syspoll.o
    0x200000a4   0x00000015   Data   RW          830    .data               usersys.o
    0x200000b9   0x00000014   Data   RW         1102    .data               stm32f10x_rcc.o
    0x200000cd   0x00000002   Data   RW         1248    .data               dma_stm32f10x.o
    0x200000cf   0x00000001   PAD
    0x200000d0   0x00000014   Data   RW         1327    .data               system_stm32f10x.o
    0x200000e4   0x000000e0   Zero   RW          136    .bss                os_timer.o
    0x200001c4   0x00000014   Zero   RW          537    .bss                haluart.o
    0x200001d8   0x00000010   Zero   RW          569    .bss                hal_rtc.o
    0x200001e8   0x00000895   Zero   RW          595    .bss                cloud_helper.o
    0x20000a7d   0x00000003   PAD
    0x20000a80   0x0000007c   Zero   RW          641    .bss                moduletester.o
    0x20000afc   0x00000078   Zero   RW          771    .bss                syspoll.o
    0x20000b74   0x00000190   Zero   RW          802    .bss                systimer.o
    0x20000d04   0x00000800   Zero   RW          828    .bss                usersys.o
    0x20001504   0x00000054   Zero   RW          860    .bss                menuconfig.o
    0x20001558   0x00000060   Zero   RW         1476    .bss                c_w.l(libspace.o)
    0x200015b8   0x00000200   Zero   RW         1317    HEAP                startup_stm32f10x_hd.o
    0x200017b8   0x00000400   Zero   RW         1316    STACK               startup_stm32f10x_hd.o


==============================================================================

Image component sizes


      Code (inc. data)   RO Data    RW Data    ZI Data      Debug   Object Name

      3744        544         65         57       2197      19884   cloud_helper.o
      1220         64          0          2          0     230861   dma_stm32f10x.o
       304         80         11          0          0      32362   hal.o
       226          0          0          0          0       1789   hal_flash.o
       824         52         12          2         16       3144   hal_rtc.o
        14          0          0          0          0        491   hal_timer.o
       280          8          0          1          0       1904   hal_wait.o
        46          0          0          0          0        564   hal_wdt.o
       208         10          0          0          0        928   halgpio.o
      1580         54          0          4         20       7938   haluart.o
        36          0          0          0          0        447   main.o
      2372        264          0         64          0       4031   md5.o
        28          6          0          0         84       1250   menuconfig.o
       220         22          0          0          0       3585   misc.o
       328          0          0          0          0       3172   mlist.o
      2636        688         71         12        124      32267   moduletester.o
       432         22          0          8        224       9134   os_timer.o
        64         26        304          0       1536        800   startup_stm32f10x_hd.o
       196          8          0          0          0       3624   stm32f10x_bkp.o
      1468         34          0          0          0       8334   stm32f10x_flash.o
       860         38          0          0          0       5861   stm32f10x_gpio.o
        38          0          0          0          0     259614   stm32f10x_it.o
        64          6          0          0          0       1317   stm32f10x_iwdg.o
       204         14          0          0          0       1991   stm32f10x_pwr.o
       932         36          0         20          0       9024   stm32f10x_rcc.o
       328          4          0          0          0       2762   stm32f10x_rtc.o
      3610         88          0          0          0      22968   stm32f10x_tim.o
      1032         22          0          0          0       8580   stm32f10x_usart.o
       196          6          0          4          0       1912   sysbutton.o
       224         10          0          4        120       2571   syspoll.o
       480         38          0         20          0       1863   system_stm32f10x.o
       256          6          0          0        400       2169   systimer.o
       720        110         21         21       2048       6472   usersys.o

    ----------------------------------------------------------------------
     25176       2260        519        228       6772     693613   Object Totals
         0          0         32          0          0          0   (incl. Generated)
         6          0          3          9          3          0   (incl. Padding)

    ----------------------------------------------------------------------

      Code (inc. data)   RO Data    RW Data    ZI Data      Debug   Library Member Name

         8          0          0          0          0         68   __main.o
       312          4         17          0          0         92   __printf_flags_wp.o
        14          0          0          0          0         68   __printf_wp.o
         0          0          0          0          0          0   __rtentry.o
        12          0          0          0          0          0   __rtentry2.o
         6          0          0          0          0          0   __rtentry4.o
        52          8          0          0          0          0   __scatter.o
        26          0          0          0          0          0   __scatter_copy.o
        28          0          0          0          0          0   __scatter_zi.o
        44          0          0          0          0        108   _printf_char.o
        48          6          0          0          0         96   _printf_char_common.o
        36          4          0          0          0         80   _printf_char_file.o
         6          0          0          0          0          0   _printf_d.o
       120         16          0          0          0         92   _printf_dec.o
        88          4         40          0          0         88   _printf_hex_int.o
       178          0          0          0          0         88   _printf_intcommon.o
        78          0          0          0          0        108   _printf_pad.o
         0          0          0          0          0          0   _printf_percent.o
         4          0          0          0          0          0   _printf_percent_end.o
         6          0          0          0          0          0   _printf_s.o
        82          0          0          0          0         80   _printf_str.o
         6          0          0          0          0          0   _printf_x.o
        18          0          0          0          0         80   exit.o
         8          0          0          0          0         68   ferror.o
         6          0          0          0          0        152   heapauxi.o
         2          0          0          0          0          0   libinit.o
         2          0          0          0          0          0   libinit2.o
         2          0          0          0          0          0   libshutdown.o
         2          0          0          0          0          0   libshutdown2.o
         8          4          0          0         96         68   libspace.o
        88          0          0          0          0         76   memcmp.o
        24          4          0          0          0         84   noretval__2printf.o
        78          0          0          0          0         80   rt_memclr_w.o
       138          0          0          0          0         68   rt_memcpy_v6.o
       100          0          0          0          0         80   rt_memcpy_w.o
         2          0          0          0          0          0   rtexit.o
        10          0          0          0          0          0   rtexit2.o
        72          0          0          0          0         80   strcpy.o
        62          0          0          0          0         76   strlen.o
        36          0          0          0          0         80   strstr.o
        74          0          0          0          0         80   sys_stackheap_outer.o

    ----------------------------------------------------------------------
      1890         50         59          0         96       2040   Library Totals
         4          0          2          0          0          0   (incl. Padding)

    ----------------------------------------------------------------------

      Code (inc. data)   RO Data    RW Data    ZI Data      Debug   Library Name

      1886         50         57          0         96       2040   c_w.l

    ----------------------------------------------------------------------
      1890         50         59          0         96       2040   Library Totals

    ----------------------------------------------------------------------

==============================================================================


      Code (inc. data)   RO Data    RW Data    ZI Data      Debug   

     27066       2310        578        228       6868     691021   Grand Totals
     27066       2310        578        228       6868     691021   ELF Image Totals
     27066       2310        578        228          0          0   ROM Totals

==============================================================================

    Total RO  Size (Code + RO Data)                27644 (  27.00kB)
    Total RW  Size (RW Data + ZI Data)              7096 (   6.93kB)
    Total ROM Size (Code + RO Data + RW Data)      27872 (  27.22kB)

==============================================================================

