Component: ARM Compiler 5.06 update 3 (build 300) Tool: armlink [4d35c9]

==============================================================================

Section Cross References

    stm32f10x_it.o(.text) refers to os_timer.o(.text) for os_timer_pass_ms
    os_timer.o(.text) refers to mlist.o(.text) for mlist_del
    os_timer.o(.text) refers to cloud_helper.o(.text) for ch_timer_ms
    os_timer.o(.text) refers to os_timer.o(.data) for g_systime
    os_timer.o(.text) refers to os_timer.o(.bss) for g_timer_list
    os_timer.o(.text) refers to usersys.o(.data) for g_LwIPLocalTime
    hal.o(.text) refers to _printf_percent.o(.ARM.Collect$$_printf_percent$$00000000) for _printf_percent
    hal.o(.text) refers to _printf_d.o(.ARM.Collect$$_printf_percent$$00000009) for _printf_d
    hal.o(.text) refers to _printf_s.o(.ARM.Collect$$_printf_percent$$00000014) for _printf_s
    hal.o(.text) refers to _printf_dec.o(.text) for _printf_int_dec
    hal.o(.text) refers to _printf_str.o(.text) for _printf_str
    hal.o(.text) refers to misc.o(.text) for NVIC_SetVectorTable
    hal.o(.text) refers to haluart.o(.text) for HalUartConfig
    hal.o(.text) refers to hal_wdt.o(.text) for hal_wdt_init
    hal.o(.text) refers to halgpio.o(.text) for HalGPIOInitialize
    hal.o(.text) refers to hal_rtc.o(.text) for RTCInit
    hal.o(.text) refers to hal_timer.o(.text) for HalTimerInit
    hal.o(.text) refers to menuconfig.o(.text) for MenuConfigInit
==============================================================================

Removing Unused input sections from the image.

    Removing stm32f10x_it.o(.rev16_text), (4 bytes).
    Removing stm32f10x_it.o(.revsh_text), (4 bytes).
    Removing stm32f10x_it.o(.rrx_text), (6 bytes).
    Removing misc.o(.rev16_text), (4 bytes).
    Removing misc.o(.revsh_text), (4 bytes).
    Removing misc.o(.rrx_text), (6 bytes).
    Removing os_timer.o(.rev16_text), (4 bytes).
    Removing os_timer.o(.revsh_text), (4 bytes).
    Removing os_timer.o(.rrx_text), (6 bytes).
    Removing hal.o(.rev16_text), (4 bytes).
    Removing hal.o(.revsh_text), (4 bytes).
    Removing hal.o(.rrx_text), (6 bytes).
    Removing hal_aes.o(.rev16_text), (4 bytes).
    Removing hal_aes.o(.revsh_text), (4 bytes).
    Removing hal_aes.o(.rrx_text), (6 bytes).
    Removing hal_flash.o(.rev16_text), (4 bytes).
    Removing hal_flash.o(.revsh_text), (4 bytes).
    Removing hal_flash.o(.rrx_text), (6 bytes).
==============================================================================

Image Symbol Table

    Local Symbols

    Symbol Name                              Value     Ov Type        Size  Object(Section)

    ../clib/angel/boardlib.s                 0x00000000   Number         0  boardshut.o ABSOLUTE
    ../clib/angel/boardlib.s                 0x00000000   Number         0  boardinit3.o ABSOLUTE
    ../clib/angel/boardlib.s                 0x00000000   Number         0  boardinit2.o ABSOLUTE
    ../clib/angel/boardlib.s                 0x00000000   Number         0  boardinit1.o ABSOLUTE
    ../clib/angel/dczerorl2.s                0x00000000   Number         0  __dczerorl2.o ABSOLUTE
    ../clib/angel/handlers.s                 0x00000000   Number         0  __scatter_zi.o ABSOLUTE
    ../clib/angel/kernel.s                   0x00000000   Number         0  rtexit2.o ABSOLUTE
    ../clib/angel/kernel.s                   0x00000000   Number         0  __rtentry2.o ABSOLUTE
    ../clib/angel/kernel.s                   0x00000000   Number         0  rtexit.o ABSOLUTE
    ../clib/angel/kernel.s                   0x00000000   Number         0  __rtentry4.o ABSOLUTE
    ../clib/angel/kernel.s                   0x00000000   Number         0  __rtentry.o ABSOLUTE
    ../clib/angel/rt.s                       0x00000000   Number         0  rt_raise.o ABSOLUTE
    ../clib/angel/rt.s                       0x00000000   Number         0  rt_heap_descriptor.o ABSOLUTE
    ../clib/angel/rt.s                       0x00000000   Number         0  rt_heap_descriptor_intlibspace.o ABSOLUTE
    ../clib/angel/rt.s                       0x00000000   Number         0  rt_ctype_table.o ABSOLUTE
    ../clib/angel/rt.s                       0x00000000   Number         0  rt_errno_addr_intlibspace.o ABSOLUTE
    ../clib/angel/rt.s                       0x00000000   Number         0  rt_locale_intlibspace.o ABSOLUTE
    ../clib/angel/rt.s                       0x00000000   Number         0  rt_errno_addr.o ABSOLUTE
    ../clib/angel/rt.s                       0x00000000   Number         0  rt_locale.o ABSOLUTE
    ../clib/angel/scatter.s                  0x00000000   Number         0  __scatter.o ABSOLUTE
    ../clib/angel/startup.s                  0x00000000   Number         0  __main.o ABSOLUTE
    ../clib/angel/sys.s                      0x00000000   Number         0  sys_stackheap_outer.o ABSOLUTE
    ../clib/angel/sys.s                      0x00000000   Number         0  indicate_semi.o ABSOLUTE
    ../clib/angel/sys.s                      0x00000000   Number         0  use_no_semi.o ABSOLUTE
    ../clib/angel/sys.s                      0x00000000   Number         0  mutex_dummy.o ABSOLUTE
    ../clib/angel/sys.s                      0x00000000   Number         0  libspace.o ABSOLUTE
    ../clib/angel/sysapp.c                   0x00000000   Number         0  sys_command.o ABSOLUTE
    ../clib/angel/sysapp.c                   0x00000000   Number         0  sys_wrch.o ABSOLUTE
    ../clib/armsys.c                         0x00000000   Number         0  argv_veneer.o ABSOLUTE
    ../clib/armsys.c                         0x00000000   Number         0  _get_argv.o ABSOLUTE
    ../clib/armsys.c                         0x00000000   Number         0  no_argv.o ABSOLUTE
    ../clib/armsys.c                         0x00000000   Number         0  _get_argv_nomalloc.o ABSOLUTE
    ../clib/armsys.c                         0x00000000   Number         0  argv_veneer.o ABSOLUTE
    ../clib/bigflt.c                         0x00000000   Number         0  bigflt0.o ABSOLUTE
    ../clib/btod.s                           0x00000000   Number         0  btod.o ABSOLUTE
    ../clib/heap1.c                          0x00000000   Number         0  h1_init_mt.o ABSOLUTE
    ../clib/heap1.c                          0x00000000   Number         0  h1_final_mt.o ABSOLUTE
    ../clib/heap1.c                          0x00000000   Number         0  h1_final.o ABSOLUTE
    ../clib/heap1.c                          0x00000000   Number         0  h1_alloc_mt.o ABSOLUTE
    ../clib/heap1.c                          0x00000000   Number         0  h1_free_mt.o ABSOLUTE
    ../clib/heap1.c                          0x00000000   Number         0  h1_extend_mt.o ABSOLUTE
    ../clib/heap1.c                          0x00000000   Number         0  h1_extend.o ABSOLUTE
    ../clib/heap1.c                          0x00000000   Number         0  h1_alloc.o ABSOLUTE
    ../clib/heap1.c                          0x00000000   Number         0  h1_free.o ABSOLUTE
    ../clib/heap1.c                          0x00000000   Number         0  h1_init.o ABSOLUTE
    ../clib/heap2.c                          0x00000000   Number         0  heap2mt.o ABSOLUTE
    ../clib/heap2.c                          0x00000000   Number         0  heap2.o ABSOLUTE
    ../clib/heap2.c                          0x00000000   Number         0  fdtree.o ABSOLUTE
    ../clib/heapalloc.c                      0x00000000   Number         0  maybetermalloc1.o ABSOLUTE
    ../clib/heapalloc.c                      0x00000000   Number         0  malloc.o ABSOLUTE
    ../clib/heapalloc.c                      0x00000000   Number         0  hguard.o ABSOLUTE
    ../clib/heapalloc.c                      0x00000000   Number         0  hrguard.o ABSOLUTE
    ../clib/heapalloc.c                      0x00000000   Number         0  heapstubs.o ABSOLUTE
    ../clib/heapalloc.c                      0x00000000   Number         0  term_alloc.o ABSOLUTE
    ../clib/heapalloc.c                      0x00000000   Number         0  init_alloc.o ABSOLUTE
    ../clib/heapalloc.c                      0x00000000   Number         0  maybetermalloc2.o ABSOLUTE
    ../clib/heapalloc.c                      0x00000000   Number         0  maybetermalloc2.o ABSOLUTE
    ../clib/heapalloc.c                      0x00000000   Number         0  maybetermalloc1.o ABSOLUTE
    ../clib/heapalloc.c                      0x00000000   Number         0  free.o ABSOLUTE
    ../clib/heapaux.c                        0x00000000   Number         0  heapauxi.o ABSOLUTE
    ../clib/heapaux.c                        0x00000000   Number         0  heapauxa.o ABSOLUTE
    ../clib/libinit.s                        0x00000000   Number         0  libshutdown2.o ABSOLUTE
    ../clib/libinit.s                        0x00000000   Number         0  libshutdown.o ABSOLUTE
    ../clib/libinit.s                        0x00000000   Number         0  libinit2.o ABSOLUTE
    ../clib/libinit.s                        0x00000000   Number         0  libinit.o ABSOLUTE
    ../clib/locale.c                         0x00000000   Number         0  _wcrtomb.o ABSOLUTE
    ../clib/locale.s                         0x00000000   Number         0  lc_ctype_c.o ABSOLUTE
    ../clib/locale.s                         0x00000000   Number         0  lc_numeric_c.o ABSOLUTE
    ../clib/longlong.s                       0x00000000   Number         0  lludiv10.o ABSOLUTE
    ../clib/memcpset.s                       0x00000000   Number         0  strcmpv7m.o ABSOLUTE
    ../clib/memcpset.s                       0x00000000   Number         0  rt_memcpy_v6.o ABSOLUTE
    ../clib/memcpset.s                       0x00000000   Number         0  rt_memcpy_w.o ABSOLUTE
    ../clib/memcpset.s                       0x00000000   Number         0  aeabi_memset.o ABSOLUTE
    ../clib/memcpset.s                       0x00000000   Number         0  rt_memclr_w.o ABSOLUTE
    ../clib/memcpset.s                       0x00000000   Number         0  rt_memclr.o ABSOLUTE
    ../clib/misc.s                           0x00000000   Number         0  printf_stubs.o ABSOLUTE
    ../clib/printf.c                         0x00000000   Number         0  _printf_pad.o ABSOLUTE
    ../clib/printf.c                         0x00000000   Number         0  _printf_str.o ABSOLUTE
    ../clib/printf.c                         0x00000000   Number         0  _printf_dec.o ABSOLUTE
    ../clib/printf.c                         0x00000000   Number         0  _printf_hex_ll.o ABSOLUTE
    ../clib/printf.c                         0x00000000   Number         0  _printf_hex_int.o ABSOLUTE
    ../clib/printf.c                         0x00000000   Number         0  _printf_hex_int_ll.o ABSOLUTE
    ../clib/printf.c                         0x00000000   Number         0  _printf_hex_ptr.o ABSOLUTE
    ../clib/printf.c                         0x00000000   Number         0  _printf_hex_int_ptr.o ABSOLUTE
    ../clib/printf.c                         0x00000000   Number         0  _printf_hex_ll_ptr.o ABSOLUTE
    ../clib/printf.c                         0x00000000   Number         0  _printf_hex_int_ll_ptr.o ABSOLUTE
    ../clib/printf.c                         0x00000000   Number         0  __printf_flags.o ABSOLUTE
    ../clib/printf.c                         0x00000000   Number         0  __printf_ss.o ABSOLUTE
    ../clib/printf.c                         0x00000000   Number         0  __printf_flags_ss.o ABSOLUTE
    ../clib/printf.c                         0x00000000   Number         0  __printf_wp.o ABSOLUTE
    ../clib/printf.c                         0x00000000   Number         0  __printf_flags_wp.o ABSOLUTE
    ../clib/printf.c                         0x00000000   Number         0  __printf_ss_wp.o ABSOLUTE
    ../clib/printf.c                         0x00000000   Number         0  __printf_flags_ss_wp.o ABSOLUTE
    ../clib/printf.c                         0x00000000   Number         0  _printf_oct_int_ll.o ABSOLUTE
    ../clib/printf.c                         0x00000000   Number         0  _printf_wchar.o ABSOLUTE
    ../clib/printf.c                         0x00000000   Number         0  __printf_nopercent.o ABSOLUTE
    ../clib/printf.c                         0x00000000   Number         0  _printf_fp_infnan.o ABSOLUTE
    ../clib/printf.c                         0x00000000   Number         0  _printf_fp_hex.o ABSOLUTE
    ../clib/printf.c                         0x00000000   Number         0  _printf_oct_int.o ABSOLUTE
    ../clib/printf.c                         0x00000000   Number         0  _printf_oct_ll.o ABSOLUTE
    ../clib/printf.c                         0x00000000   Number         0  _printf_longlong_dec.o ABSOLUTE
    ../clib/printf.c                         0x00000000   Number         0  _printf_wctomb.o ABSOLUTE
    ../clib/printf.c                         0x00000000   Number         0  vsprintf.o ABSOLUTE
    ../clib/printf.c                         0x00000000   Number         0  _printf_char.o ABSOLUTE
    ../clib/printf.c                         0x00000000   Number         0  __2printf.o ABSOLUTE
    ../clib/printf.c                         0x00000000   Number         0  _sputc.o ABSOLUTE
    ../clib/printf.c                         0x00000000   Number         0  _printf_char_common.o ABSOLUTE
    ../clib/printf.c                         0x00000000   Number         0  _printf_fp_dec.o ABSOLUTE
    ../clib/printf.c                         0x00000000   Number         0  _printf_charcount.o ABSOLUTE
    ../clib/printf.c                         0x00000000   Number         0  _printf_intcommon.o ABSOLUTE
    ../clib/printf.c                         0x00000000   Number         0  _printf_char_file.o ABSOLUTE
    ../clib/printf.c                         0x00000000   Number         0  _printf_truncate.o ABSOLUTE
    ../clib/printf.c                         0x00000000   Number         0  __2sprintf.o ABSOLUTE
    ../clib/printf.c                         0x00000000   Number         0  noretval__2printf.o ABSOLUTE
    ../clib/printf.c                         0x00000000   Number         0  noretval__2sprintf.o ABSOLUTE
    ../clib/printf.c                         0x00000000   Number         0  __printf.o ABSOLUTE
    ../clib/printf_percent.s                 0x00000000   Number         0  _printf_llu.o ABSOLUTE
    ../clib/printf_percent.s                 0x00000000   Number         0  _printf_o.o ABSOLUTE
    ../clib/printf_percent.s                 0x00000000   Number         0  _printf_f.o ABSOLUTE
    ../clib/printf_percent.s                 0x00000000   Number         0  _printf_n.o ABSOLUTE
    ../clib/printf_percent.s                 0x00000000   Number         0  _printf_ll.o ABSOLUTE
    ../clib/printf_percent.s                 0x00000000   Number         0  _printf_u.o ABSOLUTE
    ../clib/printf_percent.s                 0x00000000   Number         0  _printf_lld.o ABSOLUTE
    ../clib/printf_percent.s                 0x00000000   Number         0  _printf_p.o ABSOLUTE
    ../clib/printf_percent.s                 0x00000000   Number         0  _printf_percent.o ABSOLUTE
    ../clib/printf_percent.s                 0x00000000   Number         0  _printf_l.o ABSOLUTE
    ../clib/printf_percent.s                 0x00000000   Number         0  _printf_d.o ABSOLUTE
    ../clib/printf_percent.s                 0x00000000   Number         0  _printf_lc.o ABSOLUTE
    ../clib/printf_percent.s                 0x00000000   Number         0  _printf_a.o ABSOLUTE
    ../clib/printf_percent.s                 0x00000000   Number         0  _printf_g.o ABSOLUTE
    ../clib/printf_percent.s                 0x00000000   Number         0  _printf_i.o ABSOLUTE
    ../clib/printf_percent.s                 0x00000000   Number         0  _printf_ls.o ABSOLUTE
    ../clib/printf_percent.s                 0x00000000   Number         0  _printf_lli.o ABSOLUTE
    ../clib/printf_percent.s                 0x00000000   Number         0  _printf_x.o ABSOLUTE
    ../clib/printf_percent.s                 0x00000000   Number         0  _printf_s.o ABSOLUTE
    ../clib/printf_percent.s                 0x00000000   Number         0  _printf_c.o ABSOLUTE
    ../clib/printf_percent.s                 0x00000000   Number         0  _printf_e.o ABSOLUTE
    ../clib/printf_percent.s                 0x00000000   Number         0  _printf_percent_end.o ABSOLUTE
    ../clib/printf_percent.s                 0x00000000   Number         0  _printf_llx.o ABSOLUTE
    ../clib/printf_percent.s                 0x00000000   Number         0  _printf_llo.o ABSOLUTE
    ../clib/scanf.c                          0x00000000   Number         0  strtol.o ABSOLUTE
    ../clib/scanf.c                          0x00000000   Number         0  _strtoul.o ABSOLUTE
    ../clib/scanf.c                          0x00000000   Number         0  _chval.o ABSOLUTE
    ../clib/scanf.c                          0x00000000   Number         0  atoi.o ABSOLUTE
    ../clib/signal.c                         0x00000000   Number         0  defsig_cppl_inner.o ABSOLUTE
    ../clib/signal.c                         0x00000000   Number         0  defsig_pvfn_inner.o ABSOLUTE
    ../clib/signal.c                         0x00000000   Number         0  defsig_stak_inner.o ABSOLUTE
    ../clib/signal.c                         0x00000000   Number         0  defsig_rtred_inner.o ABSOLUTE
    ../clib/signal.c                         0x00000000   Number         0  defsig_fpe_inner.o ABSOLUTE
    ../clib/signal.c                         0x00000000   Number         0  defsig_abrt_inner.o ABSOLUTE
    ../clib/signal.c                         0x00000000   Number         0  defsig_general.o ABSOLUTE
    ../clib/signal.c                         0x00000000   Number         0  defsig_rtmem_inner.o ABSOLUTE
    ../clib/signal.c                         0x00000000   Number         0  defsig_exit.o ABSOLUTE
    ../clib/signal.c                         0x00000000   Number         0  __raise.o ABSOLUTE
    ../clib/signal.c                         0x00000000   Number         0  defsig_rtmem_formal.o ABSOLUTE
    ../clib/signal.c                         0x00000000   Number         0  defsig_rtmem_outer.o ABSOLUTE
    ../clib/signal.c                         0x00000000   Number         0  defsig_other.o ABSOLUTE
    ../clib/signal.c                         0x00000000   Number         0  defsig_segv_inner.o ABSOLUTE
    ../clib/signal.s                         0x00000000   Number         0  defsig.o ABSOLUTE
    ../clib/stdio.c                          0x00000000   Number         0  ferror.o ABSOLUTE
    ../clib/stdio.c                          0x00000000   Number         0  ferror_locked.o ABSOLUTE
    ../clib/stdlib.c                         0x00000000   Number         0  rand.o ABSOLUTE
    ../clib/stdlib.c                         0x00000000   Number         0  rand.o ABSOLUTE
    ../clib/stdlib.c                         0x00000000   Number         0  exit.o ABSOLUTE
    ../clib/string.c                         0x00000000   Number         0  strstr.o ABSOLUTE
    ../clib/string.c                         0x00000000   Number         0  strchr.o ABSOLUTE
    ../clib/string.c                         0x00000000   Number         0  strlen.o ABSOLUTE
    ../clib/string.c                         0x00000000   Number         0  strcpy.o ABSOLUTE
    ../clib/string.c                         0x00000000   Number         0  memcmp.o ABSOLUTE
    ../fplib/d2f.s                           0x00000000   Number         0  d2f.o ABSOLUTE
    ../fplib/daddsub.s                       0x00000000   Number         0  daddsub_clz.o ABSOLUTE
    ../fplib/dmul.s                          0x00000000   Number         0  dmul.o ABSOLUTE
    ../fplib/dnaninf.s                       0x00000000   Number         0  dnaninf.o ABSOLUTE
    ../fplib/dretinf.s                       0x00000000   Number         0  dretinf.o ABSOLUTE
    ../fplib/f2d.s                           0x00000000   Number         0  f2d.o ABSOLUTE
    ../fplib/faddsub.s                       0x00000000   Number         0  faddsub_clz.o ABSOLUTE
    ../fplib/fcmpi.s                         0x00000000   Number         0  fcmpi.o ABSOLUTE
    ../fplib/fdiv.s                          0x00000000   Number         0  fdiv.o ABSOLUTE
    ../fplib/feqf.s                          0x00000000   Number         0  feqf.o ABSOLUTE
    ../fplib/ffixu.s                         0x00000000   Number         0  ffixu.o ABSOLUTE
    ../fplib/fflt.s                          0x00000000   Number         0  fflt_clz.o ABSOLUTE
    ../fplib/fmul.s                          0x00000000   Number         0  fmul.o ABSOLUTE
    ../fplib/fnaninf.s                       0x00000000   Number         0  fnaninf.o ABSOLUTE
    ../fplib/fpinit.s                        0x00000000   Number         0  fpinit.o ABSOLUTE
    ../fplib/fretinf.s                       0x00000000   Number         0  fretinf.o ABSOLUTE
    ../fplib/istatus.s                       0x00000000   Number         0  istatus.o ABSOLUTE
    ../fplib/printf1.s                       0x00000000   Number         0  printf1.o ABSOLUTE
    ../fplib/printf2.s                       0x00000000   Number         0  printf2.o ABSOLUTE
    ../fplib/printf2a.s                      0x00000000   Number         0  printf2a.o ABSOLUTE
    ../fplib/printf2b.s                      0x00000000   Number         0  printf2b.o ABSOLUTE
    ../fplib/usenofp.s                       0x00000000   Number         0  usenofp.o ABSOLUTE
    ../mathlib/fpclassify.c                  0x00000000   Number         0  fpclassify.o ABSOLUTE
    C:\Keil_v5\ARM\PACK\Keil\STM32F1xx_DFP\2.0.0\Device\StdPeriph_Driver\src\stm32f10x_adc.c 0x00000000   Number         0  stm32f10x_adc.o ABSOLUTE
    C:\Keil_v5\ARM\PACK\Keil\STM32F1xx_DFP\2.0.0\Device\StdPeriph_Driver\src\stm32f10x_bkp.c 0x00000000   Number         0  stm32f10x_bkp.o ABSOLUTE
    C:\Keil_v5\ARM\PACK\Keil\STM32F1xx_DFP\2.0.0\Device\StdPeriph_Driver\src\stm32f10x_dma.c 0x00000000   Number         0  stm32f10x_dma.o ABSOLUTE
    C:\Keil_v5\ARM\PACK\Keil\STM32F1xx_DFP\2.0.0\Device\StdPeriph_Driver\src\stm32f10x_exti.c 0x00000000   Number         0  stm32f10x_exti.o ABSOLUTE
    C:\Keil_v5\ARM\PACK\Keil\STM32F1xx_DFP\2.0.0\Device\StdPeriph_Driver\src\stm32f10x_flash.c 0x00000000   Number         0  stm32f10x_flash.o ABSOLUTE
    C:\Keil_v5\ARM\PACK\Keil\STM32F1xx_DFP\2.0.0\Device\StdPeriph_Driver\src\stm32f10x_gpio.c 0x00000000   Number         0  stm32f10x_gpio.o ABSOLUTE
    C:\Keil_v5\ARM\PACK\Keil\STM32F1xx_DFP\2.0.0\Device\StdPeriph_Driver\src\stm32f10x_i2c.c 0x00000000   Number         0  stm32f10x_i2c.o ABSOLUTE
    C:\Keil_v5\ARM\PACK\Keil\STM32F1xx_DFP\2.0.0\Device\StdPeriph_Driver\src\stm32f10x_iwdg.c 0x00000000   Number         0  stm32f10x_iwdg.o ABSOLUTE
    C:\Keil_v5\ARM\PACK\Keil\STM32F1xx_DFP\2.0.0\Device\StdPeriph_Driver\src\stm32f10x_pwr.c 0x00000000   Number         0  stm32f10x_pwr.o ABSOLUTE
    C:\Keil_v5\ARM\PACK\Keil\STM32F1xx_DFP\2.0.0\Device\StdPeriph_Driver\src\stm32f10x_rcc.c 0x00000000   Number         0  stm32f10x_rcc.o ABSOLUTE
    C:\Keil_v5\ARM\PACK\Keil\STM32F1xx_DFP\2.0.0\Device\StdPeriph_Driver\src\stm32f10x_rtc.c 0x00000000   Number         0  stm32f10x_rtc.o ABSOLUTE
    C:\Keil_v5\ARM\PACK\Keil\STM32F1xx_DFP\2.0.0\Device\StdPeriph_Driver\src\stm32f10x_sdio.c 0x00000000   Number         0  stm32f10x_sdio.o ABSOLUTE
    C:\Keil_v5\ARM\PACK\Keil\STM32F1xx_DFP\2.0.0\Device\StdPeriph_Driver\src\stm32f10x_spi.c 0x00000000   Number         0  stm32f10x_spi.o ABSOLUTE
    C:\Keil_v5\ARM\PACK\Keil\STM32F1xx_DFP\2.0.0\Device\StdPeriph_Driver\src\stm32f10x_tim.c 0x00000000   Number         0  stm32f10x_tim.o ABSOLUTE
    C:\Keil_v5\ARM\PACK\Keil\STM32F1xx_DFP\2.0.0\Device\StdPeriph_Driver\src\stm32f10x_usart.c 0x00000000   Number         0  stm32f10x_usart.o ABSOLUTE
    C:\Keil_v5\ARM\PACK\Keil\STM32F1xx_DFP\2.0.0\RTE_Driver\DMA_STM32F10x.c 0x00000000   Number         0  dma_stm32f10x.o ABSOLUTE
    C:\Keil_v5\ARM\PACK\Keil\STM32F1xx_DFP\2.0.0\RTE_Driver\GPIO_STM32F10x.c 0x00000000   Number         0  gpio_stm32f10x.o ABSOLUTE
    C:\\Keil_v5\\ARM\\PACK\\Keil\\STM32F1xx_DFP\\2.0.0\\Device\\StdPeriph_Driver\\src\\stm32f10x_adc.c 0x00000000   Number         0  stm32f10x_adc.o ABSOLUTE
    C:\\Keil_v5\\ARM\\PACK\\Keil\\STM32F1xx_DFP\\2.0.0\\Device\\StdPeriph_Driver\\src\\stm32f10x_bkp.c 0x00000000   Number         0  stm32f10x_bkp.o ABSOLUTE
    C:\\Keil_v5\\ARM\\PACK\\Keil\\STM32F1xx_DFP\\2.0.0\\Device\\StdPeriph_Driver\\src\\stm32f10x_dma.c 0x00000000   Number         0  stm32f10x_dma.o ABSOLUTE
    C:\\Keil_v5\\ARM\\PACK\\Keil\\STM32F1xx_DFP\\2.0.0\\Device\\StdPeriph_Driver\\src\\stm32f10x_exti.c 0x00000000   Number         0  stm32f10x_exti.o ABSOLUTE
    C:\\Keil_v5\\ARM\\PACK\\Keil\\STM32F1xx_DFP\\2.0.0\\Device\\StdPeriph_Driver\\src\\stm32f10x_flash.c 0x00000000   Number         0  stm32f10x_flash.o ABSOLUTE
    C:\\Keil_v5\\ARM\\PACK\\Keil\\STM32F1xx_DFP\\2.0.0\\Device\\StdPeriph_Driver\\src\\stm32f10x_gpio.c 0x00000000   Number         0  stm32f10x_gpio.o ABSOLUTE
    C:\\Keil_v5\\ARM\\PACK\\Keil\\STM32F1xx_DFP\\2.0.0\\Device\\StdPeriph_Driver\\src\\stm32f10x_i2c.c 0x00000000   Number         0  stm32f10x_i2c.o ABSOLUTE
    C:\\Keil_v5\\ARM\\PACK\\Keil\\STM32F1xx_DFP\\2.0.0\\Device\\StdPeriph_Driver\\src\\stm32f10x_iwdg.c 0x00000000   Number         0  stm32f10x_iwdg.o ABSOLUTE
    C:\\Keil_v5\\ARM\\PACK\\Keil\\STM32F1xx_DFP\\2.0.0\\Device\\StdPeriph_Driver\\src\\stm32f10x_pwr.c 0x00000000   Number         0  stm32f10x_pwr.o ABSOLUTE
    C:\\Keil_v5\\ARM\\PACK\\Keil\\STM32F1xx_DFP\\2.0.0\\Device\\StdPeriph_Driver\\src\\stm32f10x_rcc.c 0x00000000   Number         0  stm32f10x_rcc.o ABSOLUTE
    C:\\Keil_v5\\ARM\\PACK\\Keil\\STM32F1xx_DFP\\2.0.0\\Device\\StdPeriph_Driver\\src\\stm32f10x_rtc.c 0x00000000   Number         0  stm32f10x_rtc.o ABSOLUTE
    C:\\Keil_v5\\ARM\\PACK\\Keil\\STM32F1xx_DFP\\2.0.0\\Device\\StdPeriph_Driver\\src\\stm32f10x_sdio.c 0x00000000   Number         0  stm32f10x_sdio.o ABSOLUTE
    C:\\Keil_v5\\ARM\\PACK\\Keil\\STM32F1xx_DFP\\2.0.0\\Device\\StdPeriph_Driver\\src\\stm32f10x_spi.c 0x00000000   Number         0  stm32f10x_spi.o ABSOLUTE
    C:\\Keil_v5\\ARM\\PACK\\Keil\\STM32F1xx_DFP\\2.0.0\\Device\\StdPeriph_Driver\\src\\stm32f10x_tim.c 0x00000000   Number         0  stm32f10x_tim.o ABSOLUTE
    C:\\Keil_v5\\ARM\\PACK\\Keil\\STM32F1xx_DFP\\2.0.0\\Device\\StdPeriph_Driver\\src\\stm32f10x_usart.c 0x00000000   Number         0  stm32f10x_usart.o ABSOLUTE
    C:\\Keil_v5\\ARM\\PACK\\Keil\\STM32F1xx_DFP\\2.0.0\\RTE_Driver\\DMA_STM32F10x.c 0x00000000   Number         0  dma_stm32f10x.o ABSOLUTE
    C:\\Keil_v5\\ARM\\PACK\\Keil\\STM32F1xx_DFP\\2.0.0\\RTE_Driver\\GPIO_STM32F10x.c 0x00000000   Number         0  gpio_stm32f10x.o ABSOLUTE
    RTE\Device\STM32F103VC\misc.c            0x00000000   Number         0  misc.o ABSOLUTE
    RTE\Device\STM32F103VC\startup_stm32f10x_hd.s 0x00000000   Number         0  startup_stm32f10x_hd.o ABSOLUTE
    RTE\Device\STM32F103VC\system_stm32f10x.c 0x00000000   Number         0  system_stm32f10x.o ABSOLUTE
    RTE\\Device\\STM32F103VC\\misc.c         0x00000000   Number         0  misc.o ABSOLUTE
    RTE\\Device\\STM32F103VC\\system_stm32f10x.c 0x00000000   Number         0  system_stm32f10x.o ABSOLUTE
    dc.s                                     0x00000000   Number         0  dc.o ABSOLUTE
    src\\app\\ModuleTester.c                 0x00000000   Number         0  moduletester.o ABSOLUTE
    src\\app\\cloud_helper.c                 0x00000000   Number         0  cloud_helper.o ABSOLUTE
    src\\app\\property\\OutdoorPid.c         0x00000000   Number         0  outdoorpid.o ABSOLUTE
    src\\app\\property\\property.c           0x00000000   Number         0  property.o ABSOLUTE
    src\\fatfs\\SDCardRecord.c               0x00000000   Number         0  sdcardrecord.o ABSOLUTE
    src\\fatfs\\ff.c                         0x00000000   Number         0  ff.o ABSOLUTE
    src\\fatfs\\sdc_diskio.c                 0x00000000   Number         0  sdc_diskio.o ABSOLUTE
    src\\hal\\src\\Hal.c                     0x00000000   Number         0  hal.o ABSOLUTE
    src\\hal\\src\\HalGPIO.c                 0x00000000   Number         0  halgpio.o ABSOLUTE
    src\\hal\\src\\HalSpi.c                  0x00000000   Number         0  halspi.o ABSOLUTE
    src\\hal\\src\\HalUart.c                 0x00000000   Number         0  haluart.o ABSOLUTE
    src\\hal\\src\\hal_aes.c                 0x00000000   Number         0  hal_aes.o ABSOLUTE
    src\\hal\\src\\hal_flash.c               0x00000000   Number         0  hal_flash.o ABSOLUTE
    src\\hal\\src\\hal_led.c                 0x00000000   Number         0  hal_led.o ABSOLUTE
    src\\hal\\src\\hal_rnd.c                 0x00000000   Number         0  hal_rnd.o ABSOLUTE
    src\\hal\\src\\hal_rtc.c                 0x00000000   Number         0  hal_rtc.o ABSOLUTE
    src\\hal\\src\\hal_timer.c               0x00000000   Number         0  hal_timer.o ABSOLUTE
    src\\hal\\src\\hal_wait.c                0x00000000   Number         0  hal_wait.o ABSOLUTE
    src\\hal\\src\\hal_wdt.c                 0x00000000   Number         0  hal_wdt.o ABSOLUTE
    src\\net\\src\\ctrl.c                    0x00000000   Number         0  ctrl.o ABSOLUTE
    src\\net\\src\\link.c                    0x00000000   Number         0  link.o ABSOLUTE
    src\\net\\src\\net.c                     0x00000000   Number         0  net.o ABSOLUTE
    src\\net\\src\\nwk.c                     0x00000000   Number         0  nwk.o ABSOLUTE
    src\\net\\src\\phy.c                     0x00000000   Number         0  phy.o ABSOLUTE
    src\\os\\src\\os_timer.c                 0x00000000   Number         0  os_timer.o ABSOLUTE
    src\\sensor\\src\\DDZY747.c              0x00000000   Number         0  ddzy747.o ABSOLUTE
    src\\sensor\\src\\DTSF667.c              0x00000000   Number         0  dtsf667.o ABSOLUTE
    src\\sensor\\src\\FLD_R_LSH.c            0x00000000   Number         0  fld_r_lsh.o ABSOLUTE
    src\\sensor\\src\\HalSensor.c            0x00000000   Number         0  halsensor.o ABSOLUTE
    src\\sensor\\src\\HandHeld1.c            0x00000000   Number         0  handheld1.o ABSOLUTE
    src\\sensor\\src\\Meter.c                0x00000000   Number         0  meter.o ABSOLUTE
    src\\sensor\\src\\Modbus.c               0x00000000   Number         0  modbus.o ABSOLUTE
    src\\sensor\\src\\PM25CO2.c              0x00000000   Number         0  pm25co2.o ABSOLUTE
    src\\sensor\\src\\PT100DTU.c             0x00000000   Number         0  pt100dtu.o ABSOLUTE
    src\\sensor\\src\\SHT20.c                0x00000000   Number         0  sht20.o ABSOLUTE
    src\\sensor\\src\\ZWD433B.c              0x00000000   Number         0  zwd433b.o ABSOLUTE
    src\\usr\\src\\Device.c                  0x00000000   Number         0  device.o ABSOLUTE
    src\\usr\\src\\SysButton.c               0x00000000   Number         0  sysbutton.o ABSOLUTE
    src\\usr\\src\\SysPoll.c                 0x00000000   Number         0  syspoll.o ABSOLUTE
    src\\usr\\src\\SysTimer.c                0x00000000   Number         0  systimer.o ABSOLUTE
    src\\usr\\src\\app.c                     0x00000000   Number         0  app.o ABSOLUTE
    src\\usr\\src\\main.c                    0x00000000   Number         0  main.o ABSOLUTE
    src\\usr\\src\\main_module.c             0x00000000   Number         0  main_module.o ABSOLUTE
    src\\usr\\src\\menuConfig.c              0x00000000   Number         0  menuconfig.o ABSOLUTE
    src\\usr\\src\\userSys.c                 0x00000000   Number         0  usersys.o ABSOLUTE
    src\app\MD5.c                            0x00000000   Number         0  md5.o ABSOLUTE
    src\app\ModuleTester.c                   0x00000000   Number         0  moduletester.o ABSOLUTE
    src\app\cloud_helper.c                   0x00000000   Number         0  cloud_helper.o ABSOLUTE
    src\app\property\OutdoorPid.c            0x00000000   Number         0  outdoorpid.o ABSOLUTE
    src\app\property\property.c              0x00000000   Number         0  property.o ABSOLUTE
    src\fatfs\SDCardRecord.c                 0x00000000   Number         0  sdcardrecord.o ABSOLUTE
    src\fatfs\ff.c                           0x00000000   Number         0  ff.o ABSOLUTE
    src\fatfs\sdc_diskio.c                   0x00000000   Number         0  sdc_diskio.o ABSOLUTE
    src\hal\src\Hal.c                        0x00000000   Number         0  hal.o ABSOLUTE
    src\hal\src\HalGPIO.c                    0x00000000   Number         0  halgpio.o ABSOLUTE
    src\hal\src\HalSpi.c                     0x00000000   Number         0  halspi.o ABSOLUTE
    src\hal\src\HalUart.c                    0x00000000   Number         0  haluart.o ABSOLUTE
    src\hal\src\hal_aes.c                    0x00000000   Number         0  hal_aes.o ABSOLUTE
    src\hal\src\hal_flash.c                  0x00000000   Number         0  hal_flash.o ABSOLUTE
    src\hal\src\hal_led.c                    0x00000000   Number         0  hal_led.o ABSOLUTE
    src\hal\src\hal_rnd.c                    0x00000000   Number         0  hal_rnd.o ABSOLUTE
    src\hal\src\hal_rtc.c                    0x00000000   Number         0  hal_rtc.o ABSOLUTE
    src\hal\src\hal_timer.c                  0x00000000   Number         0  hal_timer.o ABSOLUTE
    src\hal\src\hal_wait.c                   0x00000000   Number         0  hal_wait.o ABSOLUTE
    src\hal\src\hal_wdt.c                    0x00000000   Number         0  hal_wdt.o ABSOLUTE
    src\net\src\ctrl.c                       0x00000000   Number         0  ctrl.o ABSOLUTE
    src\net\src\link.c                       0x00000000   Number         0  link.o ABSOLUTE
    src\net\src\net.c                        0x00000000   Number         0  net.o ABSOLUTE
    src\net\src\nwk.c                        0x00000000   Number         0  nwk.o ABSOLUTE
    src\net\src\phy.c                        0x00000000   Number         0  phy.o ABSOLUTE
    src\os\src\os_timer.c                    0x00000000   Number         0  os_timer.o ABSOLUTE
    src\sensor\src\DDZY747.c                 0x00000000   Number         0  ddzy747.o ABSOLUTE
    src\sensor\src\DTSF667.c                 0x00000000   Number         0  dtsf667.o ABSOLUTE
    src\sensor\src\FLD_R_LSH.c               0x00000000   Number         0  fld_r_lsh.o ABSOLUTE
    src\sensor\src\HalSensor.c               0x00000000   Number         0  halsensor.o ABSOLUTE
    src\sensor\src\HandHeld1.c               0x00000000   Number         0  handheld1.o ABSOLUTE
    src\sensor\src\Meter.c                   0x00000000   Number         0  meter.o ABSOLUTE
    src\sensor\src\Modbus.c                  0x00000000   Number         0  modbus.o ABSOLUTE
    src\sensor\src\PM25CO2.c                 0x00000000   Number         0  pm25co2.o ABSOLUTE
    src\sensor\src\PT100DTU.c                0x00000000   Number         0  pt100dtu.o ABSOLUTE
    src\sensor\src\SHT20.c                   0x00000000   Number         0  sht20.o ABSOLUTE
    src\sensor\src\ZWD433B.c                 0x00000000   Number         0  zwd433b.o ABSOLUTE
    src\usr\src\Device.c                     0x00000000   Number         0  device.o ABSOLUTE
    src\usr\src\SysButton.c                  0x00000000   Number         0  sysbutton.o ABSOLUTE
    src\usr\src\SysPoll.c                    0x00000000   Number         0  syspoll.o ABSOLUTE
    src\usr\src\SysTimer.c                   0x00000000   Number         0  systimer.o ABSOLUTE
    src\usr\src\app.c                        0x00000000   Number         0  app.o ABSOLUTE
    src\usr\src\main.c                       0x00000000   Number         0  main.o ABSOLUTE
    src\usr\src\main_module.c                0x00000000   Number         0  main_module.o ABSOLUTE
    src\usr\src\menuConfig.c                 0x00000000   Number         0  menuconfig.o ABSOLUTE
    src\usr\src\mlist.c                      0x00000000   Number         0  mlist.o ABSOLUTE
    src\usr\src\mqueue.c                     0x00000000   Number         0  mqueue.o ABSOLUTE
    src\usr\src\userSys.c                    0x00000000   Number         0  usersys.o ABSOLUTE
    stm32f10x_it.c                           0x00000000   Number         0  stm32f10x_it.o ABSOLUTE
    stm32f10x_it.c                           0x00000000   Number         0  stm32f10x_it.o ABSOLUTE
    RESET                                    0x08010000   Section      304  startup_stm32f10x_hd.o(RESET)
    !!!main                                  0x08010130   Section        8  __main.o(!!!main)
    !!!scatter                               0x08010138   Section       52  __scatter.o(!!!scatter)
    !!dczerorl2                              0x0801016c   Section       90  __dczerorl2.o(!!dczerorl2)
    !!handler_zi                             0x080101c8   Section       28  __scatter_zi.o(!!handler_zi)
    .ARM.Collect$$_printf_percent$$00000000  0x080101e4   Section        0  _printf_percent.o(.ARM.Collect$$_printf_percent$$00000000)
    .ARM.Collect$$_printf_percent$$00000001  0x080101e4   Section        6  _printf_n.o(.ARM.Collect$$_printf_percent$$00000001)
    .ARM.Collect$$_printf_percent$$00000002  0x080101ea   Section        6  _printf_p.o(.ARM.Collect$$_printf_percent$$00000002)
    .ARM.Collect$$_printf_percent$$00000003  0x080101f0   Section        6  _printf_f.o(.ARM.Collect$$_printf_percent$$00000003)
    .ARM.Collect$$_printf_percent$$00000004  0x080101f6   Section        6  _printf_e.o(.ARM.Collect$$_printf_percent$$00000004)
    .ARM.Collect$$_printf_percent$$00000005  0x080101fc   Section        6  _printf_g.o(.ARM.Collect$$_printf_percent$$00000005)
    .ARM.Collect$$_printf_percent$$00000006  0x08010202   Section        6  _printf_a.o(.ARM.Collect$$_printf_percent$$00000006)
    .ARM.Collect$$_printf_percent$$00000007  0x08010208   Section       10  _printf_ll.o(.ARM.Collect$$_printf_percent$$00000007)
    .ARM.Collect$$_printf_percent$$00000008  0x08010212   Section        6  _printf_i.o(.ARM.Collect$$_printf_percent$$00000008)
    .ARM.Collect$$_printf_percent$$00000009  0x08010218   Section        6  _printf_d.o(.ARM.Collect$$_printf_percent$$00000009)
    .ARM.Collect$$_printf_percent$$0000000A  0x0801021e   Section        6  _printf_u.o(.ARM.Collect$$_printf_percent$$0000000A)
    .ARM.Collect$$_printf_percent$$0000000B  0x08010224   Section        6  _printf_o.o(.ARM.Collect$$_printf_percent$$0000000B)
    .ARM.Collect$$_printf_percent$$0000000C  0x0801022a   Section        6  _printf_x.o(.ARM.Collect$$_printf_percent$$0000000C)
    .ARM.Collect$$_printf_percent$$0000000D  0x08010230   Section        6  _printf_lli.o(.ARM.Collect$$_printf_percent$$0000000D)
    .ARM.Collect$$_printf_percent$$0000000E  0x08010236   Section        6  _printf_lld.o(.ARM.Collect$$_printf_percent$$0000000E)
    .ARM.Collect$$_printf_percent$$0000000F  0x0801023c   Section        6  _printf_llu.o(.ARM.Collect$$_printf_percent$$0000000F)
    .ARM.Collect$$_printf_percent$$00000010  0x08010242   Section        6  _printf_llo.o(.ARM.Collect$$_printf_percent$$00000010)
    .ARM.Collect$$_printf_percent$$00000011  0x08010248   Section        6  _printf_llx.o(.ARM.Collect$$_printf_percent$$00000011)
    .ARM.Collect$$_printf_percent$$00000012  0x0801024e   Section       10  _printf_l.o(.ARM.Collect$$_printf_percent$$00000012)
    .ARM.Collect$$_printf_percent$$00000013  0x08010258   Section        6  _printf_c.o(.ARM.Collect$$_printf_percent$$00000013)
    .ARM.Collect$$_printf_percent$$00000014  0x0801025e   Section        6  _printf_s.o(.ARM.Collect$$_printf_percent$$00000014)
    .ARM.Collect$$_printf_percent$$00000015  0x08010264   Section        6  _printf_lc.o(.ARM.Collect$$_printf_percent$$00000015)
    .ARM.Collect$$_printf_percent$$00000016  0x0801026a   Section        6  _printf_ls.o(.ARM.Collect$$_printf_percent$$00000016)
    .ARM.Collect$$_printf_percent$$00000017  0x08010270   Section        4  _printf_percent_end.o(.ARM.Collect$$_printf_percent$$00000017)
    .ARM.Collect$$libinit$$00000000          0x08010274   Section        2  libinit.o(.ARM.Collect$$libinit$$00000000)
    .ARM.Collect$$libinit$$00000002          0x08010276   Section        0  libinit2.o(.ARM.Collect$$libinit$$00000002)
    .ARM.Collect$$libinit$$00000004          0x08010276   Section        0  libinit2.o(.ARM.Collect$$libinit$$00000004)
    .ARM.Collect$$libinit$$00000005          0x08010276   Section        8  libinit2.o(.ARM.Collect$$libinit$$00000005)
    .ARM.Collect$$libinit$$0000000A          0x0801027e   Section        0  libinit2.o(.ARM.Collect$$libinit$$0000000A)
    .ARM.Collect$$libinit$$0000000C          0x0801027e   Section        0  libinit2.o(.ARM.Collect$$libinit$$0000000C)
    .ARM.Collect$$libinit$$0000000D          0x0801027e   Section        4  libinit2.o(.ARM.Collect$$libinit$$0000000D)
    .ARM.Collect$$libinit$$0000000E          0x08010282   Section        0  libinit2.o(.ARM.Collect$$libinit$$0000000E)
    .ARM.Collect$$libinit$$0000000F          0x08010282   Section        6  libinit2.o(.ARM.Collect$$libinit$$0000000F)
    .ARM.Collect$$libinit$$00000011          0x08010288   Section        0  libinit2.o(.ARM.Collect$$libinit$$00000011)
    .ARM.Collect$$libinit$$00000012          0x08010288   Section       12  libinit2.o(.ARM.Collect$$libinit$$00000012)
    .ARM.Collect$$libinit$$00000013          0x08010294   Section        0  libinit2.o(.ARM.Collect$$libinit$$00000013)
    .ARM.Collect$$libinit$$00000015          0x08010294   Section        0  libinit2.o(.ARM.Collect$$libinit$$00000015)
    .ARM.Collect$$libinit$$00000016          0x08010294   Section       10  libinit2.o(.ARM.Collect$$libinit$$00000016)
    .ARM.Collect$$libinit$$00000017          0x0801029e   Section        0  libinit2.o(.ARM.Collect$$libinit$$00000017)
    .ARM.Collect$$libinit$$00000019          0x0801029e   Section        0  libinit2.o(.ARM.Collect$$libinit$$00000019)
    .ARM.Collect$$libinit$$0000001B          0x0801029e   Section        0  libinit2.o(.ARM.Collect$$libinit$$0000001B)
    .ARM.Collect$$libinit$$0000001D          0x0801029e   Section        0  libinit2.o(.ARM.Collect$$libinit$$0000001D)
    .ARM.Collect$$libinit$$0000001F          0x0801029e   Section        0  libinit2.o(.ARM.Collect$$libinit$$0000001F)
    .ARM.Collect$$libinit$$00000021          0x0801029e   Section        0  libinit2.o(.ARM.Collect$$libinit$$00000021)
    .ARM.Collect$$libinit$$00000023          0x0801029e   Section        0  libinit2.o(.ARM.Collect$$libinit$$00000023)
    .ARM.Collect$$libinit$$00000025          0x0801029e   Section        0  libinit2.o(.ARM.Collect$$libinit$$00000025)
    .ARM.Collect$$libinit$$0000002C          0x0801029e   Section        0  libinit2.o(.ARM.Collect$$libinit$$0000002C)
    .ARM.Collect$$libinit$$0000002E          0x0801029e   Section        0  libinit2.o(.ARM.Collect$$libinit$$0000002E)
    .ARM.Collect$$libinit$$00000030          0x0801029e   Section        0  libinit2.o(.ARM.Collect$$libinit$$00000030)
    .ARM.Collect$$libinit$$00000032          0x0801029e   Section        0  libinit2.o(.ARM.Collect$$libinit$$00000032)
    .ARM.Collect$$libinit$$00000033          0x0801029e   Section        2  libinit2.o(.ARM.Collect$$libinit$$00000033)
    .ARM.Collect$$libshutdown$$00000000      0x080102a0   Section        2  libshutdown.o(.ARM.Collect$$libshutdown$$00000000)
    .ARM.Collect$$libshutdown$$00000002      0x080102a2   Section        0  libshutdown2.o(.ARM.Collect$$libshutdown$$00000002)
    .ARM.Collect$$libshutdown$$00000004      0x080102a2   Section        0  libshutdown2.o(.ARM.Collect$$libshutdown$$00000004)
    .ARM.Collect$$libshutdown$$00000007      0x080102a2   Section        0  libshutdown2.o(.ARM.Collect$$libshutdown$$00000007)
    .ARM.Collect$$libshutdown$$0000000A      0x080102a2   Section        0  libshutdown2.o(.ARM.Collect$$libshutdown$$0000000A)
    .ARM.Collect$$libshutdown$$0000000C      0x080102a2   Section        0  libshutdown2.o(.ARM.Collect$$libshutdown$$0000000C)
    .ARM.Collect$$libshutdown$$0000000F      0x080102a2   Section        0  libshutdown2.o(.ARM.Collect$$libshutdown$$0000000F)
    .ARM.Collect$$libshutdown$$00000010      0x080102a2   Section        2  libshutdown2.o(.ARM.Collect$$libshutdown$$00000010)
    .ARM.Collect$$rtentry$$00000000          0x080102a4   Section        0  __rtentry.o(.ARM.Collect$$rtentry$$00000000)
    .ARM.Collect$$rtentry$$00000002          0x080102a4   Section        0  __rtentry2.o(.ARM.Collect$$rtentry$$00000002)
    .ARM.Collect$$rtentry$$00000004          0x080102a4   Section        6  __rtentry4.o(.ARM.Collect$$rtentry$$00000004)
    .ARM.Collect$$rtentry$$00000009          0x080102aa   Section        0  __rtentry2.o(.ARM.Collect$$rtentry$$00000009)
    .ARM.Collect$$rtentry$$0000000A          0x080102aa   Section        4  __rtentry2.o(.ARM.Collect$$rtentry$$0000000A)
    .ARM.Collect$$rtentry$$0000000C          0x080102ae   Section        0  __rtentry2.o(.ARM.Collect$$rtentry$$0000000C)
    .ARM.Collect$$rtentry$$0000000D          0x080102ae   Section        8  __rtentry2.o(.ARM.Collect$$rtentry$$0000000D)
    .ARM.Collect$$rtexit$$00000000           0x080102b6   Section        2  rtexit.o(.ARM.Collect$$rtexit$$00000000)
    .ARM.Collect$$rtexit$$00000002           0x080102b8   Section        0  rtexit2.o(.ARM.Collect$$rtexit$$00000002)
    .ARM.Collect$$rtexit$$00000003           0x080102b8   Section        4  rtexit2.o(.ARM.Collect$$rtexit$$00000003)
    .ARM.Collect$$rtexit$$00000004           0x080102bc   Section        6  rtexit2.o(.ARM.Collect$$rtexit$$00000004)
    .emb_text                                0x080102c4   Section       52  rand.o(.emb_text)
    .emb_text                                0x080102f8   Section        0  maybetermalloc1.o(.emb_text)
    .text                                    0x080102f8   Section        0  stm32f10x_it.o(.text)
    .text                                    0x08010320   Section        0  misc.o(.text)
    .text                                    0x080103fc   Section        0  os_timer.o(.text)
    _timer_list_foreach                      0x0801040b   Thumb Code    98  os_timer.o(.text)
    .text                                    0x080105ac   Section        0  hal.o(.text)
    .text                                    0x080106f0   Section        0  hal_aes.o(.text)
    getSBoxValue                             0x080106f1   Thumb Code     8  hal_aes.o(.text)
    getSBoxInvert                            0x080106f9   Thumb Code     8  hal_aes.o(.text)
    KeyExpansion                             0x08010701   Thumb Code   344  hal_aes.o(.text)
    AddRoundKey                              0x08010859   Thumb Code    60  hal_aes.o(.text)
    SubBytes                                 0x08010895   Thumb Code    48  hal_aes.o(.text)
    ShiftRows                                0x080108c5   Thumb Code    64  hal_aes.o(.text)
    xtime                                    0x08010905   Thumb Code    20  hal_aes.o(.text)
    MixColumns                               0x08010919   Thumb Code   198  hal_aes.o(.text)
    InvMixColumns                            0x080109df   Thumb Code  1192  hal_aes.o(.text)
    InvSubBytes                              0x08010e87   Thumb Code    48  hal_aes.o(.text)
    InvShiftRows                             0x08010eb7   Thumb Code    60  hal_aes.o(.text)
    Cipher                                   0x08010ef3   Thumb Code   150  hal_aes.o(.text)
    InvCipher                                0x08010f89   Thumb Code   140  hal_aes.o(.text)
    setKey                                   0x08011015   Thumb Code    14  hal_aes.o(.text)
    AES128_ECB_encrypt                       0x08011023   Thumb Code    20  hal_aes.o(.text)
    AES128_ECB_decrypt                       0x08011037   Thumb Code    20  hal_aes.o(.text)
    numToBigEndian                           0x0801104b   Thumb Code    70  hal_aes.o(.text)
    .text                                    0x080111e0   Section        0  hal_flash.o(.text)
    HalBufferToData                          0x080111e1   Thumb Code    24  hal_flash.o(.text)
    HalFlashErasePage                        0x080111f9   Thumb Code    22  hal_flash.o(.text)
    .text                                    0x080112c4   Section        0  hal_led.o(.text)
    HalLedBlinkHandle                        0x0801142d   Thumb Code   146  hal_led.o(.text)
    .text                                    0x08011588   Section        0  hal_rnd.o(.text)
    .text                                    0x080115cc   Section        0  hal_timer.o(.text)
    .text                                    0x080115dc   Section        0  hal_wait.o(.text)
    hal_wait_TIM_config_ms                   0x080115dd   Thumb Code    62  hal_wait.o(.text)
    hal_wait_TIM_config_us                   0x0801161b   Thumb Code    62  hal_wait.o(.text)
    hal_wait_TIM_init                        0x08011659   Thumb Code    12  hal_wait.o(.text)
    .text                                    0x080116f4   Section        0  hal_wdt.o(.text)
    .text                                    0x08011724   Section        0  halgpio.o(.text)
    HalButtonInit                            0x08011725   Thumb Code    30  halgpio.o(.text)
    .text                                    0x0801178c   Section        0  halspi.o(.text)
    .text                                    0x08011acc   Section        0  haluart.o(.text)
    .text                                    0x080121d0   Section        0  hal_rtc.o(.text)
    .text                                    0x08012514   Section        0  cloud_helper.o(.text)
    data2Num                                 0x08012515   Thumb Code    40  cloud_helper.o(.text)
    getFrameLen                              0x080125c1   Thumb Code    12  cloud_helper.o(.text)
    calcChecksum                             0x0801266b   Thumb Code    30  cloud_helper.o(.text)
    recv_frame                               0x08012689   Thumb Code    54  cloud_helper.o(.text)
    send_data                                0x080126bf   Thumb Code    70  cloud_helper.o(.text)
    send_frame                               0x08012705   Thumb Code    70  cloud_helper.o(.text)
    handle_request_config                    0x0801274b   Thumb Code    84  cloud_helper.o(.text)
    comm_test                                0x0801279f   Thumb Code    46  cloud_helper.o(.text)
    handle_operation                         0x080127cd   Thumb Code   150  cloud_helper.o(.text)
    handle_heartbeat                         0x08012863   Thumb Code    44  cloud_helper.o(.text)
    privateInfoReport                        0x080128c3   Thumb Code   374  cloud_helper.o(.text)
    handle_ssid_ret                          0x08012a39   Thumb Code    50  cloud_helper.o(.text)
    handle_rom_upgrade                       0x08012a83   Thumb Code   204  cloud_helper.o(.text)
    build_property                           0x08012b5f   Thumb Code   156  cloud_helper.o(.text)
    handle_recv                              0x08012bfb   Thumb Code   586  cloud_helper.o(.text)
    .text                                    0x08013304   Section        0  moduletester.o(.text)
    check_wm_sht_status                      0x08013305   Thumb Code   374  moduletester.o(.text)
    RomDataProcess                           0x0801347b   Thumb Code     2  moduletester.o(.text)
    RomInfoProcess                           0x0801347d   Thumb Code   286  moduletester.o(.text)
    chEventHandler                           0x0801359b   Thumb Code   828  moduletester.o(.text)
    chUartWrite                              0x080138d7   Thumb Code    18  moduletester.o(.text)
    getButtonState                           0x080138e9   Thumb Code    32  moduletester.o(.text)
    buttonHandler                            0x08013909   Thumb Code   202  moduletester.o(.text)
    uartRecv                                 0x080139d3   Thumb Code    18  moduletester.o(.text)
    syncProperties_all                       0x08013ae7   Thumb Code     2  moduletester.o(.text)
    syncProperties_all_record                0x08013b29   Thumb Code   648  moduletester.o(.text)
    PowerAndLedCtrl                          0x08013db1   Thumb Code    24  moduletester.o(.text)
    RtcTimerProcess                          0x08013dc9   Thumb Code    82  moduletester.o(.text)
    .text                                    0x08013e70   Section        0  app.o(.text)
    .text                                    0x08013f94   Section        0  device.o(.text)
    setProperty                              0x0801426b   Thumb Code    92  device.o(.text)
    statusParseToAlarm                       0x080142c7   Thumb Code   570  device.o(.text)
    cmd_heartbeat_handler                    0x08014573   Thumb Code   256  device.o(.text)
    cmd_notify_handler                       0x08014673   Thumb Code   236  device.o(.text)
    GatewayDeviceRealCountChanged            0x0801475f   Thumb Code    46  device.o(.text)
    GatewayDevicesOffline                    0x080151d5   Thumb Code   466  device.o(.text)
    initMainModule                           0x080153a7   Thumb Code   130  device.o(.text)
    initDevices                              0x08015429   Thumb Code    50  device.o(.text)
    addDevDone                               0x080154fd   Thumb Code   158  device.o(.text)
    .text                                    0x080156ec   Section        0  main.o(.text)
    .text                                    0x0801571c   Section        0  main_module.o(.text)
    _request_addr_led_blink                  0x08015729   Thumb Code    24  main_module.o(.text)
    _request_addr                            0x08015741   Thumb Code    26  main_module.o(.text)
    _buildnet_led_blink                      0x08015891   Thumb Code    28  main_module.o(.text)
    .text                                    0x08015d4c   Section        0  mlist.o(.text)
    .text                                    0x08015e94   Section        0  mqueue.o(.text)
    .text                                    0x08015f50   Section        0  sysbutton.o(.text)
    handleButton                             0x08015f59   Thumb Code    68  sysbutton.o(.text)
    .text                                    0x08016014   Section        0  syspoll.o(.text)
    .text                                    0x080160f4   Section        0  systimer.o(.text)
    timerExecute                             0x080160f7   Thumb Code    40  systimer.o(.text)
    .text                                    0x080161f8   Section        0  usersys.o(.text)
    .text                                    0x080164bc   Section        0  menuconfig.o(.text)
    MenuConfigWrite                          0x08016633   Thumb Code    18  menuconfig.o(.text)
    handleDebug                              0x0801667f   Thumb Code    86  menuconfig.o(.text)
    echoHelpInfo                             0x080166d5   Thumb Code    38  menuconfig.o(.text)
    echoSelectInfo                           0x080166fb   Thumb Code    56  menuconfig.o(.text)
    echoConfigInfo                           0x08016733   Thumb Code   902  menuconfig.o(.text)
    parseSetConfig                           0x08016ab9   Thumb Code   534  menuconfig.o(.text)
    handleSetConfig                          0x08016ccf   Thumb Code   154  menuconfig.o(.text)
    MenuConfigHandle                         0x08016d69   Thumb Code   154  menuconfig.o(.text)
    .text                                    0x08016ffc   Section        0  link.o(.text)
    _response_link                           0x08016ffd   Thumb Code    38  link.o(.text)
    _link_response_deal                      0x08017023   Thumb Code    50  link.o(.text)
    .text                                    0x0801728c   Section        0  net.o(.text)
    .text                                    0x080172a8   Section        0  nwk.o(.text)
    _recv_list_del                           0x08017317   Thumb Code    24  nwk.o(.text)
    _subcache_list_find                      0x0801732f   Thumb Code    22  nwk.o(.text)
    _addto_subcache                          0x08017345   Thumb Code   142  nwk.o(.text)
    _relay_the_frame                         0x08017777   Thumb Code   114  nwk.o(.text)
    _subcache_list_foreach                   0x08017a4f   Thumb Code    44  nwk.o(.text)
    _recv_list_foreach                       0x08017a7b   Thumb Code    62  nwk.o(.text)
    .text                                    0x08017b8c   Section        0  phy.o(.text)
    phy_delay                                0x08017c6d   Thumb Code    26  phy.o(.text)
    _radio_set_mode                          0x08017c87   Thumb Code   140  phy.o(.text)
    Delay                                    0x08018157   Thumb Code    24  phy.o(.text)
    .text                                    0x08018968   Section        0  halsensor.o(.text)
    echo_sensor_info                         0x08018969   Thumb Code    14  halsensor.o(.text)
    .text                                    0x080189bc   Section        0  ddzy747.o(.text)
    DDYZ747DataPrase                         0x080189bd   Thumb Code   498  ddzy747.o(.text)
    checkSum                                 0x08018baf   Thumb Code    28  ddzy747.o(.text)
    DDYZ7474MeterRecvByte                    0x08018bcb   Thumb Code   194  ddzy747.o(.text)
    DDYZ7474MeterRecvDate                    0x08018c8d   Thumb Code    26  ddzy747.o(.text)
    DDYZ7474DataSend                         0x08018ccb   Thumb Code   152  ddzy747.o(.text)
    .text                                    0x08018f24   Section        0  meter.o(.text)
    FlowMeterInit                            0x08018f25   Thumb Code    36  meter.o(.text)
    ElecMeterInit                            0x08018f49   Thumb Code    36  meter.o(.text)
    ElecMeter2Query                          0x0801903d   Thumb Code   196  meter.o(.text)
    FlowMeterQuery                           0x08019113   Thumb Code   196  meter.o(.text)
    ElecMeterQuery                           0x080191d7   Thumb Code   196  meter.o(.text)
    .text                                    0x0801986c   Section        0  fld_r_lsh.o(.text)
    transTempToText                          0x0801986d   Thumb Code   160  fld_r_lsh.o(.text)
    FLDMeterDataPrase                        0x0801990d   Thumb Code   618  fld_r_lsh.o(.text)
    FLDMeterRecvDate                         0x08019b77   Thumb Code    42  fld_r_lsh.o(.text)
    .text                                    0x08019d20   Section        0  modbus.o(.text)
    .text                                    0x0801a0a4   Section        0  pt100dtu.o(.text)
    queryPT100DTUInfo                        0x0801a0a5   Thumb Code    80  pt100dtu.o(.text)
    transTempToText                          0x0801a0f5   Thumb Code   160  pt100dtu.o(.text)
    PT100DataPrase                           0x0801a195   Thumb Code   356  pt100dtu.o(.text)
    pt100modbusRecvHandle                    0x0801a2f9   Thumb Code   256  pt100dtu.o(.text)
    PT100DTURecvDate                         0x0801a3f9   Thumb Code    38  pt100dtu.o(.text)
    .text                                    0x0801a6a8   Section        0  zwd433b.o(.text)
    ZWD433BDataPrase                         0x0801a6a9   Thumb Code   514  zwd433b.o(.text)
    ZWD433BRecvDate                          0x0801a8ab   Thumb Code    30  zwd433b.o(.text)
    .text                                    0x0801ab80   Section        0  dtsf667.o(.text)
    DTSF667DataPrase                         0x0801ab81   Thumb Code   748  dtsf667.o(.text)
    checkSum                                 0x0801ae6d   Thumb Code    28  dtsf667.o(.text)
    DTSF667MeterRecvByte                     0x0801ae89   Thumb Code   588  dtsf667.o(.text)
    DTSF667MeterRecvDate                     0x0801b0d5   Thumb Code    26  dtsf667.o(.text)
    DTSF667DataSend                          0x0801b111   Thumb Code   152  dtsf667.o(.text)
    .text                                    0x0801b2fc   Section        0  handheld1.o(.text)
    HandHeld1DataPrase                       0x0801b2fd   Thumb Code   504  handheld1.o(.text)
    HandHeld1RecvDate                        0x0801b4f5   Thumb Code    30  handheld1.o(.text)
    .text                                    0x0801b69c   Section        0  ff.o(.text)
    move_window                              0x0801b69d   Thumb Code   126  ff.o(.text)
    sync                                     0x0801b71b   Thumb Code   220  ff.o(.text)
    get_cluster                              0x0801b7f7   Thumb Code   284  ff.o(.text)
    put_cluster                              0x0801b913   Thumb Code   326  ff.o(.text)
    remove_chain                             0x0801ba59   Thumb Code    76  ff.o(.text)
    create_chain                             0x0801baa5   Thumb Code   176  ff.o(.text)
    clust2sect                               0x0801bb55   Thumb Code    28  ff.o(.text)
    next_dir_entry                           0x0801bb71   Thumb Code    96  ff.o(.text)
    get_fileinfo                             0x0801bbd1   Thumb Code   172  ff.o(.text)
    make_dirfile                             0x0801bc7d   Thumb Code   270  ff.o(.text)
    trace_path                               0x0801bd8b   Thumb Code   250  ff.o(.text)
    reserve_direntry                         0x0801be85   Thumb Code   224  ff.o(.text)
    check_fs                                 0x0801bf65   Thumb Code   102  ff.o(.text)
    auto_mount                               0x0801bfcb   Thumb Code   752  ff.o(.text)
    validate                                 0x0801c2bb   Thumb Code    46  ff.o(.text)
    .text                                    0x0801d950   Section        0  sdc_diskio.o(.text)
    SPI_ReadWrite_Byte                       0x0801e2b5   Thumb Code    12  sdc_diskio.o(.text)
    Wait_Ready                               0x0801e2c1   Thumb Code    40  sdc_diskio.o(.text)
    SPI_Release                              0x0801e2e9   Thumb Code    18  sdc_diskio.o(.text)
    Receive_DataBlock                        0x0801e2ff   Thumb Code    78  sdc_diskio.o(.text)
    Send_Command                             0x0801e34d   Thumb Code   158  sdc_diskio.o(.text)
    .text                                    0x0801e7c0   Section        0  sdcardrecord.o(.text)
    getRecordFilePath                        0x0801e829   Thumb Code    72  sdcardrecord.o(.text)
    getRecordFileNextPath                    0x0801e871   Thumb Code   352  sdcardrecord.o(.text)
    RecordReportProess                       0x0801ea61   Thumb Code   788  sdcardrecord.o(.text)
    makeRecordFilePath                       0x0801ee61   Thumb Code    96  sdcardrecord.o(.text)
    .text                                    0x0801f1d0   Section        0  property.o(.text)
    .text                                    0x0801f1fc   Section        0  outdoorpid.o(.text)
    Pid                                      0x0801f223   Thumb Code   254  outdoorpid.o(.text)
    trans_property_by_text                   0x0801f321   Thumb Code   336  outdoorpid.o(.text)
    .text                                    0x0801fae0   Section        0  stm32f10x_bkp.o(.text)
    .text                                    0x0801fba4   Section        0  stm32f10x_exti.o(.text)
    .text                                    0x0801fcc0   Section        0  stm32f10x_flash.o(.text)
    .text                                    0x0802027c   Section        0  stm32f10x_gpio.o(.text)
    .text                                    0x080205d8   Section        0  stm32f10x_iwdg.o(.text)
    .text                                    0x08020618   Section        0  stm32f10x_pwr.o(.text)
    .text                                    0x080206e4   Section        0  stm32f10x_rcc.o(.text)
    .text                                    0x08020a88   Section        0  stm32f10x_rtc.o(.text)
    .text                                    0x08020bd0   Section        0  stm32f10x_spi.o(.text)
    .text                                    0x08020edc   Section        0  stm32f10x_tim.o(.text)
    TI4_Config                               0x08021383   Thumb Code   130  stm32f10x_tim.o(.text)
    TI3_Config                               0x08021417   Thumb Code   122  stm32f10x_tim.o(.text)
    TI2_Config                               0x080214ab   Thumb Code   130  stm32f10x_tim.o(.text)
    TI1_Config                               0x0802153f   Thumb Code   108  stm32f10x_tim.o(.text)
    .text                                    0x08021cf8   Section        0  stm32f10x_usart.o(.text)
    .text                                    0x08022100   Section        0  dma_stm32f10x.o(.text)
    NVIC_EnableIRQ                           0x0802257d   Thumb Code    22  dma_stm32f10x.o(.text)
    NVIC_DisableIRQ                          0x08022593   Thumb Code    18  dma_stm32f10x.o(.text)
    NVIC_ClearPendingIRQ                     0x080225a5   Thumb Code    18  dma_stm32f10x.o(.text)
    .text                                    0x080225c4   Section       64  startup_stm32f10x_hd.o(.text)
    .text                                    0x08022604   Section        0  system_stm32f10x.o(.text)
    SetSysClockTo72                          0x08022605   Thumb Code   214  system_stm32f10x.o(.text)
    SetSysClock                              0x080226db   Thumb Code     8  system_stm32f10x.o(.text)
    .text                                    0x080227e4   Section        0  h1_alloc.o(.text)
    .text                                    0x08022842   Section        0  h1_free.o(.text)
    .text                                    0x08022890   Section        0  vsprintf.o(.text)
    .text                                    0x080228b4   Section        0  __2printf.o(.text)
    .text                                    0x080228cc   Section        0  __2sprintf.o(.text)
    .text                                    0x080228f8   Section        0  _printf_pad.o(.text)
    .text                                    0x08022946   Section        0  _printf_str.o(.text)
    .text                                    0x08022998   Section        0  _printf_dec.o(.text)
    .text                                    0x08022a10   Section        0  _printf_hex_int_ll_ptr.o(.text)
    _printf_hex_common                       0x08022a11   Thumb Code     0  _printf_hex_int_ll_ptr.o(.text)
    .text                                    0x08022aa4   Section        0  __printf_flags_ss_wp.o(.text)
    .text                                    0x08022c2c   Section        0  atoi.o(.text)
    .text                                    0x08022c48   Section        0  rand.o(.text)
    .text                                    0x08022c84   Section        0  strchr.o(.text)
    .text                                    0x08022c98   Section        0  strstr.o(.text)
    .text                                    0x08022cbc   Section        0  memcmp.o(.text)
    .text                                    0x08022d14   Section        0  strcpy.o(.text)
    .text                                    0x08022d5c   Section        0  strlen.o(.text)
    .text                                    0x08022d9a   Section      138  rt_memcpy_v6.o(.text)
    .text                                    0x08022e24   Section      100  rt_memcpy_w.o(.text)
    .text                                    0x08022e88   Section       16  aeabi_memset.o(.text)
    .text                                    0x08022e98   Section       68  rt_memclr.o(.text)
    .text                                    0x08022edc   Section       78  rt_memclr_w.o(.text)
    .text                                    0x08022f2c   Section      128  strcmpv7m.o(.text)
    .text                                    0x08022fac   Section        0  heapauxi.o(.text)
    .text                                    0x08022fb4   Section        8  rt_heap_descriptor_intlibspace.o(.text)
    .text                                    0x08022fbc   Section        8  rt_errno_addr_intlibspace.o(.text)
    .text                                    0x08022fc4   Section        0  hguard.o(.text)
    .text                                    0x08022fc8   Section        0  init_alloc.o(.text)
    .text                                    0x08023052   Section        0  h1_init.o(.text)
    .text                                    0x08023060   Section        0  _printf_truncate.o(.text)
    .text                                    0x08023084   Section        0  _printf_intcommon.o(.text)
    .text                                    0x08023136   Section        0  _printf_charcount.o(.text)
    .text                                    0x0802315e   Section        0  _printf_fp_dec.o(.text)
    _fp_digits                               0x08023161   Thumb Code   428  _printf_fp_dec.o(.text)
    .text                                    0x08023578   Section        0  _printf_char_common.o(.text)
    _printf_input_char                       0x08023579   Thumb Code    10  _printf_char_common.o(.text)
    .text                                    0x080235a8   Section        0  _sputc.o(.text)
    .text                                    0x080235b2   Section        0  _printf_char.o(.text)
    .text                                    0x080235e0   Section        0  _printf_char_file.o(.text)
    .text                                    0x08023604   Section        0  _printf_wctomb.o(.text)
    .text                                    0x080236c0   Section        0  _printf_longlong_dec.o(.text)
    .text                                    0x0802373c   Section        0  _printf_oct_int_ll.o(.text)
    _printf_longlong_oct_internal            0x0802373d   Thumb Code     0  _printf_oct_int_ll.o(.text)
    .text                                    0x080237ac   Section        0  strtol.o(.text)
    .text                                    0x0802381c   Section        8  libspace.o(.text)
    .text                                    0x08023824   Section       16  rt_ctype_table.o(.text)
    .text                                    0x08023834   Section        8  rt_locale_intlibspace.o(.text)
    .text                                    0x0802383c   Section        0  h1_extend.o(.text)
    .text                                    0x08023870   Section      138  lludiv10.o(.text)
    .text                                    0x080238fc   Section        0  _printf_fp_hex.o(.text)
    .text                                    0x08023bf8   Section        0  _printf_fp_infnan.o(.text)
    .text                                    0x08023c78   Section        0  _printf_wchar.o(.text)
    .text                                    0x08023ca4   Section        0  _strtoul.o(.text)
    .text                                    0x08023d44   Section        0  bigflt0.o(.text)
    .text                                    0x08023e20   Section        0  ferror.o(.text)
    .text                                    0x08023e28   Section        0  _wcrtomb.o(.text)
    .text                                    0x08023e68   Section        0  defsig_rtmem_outer.o(.text)
    .text                                    0x08023e76   Section        2  use_no_semi.o(.text)
    .text                                    0x08023e78   Section        0  indicate_semi.o(.text)
    .text                                    0x08023e78   Section       74  sys_stackheap_outer.o(.text)
    .text                                    0x08023ec2   Section        0  _chval.o(.text)
    .text                                    0x08023ede   Section        0  exit.o(.text)
    .text                                    0x08023ef0   Section        0  defsig_exit.o(.text)
    .text                                    0x08023efc   Section        0  defsig_rtmem_inner.o(.text)
    .text                                    0x08023f4c   Section        0  defsig_general.o(.text)
    .text                                    0x08023f7e   Section        0  sys_wrch.o(.text)
    CL$$btod_d2e                             0x08023f8c   Section       62  btod.o(CL$$btod_d2e)
    CL$$btod_d2e_denorm_low                  0x08023fca   Section       70  btod.o(CL$$btod_d2e_denorm_low)
    CL$$btod_d2e_norm_op1                    0x08024010   Section       96  btod.o(CL$$btod_d2e_norm_op1)
    CL$$btod_div_common                      0x08024070   Section      824  btod.o(CL$$btod_div_common)
    CL$$btod_e2e                             0x080243a8   Section      198  btod.o(CL$$btod_e2e)
    CL$$btod_ediv                            0x0802446e   Section       40  btod.o(CL$$btod_ediv)
    CL$$btod_emul                            0x08024496   Section       40  btod.o(CL$$btod_emul)
    CL$$btod_mult_common                     0x080244be   Section      580  btod.o(CL$$btod_mult_common)
    i.__ARM_fpclassify                       0x08024702   Section        0  fpclassify.o(i.__ARM_fpclassify)
    i._is_digit                              0x0802472a   Section        0  __printf_wp.o(i._is_digit)
    locale$$code                             0x08024738   Section       44  lc_numeric_c.o(locale$$code)
    locale$$code                             0x08024764   Section       44  lc_ctype_c.o(locale$$code)
    x$fpl$dretinf                            0x08024790   Section       12  dretinf.o(x$fpl$dretinf)
    x$fpl$f2d                                0x0802479c   Section       86  f2d.o(x$fpl$f2d)
    x$fpl$fcmpinf                            0x080247f2   Section       24  fcmpi.o(x$fpl$fcmpinf)
    x$fpl$fdiv                               0x0802480c   Section      388  fdiv.o(x$fpl$fdiv)
    _fdiv1                                   0x0802480d   Thumb Code     0  fdiv.o(x$fpl$fdiv)
    x$fpl$feqf                               0x08024990   Section      104  feqf.o(x$fpl$feqf)
    x$fpl$fnaninf                            0x080249f8   Section      140  fnaninf.o(x$fpl$fnaninf)
    x$fpl$fretinf                            0x08024a84   Section       10  fretinf.o(x$fpl$fretinf)
    x$fpl$printf1                            0x08024a8e   Section        4  printf1.o(x$fpl$printf1)
    x$fpl$printf2                            0x08024a92   Section        4  printf2.o(x$fpl$printf2)
    .constdata                               0x08024a96   Section       11  hal.o(.constdata)
    x$fpl$usenofp                            0x08024a96   Section        0  usenofp.o(x$fpl$usenofp)
    __func__                                 0x08024a96   Data          11  hal.o(.constdata)
    .constdata                               0x08024aa1   Section      767  hal_aes.o(.constdata)
    sbox                                     0x08024aa1   Data         256  hal_aes.o(.constdata)
    rsbox                                    0x08024ba1   Data         256  hal_aes.o(.constdata)
    Rcon                                     0x08024ca1   Data         255  hal_aes.o(.constdata)
    .constdata                               0x08024da0   Section       12  hal_rtc.o(.constdata)
    .constdata                               0x08024dac   Section       45  cloud_helper.o(.constdata)
    g_send_frame                             0x08024dac   Data           4  cloud_helper.o(.constdata)
    __func__                                 0x08024db0   Data          10  cloud_helper.o(.constdata)
    __func__                                 0x08024dba   Data          12  cloud_helper.o(.constdata)
    __func__                                 0x08024dc6   Data          19  cloud_helper.o(.constdata)
    .constdata                               0x08024dd9   Section       70  moduletester.o(.constdata)
    __func__                                 0x08024dd9   Data          26  moduletester.o(.constdata)
    __func__                                 0x08024df3   Data          15  moduletester.o(.constdata)
    __func__                                 0x08024e02   Data          14  moduletester.o(.constdata)
    __func__                                 0x08024e10   Data          15  moduletester.o(.constdata)
    .constdata                               0x08024e1f   Section      137  device.o(.constdata)
    __func__                                 0x08024e1f   Data          11  device.o(.constdata)
    __func__                                 0x08024e2a   Data          17  device.o(.constdata)
    __func__                                 0x08024e3b   Data          10  device.o(.constdata)
    __func__                                 0x08024e45   Data          21  device.o(.constdata)
    __func__                                 0x08024e5a   Data          22  device.o(.constdata)
    __func__                                 0x08024e70   Data          15  device.o(.constdata)
    __func__                                 0x08024e7f   Data          19  device.o(.constdata)
    __func__                                 0x08024e92   Data          22  device.o(.constdata)
    .constdata                               0x08024ea8   Section       65  main_module.o(.constdata)
    __func__                                 0x08024ea8   Data          20  main_module.o(.constdata)
    __FUNCTION__                             0x08024ebc   Data          23  main_module.o(.constdata)
    __func__                                 0x08024ed3   Data          22  main_module.o(.constdata)
    .constdata                               0x08024ee9   Section       21  usersys.o(.constdata)
    __func__                                 0x08024ee9   Data          21  usersys.o(.constdata)
    .constdata                               0x08024efe   Section        4  menuconfig.o(.constdata)
    .constdata                               0x08024f02   Section       13  nwk.o(.constdata)
    __func__                                 0x08024f02   Data          13  nwk.o(.constdata)
    .constdata                               0x08024f0f   Section       64  phy.o(.constdata)
    __func__                                 0x08024f0f   Data          11  phy.o(.constdata)
    __func__                                 0x08024f1a   Data           9  phy.o(.constdata)
    __func__                                 0x08024f23   Data          16  phy.o(.constdata)
    __func__                                 0x08024f33   Data           9  phy.o(.constdata)
    __func__                                 0x08024f3c   Data          19  phy.o(.constdata)
    .constdata                               0x08024f50   Section       78  ddzy747.o(.constdata)
    ELECREG_ACTIVE_POWER                     0x08024f50   Data           4  ddzy747.o(.constdata)
    ELECREG_VOLTAGE                          0x08024f54   Data           4  ddzy747.o(.constdata)
    ELECREG_CURRENT                          0x08024f58   Data           4  ddzy747.o(.constdata)
    ELECREG_INST_POWER                       0x08024f5c   Data           4  ddzy747.o(.constdata)
    ELECREG_PEAK_POWER                       0x08024f60   Data           4  ddzy747.o(.constdata)
    ELECREG_BOTTOM_POWER                     0x08024f64   Data           4  ddzy747.o(.constdata)
    ELECREG_FACTOR                           0x08024f68   Data           4  ddzy747.o(.constdata)
    __func__                                 0x08024f6c   Data          13  ddzy747.o(.constdata)
    __func__                                 0x08024f88   Data          22  ddzy747.o(.constdata)
    .constdata                               0x08024f9e   Section       46  meter.o(.constdata)
    __func__                                 0x08024f9e   Data          15  meter.o(.constdata)
    __func__                                 0x08024fad   Data          16  meter.o(.constdata)
    __func__                                 0x08024fbd   Data          15  meter.o(.constdata)
    .constdata                               0x08024fcc   Section       33  fld_r_lsh.o(.constdata)
    __func__                                 0x08024fcc   Data          15  fld_r_lsh.o(.constdata)
    __func__                                 0x08024fdb   Data          18  fld_r_lsh.o(.constdata)
    .constdata                               0x08024fed   Section       17  modbus.o(.constdata)
    __func__                                 0x08024fed   Data          17  modbus.o(.constdata)
    .constdata                               0x08024ffe   Section       37  pt100dtu.o(.constdata)
    __func__                                 0x08024ffe   Data          22  pt100dtu.o(.constdata)
    __func__                                 0x08025014   Data          15  pt100dtu.o(.constdata)
    .constdata                               0x08025023   Section       30  zwd433b.o(.constdata)
    __func__                                 0x08025023   Data          13  zwd433b.o(.constdata)
    __func__                                 0x08025030   Data          17  zwd433b.o(.constdata)
    .constdata                               0x08025044   Section       78  dtsf667.o(.constdata)
    ELECREG_ACTIVE_POWER                     0x08025044   Data           2  dtsf667.o(.constdata)
    ELECREG_VOLTAGE                          0x08025046   Data           2  dtsf667.o(.constdata)
    ELECREG_CURRENT                          0x08025048   Data           2  dtsf667.o(.constdata)
    ELECREG_INST_POWER                       0x0802504a   Data           2  dtsf667.o(.constdata)
    ELECREG_PEAK_POWER                       0x0802504c   Data           2  dtsf667.o(.constdata)
    ELECREG_BOTTOM_POWER                     0x0802504e   Data           2  dtsf667.o(.constdata)
    ELECREG_FACTOR                           0x08025050   Data           2  dtsf667.o(.constdata)
    __func__                                 0x08025052   Data          13  dtsf667.o(.constdata)
    __func__                                 0x0802506c   Data          21  dtsf667.o(.constdata)
    __func__                                 0x08025081   Data          17  dtsf667.o(.constdata)
    .constdata                               0x08025092   Section       34  handheld1.o(.constdata)
    __func__                                 0x08025092   Data          15  handheld1.o(.constdata)
    __func__                                 0x080250a1   Data          19  handheld1.o(.constdata)
    .constdata                               0x080250b4   Section      135  sdcardrecord.o(.constdata)
    __func__                                 0x080250b4   Data          17  sdcardrecord.o(.constdata)
    __func__                                 0x080250c5   Data          17  sdcardrecord.o(.constdata)
    __func__                                 0x080250d6   Data          15  sdcardrecord.o(.constdata)
    __func__                                 0x080250e5   Data          18  sdcardrecord.o(.constdata)
    __func__                                 0x080250f7   Data          19  sdcardrecord.o(.constdata)
    __func__                                 0x0802510a   Data          14  sdcardrecord.o(.constdata)
    __func__                                 0x08025118   Data          22  sdcardrecord.o(.constdata)
    __func__                                 0x0802512e   Data          13  sdcardrecord.o(.constdata)
    .constdata                               0x0802513b   Section        4  outdoorpid.o(.constdata)
    __func__                                 0x0802513b   Data           4  outdoorpid.o(.constdata)
    .constdata                               0x0802513f   Section       40  _printf_hex_int_ll_ptr.o(.constdata)
    uc_hextab                                0x0802513f   Data          20  _printf_hex_int_ll_ptr.o(.constdata)
    lc_hextab                                0x08025153   Data          20  _printf_hex_int_ll_ptr.o(.constdata)
    .constdata                               0x08025167   Section       17  __printf_flags_ss_wp.o(.constdata)
    maptable                                 0x08025167   Data          17  __printf_flags_ss_wp.o(.constdata)
    .constdata                               0x08025178   Section        8  _printf_wctomb.o(.constdata)
    initial_mbstate                          0x08025178   Data           8  _printf_wctomb.o(.constdata)
    .constdata                               0x08025180   Section       38  _printf_fp_hex.o(.constdata)
    lc_hextab                                0x08025180   Data          19  _printf_fp_hex.o(.constdata)
    uc_hextab                                0x08025193   Data          19  _printf_fp_hex.o(.constdata)
    .constdata                               0x080251a8   Section      148  bigflt0.o(.constdata)
    tenpwrs_x                                0x080251a8   Data          60  bigflt0.o(.constdata)
    tenpwrs_i                                0x080251e4   Data          64  bigflt0.o(.constdata)
    .conststring                             0x0802523c   Section      211  menuconfig.o(.conststring)
    .conststring                             0x08025310   Section       55  meter.o(.conststring)
    locale$$data                             0x08025368   Section       28  lc_numeric_c.o(locale$$data)
    __lcnum_c_name                           0x0802536c   Data           2  lc_numeric_c.o(locale$$data)
    __lcnum_c_start                          0x08025374   Data           0  lc_numeric_c.o(locale$$data)
    __lcnum_c_point                          0x08025380   Data           0  lc_numeric_c.o(locale$$data)
    __lcnum_c_thousands                      0x08025382   Data           0  lc_numeric_c.o(locale$$data)
    __lcnum_c_grouping                       0x08025383   Data           0  lc_numeric_c.o(locale$$data)
    locale$$data                             0x08025384   Section      272  lc_ctype_c.o(locale$$data)
    __lcnum_c_end                            0x08025384   Data           0  lc_numeric_c.o(locale$$data)
    __lcctype_c_name                         0x08025388   Data           2  lc_ctype_c.o(locale$$data)
    __lcctype_c_start                        0x08025390   Data           0  lc_ctype_c.o(locale$$data)
    __lcctype_c_end                          0x08025494   Data           0  lc_ctype_c.o(locale$$data)
    .data                                    0x20000100   Section        8  os_timer.o(.data)
    g_nettime                                0x20000100   Data           4  os_timer.o(.data)
    g_systime                                0x20000104   Data           4  os_timer.o(.data)
    .data                                    0x20000108   Section       13  hal_aes.o(.data)
    in                                       0x20000108   Data           4  hal_aes.o(.data)
    out                                      0x2000010c   Data           4  hal_aes.o(.data)
    Key                                      0x20000110   Data           4  hal_aes.o(.data)
    isBe                                     0x20000114   Data           1  hal_aes.o(.data)
    .data                                    0x20000116   Section        2  hal_rnd.o(.data)
    g_seed                                   0x20000116   Data           2  hal_rnd.o(.data)
    .data                                    0x20000118   Section        1  hal_wait.o(.data)
    g_waitType                               0x20000118   Data           1  hal_wait.o(.data)
    .data                                    0x2000011c   Section        4  haluart.o(.data)
    .data                                    0x20000120   Section        2  hal_rtc.o(.data)
    dayCount                                 0x20000120   Data           2  hal_rtc.o(.data)
    .data                                    0x20000124   Section       61  cloud_helper.o(.data)
    g_justResponseConfig                     0x20000124   Data           1  cloud_helper.o(.data)
    g_online                                 0x20000125   Data           1  cloud_helper.o(.data)
    g_wifi_status                            0x20000126   Data           1  cloud_helper.o(.data)
    g_wifi_cfg_type                          0x20000127   Data           1  cloud_helper.o(.data)
    g_wifi_signal                            0x20000128   Data           1  cloud_helper.o(.data)
    g_device_type                            0x20000129   Data           6  cloud_helper.o(.data)
    g_sys_time                               0x20000130   Data           4  cloud_helper.o(.data)
    g_last_recv_time                         0x20000134   Data           4  cloud_helper.o(.data)
    g_version                                0x20000138   Data           4  cloud_helper.o(.data)
    g_event_handler                          0x2000013c   Data           4  cloud_helper.o(.data)
    g_uart_write                             0x20000140   Data           4  cloud_helper.o(.data)
    g_recving_frame_buf_count                0x20000144   Data           1  cloud_helper.o(.data)
    g_frame_recved                           0x20000145   Data           1  cloud_helper.o(.data)
    g_use_jd_product_uuid                    0x20000146   Data           1  cloud_helper.o(.data)
    g_jd_product_uuid                        0x20000147   Data           7  cloud_helper.o(.data)
    g_use_wechat_devtype                     0x2000014e   Data           1  cloud_helper.o(.data)
    g_use_gm_type                            0x2000014f   Data           1  cloud_helper.o(.data)
    g_pro_test_start                         0x20000151   Data           1  cloud_helper.o(.data)
    g_pro_test_result                        0x20000152   Data           1  cloud_helper.o(.data)
    g_multiPropertyLen                       0x20000154   Data           2  cloud_helper.o(.data)
    g_historyLen                             0x20000158   Data           4  cloud_helper.o(.data)
    commTestTime                             0x2000015c   Data           4  cloud_helper.o(.data)
    first                                    0x20000160   Data           1  cloud_helper.o(.data)
    .data                                    0x20000164   Section       16  moduletester.o(.data)
    g_lastSyncTime                           0x20000164   Data           4  moduletester.o(.data)
    g_lastSyncMin                            0x20000168   Data           4  moduletester.o(.data)
    g_startSyncSec                           0x2000016c   Data           4  moduletester.o(.data)
    g_config                                 0x20000170   Data           4  moduletester.o(.data)
    .data                                    0x20000174   Section        8  device.o(.data)
    g_addDevDoneTimer                        0x20000174   Data           4  device.o(.data)
    alarmLevel                               0x20000178   Data           4  device.o(.data)
    .data                                    0x2000017c   Section        9  main_module.o(.data)
    g_led_blink_count                        0x2000017c   Data           2  main_module.o(.data)
    g_real_device_count                      0x2000017e   Data           1  main_module.o(.data)
    g_work_channel                           0x2000017f   Data           1  main_module.o(.data)
    g_work_state                             0x20000180   Data           1  main_module.o(.data)
    g_broadcast_times                        0x20000181   Data           1  main_module.o(.data)
    g_wakeup_dev_addr                        0x20000182   Data           1  main_module.o(.data)
    g_wakeup_dev_value                       0x20000183   Data           1  main_module.o(.data)
    g_isCheckMode                            0x20000184   Data           1  main_module.o(.data)
    .data                                    0x20000188   Section        4  sysbutton.o(.data)
    g_buttons                                0x20000188   Data           4  sysbutton.o(.data)
    .data                                    0x2000018c   Section        4  syspoll.o(.data)
    g_pollNum                                0x2000018c   Data           4  syspoll.o(.data)
    .data                                    0x20000190   Section       21  usersys.o(.data)
    g_sysInitComplete                        0x2000019f   Data           1  usersys.o(.data)
    g_utcTime                                0x200001a0   Data           4  usersys.o(.data)
    g_tcpSendLock                            0x200001a4   Data           1  usersys.o(.data)
    .data                                    0x200001a8   Section       72  menuconfig.o(.data)
    g_cmd                                    0x200001a8   Data          64  menuconfig.o(.data)
    g_menuconfigStart                        0x200001e8   Data           1  menuconfig.o(.data)
    g_recvCount                              0x200001e9   Data           1  menuconfig.o(.data)
    g_recvd                                  0x200001ea   Data           1  menuconfig.o(.data)
    g_lastRecvTime                           0x200001ec   Data           4  menuconfig.o(.data)
    .data                                    0x200001f0   Section       17  link.o(.data)
    g_link_busy                              0x200001f0   Data           1  link.o(.data)
    g_link_busy_time                         0x200001f4   Data           4  link.o(.data)
    g_link_hops                              0x200001f8   Data           1  link.o(.data)
    g_link_state                             0x200001f9   Data           1  link.o(.data)
    g_link_deal_time                         0x200001fc   Data           4  link.o(.data)
    g_link_is_stable                         0x20000200   Data           1  link.o(.data)
    .data                                    0x20000201   Section       12  nwk.o(.data)
    g_segaddr                                0x20000201   Data           4  nwk.o(.data)
    g_myaddr                                 0x20000205   Data           1  nwk.o(.data)
    g_role                                   0x20000206   Data           1  nwk.o(.data)
    g_sleepmode                              0x20000207   Data           1  nwk.o(.data)
    g_mesh_enable                            0x20000208   Data           1  nwk.o(.data)
    g_transmit_fail_count                    0x20000209   Data           1  nwk.o(.data)
    g_trans_id                               0x2000020a   Data           1  nwk.o(.data)
    g_ack_wait_info                          0x2000020b   Data           2  nwk.o(.data)
    .data                                    0x20000210   Section        9  phy.o(.data)
    g_lock_ctrl_buf                          0x20000210   Data           1  phy.o(.data)
    g_cc1101_id                              0x20000211   Data           1  phy.o(.data)
    g_lastRecvRFTime                         0x20000214   Data           4  phy.o(.data)
    g_rfAbnormalCount                        0x20000218   Data           1  phy.o(.data)
    .data                                    0x20000219   Section        4  ddzy747.o(.data)
    g_elecMeterRecvCount                     0x20000219   Data           1  ddzy747.o(.data)
    g_meterWorkAbnormal                      0x2000021a   Data           1  ddzy747.o(.data)
    elecQueryId                              0x2000021b   Data           1  ddzy747.o(.data)
    dataLen                                  0x2000021c   Data           1  ddzy747.o(.data)
    .data                                    0x20000220   Section       57  meter.o(.data)
    g_lastMeterQuery                         0x20000220   Data           4  meter.o(.data)
    g_eMeterStr                              0x20000224   Data          24  meter.o(.data)
    g_fMeterStr                              0x2000023c   Data          24  meter.o(.data)
    g_config                                 0x20000254   Data           4  meter.o(.data)
    meterQuery                               0x20000258   Data           1  meter.o(.data)
    .data                                    0x20000259   Section        1  fld_r_lsh.o(.data)
    g_meterWorkAbnormal                      0x20000259   Data           1  fld_r_lsh.o(.data)
    .data                                    0x2000025a   Section        2  modbus.o(.data)
    g_modbusRecvCount                        0x2000025a   Data           1  modbus.o(.data)
    dataLen                                  0x2000025b   Data           1  modbus.o(.data)
    .data                                    0x2000025c   Section        3  pt100dtu.o(.data)
    g_ptRecvCount                            0x2000025c   Data           1  pt100dtu.o(.data)
    g_pt100WorkAbnormal                      0x2000025d   Data           1  pt100dtu.o(.data)
    dataLen                                  0x2000025e   Data           1  pt100dtu.o(.data)
    .data                                    0x2000025f   Section        2  zwd433b.o(.data)
    g_ZWD433BWorkAbnormal                    0x2000025f   Data           1  zwd433b.o(.data)
    processID                                0x20000260   Data           1  zwd433b.o(.data)
    .data                                    0x20000261   Section        4  dtsf667.o(.data)
    g_elecMeterRecvCount                     0x20000261   Data           1  dtsf667.o(.data)
    g_meterWorkAbnormal                      0x20000262   Data           1  dtsf667.o(.data)
    elecQueryId                              0x20000263   Data           1  dtsf667.o(.data)
    dataLen                                  0x20000264   Data           1  dtsf667.o(.data)
    .data                                    0x20000265   Section        1  handheld1.o(.data)
    g_meterWorkAbnormal                      0x20000265   Data           1  handheld1.o(.data)
    .data                                    0x20000268   Section       10  ff.o(.data)
    FatFs                                    0x20000268   Data           8  ff.o(.data)
    fsid                                     0x20000270   Data           2  ff.o(.data)
    .data                                    0x20000274   Section       13  sdc_diskio.o(.data)
    Stat                                     0x20000274   Data           1  sdc_diskio.o(.data)
    CardType                                 0x20000275   Data           1  sdc_diskio.o(.data)
    .data                                    0x20000284   Section        8  sdcardrecord.o(.data)
    g_lasSDDet                               0x20000284   Data           1  sdcardrecord.o(.data)
    .data                                    0x2000028c   Section       16  outdoorpid.o(.data)
    g_config                                 0x2000028c   Data           4  outdoorpid.o(.data)
    g_moduleInfo                             0x20000290   Data           4  outdoorpid.o(.data)
    g_sht_device_status                      0x20000294   Data           4  outdoorpid.o(.data)
    g_sensorInfo                             0x20000298   Data           4  outdoorpid.o(.data)
    .data                                    0x2000029c   Section       20  stm32f10x_rcc.o(.data)
    APBAHBPrescTable                         0x2000029c   Data          16  stm32f10x_rcc.o(.data)
    ADCPrescTable                            0x200002ac   Data           4  stm32f10x_rcc.o(.data)
    .data                                    0x200002b0   Section        2  dma_stm32f10x.o(.data)
    DMA1_Channel                             0x200002b0   Data           1  dma_stm32f10x.o(.data)
    DMA2_Channel                             0x200002b1   Data           1  dma_stm32f10x.o(.data)
    .data                                    0x200002b4   Section       20  system_stm32f10x.o(.data)
    .bss                                     0x200002c8   Section      224  os_timer.o(.bss)
    g_timer_list                             0x200002c8   Data         224  os_timer.o(.bss)
    .bss                                     0x200003a8   Section      208  hal_aes.o(.bss)
    state                                    0x200003b8   Data          16  hal_aes.o(.bss)
    RoundKey                                 0x200003c8   Data         176  hal_aes.o(.bss)
    .bss                                     0x20000478   Section       60  hal_led.o(.bss)
    g_ledBlink                               0x20000478   Data          60  hal_led.o(.bss)
    .bss                                     0x200004b4   Section       20  haluart.o(.bss)
    g_uartCbs                                0x200004b4   Data          20  haluart.o(.bss)
    .bss                                     0x200004c8   Section       16  hal_rtc.o(.bss)
    g_rtcTime                                0x200004c8   Data          16  hal_rtc.o(.bss)
    .bss                                     0x200004d8   Section     3216  cloud_helper.o(.bss)
    g_device_pin                             0x200004d8   Data          33  cloud_helper.o(.bss)
    g_recving_frame_buf                      0x200004f9   Data        1031  cloud_helper.o(.bss)
    g_send_buf                               0x20000900   Data        1031  cloud_helper.o(.bss)
    g_wechat_devtype                         0x20000d07   Data          12  cloud_helper.o(.bss)
    g_gm_model                               0x20000d13   Data          12  cloud_helper.o(.bss)
    g_gm_pin                                 0x20000d1f   Data          33  cloud_helper.o(.bss)
    g_wifiSSID                               0x20000d40   Data          33  cloud_helper.o(.bss)
    g_historyData                            0x20000d61   Data        1031  cloud_helper.o(.bss)
    .bss                                     0x20001168   Section      248  moduletester.o(.bss)
    g_rtc_time                               0x20001168   Data          24  moduletester.o(.bss)
    g_ConfigButton                           0x20001180   Data          16  moduletester.o(.bss)
    g_gw_electInfo                           0x20001190   Data          44  moduletester.o(.bss)
    g_sht_device_status                      0x200011bc   Data          30  moduletester.o(.bss)
    g_sk_device_status                       0x200011dc   Data          60  moduletester.o(.bss)
    g_updateInfo                             0x20001218   Data          40  moduletester.o(.bss)
    g_rmoduleID                              0x20001240   Data          32  moduletester.o(.bss)
    .bss                                     0x20001260   Section       16  app.o(.bss)
    g_aes_key                                0x20001260   Data          16  app.o(.bss)
    .bss                                     0x20001270   Section      684  device.o(.bss)
    g_devices                                0x20001270   Data         576  device.o(.bss)
    g_SHT_device_status                      0x200014b0   Data          30  device.o(.bss)
    g_SK_device_status                       0x200014d0   Data          60  device.o(.bss)
    id                                       0x2000150c   Data          16  device.o(.bss)
    .bss                                     0x2000151c   Section      256  main_module.o(.bss)
    g_device_info                            0x2000151c   Data         256  main_module.o(.bss)
    .bss                                     0x2000161c   Section      120  syspoll.o(.bss)
    .bss                                     0x20001694   Section      400  systimer.o(.bss)
    g_timers                                 0x20001694   Data         400  systimer.o(.bss)
    .bss                                     0x20001824   Section     2048  usersys.o(.bss)
    secBuf                                   0x20001824   Data        2048  usersys.o(.bss)
    .bss                                     0x20002024   Section      215  menuconfig.o(.bss)
    g_menuconfigRecv                         0x20002024   Data         128  menuconfig.o(.bss)
    g_configInfo                             0x200020a4   Data          87  menuconfig.o(.bss)
    .bss                                     0x200020fb   Section      192  link.o(.bss)
    g_records                                0x200020fb   Data         192  link.o(.bss)
    .bss                                     0x200021bc   Section      580  nwk.o(.bss)
    g_ack_queue                              0x200021bc   Data          24  nwk.o(.bss)
    g_subcache_list                          0x200021d4   Data         120  nwk.o(.bss)
    g_my_subcache                            0x2000224c   Data          20  nwk.o(.bss)
    g_recv_list                              0x20002260   Data         352  nwk.o(.bss)
    g_addr_transid                           0x200023c0   Data          64  nwk.o(.bss)
    .bss                                     0x20002400   Section      229  phy.o(.bss)
    trans_longer                             0x20002400   Data          12  phy.o(.bss)
    g_ctrl_buf                               0x2000240c   Data          23  phy.o(.bss)
    g_tx_buf                                 0x20002423   Data         128  phy.o(.bss)
    g_rx_buf                                 0x200024a3   Data          66  phy.o(.bss)
    .bss                                     0x200024e8   Section       44  halsensor.o(.bss)
    g_sensorInfo                             0x200024e8   Data          44  halsensor.o(.bss)
    .bss                                     0x20002514   Section      177  ddzy747.o(.bss)
    g_recvBuff                               0x20002514   Data          64  ddzy747.o(.bss)
    g_ddyz747Info                            0x20002554   Data         113  ddzy747.o(.bss)
    .bss                                     0x200025c8   Section      204  meter.o(.bss)
    g_meterInfo                              0x200025c8   Data          12  meter.o(.bss)
    g_eMeterReg                              0x200025d4   Data          96  meter.o(.bss)
    g_fMeterReg                              0x20002634   Data          96  meter.o(.bss)
    .bss                                     0x20002694   Section       81  fld_r_lsh.o(.bss)
    g_fldInfo                                0x20002694   Data          81  fld_r_lsh.o(.bss)
    .bss                                     0x200026e5   Section      128  modbus.o(.bss)
    g_mRecvBuff                              0x200026e5   Data         128  modbus.o(.bss)
    .bss                                     0x20002765   Section      145  pt100dtu.o(.bss)
    g_ptRecvBuff                             0x20002765   Data          64  pt100dtu.o(.bss)
    g_pt100DTUInfo                           0x200027a5   Data          81  pt100dtu.o(.bss)
    .bss                                     0x200027f6   Section      113  zwd433b.o(.bss)
    g_ZWD433BInfo                            0x200027f6   Data         113  zwd433b.o(.bss)
    .bss                                     0x20002867   Section      177  dtsf667.o(.bss)
    g_recvBuff                               0x20002867   Data          64  dtsf667.o(.bss)
    g_DTSF667Info                            0x200028a7   Data         113  dtsf667.o(.bss)
    .bss                                     0x20002918   Section       81  handheld1.o(.bss)
    g_handInfo                               0x20002918   Data          81  handheld1.o(.bss)
    .bss                                     0x2000296c   Section     2312  sdcardrecord.o(.bss)
    fs                                       0x2000296c   Data         560  sdcardrecord.o(.bss)
    fsrc                                     0x20002b9c   Data         548  sdcardrecord.o(.bss)
    g_rReport                                0x20002dc0   Data         628  sdcardrecord.o(.bss)
    g_recordBuild                            0x20003034   Data         512  sdcardrecord.o(.bss)
    filePath                                 0x20003234   Data          64  sdcardrecord.o(.bss)
    .bss                                     0x20003274   Section       30  outdoorpid.o(.bss)
    text                                     0x20003274   Data          30  outdoorpid.o(.bss)
    .bss                                     0x20003294   Section      228  rand.o(.bss)
    .bss                                     0x20003378   Section       96  libspace.o(.bss)
    HEAP                                     0x200033d8   Section    10240  startup_stm32f10x_hd.o(HEAP)
    Heap_Mem                                 0x200033d8   Data       10240  startup_stm32f10x_hd.o(HEAP)
    STACK                                    0x20005bd8   Section     6144  startup_stm32f10x_hd.o(STACK)
    Stack_Mem                                0x20005bd8   Data        6144  startup_stm32f10x_hd.o(STACK)
    __initial_sp                             0x200073d8   Data           0  startup_stm32f10x_hd.o(STACK)

    Global Symbols

    Symbol Name                              Value     Ov Type        Size  Object(Section)

    BuildAttributes$$THM_ISAv4$P$D$K$B$S$PE$A:L22UL41UL21$X:L11$S22US41US21$IEEE1$IW$USESV6$~STKCKD$USESV7$~SHL$OTIME$ROPI$IEEEJ$EBA8$UX$STANDARDLIB$REQ8$PRES8$EABIv2 0x00000000   Number         0  anon$$obj.o ABSOLUTE
    __ARM_use_no_argv                        0x00000000   Number         0  main.o ABSOLUTE
    _printf_flags                            0x00000000   Number         0  printf_stubs.o ABSOLUTE
    _printf_return_value                     0x00000000   Number         0  printf_stubs.o ABSOLUTE
    _printf_sizespec                         0x00000000   Number         0  printf_stubs.o ABSOLUTE
    _printf_widthprec                        0x00000000   Number         0  printf_stubs.o ABSOLUTE
    __ARM_exceptions_init                     - Undefined Weak Reference
    __alloca_initialize                       - Undefined Weak Reference
    __arm_preinit_                            - Undefined Weak Reference
    __cpp_initialize__aeabi_                  - Undefined Weak Reference
    __cxa_finalize                            - Undefined Weak Reference
    __sigvec_lookup                           - Undefined Weak Reference
    __user_heap_extent                        - Undefined Weak Reference
    _atexit_init                              - Undefined Weak Reference
    _call_atexit_fns                          - Undefined Weak Reference
    _clock_init                               - Undefined Weak Reference
    _fp_trap_init                             - Undefined Weak Reference
    _fp_trap_shutdown                         - Undefined Weak Reference
    _get_lc_collate                           - Undefined Weak Reference
    _get_lc_monetary                          - Undefined Weak Reference
    _get_lc_time                              - Undefined Weak Reference
    _getenv_init                              - Undefined Weak Reference
    _handle_redirection                       - Undefined Weak Reference
    _initio                                   - Undefined Weak Reference
    _mutex_acquire                            - Undefined Weak Reference
    _mutex_free                               - Undefined Weak Reference
    _mutex_release                            - Undefined Weak Reference
    _printf_mbtowc                            - Undefined Weak Reference
    _printf_wc                                - Undefined Weak Reference
    _signal_finish                            - Undefined Weak Reference
    _signal_init                              - Undefined Weak Reference
    _terminateio                              - Undefined Weak Reference
    __Vectors_Size                           0x00000130   Number         0  startup_stm32f10x_hd.o ABSOLUTE
    __Vectors                                0x08010000   Data           4  startup_stm32f10x_hd.o(RESET)
    __Vectors_End                            0x08010130   Data           0  startup_stm32f10x_hd.o(RESET)
    __main                                   0x08010131   Thumb Code     8  __main.o(!!!main)
    __scatterload                            0x08010139   Thumb Code     0  __scatter.o(!!!scatter)
    __scatterload_rt2                        0x08010139   Thumb Code    44  __scatter.o(!!!scatter)
    __scatterload_rt2_thumb_only             0x08010139   Thumb Code     0  __scatter.o(!!!scatter)
    __scatterload_null                       0x08010147   Thumb Code     0  __scatter.o(!!!scatter)
    __decompress                             0x0801016d   Thumb Code    90  __dczerorl2.o(!!dczerorl2)
    __decompress1                            0x0801016d   Thumb Code     0  __dczerorl2.o(!!dczerorl2)
    __scatterload_zeroinit                   0x080101c9   Thumb Code    28  __scatter_zi.o(!!handler_zi)
    _printf_n                                0x080101e5   Thumb Code     0  _printf_n.o(.ARM.Collect$$_printf_percent$$00000001)
    _printf_percent                          0x080101e5   Thumb Code     0  _printf_percent.o(.ARM.Collect$$_printf_percent$$00000000)
    _printf_p                                0x080101eb   Thumb Code     0  _printf_p.o(.ARM.Collect$$_printf_percent$$00000002)
    _printf_f                                0x080101f1   Thumb Code     0  _printf_f.o(.ARM.Collect$$_printf_percent$$00000003)
    _printf_e                                0x080101f7   Thumb Code     0  _printf_e.o(.ARM.Collect$$_printf_percent$$00000004)
    _printf_g                                0x080101fd   Thumb Code     0  _printf_g.o(.ARM.Collect$$_printf_percent$$00000005)
    _printf_a                                0x08010203   Thumb Code     0  _printf_a.o(.ARM.Collect$$_printf_percent$$00000006)
    _printf_ll                               0x08010209   Thumb Code     0  _printf_ll.o(.ARM.Collect$$_printf_percent$$00000007)
    _printf_i                                0x08010213   Thumb Code     0  _printf_i.o(.ARM.Collect$$_printf_percent$$00000008)
    _printf_d                                0x08010219   Thumb Code     0  _printf_d.o(.ARM.Collect$$_printf_percent$$00000009)
    _printf_u                                0x0801021f   Thumb Code     0  _printf_u.o(.ARM.Collect$$_printf_percent$$0000000A)
    _printf_o                                0x08010225   Thumb Code     0  _printf_o.o(.ARM.Collect$$_printf_percent$$0000000B)
    _printf_x                                0x0801022b   Thumb Code     0  _printf_x.o(.ARM.Collect$$_printf_percent$$0000000C)
    _printf_lli                              0x08010231   Thumb Code     0  _printf_lli.o(.ARM.Collect$$_printf_percent$$0000000D)
    _printf_lld                              0x08010237   Thumb Code     0  _printf_lld.o(.ARM.Collect$$_printf_percent$$0000000E)
    _printf_llu                              0x0801023d   Thumb Code     0  _printf_llu.o(.ARM.Collect$$_printf_percent$$0000000F)
    _printf_llo                              0x08010243   Thumb Code     0  _printf_llo.o(.ARM.Collect$$_printf_percent$$00000010)
    _printf_llx                              0x08010249   Thumb Code     0  _printf_llx.o(.ARM.Collect$$_printf_percent$$00000011)
    _printf_l                                0x0801024f   Thumb Code     0  _printf_l.o(.ARM.Collect$$_printf_percent$$00000012)
    _printf_c                                0x08010259   Thumb Code     0  _printf_c.o(.ARM.Collect$$_printf_percent$$00000013)
    _printf_s                                0x0801025f   Thumb Code     0  _printf_s.o(.ARM.Collect$$_printf_percent$$00000014)
    _printf_lc                               0x08010265   Thumb Code     0  _printf_lc.o(.ARM.Collect$$_printf_percent$$00000015)
    _printf_ls                               0x0801026b   Thumb Code     0  _printf_ls.o(.ARM.Collect$$_printf_percent$$00000016)
    _printf_percent_end                      0x08010271   Thumb Code     0  _printf_percent_end.o(.ARM.Collect$$_printf_percent$$00000017)
    __rt_lib_init                            0x08010275   Thumb Code     0  libinit.o(.ARM.Collect$$libinit$$00000000)
    __rt_lib_init_fp_1                       0x08010277   Thumb Code     0  libinit2.o(.ARM.Collect$$libinit$$00000002)
    __rt_lib_init_heap_2                     0x08010277   Thumb Code     0  libinit2.o(.ARM.Collect$$libinit$$00000005)
    __rt_lib_init_preinit_1                  0x08010277   Thumb Code     0  libinit2.o(.ARM.Collect$$libinit$$00000004)
    __rt_lib_init_heap_1                     0x0801027f   Thumb Code     0  libinit2.o(.ARM.Collect$$libinit$$0000000A)
    __rt_lib_init_rand_2                     0x0801027f   Thumb Code     0  libinit2.o(.ARM.Collect$$libinit$$0000000D)
    __rt_lib_init_user_alloc_1               0x0801027f   Thumb Code     0  libinit2.o(.ARM.Collect$$libinit$$0000000C)
    __rt_lib_init_lc_common                  0x08010283   Thumb Code     0  libinit2.o(.ARM.Collect$$libinit$$0000000F)
    __rt_lib_init_rand_1                     0x08010283   Thumb Code     0  libinit2.o(.ARM.Collect$$libinit$$0000000E)
    __rt_lib_init_lc_collate_1               0x08010289   Thumb Code     0  libinit2.o(.ARM.Collect$$libinit$$00000011)
    __rt_lib_init_lc_ctype_2                 0x08010289   Thumb Code     0  libinit2.o(.ARM.Collect$$libinit$$00000012)
    __rt_lib_init_lc_ctype_1                 0x08010295   Thumb Code     0  libinit2.o(.ARM.Collect$$libinit$$00000013)
    __rt_lib_init_lc_monetary_1              0x08010295   Thumb Code     0  libinit2.o(.ARM.Collect$$libinit$$00000015)
    __rt_lib_init_lc_numeric_2               0x08010295   Thumb Code     0  libinit2.o(.ARM.Collect$$libinit$$00000016)
    __rt_lib_init_alloca_1                   0x0801029f   Thumb Code     0  libinit2.o(.ARM.Collect$$libinit$$0000002E)
    __rt_lib_init_argv_1                     0x0801029f   Thumb Code     0  libinit2.o(.ARM.Collect$$libinit$$0000002C)
    __rt_lib_init_atexit_1                   0x0801029f   Thumb Code     0  libinit2.o(.ARM.Collect$$libinit$$0000001B)
    __rt_lib_init_clock_1                    0x0801029f   Thumb Code     0  libinit2.o(.ARM.Collect$$libinit$$00000021)
    __rt_lib_init_cpp_1                      0x0801029f   Thumb Code     0  libinit2.o(.ARM.Collect$$libinit$$00000032)
    __rt_lib_init_exceptions_1               0x0801029f   Thumb Code     0  libinit2.o(.ARM.Collect$$libinit$$00000030)
    __rt_lib_init_fp_trap_1                  0x0801029f   Thumb Code     0  libinit2.o(.ARM.Collect$$libinit$$0000001F)
    __rt_lib_init_getenv_1                   0x0801029f   Thumb Code     0  libinit2.o(.ARM.Collect$$libinit$$00000023)
    __rt_lib_init_lc_numeric_1               0x0801029f   Thumb Code     0  libinit2.o(.ARM.Collect$$libinit$$00000017)
    __rt_lib_init_lc_time_1                  0x0801029f   Thumb Code     0  libinit2.o(.ARM.Collect$$libinit$$00000019)
    __rt_lib_init_return                     0x0801029f   Thumb Code     0  libinit2.o(.ARM.Collect$$libinit$$00000033)
    __rt_lib_init_signal_1                   0x0801029f   Thumb Code     0  libinit2.o(.ARM.Collect$$libinit$$0000001D)
    __rt_lib_init_stdio_1                    0x0801029f   Thumb Code     0  libinit2.o(.ARM.Collect$$libinit$$00000025)
    __rt_lib_shutdown                        0x080102a1   Thumb Code     0  libshutdown.o(.ARM.Collect$$libshutdown$$00000000)
    __rt_lib_shutdown_cpp_1                  0x080102a3   Thumb Code     0  libshutdown2.o(.ARM.Collect$$libshutdown$$00000002)
    __rt_lib_shutdown_fp_trap_1              0x080102a3   Thumb Code     0  libshutdown2.o(.ARM.Collect$$libshutdown$$00000007)
    __rt_lib_shutdown_heap_1                 0x080102a3   Thumb Code     0  libshutdown2.o(.ARM.Collect$$libshutdown$$0000000F)
    __rt_lib_shutdown_return                 0x080102a3   Thumb Code     0  libshutdown2.o(.ARM.Collect$$libshutdown$$00000010)
    __rt_lib_shutdown_signal_1               0x080102a3   Thumb Code     0  libshutdown2.o(.ARM.Collect$$libshutdown$$0000000A)
    __rt_lib_shutdown_stdio_1                0x080102a3   Thumb Code     0  libshutdown2.o(.ARM.Collect$$libshutdown$$00000004)
    __rt_lib_shutdown_user_alloc_1           0x080102a3   Thumb Code     0  libshutdown2.o(.ARM.Collect$$libshutdown$$0000000C)
    __rt_entry                               0x080102a5   Thumb Code     0  __rtentry.o(.ARM.Collect$$rtentry$$00000000)
    __rt_entry_presh_1                       0x080102a5   Thumb Code     0  __rtentry2.o(.ARM.Collect$$rtentry$$00000002)
    __rt_entry_sh                            0x080102a5   Thumb Code     0  __rtentry4.o(.ARM.Collect$$rtentry$$00000004)
    __rt_entry_li                            0x080102ab   Thumb Code     0  __rtentry2.o(.ARM.Collect$$rtentry$$0000000A)
    __rt_entry_postsh_1                      0x080102ab   Thumb Code     0  __rtentry2.o(.ARM.Collect$$rtentry$$00000009)
    __rt_entry_main                          0x080102af   Thumb Code     0  __rtentry2.o(.ARM.Collect$$rtentry$$0000000D)
    __rt_entry_postli_1                      0x080102af   Thumb Code     0  __rtentry2.o(.ARM.Collect$$rtentry$$0000000C)
    __rt_exit                                0x080102b7   Thumb Code     0  rtexit.o(.ARM.Collect$$rtexit$$00000000)
    __rt_exit_ls                             0x080102b9   Thumb Code     0  rtexit2.o(.ARM.Collect$$rtexit$$00000003)
    __rt_exit_prels_1                        0x080102b9   Thumb Code     0  rtexit2.o(.ARM.Collect$$rtexit$$00000002)
    __rt_exit_exit                           0x080102bd   Thumb Code     0  rtexit2.o(.ARM.Collect$$rtexit$$00000004)
    rand                                     0x080102c5   Thumb Code    48  rand.o(.emb_text)
    NMI_Handler                              0x080102f9   Thumb Code     2  stm32f10x_it.o(.text)
    _maybe_terminate_alloc                   0x080102f9   Thumb Code     0  maybetermalloc1.o(.emb_text)
    HardFault_Handler                        0x080102fb   Thumb Code     4  stm32f10x_it.o(.text)
    MemManage_Handler                        0x080102ff   Thumb Code     4  stm32f10x_it.o(.text)
    BusFault_Handler                         0x08010303   Thumb Code     4  stm32f10x_it.o(.text)
    UsageFault_Handler                       0x08010307   Thumb Code     4  stm32f10x_it.o(.text)
    SVC_Handler                              0x0801030b   Thumb Code     2  stm32f10x_it.o(.text)
    DebugMon_Handler                         0x0801030d   Thumb Code     2  stm32f10x_it.o(.text)
    PendSV_Handler                           0x0801030f   Thumb Code     2  stm32f10x_it.o(.text)
    SysTick_Handler                          0x08010311   Thumb Code     8  stm32f10x_it.o(.text)
    TIM2_IRQHandler                          0x08010319   Thumb Code     2  stm32f10x_it.o(.text)
    TIM3_IRQHandler                          0x0801031b   Thumb Code     2  stm32f10x_it.o(.text)
    TIM4_IRQHandler                          0x0801031d   Thumb Code     2  stm32f10x_it.o(.text)
    NVIC_PriorityGroupConfig                 0x08010321   Thumb Code    10  misc.o(.text)
    NVIC_Init                                0x0801032b   Thumb Code   100  misc.o(.text)
    NVIC_SetVectorTable                      0x0801038f   Thumb Code    14  misc.o(.text)
    NVIC_SystemLPConfig                      0x0801039d   Thumb Code    34  misc.o(.text)
    SysTick_CLKSourceConfig                  0x080103bf   Thumb Code    40  misc.o(.text)
    os_timer_get_systime                     0x080103fd   Thumb Code    14  os_timer.o(.text)
    os_timer_init                            0x0801046d   Thumb Code    24  os_timer.o(.text)
    os_timer_poll                            0x08010485   Thumb Code    12  os_timer.o(.text)
    os_timer_set                             0x08010491   Thumb Code    80  os_timer.o(.text)
    os_timer_is_valid                        0x080104e1   Thumb Code    22  os_timer.o(.text)
    os_timer_reset                           0x080104f7   Thumb Code    24  os_timer.o(.text)
    os_timer_del                             0x0801050f   Thumb Code    22  os_timer.o(.text)
    os_timer_pass_ms                         0x08010525   Thumb Code    38  os_timer.o(.text)
    os_timer_get_nettime                     0x0801054b   Thumb Code    14  os_timer.o(.text)
    os_timer_add_systime                     0x08010559   Thumb Code    30  os_timer.o(.text)
    os_timer_set_nettime                     0x08010577   Thumb Code    14  os_timer.o(.text)
    os_timer_get_interval                    0x08010585   Thumb Code    18  os_timer.o(.text)
    HalInit                                  0x080105ad   Thumb Code   136  hal.o(.text)
    HalPoll                                  0x08010635   Thumb Code    20  hal.o(.text)
    HalWdtFeed                               0x08010649   Thumb Code     8  hal.o(.text)
    HalRestart                               0x08010651   Thumb Code    78  hal.o(.text)
    AesCTREncrypt                            0x08011091   Thumb Code   112  hal_aes.o(.text)
    AesCTRDecrypt                            0x08011101   Thumb Code    36  hal_aes.o(.text)
    AesEncrypt                               0x08011125   Thumb Code   100  hal_aes.o(.text)
    AesDecrypt                               0x08011189   Thumb Code    58  hal_aes.o(.text)
    hal_flash_write                          0x0801120f   Thumb Code   152  hal_flash.o(.text)
    hal_flash_read                           0x080112a7   Thumb Code    28  hal_flash.o(.text)
    HalLedInit                               0x080112c5   Thumb Code    82  hal_led.o(.text)
    HalLedOFF                                0x08011317   Thumb Code    54  hal_led.o(.text)
    HalLedON                                 0x0801134d   Thumb Code    54  hal_led.o(.text)
    HalLedStopBlink                          0x08011383   Thumb Code    26  hal_led.o(.text)
    HalLedSetStatus                          0x0801139d   Thumb Code    30  hal_led.o(.text)
    HalLedToggle                             0x080113bb   Thumb Code   114  hal_led.o(.text)
    HalLedPoll                               0x080114bf   Thumb Code     8  hal_led.o(.text)
    HalLedGetStatus                          0x080114c7   Thumb Code    74  hal_led.o(.text)
    HalLedIsBlank                            0x08011511   Thumb Code    14  hal_led.o(.text)
    HalLedStartBlink                         0x0801151f   Thumb Code    94  hal_led.o(.text)
    hal_rnd_init                             0x08011589   Thumb Code     2  hal_rnd.o(.text)
    hal_rnd_get                              0x0801158b   Thumb Code     4  hal_rnd.o(.text)
    hal_rnd_seed                             0x0801158f   Thumb Code    12  hal_rnd.o(.text)
    hal_rnd_range                            0x0801159b   Thumb Code    32  hal_rnd.o(.text)
    hal_rnd_feed_seed                        0x080115bb   Thumb Code    12  hal_rnd.o(.text)
    HalTimerInit                             0x080115cd   Thumb Code    14  hal_timer.o(.text)
    hal_wait_init                            0x08011665   Thumb Code    28  hal_wait.o(.text)
    hal_wait_check                           0x08011681   Thumb Code    20  hal_wait.o(.text)
    hal_wait                                 0x08011695   Thumb Code    48  hal_wait.o(.text)
    hal_wait_us                              0x080116c5   Thumb Code    20  hal_wait.o(.text)
    hal_wait_ms                              0x080116d9   Thumb Code    20  hal_wait.o(.text)
    hal_wdt_init                             0x080116f5   Thumb Code    38  hal_wdt.o(.text)
    hal_wdt_feed                             0x0801171b   Thumb Code     8  hal_wdt.o(.text)
    HalGPIOInitialize                        0x08011743   Thumb Code    60  halgpio.o(.text)
    HalGPIOPoll                              0x0801177f   Thumb Code     8  halgpio.o(.text)
    HalSpiInit                               0x0801178d   Thumb Code   506  halspi.o(.text)
    HalSpiReadWrite                          0x08011987   Thumb Code   302  halspi.o(.text)
    _sys_exit                                0x08011acd   Thumb Code     4  haluart.o(.text)
    fputc                                    0x08011ad1   Thumb Code    40  haluart.o(.text)
    USART1_Configuration                     0x08011af9   Thumb Code   210  haluart.o(.text)
    USART1_Send_Byte                         0x08011bcb   Thumb Code    28  haluart.o(.text)
    USART1_Send_String                       0x08011be7   Thumb Code    22  haluart.o(.text)
    USART1_IRQHandler                        0x08011bfd   Thumb Code    54  haluart.o(.text)
    USART2_Configuration                     0x08011c33   Thumb Code   194  haluart.o(.text)
    USART2_Send_Byte                         0x08011cf5   Thumb Code    28  haluart.o(.text)
    USART2_Send_String                       0x08011d11   Thumb Code    22  haluart.o(.text)
    USART2_IRQHandler                        0x08011d27   Thumb Code    54  haluart.o(.text)
    USART3_Configuration                     0x08011d5d   Thumb Code   198  haluart.o(.text)
    USART3_Send_Byte                         0x08011e23   Thumb Code    28  haluart.o(.text)
    USART3_Send_String                       0x08011e3f   Thumb Code    22  haluart.o(.text)
    USART3_IRQHandler                        0x08011e55   Thumb Code    54  haluart.o(.text)
    USART4_Configuration                     0x08011e8b   Thumb Code   230  haluart.o(.text)
    USART4_Send_Byte                         0x08011f71   Thumb Code    28  haluart.o(.text)
    USART4_Send_String                       0x08011f8d   Thumb Code    22  haluart.o(.text)
    UART4_IRQHandler                         0x08011fa3   Thumb Code    54  haluart.o(.text)
    USART5_Configuration                     0x08011fd9   Thumb Code   206  haluart.o(.text)
    USART5_Send_Byte                         0x080120a7   Thumb Code    28  haluart.o(.text)
    USART5_Send_String                       0x080120c3   Thumb Code    22  haluart.o(.text)
    UART5_IRQHandler                         0x080120d9   Thumb Code    54  haluart.o(.text)
    HalUartConfig                            0x0801210f   Thumb Code    88  haluart.o(.text)
    HalUartWrite                             0x08012167   Thumb Code    84  haluart.o(.text)
    hal_uart_rcv_poll                        0x080121bb   Thumb Code     2  haluart.o(.text)
    RTC_Configuration                        0x080121d1   Thumb Code   136  hal_rtc.o(.text)
    RTCInit                                  0x08012259   Thumb Code   102  hal_rtc.o(.text)
    Is_Leap_Year                             0x080122bf   Thumb Code    58  hal_rtc.o(.text)
    RTCTransSecCount                         0x080122f9   Thumb Code   160  hal_rtc.o(.text)
    RTCTransDate                             0x08012399   Thumb Code   218  hal_rtc.o(.text)
    SetRTCTime                               0x08012473   Thumb Code    38  hal_rtc.o(.text)
    GetRTCTime                               0x08012499   Thumb Code    26  hal_rtc.o(.text)
    RTC_IRQHandler                           0x080124b3   Thumb Code    34  hal_rtc.o(.text)
    ch_init                                  0x0801253d   Thumb Code   132  cloud_helper.o(.text)
    ch_timer_ms                              0x080125cd   Thumb Code    12  cloud_helper.o(.text)
    frame_recv_byte                          0x080125d9   Thumb Code   120  cloud_helper.o(.text)
    ch_uart_data_input                       0x08012651   Thumb Code    26  cloud_helper.o(.text)
    parseUTCTime                             0x0801288f   Thumb Code    52  cloud_helper.o(.text)
    data_to_num                              0x08012a6b   Thumb Code    24  cloud_helper.o(.text)
    num_to_data                              0x08012b4f   Thumb Code    16  cloud_helper.o(.text)
    ch_handle                                0x08012e45   Thumb Code    54  cloud_helper.o(.text)
    ch_set_fault                             0x08012e7b   Thumb Code    38  cloud_helper.o(.text)
    ch_request_nettime                       0x08012ea1   Thumb Code    16  cloud_helper.o(.text)
    ch_sync_property                         0x08012eb1   Thumb Code    48  cloud_helper.o(.text)
    ch_find_ssid                             0x08012ee1   Thumb Code    92  cloud_helper.o(.text)
    ch_reset_cloud                           0x08012f3d   Thumb Code    32  cloud_helper.o(.text)
    ch_dev_self_test_ret                     0x08012f5d   Thumb Code    38  cloud_helper.o(.text)
    ch_protocol_test                         0x08012f83   Thumb Code    38  cloud_helper.o(.text)
    ch_set_wifi_config_type                  0x08012fa9   Thumb Code    32  cloud_helper.o(.text)
    ch_get_wifi_config_type                  0x08012fc9   Thumb Code     6  cloud_helper.o(.text)
    ch_get_wifi_signal                       0x08012fcf   Thumb Code     6  cloud_helper.o(.text)
    ch_is_online                             0x08012fd5   Thumb Code     6  cloud_helper.o(.text)
    ch_get_wifi_status                       0x08012fdb   Thumb Code     6  cloud_helper.o(.text)
    ch_clear_recv                            0x08012fe1   Thumb Code     8  cloud_helper.o(.text)
    ch_send_operation_result                 0x08012fe9   Thumb Code    62  cloud_helper.o(.text)
    ch_sync_multi_property                   0x08013027   Thumb Code    72  cloud_helper.o(.text)
    ch_send_multi_property                   0x0801306f   Thumb Code    50  cloud_helper.o(.text)
    ch_send_history_data_end                 0x080130a1   Thumb Code    58  cloud_helper.o(.text)
    ch_send_history_data                     0x080130db   Thumb Code   228  cloud_helper.o(.text)
    ch_request_rom_info                      0x080131bf   Thumb Code    26  cloud_helper.o(.text)
    ch_request_rom_data                      0x080131d9   Thumb Code    36  cloud_helper.o(.text)
    ch_request_rom_end                       0x080131fd   Thumb Code   248  cloud_helper.o(.text)
    ch_request_module_info                   0x080132f5   Thumb Code    16  cloud_helper.o(.text)
    ModuleTesterInit                         0x080139e5   Thumb Code   258  moduletester.o(.text)
    syncProperties                           0x08013ae9   Thumb Code    64  moduletester.o(.text)
    ModuleTesterPoll                         0x08013e1b   Thumb Code    24  moduletester.o(.text)
    GetModuleTesterInfo                      0x08013e33   Thumb Code     4  moduletester.o(.text)
    GetrModuleID                             0x08013e37   Thumb Code     4  moduletester.o(.text)
    app_init                                 0x08013e71   Thumb Code    18  app.o(.text)
    app_get_trans_payload                    0x08013e83   Thumb Code    12  app.o(.text)
    app_get_key                              0x08013e8f   Thumb Code    12  app.o(.text)
    app_decrypt                              0x08013e9b   Thumb Code    46  app.o(.text)
    app_rf_recv_deal                         0x08013ec9   Thumb Code    56  app.o(.text)
    app_encrypt                              0x08013f01   Thumb Code    46  app.o(.text)
    app_transmit                             0x08013f2f   Thumb Code    60  app.o(.text)
    app_poll                                 0x08013f6b   Thumb Code     8  app.o(.text)
    app_ack_sync_content_cb                  0x08013f73   Thumb Code    16  app.o(.text)
    app_ack_sync_content_set                 0x08013f83   Thumb Code    12  app.o(.text)
    DeviceGetKey                             0x08013f95   Thumb Code     8  device.o(.text)
    DeviceGetId                              0x08013f9d   Thumb Code    34  device.o(.text)
    DeviceGetMiscData                        0x08013fbf   Thumb Code   432  device.o(.text)
    DeviceInit                               0x0801416f   Thumb Code   178  device.o(.text)
    DeviceIsOldDevice                        0x08014221   Thumb Code    74  device.o(.text)
    DeviceSetStatus                          0x08014501   Thumb Code   114  device.o(.text)
    DeviceRFRecvData                         0x0801478d   Thumb Code   882  device.o(.text)
    DeviceSetEnabled                         0x08014aff   Thumb Code    56  device.o(.text)
    DeviceHandleOperation                    0x08014b37   Thumb Code   610  device.o(.text)
    DeviceDel                                0x08014d99   Thumb Code   100  device.o(.text)
    delay_ms                                 0x08014dfd   Thumb Code    20  device.o(.text)
    DeviceAdd                                0x08014e11   Thumb Code   464  device.o(.text)
    GatewayRFFoundDevice                     0x08014fe1   Thumb Code   500  device.o(.text)
    GatewayInit                              0x0801545b   Thumb Code     8  device.o(.text)
    GatewayRFVersionSet                      0x08015463   Thumb Code    92  device.o(.text)
    GatewayRFRecvData                        0x080154bf   Thumb Code    62  device.o(.text)
    startAddDevice                           0x0801559b   Thumb Code    90  device.o(.text)
    gataway_get_sht_info                     0x080155f5   Thumb Code    14  device.o(.text)
    gataway_get_sk_info                      0x08015603   Thumb Code   104  device.o(.text)
    GatewayDeviceAllocedCount                0x0801566b   Thumb Code    38  device.o(.text)
    GatewayDeviceOnlineCount                 0x08015691   Thumb Code    38  device.o(.text)
    main                                     0x080156ed   Thumb Code    48  main.o(.text)
    main_module_add_led_blink_count          0x0801571d   Thumb Code    12  main_module.o(.text)
    main_module_enter_work                   0x0801575b   Thumb Code    44  main_module.o(.text)
    main_module_setaddr                      0x08015787   Thumb Code    92  main_module.o(.text)
    main_module_init                         0x080157e3   Thumb Code    86  main_module.o(.text)
    _send_searchdevice_broadcast             0x08015839   Thumb Code    88  main_module.o(.text)
    main_module_enter_upgrade                0x080158ad   Thumb Code    30  main_module.o(.text)
    main_module_enter_buildnet               0x080158cb   Thumb Code    74  main_module.o(.text)
    main_module_set_devicelist               0x08015915   Thumb Code    56  main_module.o(.text)
    main_module_add_device                   0x0801594d   Thumb Code   142  main_module.o(.text)
    main_module_del_device                   0x080159db   Thumb Code    50  main_module.o(.text)
    main_module_relay_msg_to_device          0x08015a0d   Thumb Code    50  main_module.o(.text)
    main_module_set_args                     0x08015a3f   Thumb Code    10  main_module.o(.text)
    main_module_wakeup_sleep_device          0x08015a49   Thumb Code    36  main_module.o(.text)
    main_module_set_device_real_count        0x08015a6d   Thumb Code     6  main_module.o(.text)
    main_module_get_device_real_count        0x08015a73   Thumb Code     6  main_module.o(.text)
    _response_connect                        0x08015a79   Thumb Code    18  main_module.o(.text)
    main_module_set_check_mode               0x08015a8b   Thumb Code     6  main_module.o(.text)
    main_module_recv_deal                    0x08015a91   Thumb Code   538  main_module.o(.text)
    main_module_get_key                      0x08015cab   Thumb Code    24  main_module.o(.text)
    main_module_poll                         0x08015cc3   Thumb Code    32  main_module.o(.text)
    main_module_ack_sync_content_cb          0x08015ce3   Thumb Code     2  main_module.o(.text)
    main_module_ack_sync_content_set         0x08015ce5   Thumb Code    34  main_module.o(.text)
    main_module_reset_heartbeat_time         0x08015d07   Thumb Code     2  main_module.o(.text)
    GetWorkChannel                           0x08015d09   Thumb Code     6  main_module.o(.text)
    mlist_init                               0x08015d4d   Thumb Code    34  mlist.o(.text)
    mlist_find                               0x08015d6f   Thumb Code    70  mlist.o(.text)
    mlist_foreach                            0x08015db5   Thumb Code    60  mlist.o(.text)
    mlist_add                                0x08015df1   Thumb Code   100  mlist.o(.text)
    mlist_del                                0x08015e55   Thumb Code    24  mlist.o(.text)
    mlist_get                                0x08015e6d   Thumb Code    40  mlist.o(.text)
    mqueue_init                              0x08015e95   Thumb Code    18  mqueue.o(.text)
    mqueue_is_full                           0x08015ea7   Thumb Code    18  mqueue.o(.text)
    mqueue_in                                0x08015eb9   Thumb Code    74  mqueue.o(.text)
    mqueue_is_empty                          0x08015f03   Thumb Code    14  mqueue.o(.text)
    mqueue_first                             0x08015f11   Thumb Code    28  mqueue.o(.text)
    mqueue_out                               0x08015f2d   Thumb Code    36  mqueue.o(.text)
    SysButtonInit                            0x08015f51   Thumb Code     8  sysbutton.o(.text)
    SysButtonPoll                            0x08015f9d   Thumb Code    32  sysbutton.o(.text)
    SysButtonRegister                        0x08015fbd   Thumb Code    50  sysbutton.o(.text)
    SysButtonUnregister                      0x08015fef   Thumb Code    32  sysbutton.o(.text)
    sysPeriodInit                            0x08016015   Thumb Code    12  syspoll.o(.text)
    sysPeriodPollSet                         0x08016021   Thumb Code    96  syspoll.o(.text)
    sysPeriodPoll                            0x08016081   Thumb Code    98  syspoll.o(.text)
    sysPeriodPollClear                       0x080160e3   Thumb Code     8  syspoll.o(.text)
    SysTimerInit                             0x080160f5   Thumb Code     2  systimer.o(.text)
    SysTimerUnSet                            0x0801611f   Thumb Code     8  systimer.o(.text)
    SysTimerSet                              0x08016127   Thumb Code   118  systimer.o(.text)
    SysTimerPoll                             0x0801619d   Thumb Code    74  systimer.o(.text)
    SysTimerUpdate                           0x080161e7   Thumb Code    12  systimer.o(.text)
    SysOSInit                                0x080161f9   Thumb Code     8  usersys.o(.text)
    SysCheckMacChipVersion                   0x08016201   Thumb Code     4  usersys.o(.text)
    SysInitCompleted                         0x08016205   Thumb Code     6  usersys.o(.text)
    SysMacChipReset                          0x0801620b   Thumb Code     2  usersys.o(.text)
    SysDevicesInit                           0x0801620d   Thumb Code    20  usersys.o(.text)
    SysDelay                                 0x08016221   Thumb Code    26  usersys.o(.text)
    SysLwIPPeriodicHandle                    0x0801623b   Thumb Code     2  usersys.o(.text)
    SysPoll                                  0x0801623d   Thumb Code    20  usersys.o(.text)
    SysFlashWrite                            0x08016251   Thumb Code    68  usersys.o(.text)
    SysFlashRead                             0x08016295   Thumb Code    28  usersys.o(.text)
    SysUserDataWriteByte                     0x080162b1   Thumb Code    22  usersys.o(.text)
    SysUserDataReadByte                      0x080162c7   Thumb Code    20  usersys.o(.text)
    SysUserDataRead                          0x080162db   Thumb Code    20  usersys.o(.text)
    SysUserDataWrite                         0x080162ef   Thumb Code    26  usersys.o(.text)
    SysUserDataEraseAll                      0x08016309   Thumb Code    14  usersys.o(.text)
    SysRestart                               0x08016317   Thumb Code    18  usersys.o(.text)
    SysGetUTCTimeSeconds                     0x08016329   Thumb Code     6  usersys.o(.text)
    SysGetUTCTime                            0x0801632f   Thumb Code    54  usersys.o(.text)
    SysSetUTCTimeSeconds                     0x08016365   Thumb Code    54  usersys.o(.text)
    SysDataPrint                             0x0801639b   Thumb Code    40  usersys.o(.text)
    SysIsLittleEndian                        0x080163c3   Thumb Code    20  usersys.o(.text)
    SysTcpSendMutexLock                      0x080163d7   Thumb Code     6  usersys.o(.text)
    SysTcpSendMutexState                     0x080163dd   Thumb Code     6  usersys.o(.text)
    SysAtoi                                  0x080163e3   Thumb Code   110  usersys.o(.text)
    MenuConfigInit                           0x080164bd   Thumb Code   374  menuconfig.o(.text)
    MenuConfigPrintf                         0x08016645   Thumb Code    58  menuconfig.o(.text)
    MenuConfigPoll                           0x08016e03   Thumb Code   410  menuconfig.o(.text)
    MenuConfigRecv                           0x08016f9d   Thumb Code    60  menuconfig.o(.text)
    MenuConfigISStart                        0x08016fd9   Thumb Code     6  menuconfig.o(.text)
    GetConfig                                0x08016fdf   Thumb Code     4  menuconfig.o(.text)
    link_init                                0x08017055   Thumb Code    40  link.o(.text)
    link_request                             0x0801707d   Thumb Code    76  link.o(.text)
    link_disattach                           0x080170c9   Thumb Code    32  link.o(.text)
    link_add_record                          0x080170e9   Thumb Code    46  link.o(.text)
    link_get_record                          0x08017117   Thumb Code    36  link.o(.text)
    link_get_father                          0x0801713b   Thumb Code     6  link.o(.text)
    link_is_child                            0x08017141   Thumb Code    48  link.o(.text)
    link_is_build                            0x08017171   Thumb Code    16  link.o(.text)
    link_recv_cb                             0x08017181   Thumb Code   170  link.o(.text)
    link_set_stable                          0x0801722b   Thumb Code     6  link.o(.text)
    link_poll                                0x08017231   Thumb Code    60  link.o(.text)
    net_init                                 0x0801728d   Thumb Code    18  net.o(.text)
    net_poll                                 0x0801729f   Thumb Code     8  net.o(.text)
    nwk_init                                 0x080172a9   Thumb Code    66  nwk.o(.text)
    nwk_set_segaddr                          0x080172eb   Thumb Code     8  nwk.o(.text)
    nwk_get_segaddr                          0x080172f3   Thumb Code     4  nwk.o(.text)
    nwk_set_myaddr                           0x080172f7   Thumb Code     6  nwk.o(.text)
    nwk_get_myaddr                           0x080172fd   Thumb Code     6  nwk.o(.text)
    nwk_set_role                             0x08017303   Thumb Code    14  nwk.o(.text)
    nwk_set_sleepmode                        0x08017311   Thumb Code     6  nwk.o(.text)
    nwk_transmit                             0x080173d3   Thumb Code   480  nwk.o(.text)
    nwk_reply_acks                           0x080175b3   Thumb Code   166  nwk.o(.text)
    nwk_transmit_onehop                      0x08017659   Thumb Code   286  nwk.o(.text)
    nwk_subcache_del                         0x080177e9   Thumb Code    32  nwk.o(.text)
    nwk_recv_cb                              0x08017809   Thumb Code   572  nwk.o(.text)
    nwk_get_trans_payload                    0x08017a45   Thumb Code    10  nwk.o(.text)
    nwk_poll                                 0x08017ab9   Thumb Code   178  nwk.o(.text)
    nwk_get_role                             0x08017b6b   Thumb Code     6  nwk.o(.text)
    nwk_mesh_enable                          0x08017b71   Thumb Code     6  nwk.o(.text)
    SPI_RF_SendByte                          0x08017b8d   Thumb Code    14  phy.o(.text)
    halSpiReadStatus                         0x08017b9b   Thumb Code   114  phy.o(.text)
    halSpiStrobe                             0x08017c0d   Thumb Code    96  phy.o(.text)
    phy_set_rx_state                         0x08017d13   Thumb Code    36  phy.o(.text)
    _rx_dma_cb                               0x08017d37   Thumb Code   196  phy.o(.text)
    halSpiWriteReg                           0x08017dfb   Thumb Code   104  phy.o(.text)
    phy_rf_config_upgrade                    0x08017e63   Thumb Code   224  phy.o(.text)
    halSpiReadReg                            0x08017f43   Thumb Code   208  phy.o(.text)
    phy_rx_attenuation                       0x08018013   Thumb Code    32  phy.o(.text)
    phy_change_pa_power                      0x08018033   Thumb Code    24  phy.o(.text)
    halRfWriteRfSettings                     0x0801804b   Thumb Code   260  phy.o(.text)
    phy_rf_config_normal                     0x0801814f   Thumb Code     8  phy.o(.text)
    SPI_CC1101_ReadID                        0x0801816f   Thumb Code    40  phy.o(.text)
    GPIO_GDO0_ENABLE                         0x08018197   Thumb Code    42  phy.o(.text)
    CC1101_POWER_RESET                       0x080181c1   Thumb Code   206  phy.o(.text)
    SPI_CC1101_Init                          0x0801828f   Thumb Code   122  phy.o(.text)
    phy_init                                 0x08018309   Thumb Code   102  phy.o(.text)
    halSpiWriteBurstReg                      0x0801836f   Thumb Code   190  phy.o(.text)
    halRfSendPacket                          0x0801842d   Thumb Code   188  phy.o(.text)
    GPIO_GDO0_DISABLE                        0x080184e9   Thumb Code    42  phy.o(.text)
    phy_transmit_directly                    0x08018513   Thumb Code    48  phy.o(.text)
    phy_transmit_upgrade                     0x08018543   Thumb Code    94  phy.o(.text)
    phy_transmit                             0x080185a1   Thumb Code    60  phy.o(.text)
    phy_set_channel                          0x080185dd   Thumb Code    62  phy.o(.text)
    phy_poll                                 0x0801861b   Thumb Code   152  phy.o(.text)
    phy_get_trans_payload                    0x080186b3   Thumb Code     6  phy.o(.text)
    _tx_done                                 0x080186b9   Thumb Code    36  phy.o(.text)
    SPI_RF_ReadByte                          0x080186dd   Thumb Code    10  phy.o(.text)
    CC1101_GET_ID                            0x080186e7   Thumb Code     6  phy.o(.text)
    halRfSendData                            0x080186ed   Thumb Code    58  phy.o(.text)
    halSpiReadBurstReg                       0x08018727   Thumb Code   136  phy.o(.text)
    halRfReceivePacket                       0x080187af   Thumb Code   134  phy.o(.text)
    EXTI9_5_IRQHandler                       0x08018835   Thumb Code   294  phy.o(.text)
    HalSensorInit                            0x08018977   Thumb Code    26  halsensor.o(.text)
    HalSensorPoll                            0x08018991   Thumb Code    12  halsensor.o(.text)
    HalGetSensorInfo                         0x0801899d   Thumb Code    22  halsensor.o(.text)
    DDYZ747Init                              0x08018ca7   Thumb Code    36  ddzy747.o(.text)
    DDYZ747Query                             0x08018d63   Thumb Code   382  ddzy747.o(.text)
    DDYZ747GetInfo                           0x08018ee1   Thumb Code     4  ddzy747.o(.text)
    HalFlowMeterRegister                     0x08018f6d   Thumb Code    50  meter.o(.text)
    HalElecMeterRegister                     0x08018f9f   Thumb Code    50  meter.o(.text)
    HalMeterInit                             0x08018fd1   Thumb Code    90  meter.o(.text)
    GetElecMeterType                         0x0801902b   Thumb Code    18  meter.o(.text)
    GetFlowMeterType                         0x08019101   Thumb Code    18  meter.o(.text)
    HalMeterPoll                             0x0801929b   Thumb Code    90  meter.o(.text)
    HalGetMeterInfo                          0x080192f5   Thumb Code     4  meter.o(.text)
    EchoMeterInfo                            0x080192f9   Thumb Code   976  meter.o(.text)
    FLD_R_LSRInit                            0x08019ba1   Thumb Code    36  fld_r_lsh.o(.text)
    FLD_R_LSRQuery                           0x08019bc5   Thumb Code   122  fld_r_lsh.o(.text)
    FLD_R_LSRGetInfo                         0x08019c3f   Thumb Code     6  fld_r_lsh.o(.text)
    intTofloat                               0x08019d21   Thumb Code    24  modbus.o(.text)
    crc16                                    0x08019d39   Thumb Code    62  modbus.o(.text)
    exchangeValue                            0x08019d77   Thumb Code    54  modbus.o(.text)
    ModbusCtrlInit                           0x08019dad   Thumb Code    40  modbus.o(.text)
    ModbusCtrlSetMode                        0x08019dd5   Thumb Code    30  modbus.o(.text)
    modbusReadRegs                           0x08019df3   Thumb Code   138  modbus.o(.text)
    modbusWriteRegs                          0x08019e7d   Thumb Code   232  modbus.o(.text)
    modbusRecvHandle                         0x08019f65   Thumb Code   264  modbus.o(.text)
    HalPT100DTUInit                          0x0801a41f   Thumb Code    40  pt100dtu.o(.text)
    HalPT100DTUPoll                          0x0801a447   Thumb Code     2  pt100dtu.o(.text)
    HalGetPT100DTUInfo                       0x0801a449   Thumb Code     4  pt100dtu.o(.text)
    EchoPT100DTUInfo                         0x0801a44d   Thumb Code   502  pt100dtu.o(.text)
    ZWD433BInit                              0x0801a8c9   Thumb Code    36  zwd433b.o(.text)
    ZWD433BQuery                             0x0801a8ed   Thumb Code   428  zwd433b.o(.text)
    ZWD433BGetInfo                           0x0801aa99   Thumb Code     6  zwd433b.o(.text)
    DTSF667Init                              0x0801b0ef   Thumb Code    34  dtsf667.o(.text)
    DTSF667Query                             0x0801b1a9   Thumb Code   242  dtsf667.o(.text)
    DTSF6677GetInfo                          0x0801b29b   Thumb Code     4  dtsf667.o(.text)
    HandHeld1Init                            0x0801b513   Thumb Code    36  handheld1.o(.text)
    HandHeld1Query                           0x0801b537   Thumb Code   120  handheld1.o(.text)
    HandHeld1GetInfo                         0x0801b5af   Thumb Code     6  handheld1.o(.text)
    f_mount                                  0x0801c2e9   Thumb Code    48  ff.o(.text)
    f_open                                   0x0801c319   Thumb Code   508  ff.o(.text)
    f_read                                   0x0801c515   Thumb Code   380  ff.o(.text)
    f_write                                  0x0801c691   Thumb Code   444  ff.o(.text)
    f_sync                                   0x0801c84d   Thumb Code   180  ff.o(.text)
    f_close                                  0x0801c901   Thumb Code    22  ff.o(.text)
    f_lseek                                  0x0801c917   Thumb Code   370  ff.o(.text)
    f_opendir                                0x0801ca89   Thumb Code   106  ff.o(.text)
    f_readdir                                0x0801caf3   Thumb Code   120  ff.o(.text)
    f_stat                                   0x0801cb6b   Thumb Code    58  ff.o(.text)
    f_truncate                               0x0801cba5   Thumb Code   154  ff.o(.text)
    f_getfree                                0x0801cc3f   Thumb Code   248  ff.o(.text)
    f_unlink                                 0x0801cd37   Thumb Code   240  ff.o(.text)
    f_mkdir                                  0x0801ce27   Thumb Code   446  ff.o(.text)
    f_chmod                                  0x0801cfe5   Thumb Code    80  ff.o(.text)
    f_utime                                  0x0801d035   Thumb Code    86  ff.o(.text)
    f_rename                                 0x0801d08b   Thumb Code   192  ff.o(.text)
    f_mkfs                                   0x0801d14b   Thumb Code  1458  ff.o(.text)
    ffgets                                   0x0801d6fd   Thumb Code    72  ff.o(.text)
    ffputc                                   0x0801d745   Thumb Code    42  ff.o(.text)
    ffputs                                   0x0801d76f   Thumb Code    42  ff.o(.text)
    ffprintf                                 0x0801d799   Thumb Code   438  ff.o(.text)
    SPIx_Init                                0x0801d951   Thumb Code    14  sdc_diskio.o(.text)
    SPIx_ReadWriteByte                       0x0801d95f   Thumb Code    14  sdc_diskio.o(.text)
    SD_GetResponse                           0x0801d96d   Thumb Code    38  sdc_diskio.o(.text)
    SD_WaitDataReady                         0x0801d993   Thumb Code    98  sdc_diskio.o(.text)
    SD_SendCommand                           0x0801d9f5   Thumb Code   128  sdc_diskio.o(.text)
    SD_SendCommand_NoDeassert                0x0801da75   Thumb Code   106  sdc_diskio.o(.text)
    SD_Idle_Sta                              0x0801dadf   Thumb Code    74  sdc_diskio.o(.text)
    SD_Init                                  0x0801db29   Thumb Code   452  sdc_diskio.o(.text)
    SD_ReceiveData                           0x0801dced   Thumb Code    92  sdc_diskio.o(.text)
    SD_GetCID                                0x0801dd49   Thumb Code    36  sdc_diskio.o(.text)
    SD_GetCSD                                0x0801dd6d   Thumb Code    36  sdc_diskio.o(.text)
    SD_GetCapacity                           0x0801dd91   Thumb Code   206  sdc_diskio.o(.text)
    SD_ReadSingleBlock                       0x0801de5f   Thumb Code    72  sdc_diskio.o(.text)
    MSD_WriteBuffer                          0x0801dea7   Thumb Code   166  sdc_diskio.o(.text)
    MSD_ReadBuffer                           0x0801df4d   Thumb Code   140  sdc_diskio.o(.text)
    SD_WriteSingleBlock                      0x0801dfd9   Thumb Code   200  sdc_diskio.o(.text)
    SD_ReadMultiBlock                        0x0801e0a1   Thumb Code   106  sdc_diskio.o(.text)
    SD_WriteMultiBlock                       0x0801e10b   Thumb Code   230  sdc_diskio.o(.text)
    SD_Read_Bytes                            0x0801e1f1   Thumb Code   196  sdc_diskio.o(.text)
    chk_power                                0x0801e2fb   Thumb Code     4  sdc_diskio.o(.text)
    disk_initialize                          0x0801e3eb   Thumb Code    34  sdc_diskio.o(.text)
    disk_status                              0x0801e40d   Thumb Code    28  sdc_diskio.o(.text)
    disk_read                                0x0801e429   Thumb Code    86  sdc_diskio.o(.text)
    disk_write                               0x0801e47f   Thumb Code    78  sdc_diskio.o(.text)
    disk_ioctl                               0x0801e4cd   Thumb Code   746  sdc_diskio.o(.text)
    get_fattime                              0x0801e7b7   Thumb Code     4  sdc_diskio.o(.text)
    SDCardRecordInit                         0x0801e7c1   Thumb Code   104  sdcardrecord.o(.text)
    RecordReportStop                         0x0801e9d1   Thumb Code    32  sdcardrecord.o(.text)
    RecordPraseTs                            0x0801e9f1   Thumb Code   112  sdcardrecord.o(.text)
    SDCardRecordPoll                         0x0801ed75   Thumb Code    46  sdcardrecord.o(.text)
    RecordBuildStart                         0x0801eda3   Thumb Code   126  sdcardrecord.o(.text)
    RecordBuild                              0x0801ee21   Thumb Code    64  sdcardrecord.o(.text)
    RecordBuildEnd                           0x0801eec1   Thumb Code   156  sdcardrecord.o(.text)
    RecordReportStart                        0x0801ef5d   Thumb Code   112  sdcardrecord.o(.text)
    SDCardGetCap                             0x0801efcd   Thumb Code    86  sdcardrecord.o(.text)
    SDCardWirteModuleInfo                    0x0801f023   Thumb Code    90  sdcardrecord.o(.text)
    PropertyInit                             0x0801f1d1   Thumb Code     8  property.o(.text)
    PropertyPoll                             0x0801f1d9   Thumb Code     2  property.o(.text)
    post_all_property                        0x0801f1db   Thumb Code    20  property.o(.text)
    record_all_property                      0x0801f1ef   Thumb Code    12  property.o(.text)
    OutDoorPidInit                           0x0801f1fd   Thumb Code    38  outdoorpid.o(.text)
    Outdoor_post_all_property                0x0801f471   Thumb Code   892  outdoorpid.o(.text)
    Outdoor_record_all_property              0x0801f7ed   Thumb Code   744  outdoorpid.o(.text)
    BKP_DeInit                               0x0801fae1   Thumb Code    16  stm32f10x_bkp.o(.text)
    BKP_TamperPinLevelConfig                 0x0801faf1   Thumb Code     6  stm32f10x_bkp.o(.text)
    BKP_TamperPinCmd                         0x0801faf7   Thumb Code     8  stm32f10x_bkp.o(.text)
    BKP_ITConfig                             0x0801faff   Thumb Code     8  stm32f10x_bkp.o(.text)
    BKP_RTCOutputConfig                      0x0801fb07   Thumb Code    22  stm32f10x_bkp.o(.text)
    BKP_SetRTCCalibrationValue               0x0801fb1d   Thumb Code    22  stm32f10x_bkp.o(.text)
    BKP_WriteBackupRegister                  0x0801fb33   Thumb Code    24  stm32f10x_bkp.o(.text)
    BKP_ReadBackupRegister                   0x0801fb4b   Thumb Code    26  stm32f10x_bkp.o(.text)
    BKP_GetFlagStatus                        0x0801fb65   Thumb Code    10  stm32f10x_bkp.o(.text)
    BKP_ClearFlag                            0x0801fb6f   Thumb Code    18  stm32f10x_bkp.o(.text)
    BKP_GetITStatus                          0x0801fb81   Thumb Code    10  stm32f10x_bkp.o(.text)
    BKP_ClearITPendingBit                    0x0801fb8b   Thumb Code    18  stm32f10x_bkp.o(.text)
    EXTI_DeInit                              0x0801fba5   Thumb Code    28  stm32f10x_exti.o(.text)
    EXTI_Init                                0x0801fbc1   Thumb Code   142  stm32f10x_exti.o(.text)
    EXTI_StructInit                          0x0801fc4f   Thumb Code    16  stm32f10x_exti.o(.text)
    EXTI_GenerateSWInterrupt                 0x0801fc5f   Thumb Code    16  stm32f10x_exti.o(.text)
    EXTI_GetFlagStatus                       0x0801fc6f   Thumb Code    22  stm32f10x_exti.o(.text)
    EXTI_ClearFlag                           0x0801fc85   Thumb Code     8  stm32f10x_exti.o(.text)
    EXTI_GetITStatus                         0x0801fc8d   Thumb Code    34  stm32f10x_exti.o(.text)
    EXTI_ClearITPendingBit                   0x0801fcaf   Thumb Code     8  stm32f10x_exti.o(.text)
    FLASH_SetLatency                         0x0801fcc1   Thumb Code    18  stm32f10x_flash.o(.text)
    FLASH_HalfCycleAccessCmd                 0x0801fcd3   Thumb Code    22  stm32f10x_flash.o(.text)
    FLASH_PrefetchBufferCmd                  0x0801fce9   Thumb Code    22  stm32f10x_flash.o(.text)
    FLASH_Unlock                             0x0801fcff   Thumb Code    12  stm32f10x_flash.o(.text)
    FLASH_UnlockBank1                        0x0801fd0b   Thumb Code    12  stm32f10x_flash.o(.text)
    FLASH_Lock                               0x0801fd17   Thumb Code    14  stm32f10x_flash.o(.text)
    FLASH_LockBank1                          0x0801fd25   Thumb Code    14  stm32f10x_flash.o(.text)
    FLASH_GetBank1Status                     0x0801fd33   Thumb Code    48  stm32f10x_flash.o(.text)
    FLASH_WaitForLastOperation               0x0801fd63   Thumb Code    38  stm32f10x_flash.o(.text)
    FLASH_ErasePage                          0x0801fd89   Thumb Code    72  stm32f10x_flash.o(.text)
    FLASH_EraseAllPages                      0x0801fdd1   Thumb Code    68  stm32f10x_flash.o(.text)
    FLASH_WaitForLastBank1Operation          0x0801fe15   Thumb Code    38  stm32f10x_flash.o(.text)
    FLASH_EraseAllBank1Pages                 0x0801fe3b   Thumb Code    68  stm32f10x_flash.o(.text)
    FLASH_GetReadOutProtectionStatus         0x0801fe7f   Thumb Code    20  stm32f10x_flash.o(.text)
    FLASH_EraseOptionBytes                   0x0801fe93   Thumb Code   150  stm32f10x_flash.o(.text)
    FLASH_ProgramWord                        0x0801ff29   Thumb Code   102  stm32f10x_flash.o(.text)
    FLASH_ProgramHalfWord                    0x0801ff8f   Thumb Code    60  stm32f10x_flash.o(.text)
    FLASH_ProgramOptionByteData              0x0801ffcb   Thumb Code    72  stm32f10x_flash.o(.text)
    FLASH_EnableWriteProtection              0x08020013   Thumb Code   200  stm32f10x_flash.o(.text)
    FLASH_ReadOutProtection                  0x080200db   Thumb Code   156  stm32f10x_flash.o(.text)
    FLASH_UserOptionByteConfig               0x08020177   Thumb Code    88  stm32f10x_flash.o(.text)
    FLASH_GetUserOptionByte                  0x080201cf   Thumb Code     8  stm32f10x_flash.o(.text)
    FLASH_GetWriteProtectionOptionByte       0x080201d7   Thumb Code     6  stm32f10x_flash.o(.text)
    FLASH_GetPrefetchBufferStatus            0x080201dd   Thumb Code    20  stm32f10x_flash.o(.text)
    FLASH_ITConfig                           0x080201f1   Thumb Code    26  stm32f10x_flash.o(.text)
    FLASH_GetFlagStatus                      0x0802020b   Thumb Code    42  stm32f10x_flash.o(.text)
    FLASH_ClearFlag                          0x08020235   Thumb Code     6  stm32f10x_flash.o(.text)
    FLASH_GetStatus                          0x0802023b   Thumb Code    48  stm32f10x_flash.o(.text)
    GPIO_DeInit                              0x0802027d   Thumb Code   172  stm32f10x_gpio.o(.text)
    GPIO_AFIODeInit                          0x08020329   Thumb Code    20  stm32f10x_gpio.o(.text)
    GPIO_Init                                0x0802033d   Thumb Code   278  stm32f10x_gpio.o(.text)
    GPIO_StructInit                          0x08020453   Thumb Code    16  stm32f10x_gpio.o(.text)
    GPIO_ReadInputDataBit                    0x08020463   Thumb Code    18  stm32f10x_gpio.o(.text)
    GPIO_ReadInputData                       0x08020475   Thumb Code     8  stm32f10x_gpio.o(.text)
    GPIO_ReadOutputDataBit                   0x0802047d   Thumb Code    18  stm32f10x_gpio.o(.text)
    GPIO_ReadOutputData                      0x0802048f   Thumb Code     8  stm32f10x_gpio.o(.text)
    GPIO_SetBits                             0x08020497   Thumb Code     4  stm32f10x_gpio.o(.text)
    GPIO_ResetBits                           0x0802049b   Thumb Code     4  stm32f10x_gpio.o(.text)
    GPIO_WriteBit                            0x0802049f   Thumb Code    10  stm32f10x_gpio.o(.text)
    GPIO_Write                               0x080204a9   Thumb Code     4  stm32f10x_gpio.o(.text)
    GPIO_PinLockConfig                       0x080204ad   Thumb Code    18  stm32f10x_gpio.o(.text)
    GPIO_EventOutputConfig                   0x080204bf   Thumb Code    26  stm32f10x_gpio.o(.text)
    GPIO_EventOutputCmd                      0x080204d9   Thumb Code     6  stm32f10x_gpio.o(.text)
    GPIO_PinRemapConfig                      0x080204df   Thumb Code   138  stm32f10x_gpio.o(.text)
    GPIO_EXTILineConfig                      0x08020569   Thumb Code    66  stm32f10x_gpio.o(.text)
    GPIO_ETH_MediaInterfaceConfig            0x080205ab   Thumb Code     8  stm32f10x_gpio.o(.text)
    IWDG_WriteAccessCmd                      0x080205d9   Thumb Code     6  stm32f10x_iwdg.o(.text)
    IWDG_SetPrescaler                        0x080205df   Thumb Code     6  stm32f10x_iwdg.o(.text)
    IWDG_SetReload                           0x080205e5   Thumb Code     6  stm32f10x_iwdg.o(.text)
    IWDG_ReloadCounter                       0x080205eb   Thumb Code    10  stm32f10x_iwdg.o(.text)
    IWDG_Enable                              0x080205f5   Thumb Code    10  stm32f10x_iwdg.o(.text)
    IWDG_GetFlagStatus                       0x080205ff   Thumb Code    20  stm32f10x_iwdg.o(.text)
    PWR_DeInit                               0x08020619   Thumb Code    22  stm32f10x_pwr.o(.text)
    PWR_BackupAccessCmd                      0x0802062f   Thumb Code     6  stm32f10x_pwr.o(.text)
    PWR_PVDCmd                               0x08020635   Thumb Code     6  stm32f10x_pwr.o(.text)
    PWR_PVDLevelConfig                       0x0802063b   Thumb Code    18  stm32f10x_pwr.o(.text)
    PWR_WakeUpPinCmd                         0x0802064d   Thumb Code     8  stm32f10x_pwr.o(.text)
    PWR_EnterSTOPMode                        0x08020655   Thumb Code    54  stm32f10x_pwr.o(.text)
    PWR_EnterSTANDBYMode                     0x0802068b   Thumb Code    42  stm32f10x_pwr.o(.text)
    PWR_GetFlagStatus                        0x080206b5   Thumb Code    20  stm32f10x_pwr.o(.text)
    PWR_ClearFlag                            0x080206c9   Thumb Code    14  stm32f10x_pwr.o(.text)
    RCC_DeInit                               0x080206e5   Thumb Code    64  stm32f10x_rcc.o(.text)
    RCC_HSEConfig                            0x08020725   Thumb Code    70  stm32f10x_rcc.o(.text)
    RCC_GetFlagStatus                        0x0802076b   Thumb Code    56  stm32f10x_rcc.o(.text)
    RCC_WaitForHSEStartUp                    0x080207a3   Thumb Code    56  stm32f10x_rcc.o(.text)
    RCC_AdjustHSICalibrationValue            0x080207db   Thumb Code    20  stm32f10x_rcc.o(.text)
    RCC_HSICmd                               0x080207ef   Thumb Code     6  stm32f10x_rcc.o(.text)
    RCC_PLLConfig                            0x080207f5   Thumb Code    24  stm32f10x_rcc.o(.text)
    RCC_PLLCmd                               0x0802080d   Thumb Code     6  stm32f10x_rcc.o(.text)
    RCC_SYSCLKConfig                         0x08020813   Thumb Code    18  stm32f10x_rcc.o(.text)
    RCC_GetSYSCLKSource                      0x08020825   Thumb Code    10  stm32f10x_rcc.o(.text)
    RCC_HCLKConfig                           0x0802082f   Thumb Code    18  stm32f10x_rcc.o(.text)
    RCC_PCLK1Config                          0x08020841   Thumb Code    18  stm32f10x_rcc.o(.text)
    RCC_PCLK2Config                          0x08020853   Thumb Code    20  stm32f10x_rcc.o(.text)
    RCC_ITConfig                             0x08020867   Thumb Code    26  stm32f10x_rcc.o(.text)
    RCC_USBCLKConfig                         0x08020881   Thumb Code     8  stm32f10x_rcc.o(.text)
    RCC_ADCCLKConfig                         0x08020889   Thumb Code    18  stm32f10x_rcc.o(.text)
    RCC_LSEConfig                            0x0802089b   Thumb Code    50  stm32f10x_rcc.o(.text)
    RCC_LSICmd                               0x080208cd   Thumb Code     6  stm32f10x_rcc.o(.text)
    RCC_RTCCLKConfig                         0x080208d3   Thumb Code    12  stm32f10x_rcc.o(.text)
    RCC_RTCCLKCmd                            0x080208df   Thumb Code     8  stm32f10x_rcc.o(.text)
    RCC_GetClocksFreq                        0x080208e7   Thumb Code   192  stm32f10x_rcc.o(.text)
    RCC_AHBPeriphClockCmd                    0x080209a7   Thumb Code    26  stm32f10x_rcc.o(.text)
    RCC_APB2PeriphClockCmd                   0x080209c1   Thumb Code    26  stm32f10x_rcc.o(.text)
    RCC_APB1PeriphClockCmd                   0x080209db   Thumb Code    26  stm32f10x_rcc.o(.text)
    RCC_APB2PeriphResetCmd                   0x080209f5   Thumb Code    26  stm32f10x_rcc.o(.text)
    RCC_APB1PeriphResetCmd                   0x08020a0f   Thumb Code    26  stm32f10x_rcc.o(.text)
    RCC_BackupResetCmd                       0x08020a29   Thumb Code     8  stm32f10x_rcc.o(.text)
    RCC_ClockSecuritySystemCmd               0x08020a31   Thumb Code     6  stm32f10x_rcc.o(.text)
    RCC_MCOConfig                            0x08020a37   Thumb Code     6  stm32f10x_rcc.o(.text)
    RCC_ClearFlag                            0x08020a3d   Thumb Code    14  stm32f10x_rcc.o(.text)
    RCC_GetITStatus                          0x08020a4b   Thumb Code    20  stm32f10x_rcc.o(.text)
    RCC_ClearITPendingBit                    0x08020a5f   Thumb Code     6  stm32f10x_rcc.o(.text)
    RTC_ITConfig                             0x08020a89   Thumb Code    26  stm32f10x_rtc.o(.text)
    RTC_EnterConfigMode                      0x08020aa3   Thumb Code    18  stm32f10x_rtc.o(.text)
    RTC_ExitConfigMode                       0x08020ab5   Thumb Code    20  stm32f10x_rtc.o(.text)
    RTC_GetCounter                           0x08020ac9   Thumb Code    18  stm32f10x_rtc.o(.text)
    RTC_SetCounter                           0x08020adb   Thumb Code    26  stm32f10x_rtc.o(.text)
    RTC_SetPrescaler                         0x08020af5   Thumb Code    28  stm32f10x_rtc.o(.text)
    RTC_SetAlarm                             0x08020b11   Thumb Code    26  stm32f10x_rtc.o(.text)
    RTC_GetDivider                           0x08020b2b   Thumb Code    22  stm32f10x_rtc.o(.text)
    RTC_WaitForLastTask                      0x08020b41   Thumb Code    18  stm32f10x_rtc.o(.text)
    RTC_WaitForSynchro                       0x08020b53   Thumb Code    36  stm32f10x_rtc.o(.text)
    RTC_GetFlagStatus                        0x08020b77   Thumb Code    22  stm32f10x_rtc.o(.text)
    RTC_ClearFlag                            0x08020b8d   Thumb Code    16  stm32f10x_rtc.o(.text)
    RTC_GetITStatus                          0x08020b9d   Thumb Code    32  stm32f10x_rtc.o(.text)
    RTC_ClearITPendingBit                    0x08020bbd   Thumb Code    16  stm32f10x_rtc.o(.text)
    SPI_I2S_DeInit                           0x08020bd1   Thumb Code    76  stm32f10x_spi.o(.text)
    SPI_Init                                 0x08020c1d   Thumb Code    60  stm32f10x_spi.o(.text)
    I2S_Init                                 0x08020c59   Thumb Code   226  stm32f10x_spi.o(.text)
    SPI_StructInit                           0x08020d3b   Thumb Code    24  stm32f10x_spi.o(.text)
    I2S_StructInit                           0x08020d53   Thumb Code    20  stm32f10x_spi.o(.text)
    SPI_Cmd                                  0x08020d67   Thumb Code    24  stm32f10x_spi.o(.text)
    I2S_Cmd                                  0x08020d7f   Thumb Code    24  stm32f10x_spi.o(.text)
    SPI_I2S_ITConfig                         0x08020d97   Thumb Code    32  stm32f10x_spi.o(.text)
    SPI_I2S_DMACmd                           0x08020db7   Thumb Code    18  stm32f10x_spi.o(.text)
    SPI_I2S_SendData                         0x08020dc9   Thumb Code     4  stm32f10x_spi.o(.text)
    SPI_I2S_ReceiveData                      0x08020dcd   Thumb Code     6  stm32f10x_spi.o(.text)
    SPI_NSSInternalSoftwareConfig            0x08020dd3   Thumb Code    30  stm32f10x_spi.o(.text)
    SPI_SSOutputCmd                          0x08020df1   Thumb Code    24  stm32f10x_spi.o(.text)
    SPI_DataSizeConfig                       0x08020e09   Thumb Code    18  stm32f10x_spi.o(.text)
    SPI_TransmitCRC                          0x08020e1b   Thumb Code    10  stm32f10x_spi.o(.text)
    SPI_CalculateCRC                         0x08020e25   Thumb Code    24  stm32f10x_spi.o(.text)
    SPI_GetCRC                               0x08020e3d   Thumb Code    16  stm32f10x_spi.o(.text)
    SPI_GetCRCPolynomial                     0x08020e4d   Thumb Code     6  stm32f10x_spi.o(.text)
    SPI_BiDirectionalLineConfig              0x08020e53   Thumb Code    28  stm32f10x_spi.o(.text)
    SPI_I2S_GetFlagStatus                    0x08020e6f   Thumb Code    18  stm32f10x_spi.o(.text)
    SPI_I2S_ClearFlag                        0x08020e81   Thumb Code     6  stm32f10x_spi.o(.text)
    SPI_I2S_GetITStatus                      0x08020e87   Thumb Code    52  stm32f10x_spi.o(.text)
    SPI_I2S_ClearITPendingBit                0x08020ebb   Thumb Code    20  stm32f10x_spi.o(.text)
    TIM_DeInit                               0x08020edd   Thumb Code   424  stm32f10x_tim.o(.text)
    TIM_TimeBaseInit                         0x08021085   Thumb Code   122  stm32f10x_tim.o(.text)
    TIM_OC1Init                              0x080210ff   Thumb Code   132  stm32f10x_tim.o(.text)
    TIM_OC2Init                              0x08021183   Thumb Code   154  stm32f10x_tim.o(.text)
    TIM_OC3Init                              0x0802121d   Thumb Code   150  stm32f10x_tim.o(.text)
    TIM_OC4Init                              0x080212b3   Thumb Code   182  stm32f10x_tim.o(.text)
    TIM_SetIC4Prescaler                      0x08021369   Thumb Code    26  stm32f10x_tim.o(.text)
    TIM_SetIC3Prescaler                      0x08021405   Thumb Code    18  stm32f10x_tim.o(.text)
    TIM_SetIC2Prescaler                      0x08021491   Thumb Code    26  stm32f10x_tim.o(.text)
    TIM_SetIC1Prescaler                      0x0802152d   Thumb Code    18  stm32f10x_tim.o(.text)
    TIM_ICInit                               0x080215ab   Thumb Code   150  stm32f10x_tim.o(.text)
    TIM_PWMIConfig                           0x08021641   Thumb Code   124  stm32f10x_tim.o(.text)
    TIM_BDTRConfig                           0x080216bd   Thumb Code    32  stm32f10x_tim.o(.text)
    TIM_TimeBaseStructInit                   0x080216dd   Thumb Code    18  stm32f10x_tim.o(.text)
    TIM_OCStructInit                         0x080216ef   Thumb Code    20  stm32f10x_tim.o(.text)
    TIM_ICStructInit                         0x08021703   Thumb Code    18  stm32f10x_tim.o(.text)
    TIM_BDTRStructInit                       0x08021715   Thumb Code    40  stm32f10x_tim.o(.text)
    TIM_Cmd                                  0x0802173d   Thumb Code    24  stm32f10x_tim.o(.text)
    TIM_CtrlPWMOutputs                       0x08021755   Thumb Code    30  stm32f10x_tim.o(.text)
    TIM_ITConfig                             0x08021773   Thumb Code    18  stm32f10x_tim.o(.text)
    TIM_GenerateEvent                        0x08021785   Thumb Code     4  stm32f10x_tim.o(.text)
    TIM_DMAConfig                            0x08021789   Thumb Code    10  stm32f10x_tim.o(.text)
    TIM_DMACmd                               0x08021793   Thumb Code    18  stm32f10x_tim.o(.text)
    TIM_InternalClockConfig                  0x080217a5   Thumb Code    12  stm32f10x_tim.o(.text)
    TIM_SelectInputTrigger                   0x080217b1   Thumb Code    18  stm32f10x_tim.o(.text)
    TIM_ITRxExternalClockConfig              0x080217c3   Thumb Code    24  stm32f10x_tim.o(.text)
    TIM_TIxExternalClockConfig               0x080217db   Thumb Code    62  stm32f10x_tim.o(.text)
    TIM_ETRConfig                            0x08021819   Thumb Code    28  stm32f10x_tim.o(.text)
    TIM_ETRClockMode1Config                  0x08021835   Thumb Code    54  stm32f10x_tim.o(.text)
    TIM_ETRClockMode2Config                  0x0802186b   Thumb Code    32  stm32f10x_tim.o(.text)
    TIM_PrescalerConfig                      0x0802188b   Thumb Code     6  stm32f10x_tim.o(.text)
    TIM_CounterModeConfig                    0x08021891   Thumb Code    18  stm32f10x_tim.o(.text)
    TIM_EncoderInterfaceConfig               0x080218a3   Thumb Code    66  stm32f10x_tim.o(.text)
    TIM_ForcedOC1Config                      0x080218e5   Thumb Code    18  stm32f10x_tim.o(.text)
    TIM_ForcedOC2Config                      0x080218f7   Thumb Code    26  stm32f10x_tim.o(.text)
    TIM_ForcedOC3Config                      0x08021911   Thumb Code    18  stm32f10x_tim.o(.text)
    TIM_ForcedOC4Config                      0x08021923   Thumb Code    26  stm32f10x_tim.o(.text)
    TIM_ARRPreloadConfig                     0x0802193d   Thumb Code    24  stm32f10x_tim.o(.text)
    TIM_SelectCOM                            0x08021955   Thumb Code    24  stm32f10x_tim.o(.text)
    TIM_SelectCCDMA                          0x0802196d   Thumb Code    24  stm32f10x_tim.o(.text)
    TIM_CCPreloadControl                     0x08021985   Thumb Code    24  stm32f10x_tim.o(.text)
    TIM_OC1PreloadConfig                     0x0802199d   Thumb Code    18  stm32f10x_tim.o(.text)
    TIM_OC2PreloadConfig                     0x080219af   Thumb Code    26  stm32f10x_tim.o(.text)
    TIM_OC3PreloadConfig                     0x080219c9   Thumb Code    18  stm32f10x_tim.o(.text)
    TIM_OC4PreloadConfig                     0x080219db   Thumb Code    26  stm32f10x_tim.o(.text)
    TIM_OC1FastConfig                        0x080219f5   Thumb Code    18  stm32f10x_tim.o(.text)
    TIM_OC2FastConfig                        0x08021a07   Thumb Code    26  stm32f10x_tim.o(.text)
    TIM_OC3FastConfig                        0x08021a21   Thumb Code    18  stm32f10x_tim.o(.text)
    TIM_OC4FastConfig                        0x08021a33   Thumb Code    26  stm32f10x_tim.o(.text)
    TIM_ClearOC1Ref                          0x08021a4d   Thumb Code    18  stm32f10x_tim.o(.text)
    TIM_ClearOC2Ref                          0x08021a5f   Thumb Code    24  stm32f10x_tim.o(.text)
    TIM_ClearOC3Ref                          0x08021a77   Thumb Code    18  stm32f10x_tim.o(.text)
    TIM_ClearOC4Ref                          0x08021a89   Thumb Code    24  stm32f10x_tim.o(.text)
    TIM_OC1PolarityConfig                    0x08021aa1   Thumb Code    18  stm32f10x_tim.o(.text)
    TIM_OC1NPolarityConfig                   0x08021ab3   Thumb Code    18  stm32f10x_tim.o(.text)
    TIM_OC2PolarityConfig                    0x08021ac5   Thumb Code    26  stm32f10x_tim.o(.text)
    TIM_OC2NPolarityConfig                   0x08021adf   Thumb Code    26  stm32f10x_tim.o(.text)
    TIM_OC3PolarityConfig                    0x08021af9   Thumb Code    26  stm32f10x_tim.o(.text)
    TIM_OC3NPolarityConfig                   0x08021b13   Thumb Code    26  stm32f10x_tim.o(.text)
    TIM_OC4PolarityConfig                    0x08021b2d   Thumb Code    26  stm32f10x_tim.o(.text)
    TIM_CCxCmd                               0x08021b47   Thumb Code    30  stm32f10x_tim.o(.text)
    TIM_CCxNCmd                              0x08021b65   Thumb Code    30  stm32f10x_tim.o(.text)
    TIM_SelectOCxM                           0x08021b83   Thumb Code    82  stm32f10x_tim.o(.text)
    TIM_UpdateDisableConfig                  0x08021bd5   Thumb Code    24  stm32f10x_tim.o(.text)
    TIM_UpdateRequestConfig                  0x08021bed   Thumb Code    24  stm32f10x_tim.o(.text)
    TIM_SelectHallSensor                     0x08021c05   Thumb Code    24  stm32f10x_tim.o(.text)
    TIM_SelectOnePulseMode                   0x08021c1d   Thumb Code    18  stm32f10x_tim.o(.text)
    TIM_SelectOutputTrigger                  0x08021c2f   Thumb Code    18  stm32f10x_tim.o(.text)
    TIM_SelectSlaveMode                      0x08021c41   Thumb Code    18  stm32f10x_tim.o(.text)
    TIM_SelectMasterSlaveMode                0x08021c53   Thumb Code    18  stm32f10x_tim.o(.text)
    TIM_SetCounter                           0x08021c65   Thumb Code     4  stm32f10x_tim.o(.text)
    TIM_SetAutoreload                        0x08021c69   Thumb Code     4  stm32f10x_tim.o(.text)
    TIM_SetCompare1                          0x08021c6d   Thumb Code     4  stm32f10x_tim.o(.text)
    TIM_SetCompare2                          0x08021c71   Thumb Code     4  stm32f10x_tim.o(.text)
    TIM_SetCompare3                          0x08021c75   Thumb Code     4  stm32f10x_tim.o(.text)
    TIM_SetCompare4                          0x08021c79   Thumb Code     6  stm32f10x_tim.o(.text)
    TIM_SetClockDivision                     0x08021c7f   Thumb Code    18  stm32f10x_tim.o(.text)
    TIM_GetCapture1                          0x08021c91   Thumb Code     6  stm32f10x_tim.o(.text)
    TIM_GetCapture2                          0x08021c97   Thumb Code     6  stm32f10x_tim.o(.text)
    TIM_GetCapture3                          0x08021c9d   Thumb Code     6  stm32f10x_tim.o(.text)
    TIM_GetCapture4                          0x08021ca3   Thumb Code     8  stm32f10x_tim.o(.text)
    TIM_GetCounter                           0x08021cab   Thumb Code     6  stm32f10x_tim.o(.text)
    TIM_GetPrescaler                         0x08021cb1   Thumb Code     6  stm32f10x_tim.o(.text)
    TIM_GetFlagStatus                        0x08021cb7   Thumb Code    18  stm32f10x_tim.o(.text)
    TIM_ClearFlag                            0x08021cc9   Thumb Code     6  stm32f10x_tim.o(.text)
    TIM_GetITStatus                          0x08021ccf   Thumb Code    34  stm32f10x_tim.o(.text)
    TIM_ClearITPendingBit                    0x08021cf1   Thumb Code     6  stm32f10x_tim.o(.text)
    USART_DeInit                             0x08021cf9   Thumb Code   134  stm32f10x_usart.o(.text)
    USART_Init                               0x08021d7f   Thumb Code   210  stm32f10x_usart.o(.text)
    USART_StructInit                         0x08021e51   Thumb Code    24  stm32f10x_usart.o(.text)
    USART_ClockInit                          0x08021e69   Thumb Code    34  stm32f10x_usart.o(.text)
    USART_ClockStructInit                    0x08021e8b   Thumb Code    12  stm32f10x_usart.o(.text)
    USART_Cmd                                0x08021e97   Thumb Code    24  stm32f10x_usart.o(.text)
    USART_ITConfig                           0x08021eaf   Thumb Code    74  stm32f10x_usart.o(.text)
    USART_DMACmd                             0x08021ef9   Thumb Code    18  stm32f10x_usart.o(.text)
    USART_SetAddress                         0x08021f0b   Thumb Code    18  stm32f10x_usart.o(.text)
    USART_WakeUpConfig                       0x08021f1d   Thumb Code    18  stm32f10x_usart.o(.text)
    USART_ReceiverWakeUpCmd                  0x08021f2f   Thumb Code    24  stm32f10x_usart.o(.text)
    USART_LINBreakDetectLengthConfig         0x08021f47   Thumb Code    18  stm32f10x_usart.o(.text)
    USART_LINCmd                             0x08021f59   Thumb Code    24  stm32f10x_usart.o(.text)
    USART_SendData                           0x08021f71   Thumb Code     8  stm32f10x_usart.o(.text)
    USART_ReceiveData                        0x08021f79   Thumb Code    10  stm32f10x_usart.o(.text)
    USART_SendBreak                          0x08021f83   Thumb Code    10  stm32f10x_usart.o(.text)
    USART_SetGuardTime                       0x08021f8d   Thumb Code    16  stm32f10x_usart.o(.text)
    USART_SetPrescaler                       0x08021f9d   Thumb Code    16  stm32f10x_usart.o(.text)
    USART_SmartCardCmd                       0x08021fad   Thumb Code    24  stm32f10x_usart.o(.text)
    USART_SmartCardNACKCmd                   0x08021fc5   Thumb Code    24  stm32f10x_usart.o(.text)
    USART_HalfDuplexCmd                      0x08021fdd   Thumb Code    24  stm32f10x_usart.o(.text)
    USART_OverSampling8Cmd                   0x08021ff5   Thumb Code    22  stm32f10x_usart.o(.text)
    USART_OneBitMethodCmd                    0x0802200b   Thumb Code    24  stm32f10x_usart.o(.text)
    USART_IrDAConfig                         0x08022023   Thumb Code    18  stm32f10x_usart.o(.text)
    USART_IrDACmd                            0x08022035   Thumb Code    24  stm32f10x_usart.o(.text)
    USART_GetFlagStatus                      0x0802204d   Thumb Code    26  stm32f10x_usart.o(.text)
    USART_ClearFlag                          0x08022067   Thumb Code    18  stm32f10x_usart.o(.text)
    USART_GetITStatus                        0x08022079   Thumb Code    84  stm32f10x_usart.o(.text)
    USART_ClearITPendingBit                  0x080220cd   Thumb Code    52  stm32f10x_usart.o(.text)
    DMA_ChannelInitialize                    0x08022101   Thumb Code   444  dma_stm32f10x.o(.text)
    DMA_ChannelUninitialize                  0x080222bd   Thumb Code   334  dma_stm32f10x.o(.text)
    DMA1_Channel1_Event                      0x0802240b   Thumb Code     2  dma_stm32f10x.o(.text)
    DMA1_Channel2_Event                      0x0802240d   Thumb Code     2  dma_stm32f10x.o(.text)
    DMA1_Channel3_Event                      0x0802240f   Thumb Code     2  dma_stm32f10x.o(.text)
    DMA1_Channel4_Event                      0x08022411   Thumb Code     2  dma_stm32f10x.o(.text)
    DMA1_Channel5_Event                      0x08022413   Thumb Code     2  dma_stm32f10x.o(.text)
    DMA1_Channel6_Event                      0x08022415   Thumb Code     2  dma_stm32f10x.o(.text)
    DMA1_Channel7_Event                      0x08022417   Thumb Code     2  dma_stm32f10x.o(.text)
    DMA2_Channel1_Event                      0x08022419   Thumb Code     2  dma_stm32f10x.o(.text)
    DMA2_Channel2_Event                      0x0802241b   Thumb Code     2  dma_stm32f10x.o(.text)
    DMA2_Channel3_Event                      0x0802241d   Thumb Code     2  dma_stm32f10x.o(.text)
    DMA2_Channel4_Event                      0x0802241f   Thumb Code     2  dma_stm32f10x.o(.text)
    DMA2_Channel5_Event                      0x08022421   Thumb Code     2  dma_stm32f10x.o(.text)
    DMA1_Channel1_IRQHandler                 0x08022423   Thumb Code    22  dma_stm32f10x.o(.text)
    DMA1_Channel2_IRQHandler                 0x08022439   Thumb Code    24  dma_stm32f10x.o(.text)
    DMA1_Channel3_IRQHandler                 0x08022451   Thumb Code    24  dma_stm32f10x.o(.text)
    DMA1_Channel4_IRQHandler                 0x08022469   Thumb Code    24  dma_stm32f10x.o(.text)
    DMA1_Channel5_IRQHandler                 0x08022481   Thumb Code    24  dma_stm32f10x.o(.text)
    DMA1_Channel6_IRQHandler                 0x08022499   Thumb Code    24  dma_stm32f10x.o(.text)
    DMA1_Channel7_IRQHandler                 0x080224b1   Thumb Code    24  dma_stm32f10x.o(.text)
    DMA2_Channel1_IRQHandler                 0x080224c9   Thumb Code    26  dma_stm32f10x.o(.text)
    DMA2_Channel2_IRQHandler                 0x080224e3   Thumb Code    50  dma_stm32f10x.o(.text)
    DMA2_Channel3_IRQHandler                 0x08022515   Thumb Code    26  dma_stm32f10x.o(.text)
    DMA2_Channel4_IRQHandler                 0x0802252f   Thumb Code    26  dma_stm32f10x.o(.text)
    DMA2_Channel4_5_IRQHandler               0x08022549   Thumb Code    52  dma_stm32f10x.o(.text)
    Reset_Handler                            0x080225c5   Thumb Code     8  startup_stm32f10x_hd.o(.text)
    ADC1_2_IRQHandler                        0x080225df   Thumb Code     0  startup_stm32f10x_hd.o(.text)
    ADC3_IRQHandler                          0x080225df   Thumb Code     0  startup_stm32f10x_hd.o(.text)
    CAN1_RX1_IRQHandler                      0x080225df   Thumb Code     0  startup_stm32f10x_hd.o(.text)
    CAN1_SCE_IRQHandler                      0x080225df   Thumb Code     0  startup_stm32f10x_hd.o(.text)
    EXTI0_IRQHandler                         0x080225df   Thumb Code     0  startup_stm32f10x_hd.o(.text)
    EXTI15_10_IRQHandler                     0x080225df   Thumb Code     0  startup_stm32f10x_hd.o(.text)
    EXTI1_IRQHandler                         0x080225df   Thumb Code     0  startup_stm32f10x_hd.o(.text)
    EXTI2_IRQHandler                         0x080225df   Thumb Code     0  startup_stm32f10x_hd.o(.text)
    EXTI3_IRQHandler                         0x080225df   Thumb Code     0  startup_stm32f10x_hd.o(.text)
    EXTI4_IRQHandler                         0x080225df   Thumb Code     0  startup_stm32f10x_hd.o(.text)
    FLASH_IRQHandler                         0x080225df   Thumb Code     0  startup_stm32f10x_hd.o(.text)
    FSMC_IRQHandler                          0x080225df   Thumb Code     0  startup_stm32f10x_hd.o(.text)
    I2C1_ER_IRQHandler                       0x080225df   Thumb Code     0  startup_stm32f10x_hd.o(.text)
    I2C1_EV_IRQHandler                       0x080225df   Thumb Code     0  startup_stm32f10x_hd.o(.text)
    I2C2_ER_IRQHandler                       0x080225df   Thumb Code     0  startup_stm32f10x_hd.o(.text)
    I2C2_EV_IRQHandler                       0x080225df   Thumb Code     0  startup_stm32f10x_hd.o(.text)
    PVD_IRQHandler                           0x080225df   Thumb Code     0  startup_stm32f10x_hd.o(.text)
    RCC_IRQHandler                           0x080225df   Thumb Code     0  startup_stm32f10x_hd.o(.text)
    RTCAlarm_IRQHandler                      0x080225df   Thumb Code     0  startup_stm32f10x_hd.o(.text)
    SDIO_IRQHandler                          0x080225df   Thumb Code     0  startup_stm32f10x_hd.o(.text)
    SPI1_IRQHandler                          0x080225df   Thumb Code     0  startup_stm32f10x_hd.o(.text)
    SPI2_IRQHandler                          0x080225df   Thumb Code     0  startup_stm32f10x_hd.o(.text)
    SPI3_IRQHandler                          0x080225df   Thumb Code     0  startup_stm32f10x_hd.o(.text)
    TAMPER_IRQHandler                        0x080225df   Thumb Code     0  startup_stm32f10x_hd.o(.text)
    TIM1_BRK_IRQHandler                      0x080225df   Thumb Code     0  startup_stm32f10x_hd.o(.text)
    TIM1_CC_IRQHandler                       0x080225df   Thumb Code     0  startup_stm32f10x_hd.o(.text)
    TIM1_TRG_COM_IRQHandler                  0x080225df   Thumb Code     0  startup_stm32f10x_hd.o(.text)
    TIM1_UP_IRQHandler                       0x080225df   Thumb Code     0  startup_stm32f10x_hd.o(.text)
    TIM5_IRQHandler                          0x080225df   Thumb Code     0  startup_stm32f10x_hd.o(.text)
    TIM6_IRQHandler                          0x080225df   Thumb Code     0  startup_stm32f10x_hd.o(.text)
    TIM7_IRQHandler                          0x080225df   Thumb Code     0  startup_stm32f10x_hd.o(.text)
    TIM8_BRK_IRQHandler                      0x080225df   Thumb Code     0  startup_stm32f10x_hd.o(.text)
    TIM8_CC_IRQHandler                       0x080225df   Thumb Code     0  startup_stm32f10x_hd.o(.text)
    TIM8_TRG_COM_IRQHandler                  0x080225df   Thumb Code     0  startup_stm32f10x_hd.o(.text)
    TIM8_UP_IRQHandler                       0x080225df   Thumb Code     0  startup_stm32f10x_hd.o(.text)
    USBWakeUp_IRQHandler                     0x080225df   Thumb Code     0  startup_stm32f10x_hd.o(.text)
    USB_HP_CAN1_TX_IRQHandler                0x080225df   Thumb Code     0  startup_stm32f10x_hd.o(.text)
    USB_LP_CAN1_RX0_IRQHandler               0x080225df   Thumb Code     0  startup_stm32f10x_hd.o(.text)
    WWDG_IRQHandler                          0x080225df   Thumb Code     0  startup_stm32f10x_hd.o(.text)
    __user_initial_stackheap                 0x080225e1   Thumb Code     0  startup_stm32f10x_hd.o(.text)
    SystemInit                               0x080226e3   Thumb Code    78  system_stm32f10x.o(.text)
    SystemCoreClockUpdate                    0x08022731   Thumb Code   142  system_stm32f10x.o(.text)
    malloc                                   0x080227e5   Thumb Code    94  h1_alloc.o(.text)
    free                                     0x08022843   Thumb Code    78  h1_free.o(.text)
    vsprintf                                 0x08022891   Thumb Code    32  vsprintf.o(.text)
    __2printf                                0x080228b5   Thumb Code    20  __2printf.o(.text)
    __2sprintf                               0x080228cd   Thumb Code    38  __2sprintf.o(.text)
    _printf_pre_padding                      0x080228f9   Thumb Code    44  _printf_pad.o(.text)
    _printf_post_padding                     0x08022925   Thumb Code    34  _printf_pad.o(.text)
    _printf_str                              0x08022947   Thumb Code    82  _printf_str.o(.text)
    _printf_int_dec                          0x08022999   Thumb Code   104  _printf_dec.o(.text)
    _printf_longlong_hex                     0x08022a11   Thumb Code    86  _printf_hex_int_ll_ptr.o(.text)
    _printf_int_hex                          0x08022a67   Thumb Code    28  _printf_hex_int_ll_ptr.o(.text)
    _printf_ll_hex                           0x08022a83   Thumb Code    12  _printf_hex_int_ll_ptr.o(.text)
    _printf_hex_ptr                          0x08022a8f   Thumb Code    18  _printf_hex_int_ll_ptr.o(.text)
    __printf                                 0x08022aa5   Thumb Code   388  __printf_flags_ss_wp.o(.text)
    atoi                                     0x08022c2d   Thumb Code    26  atoi.o(.text)
    srand                                    0x08022c49   Thumb Code    42  rand.o(.text)
    _rand_init                               0x08022c73   Thumb Code     4  rand.o(.text)
    strchr                                   0x08022c85   Thumb Code    20  strchr.o(.text)
    strstr                                   0x08022c99   Thumb Code    36  strstr.o(.text)
    memcmp                                   0x08022cbd   Thumb Code    88  memcmp.o(.text)
    strcpy                                   0x08022d15   Thumb Code    72  strcpy.o(.text)
    strlen                                   0x08022d5d   Thumb Code    62  strlen.o(.text)
    __aeabi_memcpy                           0x08022d9b   Thumb Code     0  rt_memcpy_v6.o(.text)
    __rt_memcpy                              0x08022d9b   Thumb Code   138  rt_memcpy_v6.o(.text)
    _memcpy_lastbytes                        0x08022e01   Thumb Code     0  rt_memcpy_v6.o(.text)
    __aeabi_memcpy4                          0x08022e25   Thumb Code     0  rt_memcpy_w.o(.text)
    __aeabi_memcpy8                          0x08022e25   Thumb Code     0  rt_memcpy_w.o(.text)
    __rt_memcpy_w                            0x08022e25   Thumb Code   100  rt_memcpy_w.o(.text)
    _memcpy_lastbytes_aligned                0x08022e6d   Thumb Code     0  rt_memcpy_w.o(.text)
    __aeabi_memset                           0x08022e89   Thumb Code    16  aeabi_memset.o(.text)
    __aeabi_memclr                           0x08022e99   Thumb Code     0  rt_memclr.o(.text)
    __rt_memclr                              0x08022e99   Thumb Code    68  rt_memclr.o(.text)
    _memset                                  0x08022e9d   Thumb Code     0  rt_memclr.o(.text)
    __aeabi_memclr4                          0x08022edd   Thumb Code     0  rt_memclr_w.o(.text)
    __aeabi_memclr8                          0x08022edd   Thumb Code     0  rt_memclr_w.o(.text)
    __rt_memclr_w                            0x08022edd   Thumb Code    78  rt_memclr_w.o(.text)
    _memset_w                                0x08022ee1   Thumb Code     0  rt_memclr_w.o(.text)
    strcmp                                   0x08022f2d   Thumb Code   128  strcmpv7m.o(.text)
    __use_two_region_memory                  0x08022fad   Thumb Code     2  heapauxi.o(.text)
    __rt_heap_escrow                         0x08022faf   Thumb Code     2  heapauxi.o(.text)
    __rt_heap_expand                         0x08022fb1   Thumb Code     2  heapauxi.o(.text)
    __rt_heap_descriptor                     0x08022fb5   Thumb Code     8  rt_heap_descriptor_intlibspace.o(.text)
    __aeabi_errno_addr                       0x08022fbd   Thumb Code     8  rt_errno_addr_intlibspace.o(.text)
    __errno$intlibspace                      0x08022fbd   Thumb Code     0  rt_errno_addr_intlibspace.o(.text)
    __rt_errno_addr$intlibspace              0x08022fbd   Thumb Code     0  rt_errno_addr_intlibspace.o(.text)
    __use_no_heap                            0x08022fc5   Thumb Code     2  hguard.o(.text)
    __heap$guard                             0x08022fc7   Thumb Code     2  hguard.o(.text)
    _terminate_user_alloc                    0x08022fc9   Thumb Code     2  init_alloc.o(.text)
    _init_user_alloc                         0x08022fcb   Thumb Code     2  init_alloc.o(.text)
    __Heap_Full                              0x08022fcd   Thumb Code    34  init_alloc.o(.text)
    __Heap_Broken                            0x08022fef   Thumb Code     6  init_alloc.o(.text)
    _init_alloc                              0x08022ff5   Thumb Code    94  init_alloc.o(.text)
    __Heap_Initialize                        0x08023053   Thumb Code    10  h1_init.o(.text)
    __Heap_DescSize                          0x0802305d   Thumb Code     4  h1_init.o(.text)
    _printf_truncate_signed                  0x08023061   Thumb Code    18  _printf_truncate.o(.text)
    _printf_truncate_unsigned                0x08023073   Thumb Code    18  _printf_truncate.o(.text)
    _printf_int_common                       0x08023085   Thumb Code   178  _printf_intcommon.o(.text)
    _printf_charcount                        0x08023137   Thumb Code    40  _printf_charcount.o(.text)
    __lib_sel_fp_printf                      0x0802315f   Thumb Code     2  _printf_fp_dec.o(.text)
    _printf_fp_dec_real                      0x0802330d   Thumb Code   620  _printf_fp_dec.o(.text)
    _printf_char_common                      0x08023583   Thumb Code    32  _printf_char_common.o(.text)
    _sputc                                   0x080235a9   Thumb Code    10  _sputc.o(.text)
    _printf_cs_common                        0x080235b3   Thumb Code    20  _printf_char.o(.text)
    _printf_char                             0x080235c7   Thumb Code    16  _printf_char.o(.text)
    _printf_string                           0x080235d7   Thumb Code     8  _printf_char.o(.text)
    _printf_char_file                        0x080235e1   Thumb Code    32  _printf_char_file.o(.text)
    _printf_wctomb                           0x08023605   Thumb Code   182  _printf_wctomb.o(.text)
    _printf_longlong_dec                     0x080236c1   Thumb Code   108  _printf_longlong_dec.o(.text)
    _printf_longlong_oct                     0x0802373d   Thumb Code    68  _printf_oct_int_ll.o(.text)
    _printf_int_oct                          0x08023781   Thumb Code    24  _printf_oct_int_ll.o(.text)
    _printf_ll_oct                           0x08023799   Thumb Code    12  _printf_oct_int_ll.o(.text)
