Component: ARM Compiler 5.06 update 3 (build 300) Tool: armlink [4d35c9]

==============================================================================

Section Cross References

    stm32f10x_it.o(.text) refers to os_timer.o(.text) for os_timer_pass_ms
    os_timer.o(.text) refers to mlist.o(.text) for mlist_del
    os_timer.o(.text) refers to cloud_helper.o(.text) for ch_timer_ms
    os_timer.o(.text) refers to os_timer.o(.data) for g_systime
    os_timer.o(.text) refers to os_timer.o(.bss) for g_timer_list
    os_timer.o(.text) refers to usersys.o(.data) for g_LwIPLocalTime
    hal.o(.text) refers to _printf_percent.o(.ARM.Collect$$_printf_percent$$00000000) for _printf_percent
    hal.o(.text) refers to _printf_d.o(.ARM.Collect$$_printf_percent$$00000009) for _printf_d
    hal.o(.text) refers to _printf_s.o(.ARM.Collect$$_printf_percent$$00000014) for _printf_s
    hal.o(.text) refers to _printf_dec.o(.text) for _printf_int_dec
    hal.o(.text) refers to _printf_str.o(.text) for _printf_str
    hal.o(.text) refers to misc.o(.text) for NVIC_SetVectorTable
    hal.o(.text) refers to haluart.o(.text) for HalUartConfig
    hal.o(.text) refers to hal_wdt.o(.text) for hal_wdt_init
    hal.o(.text) refers to halgpio.o(.text) for HalGPIOInitialize
    hal.o(.text) refers to hal_rtc.o(.text) for RTCInit
    hal.o(.text) refers to hal_timer.o(.text) for HalTimerInit
    hal.o(.text) refers to halsensor.o(.text) for HalSensorInit
==============================================================================

Removing Unused input sections from the image.

    Removing stm32f10x_it.o(.rev16_text), (4 bytes).
    Removing stm32f10x_it.o(.revsh_text), (4 bytes).
    Removing stm32f10x_it.o(.rrx_text), (6 bytes).
    Removing misc.o(.rev16_text), (4 bytes).
    Removing misc.o(.revsh_text), (4 bytes).
    Removing misc.o(.rrx_text), (6 bytes).
    Removing os_timer.o(.rev16_text), (4 bytes).
    Removing os_timer.o(.revsh_text), (4 bytes).
    Removing os_timer.o(.rrx_text), (6 bytes).
    Removing hal.o(.rev16_text), (4 bytes).
    Removing hal.o(.revsh_text), (4 bytes).
    Removing hal.o(.rrx_text), (6 bytes).
    Removing hal_aes.o(.rev16_text), (4 bytes).
    Removing hal_aes.o(.revsh_text), (4 bytes).
    Removing hal_aes.o(.rrx_text), (6 bytes).
    Removing hal_flash.o(.rev16_text), (4 bytes).
    Removing hal_flash.o(.revsh_text), (4 bytes).
    Removing hal_flash.o(.rrx_text), (6 bytes).
==============================================================================

Image Symbol Table

    Local Symbols

    Symbol Name                              Value     Ov Type        Size  Object(Section)

    ../clib/angel/boardlib.s                 0x00000000   Number         0  boardinit2.o ABSOLUTE
    ../clib/angel/boardlib.s                 0x00000000   Number         0  boardinit1.o ABSOLUTE
    ../clib/angel/boardlib.s                 0x00000000   Number         0  boardshut.o ABSOLUTE
    ../clib/angel/boardlib.s                 0x00000000   Number         0  boardinit3.o ABSOLUTE
    ../clib/angel/dczerorl2.s                0x00000000   Number         0  __dczerorl2.o ABSOLUTE
    ../clib/angel/handlers.s                 0x00000000   Number         0  __scatter_zi.o ABSOLUTE
    ../clib/angel/kernel.s                   0x00000000   Number         0  rtexit2.o ABSOLUTE
    ../clib/angel/kernel.s                   0x00000000   Number         0  __rtentry.o ABSOLUTE
    ../clib/angel/kernel.s                   0x00000000   Number         0  __rtentry2.o ABSOLUTE
    ../clib/angel/kernel.s                   0x00000000   Number         0  __rtentry4.o ABSOLUTE
    ../clib/angel/kernel.s                   0x00000000   Number         0  rtexit.o ABSOLUTE
    ../clib/angel/rt.s                       0x00000000   Number         0  rt_heap_descriptor_intlibspace.o ABSOLUTE
    ../clib/angel/rt.s                       0x00000000   Number         0  rt_errno_addr_intlibspace.o ABSOLUTE
    ../clib/angel/rt.s                       0x00000000   Number         0  rt_heap_descriptor.o ABSOLUTE
    ../clib/angel/rt.s                       0x00000000   Number         0  rt_errno_addr.o ABSOLUTE
    ../clib/angel/rt.s                       0x00000000   Number         0  rt_ctype_table.o ABSOLUTE
    ../clib/angel/rt.s                       0x00000000   Number         0  rt_locale_intlibspace.o ABSOLUTE
    ../clib/angel/rt.s                       0x00000000   Number         0  rt_locale.o ABSOLUTE
    ../clib/angel/rt.s                       0x00000000   Number         0  rt_raise.o ABSOLUTE
    ../clib/angel/scatter.s                  0x00000000   Number         0  __scatter.o ABSOLUTE
    ../clib/angel/startup.s                  0x00000000   Number         0  __main.o ABSOLUTE
    ../clib/angel/sys.s                      0x00000000   Number         0  mutex_dummy.o ABSOLUTE
    ../clib/angel/sys.s                      0x00000000   Number         0  use_no_semi.o ABSOLUTE
    ../clib/angel/sys.s                      0x00000000   Number         0  libspace.o ABSOLUTE
    ../clib/angel/sys.s                      0x00000000   Number         0  sys_stackheap_outer.o ABSOLUTE
    ../clib/angel/sys.s                      0x00000000   Number         0  indicate_semi.o ABSOLUTE
    ../clib/angel/sysapp.c                   0x00000000   Number         0  sys_wrch.o ABSOLUTE
    ../clib/angel/sysapp.c                   0x00000000   Number         0  sys_command.o ABSOLUTE
    ../clib/armsys.c                         0x00000000   Number         0  argv_veneer.o ABSOLUTE
    ../clib/armsys.c                         0x00000000   Number         0  no_argv.o ABSOLUTE
    ../clib/armsys.c                         0x00000000   Number         0  argv_veneer.o ABSOLUTE
    ../clib/armsys.c                         0x00000000   Number         0  _get_argv_nomalloc.o ABSOLUTE
    ../clib/armsys.c                         0x00000000   Number         0  _get_argv.o ABSOLUTE
    ../clib/bigflt.c                         0x00000000   Number         0  bigflt0.o ABSOLUTE
    ../clib/btod.s                           0x00000000   Number         0  btod.o ABSOLUTE
    ../clib/heap1.c                          0x00000000   Number         0  h1_free_mt.o ABSOLUTE
    ../clib/heap1.c                          0x00000000   Number         0  h1_alloc_mt.o ABSOLUTE
    ../clib/heap1.c                          0x00000000   Number         0  h1_final.o ABSOLUTE
    ../clib/heap1.c                          0x00000000   Number         0  h1_final_mt.o ABSOLUTE
    ../clib/heap1.c                          0x00000000   Number         0  h1_free.o ABSOLUTE
    ../clib/heap1.c                          0x00000000   Number         0  h1_extend_mt.o ABSOLUTE
    ../clib/heap1.c                          0x00000000   Number         0  h1_extend.o ABSOLUTE
    ../clib/heap1.c                          0x00000000   Number         0  h1_alloc.o ABSOLUTE
    ../clib/heap1.c                          0x00000000   Number         0  h1_init_mt.o ABSOLUTE
    ../clib/heap1.c                          0x00000000   Number         0  h1_init.o ABSOLUTE
    ../clib/heap2.c                          0x00000000   Number         0  heap2.o ABSOLUTE
    ../clib/heap2.c                          0x00000000   Number         0  fdtree.o ABSOLUTE
    ../clib/heap2.c                          0x00000000   Number         0  heap2mt.o ABSOLUTE
    ../clib/heapalloc.c                      0x00000000   Number         0  maybetermalloc1.o ABSOLUTE
    ../clib/heapalloc.c                      0x00000000   Number         0  maybetermalloc2.o ABSOLUTE
    ../clib/heapalloc.c                      0x00000000   Number         0  hrguard.o ABSOLUTE
    ../clib/heapalloc.c                      0x00000000   Number         0  hguard.o ABSOLUTE
    ../clib/heapalloc.c                      0x00000000   Number         0  init_alloc.o ABSOLUTE
    ../clib/heapalloc.c                      0x00000000   Number         0  heapstubs.o ABSOLUTE
    ../clib/heapalloc.c                      0x00000000   Number         0  free.o ABSOLUTE
    ../clib/heapalloc.c                      0x00000000   Number         0  term_alloc.o ABSOLUTE
    ../clib/heapalloc.c                      0x00000000   Number         0  maybetermalloc2.o ABSOLUTE
    ../clib/heapalloc.c                      0x00000000   Number         0  malloc.o ABSOLUTE
    ../clib/heapalloc.c                      0x00000000   Number         0  maybetermalloc1.o ABSOLUTE
    ../clib/heapaux.c                        0x00000000   Number         0  heapauxi.o ABSOLUTE
    ../clib/heapaux.c                        0x00000000   Number         0  heapauxa.o ABSOLUTE
    ../clib/libinit.s                        0x00000000   Number         0  libshutdown.o ABSOLUTE
    ../clib/libinit.s                        0x00000000   Number         0  libinit2.o ABSOLUTE
    ../clib/libinit.s                        0x00000000   Number         0  libshutdown2.o ABSOLUTE
    ../clib/libinit.s                        0x00000000   Number         0  libinit.o ABSOLUTE
    ../clib/locale.c                         0x00000000   Number         0  _wcrtomb.o ABSOLUTE
    ../clib/locale.s                         0x00000000   Number         0  lc_ctype_c.o ABSOLUTE
    ../clib/locale.s                         0x00000000   Number         0  lc_numeric_c.o ABSOLUTE
    ../clib/longlong.s                       0x00000000   Number         0  lludiv10.o ABSOLUTE
    ../clib/memcpset.s                       0x00000000   Number         0  strcmpv7m.o ABSOLUTE
    ../clib/memcpset.s                       0x00000000   Number         0  rt_memcpy_v6.o ABSOLUTE
    ../clib/memcpset.s                       0x00000000   Number         0  rt_memcpy_w.o ABSOLUTE
    ../clib/memcpset.s                       0x00000000   Number         0  rt_memclr.o ABSOLUTE
    ../clib/memcpset.s                       0x00000000   Number         0  rt_memclr_w.o ABSOLUTE
    ../clib/memcpset.s                       0x00000000   Number         0  aeabi_memset.o ABSOLUTE
    ../clib/misc.s                           0x00000000   Number         0  printf_stubs.o ABSOLUTE
    ../clib/printf.c                         0x00000000   Number         0  _printf_char.o ABSOLUTE
    ../clib/printf.c                         0x00000000   Number         0  vsprintf.o ABSOLUTE
    ../clib/printf.c                         0x00000000   Number         0  __2printf.o ABSOLUTE
    ../clib/printf.c                         0x00000000   Number         0  _printf_char_file.o ABSOLUTE
    ../clib/printf.c                         0x00000000   Number         0  __2sprintf.o ABSOLUTE
    ../clib/printf.c                         0x00000000   Number         0  noretval__2printf.o ABSOLUTE
    ../clib/printf.c                         0x00000000   Number         0  _printf_wctomb.o ABSOLUTE
    ../clib/printf.c                         0x00000000   Number         0  _printf_longlong_dec.o ABSOLUTE
    ../clib/printf.c                         0x00000000   Number         0  noretval__2sprintf.o ABSOLUTE
    ../clib/printf.c                         0x00000000   Number         0  __printf.o ABSOLUTE
    ../clib/printf.c                         0x00000000   Number         0  _printf_fp_dec.o ABSOLUTE
    ../clib/printf.c                         0x00000000   Number         0  _printf_char_common.o ABSOLUTE
    ../clib/printf.c                         0x00000000   Number         0  _printf_hex_int_ll.o ABSOLUTE
    ../clib/printf.c                         0x00000000   Number         0  _sputc.o ABSOLUTE
    ../clib/printf.c                         0x00000000   Number         0  _printf_intcommon.o ABSOLUTE
    ../clib/printf.c                         0x00000000   Number         0  _printf_oct_ll.o ABSOLUTE
    ../clib/printf.c                         0x00000000   Number         0  _printf_truncate.o ABSOLUTE
    ../clib/printf.c                         0x00000000   Number         0  _printf_hex_int.o ABSOLUTE
    ../clib/printf.c                         0x00000000   Number         0  _printf_hex_ll.o ABSOLUTE
    ../clib/printf.c                         0x00000000   Number         0  _printf_dec.o ABSOLUTE
    ../clib/printf.c                         0x00000000   Number         0  __printf_wp.o ABSOLUTE
    ../clib/printf.c                         0x00000000   Number         0  _printf_str.o ABSOLUTE
    ../clib/printf.c                         0x00000000   Number         0  _printf_pad.o ABSOLUTE
    ../clib/printf.c                         0x00000000   Number         0  _printf_oct_int_ll.o ABSOLUTE
    ../clib/printf.c                         0x00000000   Number         0  __printf_flags_ss_wp.o ABSOLUTE
    ../clib/printf.c                         0x00000000   Number         0  __printf_ss_wp.o ABSOLUTE
    ../clib/printf.c                         0x00000000   Number         0  __printf_flags_wp.o ABSOLUTE
    ../clib/printf.c                         0x00000000   Number         0  __printf_flags_ss.o ABSOLUTE
    ../clib/printf.c                         0x00000000   Number         0  __printf_ss.o ABSOLUTE
    ../clib/printf.c                         0x00000000   Number         0  _printf_hex_ll_ptr.o ABSOLUTE
    ../clib/printf.c                         0x00000000   Number         0  _printf_charcount.o ABSOLUTE
    ../clib/printf.c                         0x00000000   Number         0  _printf_fp_hex.o ABSOLUTE
    ../clib/printf.c                         0x00000000   Number         0  _printf_fp_infnan.o ABSOLUTE
    ../clib/printf.c                         0x00000000   Number         0  __printf_flags.o ABSOLUTE
    ../clib/printf.c                         0x00000000   Number         0  _printf_hex_int_ll_ptr.o ABSOLUTE
    ../clib/printf.c                         0x00000000   Number         0  _printf_oct_int.o ABSOLUTE
    ../clib/printf.c                         0x00000000   Number         0  __printf_nopercent.o ABSOLUTE
    ../clib/printf.c                         0x00000000   Number         0  _printf_wchar.o ABSOLUTE
    ../clib/printf.c                         0x00000000   Number         0  _printf_hex_int_ptr.o ABSOLUTE
    ../clib/printf.c                         0x00000000   Number         0  _printf_hex_ptr.o ABSOLUTE
    ../clib/printf_percent.s                 0x00000000   Number         0  _printf_l.o ABSOLUTE
    ../clib/printf_percent.s                 0x00000000   Number         0  _printf_lc.o ABSOLUTE
    ../clib/printf_percent.s                 0x00000000   Number         0  _printf_ll.o ABSOLUTE
    ../clib/printf_percent.s                 0x00000000   Number         0  _printf_llu.o ABSOLUTE
    ../clib/printf_percent.s                 0x00000000   Number         0  _printf_lld.o ABSOLUTE
    ../clib/printf_percent.s                 0x00000000   Number         0  _printf_ls.o ABSOLUTE
    ../clib/printf_percent.s                 0x00000000   Number         0  _printf_g.o ABSOLUTE
    ../clib/printf_percent.s                 0x00000000   Number         0  _printf_percent.o ABSOLUTE
    ../clib/printf_percent.s                 0x00000000   Number         0  _printf_lli.o ABSOLUTE
    ../clib/printf_percent.s                 0x00000000   Number         0  _printf_percent_end.o ABSOLUTE
    ../clib/printf_percent.s                 0x00000000   Number         0  _printf_a.o ABSOLUTE
    ../clib/printf_percent.s                 0x00000000   Number         0  _printf_n.o ABSOLUTE
    ../clib/printf_percent.s                 0x00000000   Number         0  _printf_llo.o ABSOLUTE
    ../clib/printf_percent.s                 0x00000000   Number         0  _printf_llx.o ABSOLUTE
    ../clib/printf_percent.s                 0x00000000   Number         0  _printf_p.o ABSOLUTE
    ../clib/printf_percent.s                 0x00000000   Number         0  _printf_s.o ABSOLUTE
    ../clib/printf_percent.s                 0x00000000   Number         0  _printf_x.o ABSOLUTE
    ../clib/printf_percent.s                 0x00000000   Number         0  _printf_d.o ABSOLUTE
    ../clib/printf_percent.s                 0x00000000   Number         0  _printf_f.o ABSOLUTE
    ../clib/printf_percent.s                 0x00000000   Number         0  _printf_u.o ABSOLUTE
    ../clib/printf_percent.s                 0x00000000   Number         0  _printf_o.o ABSOLUTE
    ../clib/printf_percent.s                 0x00000000   Number         0  _printf_i.o ABSOLUTE
    ../clib/printf_percent.s                 0x00000000   Number         0  _printf_e.o ABSOLUTE
    ../clib/printf_percent.s                 0x00000000   Number         0  _printf_c.o ABSOLUTE
    ../clib/scanf.c                          0x00000000   Number         0  _chval.o ABSOLUTE
    ../clib/scanf.c                          0x00000000   Number         0  strtol.o ABSOLUTE
    ../clib/scanf.c                          0x00000000   Number         0  _strtoul.o ABSOLUTE
    ../clib/scanf.c                          0x00000000   Number         0  atoi.o ABSOLUTE
    ../clib/signal.c                         0x00000000   Number         0  defsig_rtmem_formal.o ABSOLUTE
    ../clib/signal.c                         0x00000000   Number         0  defsig_general.o ABSOLUTE
    ../clib/signal.c                         0x00000000   Number         0  __raise.o ABSOLUTE
    ../clib/signal.c                         0x00000000   Number         0  defsig_other.o ABSOLUTE
    ../clib/signal.c                         0x00000000   Number         0  defsig_exit.o ABSOLUTE
    ../clib/signal.c                         0x00000000   Number         0  defsig_segv_inner.o ABSOLUTE
    ../clib/signal.c                         0x00000000   Number         0  defsig_cppl_inner.o ABSOLUTE
    ../clib/signal.c                         0x00000000   Number         0  defsig_pvfn_inner.o ABSOLUTE
    ../clib/signal.c                         0x00000000   Number         0  defsig_stak_inner.o ABSOLUTE
    ../clib/signal.c                         0x00000000   Number         0  defsig_fpe_inner.o ABSOLUTE
    ../clib/signal.c                         0x00000000   Number         0  defsig_abrt_inner.o ABSOLUTE
    ../clib/signal.c                         0x00000000   Number         0  defsig_rtmem_outer.o ABSOLUTE
    ../clib/signal.c                         0x00000000   Number         0  defsig_rtmem_inner.o ABSOLUTE
    ../clib/signal.c                         0x00000000   Number         0  defsig_rtred_inner.o ABSOLUTE
    ../clib/signal.s                         0x00000000   Number         0  defsig.o ABSOLUTE
    ../clib/stdio.c                          0x00000000   Number         0  ferror.o ABSOLUTE
    ../clib/stdio.c                          0x00000000   Number         0  ferror_locked.o ABSOLUTE
    ../clib/stdlib.c                         0x00000000   Number         0  exit.o ABSOLUTE
    ../clib/stdlib.c                         0x00000000   Number         0  rand.o ABSOLUTE
    ../clib/stdlib.c                         0x00000000   Number         0  rand.o ABSOLUTE
    ../clib/string.c                         0x00000000   Number         0  strlen.o ABSOLUTE
    ../clib/string.c                         0x00000000   Number         0  strstr.o ABSOLUTE
    ../clib/string.c                         0x00000000   Number         0  memcmp.o ABSOLUTE
    ../clib/string.c                         0x00000000   Number         0  strcpy.o ABSOLUTE
    ../clib/string.c                         0x00000000   Number         0  strchr.o ABSOLUTE
    ../fplib/d2f.s                           0x00000000   Number         0  d2f.o ABSOLUTE
    ../fplib/daddsub.s                       0x00000000   Number         0  daddsub_clz.o ABSOLUTE
    ../fplib/dmul.s                          0x00000000   Number         0  dmul.o ABSOLUTE
    ../fplib/dnaninf.s                       0x00000000   Number         0  dnaninf.o ABSOLUTE
    ../fplib/dretinf.s                       0x00000000   Number         0  dretinf.o ABSOLUTE
    ../fplib/f2d.s                           0x00000000   Number         0  f2d.o ABSOLUTE
    ../fplib/faddsub.s                       0x00000000   Number         0  faddsub_clz.o ABSOLUTE
    ../fplib/ffixu.s                         0x00000000   Number         0  ffixu.o ABSOLUTE
    ../fplib/fflt.s                          0x00000000   Number         0  fflt_clz.o ABSOLUTE
    ../fplib/fmul.s                          0x00000000   Number         0  fmul.o ABSOLUTE
    ../fplib/fnaninf.s                       0x00000000   Number         0  fnaninf.o ABSOLUTE
    ../fplib/fpinit.s                        0x00000000   Number         0  fpinit.o ABSOLUTE
    ../fplib/fretinf.s                       0x00000000   Number         0  fretinf.o ABSOLUTE
    ../fplib/istatus.s                       0x00000000   Number         0  istatus.o ABSOLUTE
    ../fplib/printf1.s                       0x00000000   Number         0  printf1.o ABSOLUTE
    ../fplib/printf2.s                       0x00000000   Number         0  printf2.o ABSOLUTE
    ../fplib/printf2a.s                      0x00000000   Number         0  printf2a.o ABSOLUTE
    ../fplib/printf2b.s                      0x00000000   Number         0  printf2b.o ABSOLUTE
    ../fplib/usenofp.s                       0x00000000   Number         0  usenofp.o ABSOLUTE
    ../mathlib/fpclassify.c                  0x00000000   Number         0  fpclassify.o ABSOLUTE
    C:\Keil_v5\ARM\PACK\Keil\STM32F1xx_DFP\2.0.0\Device\StdPeriph_Driver\src\stm32f10x_adc.c 0x00000000   Number         0  stm32f10x_adc.o ABSOLUTE
    C:\Keil_v5\ARM\PACK\Keil\STM32F1xx_DFP\2.0.0\Device\StdPeriph_Driver\src\stm32f10x_bkp.c 0x00000000   Number         0  stm32f10x_bkp.o ABSOLUTE
    C:\Keil_v5\ARM\PACK\Keil\STM32F1xx_DFP\2.0.0\Device\StdPeriph_Driver\src\stm32f10x_dma.c 0x00000000   Number         0  stm32f10x_dma.o ABSOLUTE
    C:\Keil_v5\ARM\PACK\Keil\STM32F1xx_DFP\2.0.0\Device\StdPeriph_Driver\src\stm32f10x_exti.c 0x00000000   Number         0  stm32f10x_exti.o ABSOLUTE
    C:\Keil_v5\ARM\PACK\Keil\STM32F1xx_DFP\2.0.0\Device\StdPeriph_Driver\src\stm32f10x_flash.c 0x00000000   Number         0  stm32f10x_flash.o ABSOLUTE
    C:\Keil_v5\ARM\PACK\Keil\STM32F1xx_DFP\2.0.0\Device\StdPeriph_Driver\src\stm32f10x_gpio.c 0x00000000   Number         0  stm32f10x_gpio.o ABSOLUTE
    C:\Keil_v5\ARM\PACK\Keil\STM32F1xx_DFP\2.0.0\Device\StdPeriph_Driver\src\stm32f10x_i2c.c 0x00000000   Number         0  stm32f10x_i2c.o ABSOLUTE
    C:\Keil_v5\ARM\PACK\Keil\STM32F1xx_DFP\2.0.0\Device\StdPeriph_Driver\src\stm32f10x_iwdg.c 0x00000000   Number         0  stm32f10x_iwdg.o ABSOLUTE
    C:\Keil_v5\ARM\PACK\Keil\STM32F1xx_DFP\2.0.0\Device\StdPeriph_Driver\src\stm32f10x_pwr.c 0x00000000   Number         0  stm32f10x_pwr.o ABSOLUTE
    C:\Keil_v5\ARM\PACK\Keil\STM32F1xx_DFP\2.0.0\Device\StdPeriph_Driver\src\stm32f10x_rcc.c 0x00000000   Number         0  stm32f10x_rcc.o ABSOLUTE
    C:\Keil_v5\ARM\PACK\Keil\STM32F1xx_DFP\2.0.0\Device\StdPeriph_Driver\src\stm32f10x_rtc.c 0x00000000   Number         0  stm32f10x_rtc.o ABSOLUTE
    C:\Keil_v5\ARM\PACK\Keil\STM32F1xx_DFP\2.0.0\Device\StdPeriph_Driver\src\stm32f10x_sdio.c 0x00000000   Number         0  stm32f10x_sdio.o ABSOLUTE
    C:\Keil_v5\ARM\PACK\Keil\STM32F1xx_DFP\2.0.0\Device\StdPeriph_Driver\src\stm32f10x_spi.c 0x00000000   Number         0  stm32f10x_spi.o ABSOLUTE
    C:\Keil_v5\ARM\PACK\Keil\STM32F1xx_DFP\2.0.0\Device\StdPeriph_Driver\src\stm32f10x_tim.c 0x00000000   Number         0  stm32f10x_tim.o ABSOLUTE
    C:\Keil_v5\ARM\PACK\Keil\STM32F1xx_DFP\2.0.0\Device\StdPeriph_Driver\src\stm32f10x_usart.c 0x00000000   Number         0  stm32f10x_usart.o ABSOLUTE
    C:\Keil_v5\ARM\PACK\Keil\STM32F1xx_DFP\2.0.0\RTE_Driver\DMA_STM32F10x.c 0x00000000   Number         0  dma_stm32f10x.o ABSOLUTE
    C:\Keil_v5\ARM\PACK\Keil\STM32F1xx_DFP\2.0.0\RTE_Driver\GPIO_STM32F10x.c 0x00000000   Number         0  gpio_stm32f10x.o ABSOLUTE
    C:\\Keil_v5\\ARM\\PACK\\Keil\\STM32F1xx_DFP\\2.0.0\\Device\\StdPeriph_Driver\\src\\stm32f10x_adc.c 0x00000000   Number         0  stm32f10x_adc.o ABSOLUTE
    C:\\Keil_v5\\ARM\\PACK\\Keil\\STM32F1xx_DFP\\2.0.0\\Device\\StdPeriph_Driver\\src\\stm32f10x_bkp.c 0x00000000   Number         0  stm32f10x_bkp.o ABSOLUTE
    C:\\Keil_v5\\ARM\\PACK\\Keil\\STM32F1xx_DFP\\2.0.0\\Device\\StdPeriph_Driver\\src\\stm32f10x_dma.c 0x00000000   Number         0  stm32f10x_dma.o ABSOLUTE
    C:\\Keil_v5\\ARM\\PACK\\Keil\\STM32F1xx_DFP\\2.0.0\\Device\\StdPeriph_Driver\\src\\stm32f10x_exti.c 0x00000000   Number         0  stm32f10x_exti.o ABSOLUTE
    C:\\Keil_v5\\ARM\\PACK\\Keil\\STM32F1xx_DFP\\2.0.0\\Device\\StdPeriph_Driver\\src\\stm32f10x_flash.c 0x00000000   Number         0  stm32f10x_flash.o ABSOLUTE
    C:\\Keil_v5\\ARM\\PACK\\Keil\\STM32F1xx_DFP\\2.0.0\\Device\\StdPeriph_Driver\\src\\stm32f10x_gpio.c 0x00000000   Number         0  stm32f10x_gpio.o ABSOLUTE
    C:\\Keil_v5\\ARM\\PACK\\Keil\\STM32F1xx_DFP\\2.0.0\\Device\\StdPeriph_Driver\\src\\stm32f10x_i2c.c 0x00000000   Number         0  stm32f10x_i2c.o ABSOLUTE
    C:\\Keil_v5\\ARM\\PACK\\Keil\\STM32F1xx_DFP\\2.0.0\\Device\\StdPeriph_Driver\\src\\stm32f10x_iwdg.c 0x00000000   Number         0  stm32f10x_iwdg.o ABSOLUTE
    C:\\Keil_v5\\ARM\\PACK\\Keil\\STM32F1xx_DFP\\2.0.0\\Device\\StdPeriph_Driver\\src\\stm32f10x_pwr.c 0x00000000   Number         0  stm32f10x_pwr.o ABSOLUTE
    C:\\Keil_v5\\ARM\\PACK\\Keil\\STM32F1xx_DFP\\2.0.0\\Device\\StdPeriph_Driver\\src\\stm32f10x_rcc.c 0x00000000   Number         0  stm32f10x_rcc.o ABSOLUTE
    C:\\Keil_v5\\ARM\\PACK\\Keil\\STM32F1xx_DFP\\2.0.0\\Device\\StdPeriph_Driver\\src\\stm32f10x_rtc.c 0x00000000   Number         0  stm32f10x_rtc.o ABSOLUTE
    C:\\Keil_v5\\ARM\\PACK\\Keil\\STM32F1xx_DFP\\2.0.0\\Device\\StdPeriph_Driver\\src\\stm32f10x_sdio.c 0x00000000   Number         0  stm32f10x_sdio.o ABSOLUTE
    C:\\Keil_v5\\ARM\\PACK\\Keil\\STM32F1xx_DFP\\2.0.0\\Device\\StdPeriph_Driver\\src\\stm32f10x_spi.c 0x00000000   Number         0  stm32f10x_spi.o ABSOLUTE
    C:\\Keil_v5\\ARM\\PACK\\Keil\\STM32F1xx_DFP\\2.0.0\\Device\\StdPeriph_Driver\\src\\stm32f10x_tim.c 0x00000000   Number         0  stm32f10x_tim.o ABSOLUTE
    C:\\Keil_v5\\ARM\\PACK\\Keil\\STM32F1xx_DFP\\2.0.0\\Device\\StdPeriph_Driver\\src\\stm32f10x_usart.c 0x00000000   Number         0  stm32f10x_usart.o ABSOLUTE
    C:\\Keil_v5\\ARM\\PACK\\Keil\\STM32F1xx_DFP\\2.0.0\\RTE_Driver\\DMA_STM32F10x.c 0x00000000   Number         0  dma_stm32f10x.o ABSOLUTE
    C:\\Keil_v5\\ARM\\PACK\\Keil\\STM32F1xx_DFP\\2.0.0\\RTE_Driver\\GPIO_STM32F10x.c 0x00000000   Number         0  gpio_stm32f10x.o ABSOLUTE
    RTE\Device\STM32F103VC\misc.c            0x00000000   Number         0  misc.o ABSOLUTE
    RTE\Device\STM32F103VC\startup_stm32f10x_hd.s 0x00000000   Number         0  startup_stm32f10x_hd.o ABSOLUTE
    RTE\Device\STM32F103VC\system_stm32f10x.c 0x00000000   Number         0  system_stm32f10x.o ABSOLUTE
    RTE\\Device\\STM32F103VC\\misc.c         0x00000000   Number         0  misc.o ABSOLUTE
    RTE\\Device\\STM32F103VC\\system_stm32f10x.c 0x00000000   Number         0  system_stm32f10x.o ABSOLUTE
    dc.s                                     0x00000000   Number         0  dc.o ABSOLUTE
    src\\app\\ModuleTester.c                 0x00000000   Number         0  moduletester.o ABSOLUTE
    src\\app\\cloud_helper.c                 0x00000000   Number         0  cloud_helper.o ABSOLUTE
    src\\app\\property\\IndoorPid.c          0x00000000   Number         0  indoorpid.o ABSOLUTE
    src\\app\\property\\property.c           0x00000000   Number         0  property.o ABSOLUTE
    src\\fatfs\\SDCardRecord.c               0x00000000   Number         0  sdcardrecord.o ABSOLUTE
    src\\fatfs\\ff.c                         0x00000000   Number         0  ff.o ABSOLUTE
    src\\fatfs\\sdc_diskio.c                 0x00000000   Number         0  sdc_diskio.o ABSOLUTE
    src\\hal\\src\\Hal.c                     0x00000000   Number         0  hal.o ABSOLUTE
    src\\hal\\src\\HalGPIO.c                 0x00000000   Number         0  halgpio.o ABSOLUTE
    src\\hal\\src\\HalSpi.c                  0x00000000   Number         0  halspi.o ABSOLUTE
    src\\hal\\src\\HalUart.c                 0x00000000   Number         0  haluart.o ABSOLUTE
    src\\hal\\src\\hal_aes.c                 0x00000000   Number         0  hal_aes.o ABSOLUTE
    src\\hal\\src\\hal_flash.c               0x00000000   Number         0  hal_flash.o ABSOLUTE
    src\\hal\\src\\hal_led.c                 0x00000000   Number         0  hal_led.o ABSOLUTE
    src\\hal\\src\\hal_rnd.c                 0x00000000   Number         0  hal_rnd.o ABSOLUTE
    src\\hal\\src\\hal_rtc.c                 0x00000000   Number         0  hal_rtc.o ABSOLUTE
    src\\hal\\src\\hal_timer.c               0x00000000   Number         0  hal_timer.o ABSOLUTE
    src\\hal\\src\\hal_wait.c                0x00000000   Number         0  hal_wait.o ABSOLUTE
    src\\hal\\src\\hal_wdt.c                 0x00000000   Number         0  hal_wdt.o ABSOLUTE
    src\\net\\src\\ctrl.c                    0x00000000   Number         0  ctrl.o ABSOLUTE
    src\\net\\src\\link.c                    0x00000000   Number         0  link.o ABSOLUTE
    src\\net\\src\\net.c                     0x00000000   Number         0  net.o ABSOLUTE
    src\\net\\src\\nwk.c                     0x00000000   Number         0  nwk.o ABSOLUTE
    src\\net\\src\\phy.c                     0x00000000   Number         0  phy.o ABSOLUTE
    src\\os\\src\\os_timer.c                 0x00000000   Number         0  os_timer.o ABSOLUTE
    src\\sensor\\src\\HalSensor.c            0x00000000   Number         0  halsensor.o ABSOLUTE
    src\\sensor\\src\\PM25CO2.c              0x00000000   Number         0  pm25co2.o ABSOLUTE
    src\\sensor\\src\\SHT20.c                0x00000000   Number         0  sht20.o ABSOLUTE
    src\\usr\\src\\Device.c                  0x00000000   Number         0  device.o ABSOLUTE
    src\\usr\\src\\SysButton.c               0x00000000   Number         0  sysbutton.o ABSOLUTE
    src\\usr\\src\\SysPoll.c                 0x00000000   Number         0  syspoll.o ABSOLUTE
    src\\usr\\src\\SysTimer.c                0x00000000   Number         0  systimer.o ABSOLUTE
    src\\usr\\src\\app.c                     0x00000000   Number         0  app.o ABSOLUTE
    src\\usr\\src\\main.c                    0x00000000   Number         0  main.o ABSOLUTE
    src\\usr\\src\\main_module.c             0x00000000   Number         0  main_module.o ABSOLUTE
    src\\usr\\src\\menuConfig.c              0x00000000   Number         0  menuconfig.o ABSOLUTE
    src\\usr\\src\\userSys.c                 0x00000000   Number         0  usersys.o ABSOLUTE
    src\app\MD5.c                            0x00000000   Number         0  md5.o ABSOLUTE
    src\app\ModuleTester.c                   0x00000000   Number         0  moduletester.o ABSOLUTE
    src\app\cloud_helper.c                   0x00000000   Number         0  cloud_helper.o ABSOLUTE
    src\app\property\IndoorPid.c             0x00000000   Number         0  indoorpid.o ABSOLUTE
    src\app\property\property.c              0x00000000   Number         0  property.o ABSOLUTE
    src\fatfs\SDCardRecord.c                 0x00000000   Number         0  sdcardrecord.o ABSOLUTE
    src\fatfs\ff.c                           0x00000000   Number         0  ff.o ABSOLUTE
    src\fatfs\sdc_diskio.c                   0x00000000   Number         0  sdc_diskio.o ABSOLUTE
    src\hal\src\Hal.c                        0x00000000   Number         0  hal.o ABSOLUTE
    src\hal\src\HalGPIO.c                    0x00000000   Number         0  halgpio.o ABSOLUTE
    src\hal\src\HalSpi.c                     0x00000000   Number         0  halspi.o ABSOLUTE
    src\hal\src\HalUart.c                    0x00000000   Number         0  haluart.o ABSOLUTE
    src\hal\src\hal_aes.c                    0x00000000   Number         0  hal_aes.o ABSOLUTE
    src\hal\src\hal_flash.c                  0x00000000   Number         0  hal_flash.o ABSOLUTE
    src\hal\src\hal_led.c                    0x00000000   Number         0  hal_led.o ABSOLUTE
    src\hal\src\hal_rnd.c                    0x00000000   Number         0  hal_rnd.o ABSOLUTE
    src\hal\src\hal_rtc.c                    0x00000000   Number         0  hal_rtc.o ABSOLUTE
    src\hal\src\hal_timer.c                  0x00000000   Number         0  hal_timer.o ABSOLUTE
    src\hal\src\hal_wait.c                   0x00000000   Number         0  hal_wait.o ABSOLUTE
    src\hal\src\hal_wdt.c                    0x00000000   Number         0  hal_wdt.o ABSOLUTE
    src\net\src\ctrl.c                       0x00000000   Number         0  ctrl.o ABSOLUTE
    src\net\src\link.c                       0x00000000   Number         0  link.o ABSOLUTE
    src\net\src\net.c                        0x00000000   Number         0  net.o ABSOLUTE
    src\net\src\nwk.c                        0x00000000   Number         0  nwk.o ABSOLUTE
    src\net\src\phy.c                        0x00000000   Number         0  phy.o ABSOLUTE
    src\os\src\os_timer.c                    0x00000000   Number         0  os_timer.o ABSOLUTE
    src\sensor\src\HalSensor.c               0x00000000   Number         0  halsensor.o ABSOLUTE
    src\sensor\src\PM25CO2.c                 0x00000000   Number         0  pm25co2.o ABSOLUTE
    src\sensor\src\SHT20.c                   0x00000000   Number         0  sht20.o ABSOLUTE
    src\usr\src\Device.c                     0x00000000   Number         0  device.o ABSOLUTE
    src\usr\src\SysButton.c                  0x00000000   Number         0  sysbutton.o ABSOLUTE
    src\usr\src\SysPoll.c                    0x00000000   Number         0  syspoll.o ABSOLUTE
    src\usr\src\SysTimer.c                   0x00000000   Number         0  systimer.o ABSOLUTE
    src\usr\src\app.c                        0x00000000   Number         0  app.o ABSOLUTE
    src\usr\src\main.c                       0x00000000   Number         0  main.o ABSOLUTE
    src\usr\src\main_module.c                0x00000000   Number         0  main_module.o ABSOLUTE
    src\usr\src\menuConfig.c                 0x00000000   Number         0  menuconfig.o ABSOLUTE
    src\usr\src\mlist.c                      0x00000000   Number         0  mlist.o ABSOLUTE
    src\usr\src\mqueue.c                     0x00000000   Number         0  mqueue.o ABSOLUTE
    src\usr\src\userSys.c                    0x00000000   Number         0  usersys.o ABSOLUTE
    stm32f10x_it.c                           0x00000000   Number         0  stm32f10x_it.o ABSOLUTE
    stm32f10x_it.c                           0x00000000   Number         0  stm32f10x_it.o ABSOLUTE
    RESET                                    0x08010000   Section      304  startup_stm32f10x_hd.o(RESET)
    !!!main                                  0x08010130   Section        8  __main.o(!!!main)
    !!!scatter                               0x08010138   Section       52  __scatter.o(!!!scatter)
    !!dczerorl2                              0x0801016c   Section       90  __dczerorl2.o(!!dczerorl2)
    !!handler_zi                             0x080101c8   Section       28  __scatter_zi.o(!!handler_zi)
    .ARM.Collect$$_printf_percent$$00000000  0x080101e4   Section        0  _printf_percent.o(.ARM.Collect$$_printf_percent$$00000000)
    .ARM.Collect$$_printf_percent$$00000001  0x080101e4   Section        6  _printf_n.o(.ARM.Collect$$_printf_percent$$00000001)
    .ARM.Collect$$_printf_percent$$00000002  0x080101ea   Section        6  _printf_p.o(.ARM.Collect$$_printf_percent$$00000002)
    .ARM.Collect$$_printf_percent$$00000003  0x080101f0   Section        6  _printf_f.o(.ARM.Collect$$_printf_percent$$00000003)
    .ARM.Collect$$_printf_percent$$00000004  0x080101f6   Section        6  _printf_e.o(.ARM.Collect$$_printf_percent$$00000004)
    .ARM.Collect$$_printf_percent$$00000005  0x080101fc   Section        6  _printf_g.o(.ARM.Collect$$_printf_percent$$00000005)
    .ARM.Collect$$_printf_percent$$00000006  0x08010202   Section        6  _printf_a.o(.ARM.Collect$$_printf_percent$$00000006)
    .ARM.Collect$$_printf_percent$$00000007  0x08010208   Section       10  _printf_ll.o(.ARM.Collect$$_printf_percent$$00000007)
    .ARM.Collect$$_printf_percent$$00000008  0x08010212   Section        6  _printf_i.o(.ARM.Collect$$_printf_percent$$00000008)
    .ARM.Collect$$_printf_percent$$00000009  0x08010218   Section        6  _printf_d.o(.ARM.Collect$$_printf_percent$$00000009)
    .ARM.Collect$$_printf_percent$$0000000A  0x0801021e   Section        6  _printf_u.o(.ARM.Collect$$_printf_percent$$0000000A)
    .ARM.Collect$$_printf_percent$$0000000B  0x08010224   Section        6  _printf_o.o(.ARM.Collect$$_printf_percent$$0000000B)
    .ARM.Collect$$_printf_percent$$0000000C  0x0801022a   Section        6  _printf_x.o(.ARM.Collect$$_printf_percent$$0000000C)
    .ARM.Collect$$_printf_percent$$0000000D  0x08010230   Section        6  _printf_lli.o(.ARM.Collect$$_printf_percent$$0000000D)
    .ARM.Collect$$_printf_percent$$0000000E  0x08010236   Section        6  _printf_lld.o(.ARM.Collect$$_printf_percent$$0000000E)
    .ARM.Collect$$_printf_percent$$0000000F  0x0801023c   Section        6  _printf_llu.o(.ARM.Collect$$_printf_percent$$0000000F)
    .ARM.Collect$$_printf_percent$$00000010  0x08010242   Section        6  _printf_llo.o(.ARM.Collect$$_printf_percent$$00000010)
    .ARM.Collect$$_printf_percent$$00000011  0x08010248   Section        6  _printf_llx.o(.ARM.Collect$$_printf_percent$$00000011)
    .ARM.Collect$$_printf_percent$$00000012  0x0801024e   Section       10  _printf_l.o(.ARM.Collect$$_printf_percent$$00000012)
    .ARM.Collect$$_printf_percent$$00000013  0x08010258   Section        6  _printf_c.o(.ARM.Collect$$_printf_percent$$00000013)
    .ARM.Collect$$_printf_percent$$00000014  0x0801025e   Section        6  _printf_s.o(.ARM.Collect$$_printf_percent$$00000014)
    .ARM.Collect$$_printf_percent$$00000015  0x08010264   Section        6  _printf_lc.o(.ARM.Collect$$_printf_percent$$00000015)
    .ARM.Collect$$_printf_percent$$00000016  0x0801026a   Section        6  _printf_ls.o(.ARM.Collect$$_printf_percent$$00000016)
    .ARM.Collect$$_printf_percent$$00000017  0x08010270   Section        4  _printf_percent_end.o(.ARM.Collect$$_printf_percent$$00000017)
    .ARM.Collect$$libinit$$00000000          0x08010274   Section        2  libinit.o(.ARM.Collect$$libinit$$00000000)
    .ARM.Collect$$libinit$$00000002          0x08010276   Section        0  libinit2.o(.ARM.Collect$$libinit$$00000002)
    .ARM.Collect$$libinit$$00000004          0x08010276   Section        0  libinit2.o(.ARM.Collect$$libinit$$00000004)
    .ARM.Collect$$libinit$$00000005          0x08010276   Section        8  libinit2.o(.ARM.Collect$$libinit$$00000005)
    .ARM.Collect$$libinit$$0000000A          0x0801027e   Section        0  libinit2.o(.ARM.Collect$$libinit$$0000000A)
    .ARM.Collect$$libinit$$0000000C          0x0801027e   Section        0  libinit2.o(.ARM.Collect$$libinit$$0000000C)
    .ARM.Collect$$libinit$$0000000D          0x0801027e   Section        4  libinit2.o(.ARM.Collect$$libinit$$0000000D)
    .ARM.Collect$$libinit$$0000000E          0x08010282   Section        0  libinit2.o(.ARM.Collect$$libinit$$0000000E)
    .ARM.Collect$$libinit$$0000000F          0x08010282   Section        6  libinit2.o(.ARM.Collect$$libinit$$0000000F)
    .ARM.Collect$$libinit$$00000011          0x08010288   Section        0  libinit2.o(.ARM.Collect$$libinit$$00000011)
    .ARM.Collect$$libinit$$00000012          0x08010288   Section       12  libinit2.o(.ARM.Collect$$libinit$$00000012)
    .ARM.Collect$$libinit$$00000013          0x08010294   Section        0  libinit2.o(.ARM.Collect$$libinit$$00000013)
    .ARM.Collect$$libinit$$00000015          0x08010294   Section        0  libinit2.o(.ARM.Collect$$libinit$$00000015)
    .ARM.Collect$$libinit$$00000016          0x08010294   Section       10  libinit2.o(.ARM.Collect$$libinit$$00000016)
    .ARM.Collect$$libinit$$00000017          0x0801029e   Section        0  libinit2.o(.ARM.Collect$$libinit$$00000017)
    .ARM.Collect$$libinit$$00000019          0x0801029e   Section        0  libinit2.o(.ARM.Collect$$libinit$$00000019)
    .ARM.Collect$$libinit$$0000001B          0x0801029e   Section        0  libinit2.o(.ARM.Collect$$libinit$$0000001B)
    .ARM.Collect$$libinit$$0000001D          0x0801029e   Section        0  libinit2.o(.ARM.Collect$$libinit$$0000001D)
    .ARM.Collect$$libinit$$0000001F          0x0801029e   Section        0  libinit2.o(.ARM.Collect$$libinit$$0000001F)
    .ARM.Collect$$libinit$$00000021          0x0801029e   Section        0  libinit2.o(.ARM.Collect$$libinit$$00000021)
    .ARM.Collect$$libinit$$00000023          0x0801029e   Section        0  libinit2.o(.ARM.Collect$$libinit$$00000023)
    .ARM.Collect$$libinit$$00000025          0x0801029e   Section        0  libinit2.o(.ARM.Collect$$libinit$$00000025)
    .ARM.Collect$$libinit$$0000002C          0x0801029e   Section        0  libinit2.o(.ARM.Collect$$libinit$$0000002C)
    .ARM.Collect$$libinit$$0000002E          0x0801029e   Section        0  libinit2.o(.ARM.Collect$$libinit$$0000002E)
    .ARM.Collect$$libinit$$00000030          0x0801029e   Section        0  libinit2.o(.ARM.Collect$$libinit$$00000030)
    .ARM.Collect$$libinit$$00000032          0x0801029e   Section        0  libinit2.o(.ARM.Collect$$libinit$$00000032)
    .ARM.Collect$$libinit$$00000033          0x0801029e   Section        2  libinit2.o(.ARM.Collect$$libinit$$00000033)
    .ARM.Collect$$libshutdown$$00000000      0x080102a0   Section        2  libshutdown.o(.ARM.Collect$$libshutdown$$00000000)
    .ARM.Collect$$libshutdown$$00000002      0x080102a2   Section        0  libshutdown2.o(.ARM.Collect$$libshutdown$$00000002)
    .ARM.Collect$$libshutdown$$00000004      0x080102a2   Section        0  libshutdown2.o(.ARM.Collect$$libshutdown$$00000004)
    .ARM.Collect$$libshutdown$$00000007      0x080102a2   Section        0  libshutdown2.o(.ARM.Collect$$libshutdown$$00000007)
    .ARM.Collect$$libshutdown$$0000000A      0x080102a2   Section        0  libshutdown2.o(.ARM.Collect$$libshutdown$$0000000A)
    .ARM.Collect$$libshutdown$$0000000C      0x080102a2   Section        0  libshutdown2.o(.ARM.Collect$$libshutdown$$0000000C)
    .ARM.Collect$$libshutdown$$0000000F      0x080102a2   Section        0  libshutdown2.o(.ARM.Collect$$libshutdown$$0000000F)
    .ARM.Collect$$libshutdown$$00000010      0x080102a2   Section        2  libshutdown2.o(.ARM.Collect$$libshutdown$$00000010)
    .ARM.Collect$$rtentry$$00000000          0x080102a4   Section        0  __rtentry.o(.ARM.Collect$$rtentry$$00000000)
    .ARM.Collect$$rtentry$$00000002          0x080102a4   Section        0  __rtentry2.o(.ARM.Collect$$rtentry$$00000002)
    .ARM.Collect$$rtentry$$00000004          0x080102a4   Section        6  __rtentry4.o(.ARM.Collect$$rtentry$$00000004)
    .ARM.Collect$$rtentry$$00000009          0x080102aa   Section        0  __rtentry2.o(.ARM.Collect$$rtentry$$00000009)
    .ARM.Collect$$rtentry$$0000000A          0x080102aa   Section        4  __rtentry2.o(.ARM.Collect$$rtentry$$0000000A)
    .ARM.Collect$$rtentry$$0000000C          0x080102ae   Section        0  __rtentry2.o(.ARM.Collect$$rtentry$$0000000C)
    .ARM.Collect$$rtentry$$0000000D          0x080102ae   Section        8  __rtentry2.o(.ARM.Collect$$rtentry$$0000000D)
    .ARM.Collect$$rtexit$$00000000           0x080102b6   Section        2  rtexit.o(.ARM.Collect$$rtexit$$00000000)
    .ARM.Collect$$rtexit$$00000002           0x080102b8   Section        0  rtexit2.o(.ARM.Collect$$rtexit$$00000002)
    .ARM.Collect$$rtexit$$00000003           0x080102b8   Section        4  rtexit2.o(.ARM.Collect$$rtexit$$00000003)
    .ARM.Collect$$rtexit$$00000004           0x080102bc   Section        6  rtexit2.o(.ARM.Collect$$rtexit$$00000004)
    .emb_text                                0x080102c4   Section       52  rand.o(.emb_text)
    .emb_text                                0x080102f8   Section        0  maybetermalloc1.o(.emb_text)
    .text                                    0x080102f8   Section        0  stm32f10x_it.o(.text)
    .text                                    0x08010320   Section        0  misc.o(.text)
    .text                                    0x080103fc   Section        0  os_timer.o(.text)
    _timer_list_foreach                      0x0801040b   Thumb Code    98  os_timer.o(.text)
    .text                                    0x080105ac   Section        0  hal.o(.text)
    .text                                    0x080106e4   Section        0  hal_aes.o(.text)
    getSBoxValue                             0x080106e5   Thumb Code     8  hal_aes.o(.text)
    getSBoxInvert                            0x080106ed   Thumb Code     8  hal_aes.o(.text)
    KeyExpansion                             0x080106f5   Thumb Code   344  hal_aes.o(.text)
    AddRoundKey                              0x0801084d   Thumb Code    60  hal_aes.o(.text)
    SubBytes                                 0x08010889   Thumb Code    48  hal_aes.o(.text)
    ShiftRows                                0x080108b9   Thumb Code    64  hal_aes.o(.text)
    xtime                                    0x080108f9   Thumb Code    20  hal_aes.o(.text)
    MixColumns                               0x0801090d   Thumb Code   198  hal_aes.o(.text)
    InvMixColumns                            0x080109d3   Thumb Code  1192  hal_aes.o(.text)
    InvSubBytes                              0x08010e7b   Thumb Code    48  hal_aes.o(.text)
    InvShiftRows                             0x08010eab   Thumb Code    60  hal_aes.o(.text)
    Cipher                                   0x08010ee7   Thumb Code   150  hal_aes.o(.text)
    InvCipher                                0x08010f7d   Thumb Code   140  hal_aes.o(.text)
    setKey                                   0x08011009   Thumb Code    14  hal_aes.o(.text)
    AES128_ECB_encrypt                       0x08011017   Thumb Code    20  hal_aes.o(.text)
    AES128_ECB_decrypt                       0x0801102b   Thumb Code    20  hal_aes.o(.text)
    numToBigEndian                           0x0801103f   Thumb Code    70  hal_aes.o(.text)
    .text                                    0x080111d4   Section        0  hal_flash.o(.text)
    HalBufferToData                          0x080111d5   Thumb Code    24  hal_flash.o(.text)
    HalFlashErasePage                        0x080111ed   Thumb Code    22  hal_flash.o(.text)
    .text                                    0x080112b8   Section        0  hal_led.o(.text)
    HalLedBlinkHandle                        0x08011421   Thumb Code   146  hal_led.o(.text)
    .text                                    0x0801157c   Section        0  hal_rnd.o(.text)
    .text                                    0x080115c0   Section        0  hal_timer.o(.text)
    .text                                    0x080115d0   Section        0  hal_wait.o(.text)
    hal_wait_TIM_config_ms                   0x080115d1   Thumb Code    62  hal_wait.o(.text)
    hal_wait_TIM_config_us                   0x0801160f   Thumb Code    62  hal_wait.o(.text)
    hal_wait_TIM_init                        0x0801164d   Thumb Code    12  hal_wait.o(.text)
    .text                                    0x080116e8   Section        0  hal_wdt.o(.text)
    .text                                    0x08011718   Section        0  halgpio.o(.text)
    HalButtonInit                            0x08011719   Thumb Code    30  halgpio.o(.text)
    .text                                    0x08011780   Section        0  halspi.o(.text)
    .text                                    0x08011ac0   Section        0  haluart.o(.text)
    .text                                    0x080120fc   Section        0  hal_rtc.o(.text)
    .text                                    0x08012484   Section        0  cloud_helper.o(.text)
    data2Num                                 0x08012485   Thumb Code    40  cloud_helper.o(.text)
    getFrameLen                              0x08012535   Thumb Code    12  cloud_helper.o(.text)
    calcChecksum                             0x080125df   Thumb Code    30  cloud_helper.o(.text)
    recv_frame                               0x080125fd   Thumb Code    54  cloud_helper.o(.text)
    send_data                                0x08012633   Thumb Code    70  cloud_helper.o(.text)
    send_frame                               0x08012679   Thumb Code    70  cloud_helper.o(.text)
    handle_request_config                    0x080126bf   Thumb Code    88  cloud_helper.o(.text)
    comm_test                                0x08012717   Thumb Code    46  cloud_helper.o(.text)
    handle_operation                         0x08012745   Thumb Code   150  cloud_helper.o(.text)
    handle_heartbeat                         0x080127db   Thumb Code    44  cloud_helper.o(.text)
    privateInfoReport                        0x0801283b   Thumb Code   372  cloud_helper.o(.text)
    handle_ssid_ret                          0x080129af   Thumb Code    50  cloud_helper.o(.text)
    handle_rom_upgrade                       0x080129f9   Thumb Code   204  cloud_helper.o(.text)
    build_property                           0x08012ad5   Thumb Code    98  cloud_helper.o(.text)
    handle_recv                              0x08012b37   Thumb Code   472  cloud_helper.o(.text)
    .text                                    0x08013268   Section        0  moduletester.o(.text)
    get_extenal_sensor_info                  0x08013269   Thumb Code   280  moduletester.o(.text)
    check_wm_sht_status                      0x08013381   Thumb Code   464  moduletester.o(.text)
    RomDataProcess                           0x08013551   Thumb Code     2  moduletester.o(.text)
    RomInfoProcess                           0x08013553   Thumb Code   196  moduletester.o(.text)
    chEventHandler                           0x08013617   Thumb Code   808  moduletester.o(.text)
    chUartWrite                              0x0801393f   Thumb Code    18  moduletester.o(.text)
    getButtonState                           0x08013951   Thumb Code    32  moduletester.o(.text)
    buttonHandler                            0x08013971   Thumb Code   236  moduletester.o(.text)
    uartRecv                                 0x08013a5d   Thumb Code    18  moduletester.o(.text)
    syncProperties_all                       0x08013ccd   Thumb Code     2  moduletester.o(.text)
    syncProperties_all_record                0x08013d0f   Thumb Code   218  moduletester.o(.text)
    PowerAndLedCtrl                          0x08013de9   Thumb Code    24  moduletester.o(.text)
    RtcTimerProcess                          0x08013e01   Thumb Code    82  moduletester.o(.text)
    .text                                    0x08013f58   Section        0  app.o(.text)
    .text                                    0x0801407c   Section        0  device.o(.text)
    setProperty                              0x08014353   Thumb Code    92  device.o(.text)
    statusParseToAlarm                       0x080143af   Thumb Code   570  device.o(.text)
    cmd_heartbeat_handler                    0x0801465b   Thumb Code   274  device.o(.text)
    cmd_notify_handler                       0x0801476d   Thumb Code   306  device.o(.text)
    GatewayDeviceRealCountChanged            0x0801489f   Thumb Code    46  device.o(.text)
    GatewayDevicesOffline                    0x08015331   Thumb Code   496  device.o(.text)
    initMainModule                           0x08015521   Thumb Code   130  device.o(.text)
    initDevices                              0x080155a3   Thumb Code    50  device.o(.text)
    addDevDone                               0x08015677   Thumb Code   158  device.o(.text)
    .text                                    0x08015874   Section        0  main.o(.text)
    .text                                    0x080158ac   Section        0  main_module.o(.text)
    _request_addr_led_blink                  0x080158b9   Thumb Code    24  main_module.o(.text)
    _request_addr                            0x080158d1   Thumb Code    26  main_module.o(.text)
    _buildnet_led_blink                      0x08015a21   Thumb Code    28  main_module.o(.text)
    .text                                    0x08015ef0   Section        0  mlist.o(.text)
    .text                                    0x08016038   Section        0  mqueue.o(.text)
    .text                                    0x080160f4   Section        0  sysbutton.o(.text)
    handleButton                             0x080160fd   Thumb Code    68  sysbutton.o(.text)
    .text                                    0x080161b8   Section        0  syspoll.o(.text)
    .text                                    0x08016298   Section        0  systimer.o(.text)
    timerExecute                             0x0801629b   Thumb Code    40  systimer.o(.text)
    .text                                    0x0801639c   Section        0  usersys.o(.text)
    .text                                    0x08016660   Section        0  menuconfig.o(.text)
    handleDebug                              0x080166f7   Thumb Code     2  menuconfig.o(.text)
    MenuConfigWrite                          0x080166f9   Thumb Code    18  menuconfig.o(.text)
    echoHelpInfo                             0x08016745   Thumb Code    38  menuconfig.o(.text)
    echoConfigInfo                           0x0801676b   Thumb Code   208  menuconfig.o(.text)
    parseSetConfig                           0x0801683b   Thumb Code   388  menuconfig.o(.text)
    handleSetConfig                          0x080169bf   Thumb Code   764  menuconfig.o(.text)
    MenuConfigHandle                         0x08016cbb   Thumb Code   154  menuconfig.o(.text)
    .text                                    0x08016e6c   Section        0  link.o(.text)
    _response_link                           0x08016e6d   Thumb Code    38  link.o(.text)
    _link_response_deal                      0x08016e93   Thumb Code    50  link.o(.text)
    .text                                    0x080170fc   Section        0  net.o(.text)
    .text                                    0x08017118   Section        0  nwk.o(.text)
    _recv_list_del                           0x08017187   Thumb Code    24  nwk.o(.text)
    _subcache_list_find                      0x0801719f   Thumb Code    22  nwk.o(.text)
    _addto_subcache                          0x080171b5   Thumb Code   142  nwk.o(.text)
    _relay_the_frame                         0x080175e7   Thumb Code   114  nwk.o(.text)
    _subcache_list_foreach                   0x080178bf   Thumb Code    44  nwk.o(.text)
    _recv_list_foreach                       0x080178eb   Thumb Code    62  nwk.o(.text)
    .text                                    0x080179fc   Section        0  phy.o(.text)
    phy_delay                                0x08017add   Thumb Code    26  phy.o(.text)
    _radio_set_mode                          0x08017af7   Thumb Code   140  phy.o(.text)
    Delay                                    0x08017fc7   Thumb Code    24  phy.o(.text)
    .text                                    0x080187d8   Section        0  halsensor.o(.text)
    .text                                    0x08018820   Section        0  pm25co2.o(.text)
    HalCo2SendBuf                            0x08018821   Thumb Code    18  pm25co2.o(.text)
    get_co2_sensor_info                      0x08018833   Thumb Code    14  pm25co2.o(.text)
    HalPmUartRecvByte                        0x08018841   Thumb Code    86  pm25co2.o(.text)
    HalPmUartRecvData                        0x08018897   Thumb Code    26  pm25co2.o(.text)
    HalCo2UartRecvByte                       0x080188b1   Thumb Code    86  pm25co2.o(.text)
    HalCo2UartRecvData                       0x08018907   Thumb Code    26  pm25co2.o(.text)
    hal_cal_co2_val_poll                     0x0801894b   Thumb Code   130  pm25co2.o(.text)
    hal_cal_pm25_val_poll                    0x080189cd   Thumb Code    70  pm25co2.o(.text)
    .text                                    0x08018a88   Section        0  sht20.o(.text)
    SHT2x_Get_TH_Info                        0x08018e67   Thumb Code   282  sht20.o(.text)
    SHT2x_Get_TH_SN                          0x0801904f   Thumb Code    14  sht20.o(.text)
    .text                                    0x08019268   Section        0  ff.o(.text)
    move_window                              0x08019269   Thumb Code   126  ff.o(.text)
    sync                                     0x080192e7   Thumb Code   220  ff.o(.text)
    get_cluster                              0x080193c3   Thumb Code   284  ff.o(.text)
    put_cluster                              0x080194df   Thumb Code   326  ff.o(.text)
    remove_chain                             0x08019625   Thumb Code    76  ff.o(.text)
    create_chain                             0x08019671   Thumb Code   176  ff.o(.text)
    clust2sect                               0x08019721   Thumb Code    28  ff.o(.text)
    next_dir_entry                           0x0801973d   Thumb Code    96  ff.o(.text)
    get_fileinfo                             0x0801979d   Thumb Code   172  ff.o(.text)
    make_dirfile                             0x08019849   Thumb Code   270  ff.o(.text)
    trace_path                               0x08019957   Thumb Code   250  ff.o(.text)
    reserve_direntry                         0x08019a51   Thumb Code   224  ff.o(.text)
    check_fs                                 0x08019b31   Thumb Code   102  ff.o(.text)
    auto_mount                               0x08019b97   Thumb Code   752  ff.o(.text)
    validate                                 0x08019e87   Thumb Code    46  ff.o(.text)
    .text                                    0x0801b51c   Section        0  sdc_diskio.o(.text)
    SPI_ReadWrite_Byte                       0x0801be81   Thumb Code    12  sdc_diskio.o(.text)
    Wait_Ready                               0x0801be8d   Thumb Code    40  sdc_diskio.o(.text)
    SPI_Release                              0x0801beb5   Thumb Code    18  sdc_diskio.o(.text)
    Receive_DataBlock                        0x0801becb   Thumb Code    78  sdc_diskio.o(.text)
    Send_Command                             0x0801bf19   Thumb Code   158  sdc_diskio.o(.text)
    .text                                    0x0801c384   Section        0  sdcardrecord.o(.text)
    getRecordFilePath                        0x0801c3ed   Thumb Code    72  sdcardrecord.o(.text)
    getRecordFileNextPath                    0x0801c435   Thumb Code   352  sdcardrecord.o(.text)
    RecordReportProess                       0x0801c623   Thumb Code   760  sdcardrecord.o(.text)
    makeRecordFilePath                       0x0801ca07   Thumb Code    92  sdcardrecord.o(.text)
    .text                                    0x0801cd24   Section        0  indoorpid.o(.text)
    Pid                                      0x0801cd57   Thumb Code   558  indoorpid.o(.text)
    trans_property_by_text                   0x0801cf85   Thumb Code   552  indoorpid.o(.text)
    .text                                    0x0801d764   Section        0  property.o(.text)
    .text                                    0x0801d790   Section        0  stm32f10x_bkp.o(.text)
    .text                                    0x0801d854   Section        0  stm32f10x_exti.o(.text)
    .text                                    0x0801d970   Section        0  stm32f10x_flash.o(.text)
    .text                                    0x0801df2c   Section        0  stm32f10x_gpio.o(.text)
    .text                                    0x0801e288   Section        0  stm32f10x_iwdg.o(.text)
    .text                                    0x0801e2c8   Section        0  stm32f10x_pwr.o(.text)
    .text                                    0x0801e394   Section        0  stm32f10x_rcc.o(.text)
    .text                                    0x0801e738   Section        0  stm32f10x_rtc.o(.text)
    .text                                    0x0801e880   Section        0  stm32f10x_spi.o(.text)
    .text                                    0x0801eb8c   Section        0  stm32f10x_tim.o(.text)
    TI4_Config                               0x0801f033   Thumb Code   130  stm32f10x_tim.o(.text)
    TI3_Config                               0x0801f0c7   Thumb Code   122  stm32f10x_tim.o(.text)
    TI2_Config                               0x0801f15b   Thumb Code   130  stm32f10x_tim.o(.text)
    TI1_Config                               0x0801f1ef   Thumb Code   108  stm32f10x_tim.o(.text)
    .text                                    0x0801f9a8   Section        0  stm32f10x_usart.o(.text)
    .text                                    0x0801fdb0   Section        0  dma_stm32f10x.o(.text)
    NVIC_EnableIRQ                           0x0802022d   Thumb Code    22  dma_stm32f10x.o(.text)
    NVIC_DisableIRQ                          0x08020243   Thumb Code    18  dma_stm32f10x.o(.text)
    NVIC_ClearPendingIRQ                     0x08020255   Thumb Code    18  dma_stm32f10x.o(.text)
    .text                                    0x08020274   Section       64  startup_stm32f10x_hd.o(.text)
    .text                                    0x080202b4   Section        0  system_stm32f10x.o(.text)
    SetSysClockTo72                          0x080202b5   Thumb Code   214  system_stm32f10x.o(.text)
    SetSysClock                              0x0802038b   Thumb Code     8  system_stm32f10x.o(.text)
    .text                                    0x08020494   Section        0  h1_alloc.o(.text)
    .text                                    0x080204f2   Section        0  h1_free.o(.text)
    .text                                    0x08020540   Section        0  vsprintf.o(.text)
    .text                                    0x08020564   Section        0  __2printf.o(.text)
    .text                                    0x0802057c   Section        0  __2sprintf.o(.text)
    .text                                    0x080205a8   Section        0  _printf_pad.o(.text)
    .text                                    0x080205f6   Section        0  _printf_str.o(.text)
    .text                                    0x08020648   Section        0  _printf_dec.o(.text)
    .text                                    0x080206c0   Section        0  _printf_hex_int_ll_ptr.o(.text)
    _printf_hex_common                       0x080206c1   Thumb Code     0  _printf_hex_int_ll_ptr.o(.text)
    .text                                    0x08020754   Section        0  __printf_flags_ss_wp.o(.text)
    .text                                    0x080208dc   Section        0  atoi.o(.text)
    .text                                    0x080208f8   Section        0  rand.o(.text)
    .text                                    0x08020934   Section        0  strchr.o(.text)
    .text                                    0x08020948   Section        0  strstr.o(.text)
    .text                                    0x0802096c   Section        0  memcmp.o(.text)
    .text                                    0x080209c4   Section        0  strcpy.o(.text)
    .text                                    0x08020a0c   Section        0  strlen.o(.text)
    .text                                    0x08020a4a   Section      138  rt_memcpy_v6.o(.text)
    .text                                    0x08020ad4   Section      100  rt_memcpy_w.o(.text)
    .text                                    0x08020b38   Section       16  aeabi_memset.o(.text)
    .text                                    0x08020b48   Section       68  rt_memclr.o(.text)
    .text                                    0x08020b8c   Section       78  rt_memclr_w.o(.text)
    .text                                    0x08020bdc   Section      128  strcmpv7m.o(.text)
    .text                                    0x08020c5c   Section        0  heapauxi.o(.text)
    .text                                    0x08020c64   Section        8  rt_heap_descriptor_intlibspace.o(.text)
    .text                                    0x08020c6c   Section        8  rt_errno_addr_intlibspace.o(.text)
    .text                                    0x08020c74   Section        0  hguard.o(.text)
    .text                                    0x08020c78   Section        0  init_alloc.o(.text)
    .text                                    0x08020d02   Section        0  h1_init.o(.text)
    .text                                    0x08020d10   Section        0  _printf_truncate.o(.text)
    .text                                    0x08020d34   Section        0  _printf_intcommon.o(.text)
    .text                                    0x08020de6   Section        0  _printf_charcount.o(.text)
    .text                                    0x08020e0e   Section        0  _printf_fp_dec.o(.text)
    _fp_digits                               0x08020e11   Thumb Code   428  _printf_fp_dec.o(.text)
    .text                                    0x08021228   Section        0  _printf_char_common.o(.text)
    _printf_input_char                       0x08021229   Thumb Code    10  _printf_char_common.o(.text)
    .text                                    0x08021258   Section        0  _sputc.o(.text)
    .text                                    0x08021262   Section        0  _printf_char.o(.text)
    .text                                    0x08021290   Section        0  _printf_char_file.o(.text)
    .text                                    0x080212b4   Section        0  _printf_wctomb.o(.text)
    .text                                    0x08021370   Section        0  _printf_longlong_dec.o(.text)
    .text                                    0x080213ec   Section        0  _printf_oct_int_ll.o(.text)
    _printf_longlong_oct_internal            0x080213ed   Thumb Code     0  _printf_oct_int_ll.o(.text)
    .text                                    0x0802145c   Section        0  strtol.o(.text)
    .text                                    0x080214cc   Section        8  libspace.o(.text)
    .text                                    0x080214d4   Section       16  rt_ctype_table.o(.text)
    .text                                    0x080214e4   Section        8  rt_locale_intlibspace.o(.text)
    .text                                    0x080214ec   Section        0  h1_extend.o(.text)
    .text                                    0x08021520   Section      138  lludiv10.o(.text)
    .text                                    0x080215ac   Section        0  _printf_fp_hex.o(.text)
    .text                                    0x080218a8   Section        0  _printf_fp_infnan.o(.text)
    .text                                    0x08021928   Section        0  _printf_wchar.o(.text)
    .text                                    0x08021954   Section        0  _strtoul.o(.text)
    .text                                    0x080219f4   Section        0  bigflt0.o(.text)
    .text                                    0x08021ad0   Section        0  ferror.o(.text)
    .text                                    0x08021ad8   Section        0  _wcrtomb.o(.text)
    .text                                    0x08021b18   Section        0  defsig_rtmem_outer.o(.text)
    .text                                    0x08021b26   Section        2  use_no_semi.o(.text)
    .text                                    0x08021b28   Section        0  indicate_semi.o(.text)
    .text                                    0x08021b28   Section       74  sys_stackheap_outer.o(.text)
    .text                                    0x08021b72   Section        0  _chval.o(.text)
    .text                                    0x08021b8e   Section        0  exit.o(.text)
    .text                                    0x08021ba0   Section        0  defsig_exit.o(.text)
    .text                                    0x08021bac   Section        0  defsig_rtmem_inner.o(.text)
    .text                                    0x08021bfc   Section        0  defsig_general.o(.text)
    .text                                    0x08021c2e   Section        0  sys_wrch.o(.text)
    CL$$btod_d2e                             0x08021c3c   Section       62  btod.o(CL$$btod_d2e)
    CL$$btod_d2e_denorm_low                  0x08021c7a   Section       70  btod.o(CL$$btod_d2e_denorm_low)
    CL$$btod_d2e_norm_op1                    0x08021cc0   Section       96  btod.o(CL$$btod_d2e_norm_op1)
    CL$$btod_div_common                      0x08021d20   Section      824  btod.o(CL$$btod_div_common)
    CL$$btod_e2e                             0x08022058   Section      198  btod.o(CL$$btod_e2e)
    CL$$btod_ediv                            0x0802211e   Section       40  btod.o(CL$$btod_ediv)
    CL$$btod_emul                            0x08022146   Section       40  btod.o(CL$$btod_emul)
    CL$$btod_mult_common                     0x0802216e   Section      580  btod.o(CL$$btod_mult_common)
    i.__ARM_fpclassify                       0x080223b2   Section        0  fpclassify.o(i.__ARM_fpclassify)
    i._is_digit                              0x080223da   Section        0  __printf_wp.o(i._is_digit)
    locale$$code                             0x080223e8   Section       44  lc_numeric_c.o(locale$$code)
    locale$$code                             0x08022414   Section       44  lc_ctype_c.o(locale$$code)
    x$fpl$d2f                                0x08022440   Section       98  d2f.o(x$fpl$d2f)
    x$fpl$dadd                               0x080224a4   Section      336  daddsub_clz.o(x$fpl$dadd)
    _dadd1                                   0x080224b5   Thumb Code     0  daddsub_clz.o(x$fpl$dadd)
    x$fpl$dmul                               0x080225f4   Section      340  dmul.o(x$fpl$dmul)
    x$fpl$dnaninf                            0x08022748   Section      156  dnaninf.o(x$fpl$dnaninf)
    x$fpl$dretinf                            0x080227e4   Section       12  dretinf.o(x$fpl$dretinf)
    x$fpl$dsub                               0x080227f0   Section      468  daddsub_clz.o(x$fpl$dsub)
    _dsub1                                   0x08022801   Thumb Code     0  daddsub_clz.o(x$fpl$dsub)
    x$fpl$f2d                                0x080229c4   Section       86  f2d.o(x$fpl$f2d)
    x$fpl$fadd                               0x08022a1c   Section      196  faddsub_clz.o(x$fpl$fadd)
    _fadd1                                   0x08022a2b   Thumb Code     0  faddsub_clz.o(x$fpl$fadd)
    x$fpl$ffixu                              0x08022ae0   Section       62  ffixu.o(x$fpl$ffixu)
    x$fpl$ffltu                              0x08022b20   Section       38  fflt_clz.o(x$fpl$ffltu)
    x$fpl$fmul                               0x08022b48   Section      258  fmul.o(x$fpl$fmul)
    x$fpl$fnaninf                            0x08022c4a   Section      140  fnaninf.o(x$fpl$fnaninf)
    x$fpl$fretinf                            0x08022cd6   Section       10  fretinf.o(x$fpl$fretinf)
    x$fpl$fsub                               0x08022ce0   Section      234  faddsub_clz.o(x$fpl$fsub)
    _fsub1                                   0x08022cef   Thumb Code     0  faddsub_clz.o(x$fpl$fsub)
    x$fpl$printf1                            0x08022dca   Section        4  printf1.o(x$fpl$printf1)
    x$fpl$printf2                            0x08022dce   Section        4  printf2.o(x$fpl$printf2)
    .constdata                               0x08022dd2   Section       11  hal.o(.constdata)
    x$fpl$usenofp                            0x08022dd2   Section        0  usenofp.o(x$fpl$usenofp)
    __func__                                 0x08022dd2   Data          11  hal.o(.constdata)
    .constdata                               0x08022ddd   Section      767  hal_aes.o(.constdata)
    sbox                                     0x08022ddd   Data         256  hal_aes.o(.constdata)
    rsbox                                    0x08022edd   Data         256  hal_aes.o(.constdata)
    Rcon                                     0x08022fdd   Data         255  hal_aes.o(.constdata)
    .constdata                               0x080230dc   Section       12  hal_rtc.o(.constdata)
    .constdata                               0x080230e8   Section       45  cloud_helper.o(.constdata)
    g_send_frame                             0x080230e8   Data           4  cloud_helper.o(.constdata)
    __func__                                 0x080230ec   Data          10  cloud_helper.o(.constdata)
    __func__                                 0x080230f6   Data          12  cloud_helper.o(.constdata)
    __func__                                 0x08023102   Data          19  cloud_helper.o(.constdata)
    .constdata                               0x08023115   Section       79  moduletester.o(.constdata)
    __func__                                 0x08023115   Data          26  moduletester.o(.constdata)
    __func__                                 0x0802312f   Data          15  moduletester.o(.constdata)
    __func__                                 0x0802313e   Data          14  moduletester.o(.constdata)
    __func__                                 0x0802314c   Data          24  moduletester.o(.constdata)
    .constdata                               0x08023164   Section      137  device.o(.constdata)
    __func__                                 0x08023164   Data          11  device.o(.constdata)
    __func__                                 0x0802316f   Data          17  device.o(.constdata)
    __func__                                 0x08023180   Data          10  device.o(.constdata)
    __func__                                 0x0802318a   Data          21  device.o(.constdata)
    __func__                                 0x0802319f   Data          22  device.o(.constdata)
    __func__                                 0x080231b5   Data          15  device.o(.constdata)
    __func__                                 0x080231c4   Data          19  device.o(.constdata)
    __func__                                 0x080231d7   Data          22  device.o(.constdata)
    .constdata                               0x080231ed   Section       65  main_module.o(.constdata)
    __func__                                 0x080231ed   Data          20  main_module.o(.constdata)
    __FUNCTION__                             0x08023201   Data          23  main_module.o(.constdata)
    __func__                                 0x08023218   Data          22  main_module.o(.constdata)
    .constdata                               0x0802322e   Section       21  usersys.o(.constdata)
    __func__                                 0x0802322e   Data          21  usersys.o(.constdata)
    .constdata                               0x08023243   Section        4  menuconfig.o(.constdata)
    .constdata                               0x08023247   Section       13  nwk.o(.constdata)
    __func__                                 0x08023247   Data          13  nwk.o(.constdata)
    .constdata                               0x08023254   Section       64  phy.o(.constdata)
    __func__                                 0x08023254   Data          11  phy.o(.constdata)
    __func__                                 0x0802325f   Data           9  phy.o(.constdata)
    __func__                                 0x08023268   Data          16  phy.o(.constdata)
    __func__                                 0x08023278   Data           9  phy.o(.constdata)
    __func__                                 0x08023281   Data          19  phy.o(.constdata)
    .constdata                               0x08023294   Section       30  pm25co2.o(.constdata)
    __func__                                 0x0802329d   Data          21  pm25co2.o(.constdata)
    .constdata                               0x080232b2   Section       58  sht20.o(.constdata)
    __func__                                 0x080232b2   Data          20  sht20.o(.constdata)
    __func__                                 0x080232c6   Data          20  sht20.o(.constdata)
    __func__                                 0x080232da   Data          18  sht20.o(.constdata)
    .constdata                               0x080232ec   Section      117  sdcardrecord.o(.constdata)
    __func__                                 0x080232ec   Data          17  sdcardrecord.o(.constdata)
    __func__                                 0x080232fd   Data          17  sdcardrecord.o(.constdata)
    __func__                                 0x0802330e   Data          15  sdcardrecord.o(.constdata)
    __func__                                 0x0802331d   Data          19  sdcardrecord.o(.constdata)
    __func__                                 0x08023330   Data          14  sdcardrecord.o(.constdata)
    __func__                                 0x0802333e   Data          22  sdcardrecord.o(.constdata)
    __func__                                 0x08023354   Data          13  sdcardrecord.o(.constdata)
    .constdata                               0x08023361   Section        4  indoorpid.o(.constdata)
    __func__                                 0x08023361   Data           4  indoorpid.o(.constdata)
    .constdata                               0x08023365   Section       40  _printf_hex_int_ll_ptr.o(.constdata)
    uc_hextab                                0x08023365   Data          20  _printf_hex_int_ll_ptr.o(.constdata)
    lc_hextab                                0x08023379   Data          20  _printf_hex_int_ll_ptr.o(.constdata)
    .constdata                               0x0802338d   Section       17  __printf_flags_ss_wp.o(.constdata)
    maptable                                 0x0802338d   Data          17  __printf_flags_ss_wp.o(.constdata)
    .constdata                               0x080233a0   Section        8  _printf_wctomb.o(.constdata)
    initial_mbstate                          0x080233a0   Data           8  _printf_wctomb.o(.constdata)
    .constdata                               0x080233a8   Section       38  _printf_fp_hex.o(.constdata)
    lc_hextab                                0x080233a8   Data          19  _printf_fp_hex.o(.constdata)
    uc_hextab                                0x080233bb   Data          19  _printf_fp_hex.o(.constdata)
    .constdata                               0x080233d0   Section      148  bigflt0.o(.constdata)
    tenpwrs_x                                0x080233d0   Data          60  bigflt0.o(.constdata)
    tenpwrs_i                                0x0802340c   Data          64  bigflt0.o(.constdata)
    .conststring                             0x08023464   Section       55  menuconfig.o(.conststring)
    locale$$data                             0x080234bc   Section       28  lc_numeric_c.o(locale$$data)
    __lcnum_c_name                           0x080234c0   Data           2  lc_numeric_c.o(locale$$data)
    __lcnum_c_start                          0x080234c8   Data           0  lc_numeric_c.o(locale$$data)
    __lcnum_c_point                          0x080234d4   Data           0  lc_numeric_c.o(locale$$data)
    __lcnum_c_thousands                      0x080234d6   Data           0  lc_numeric_c.o(locale$$data)
    __lcnum_c_grouping                       0x080234d7   Data           0  lc_numeric_c.o(locale$$data)
    locale$$data                             0x080234d8   Section      272  lc_ctype_c.o(locale$$data)
    __lcnum_c_end                            0x080234d8   Data           0  lc_numeric_c.o(locale$$data)
    __lcctype_c_name                         0x080234dc   Data           2  lc_ctype_c.o(locale$$data)
    __lcctype_c_start                        0x080234e4   Data           0  lc_ctype_c.o(locale$$data)
    __lcctype_c_end                          0x080235e8   Data           0  lc_ctype_c.o(locale$$data)
    .data                                    0x20000100   Section        8  os_timer.o(.data)
    g_nettime                                0x20000100   Data           4  os_timer.o(.data)
    g_systime                                0x20000104   Data           4  os_timer.o(.data)
    .data                                    0x20000108   Section       13  hal_aes.o(.data)
    in                                       0x20000108   Data           4  hal_aes.o(.data)
    out                                      0x2000010c   Data           4  hal_aes.o(.data)
    Key                                      0x20000110   Data           4  hal_aes.o(.data)
    isBe                                     0x20000114   Data           1  hal_aes.o(.data)
    .data                                    0x20000116   Section        2  hal_rnd.o(.data)
    g_seed                                   0x20000116   Data           2  hal_rnd.o(.data)
    .data                                    0x20000118   Section        1  hal_wait.o(.data)
    g_waitType                               0x20000118   Data           1  hal_wait.o(.data)
    .data                                    0x2000011c   Section        4  haluart.o(.data)
    .data                                    0x20000120   Section        2  hal_rtc.o(.data)
    dayCount                                 0x20000120   Data           2  hal_rtc.o(.data)
    .data                                    0x20000124   Section       57  cloud_helper.o(.data)
    g_justResponseConfig                     0x20000124   Data           1  cloud_helper.o(.data)
    g_online                                 0x20000125   Data           1  cloud_helper.o(.data)
    g_wifi_status                            0x20000126   Data           1  cloud_helper.o(.data)
    g_wifi_cfg_type                          0x20000127   Data           1  cloud_helper.o(.data)
    g_wifi_signal                            0x20000128   Data           1  cloud_helper.o(.data)
    g_sys_time                               0x2000012c   Data           4  cloud_helper.o(.data)
    g_last_recv_time                         0x20000130   Data           4  cloud_helper.o(.data)
    g_version                                0x20000134   Data           4  cloud_helper.o(.data)
    g_event_handler                          0x20000138   Data           4  cloud_helper.o(.data)
    g_uart_write                             0x2000013c   Data           4  cloud_helper.o(.data)
    g_recving_frame_buf_count                0x20000140   Data           1  cloud_helper.o(.data)
    g_frame_recved                           0x20000141   Data           1  cloud_helper.o(.data)
    g_use_jd_product_uuid                    0x20000142   Data           1  cloud_helper.o(.data)
    g_jd_product_uuid                        0x20000143   Data           7  cloud_helper.o(.data)
    g_use_wechat_devtype                     0x2000014a   Data           1  cloud_helper.o(.data)
    g_use_gm_type                            0x2000014b   Data           1  cloud_helper.o(.data)
    g_pro_test_start                         0x2000014d   Data           1  cloud_helper.o(.data)
    g_pro_test_result                        0x2000014e   Data           1  cloud_helper.o(.data)
    g_multiPropertyLen                       0x20000150   Data           2  cloud_helper.o(.data)
    g_historyLen                             0x20000154   Data           4  cloud_helper.o(.data)
    commTestTime                             0x20000158   Data           4  cloud_helper.o(.data)
    first                                    0x2000015c   Data           1  cloud_helper.o(.data)
    .data                                    0x20000160   Section       16  moduletester.o(.data)
    g_lastSyncTime                           0x20000160   Data           4  moduletester.o(.data)
    g_lastSyncMin                            0x20000164   Data           4  moduletester.o(.data)
    g_startSyncSec                           0x20000168   Data           4  moduletester.o(.data)
    g_config                                 0x2000016c   Data           4  moduletester.o(.data)
    .data                                    0x20000170   Section        8  device.o(.data)
    g_addDevDoneTimer                        0x20000170   Data           4  device.o(.data)
    alarmLevel                               0x20000174   Data           4  device.o(.data)
    .data                                    0x20000178   Section        9  main_module.o(.data)
    g_led_blink_count                        0x20000178   Data           2  main_module.o(.data)
    g_real_device_count                      0x2000017a   Data           1  main_module.o(.data)
    g_work_channel                           0x2000017b   Data           1  main_module.o(.data)
    g_work_state                             0x2000017c   Data           1  main_module.o(.data)
    g_broadcast_times                        0x2000017d   Data           1  main_module.o(.data)
    g_wakeup_dev_addr                        0x2000017e   Data           1  main_module.o(.data)
    g_wakeup_dev_value                       0x2000017f   Data           1  main_module.o(.data)
    g_isCheckMode                            0x20000180   Data           1  main_module.o(.data)
    .data                                    0x20000184   Section        4  sysbutton.o(.data)
    g_buttons                                0x20000184   Data           4  sysbutton.o(.data)
    .data                                    0x20000188   Section        4  syspoll.o(.data)
    g_pollNum                                0x20000188   Data           4  syspoll.o(.data)
    .data                                    0x2000018c   Section       21  usersys.o(.data)
    g_sysInitComplete                        0x2000019b   Data           1  usersys.o(.data)
    g_utcTime                                0x2000019c   Data           4  usersys.o(.data)
    g_tcpSendLock                            0x200001a0   Data           1  usersys.o(.data)
    .data                                    0x200001a4   Section       72  menuconfig.o(.data)
    g_cmd                                    0x200001a4   Data          64  menuconfig.o(.data)
    g_menuconfigStart                        0x200001e4   Data           1  menuconfig.o(.data)
    g_recvCount                              0x200001e5   Data           1  menuconfig.o(.data)
    g_recvd                                  0x200001e6   Data           1  menuconfig.o(.data)
    g_lastRecvTime                           0x200001e8   Data           4  menuconfig.o(.data)
    .data                                    0x200001ec   Section       17  link.o(.data)
    g_link_busy                              0x200001ec   Data           1  link.o(.data)
    g_link_busy_time                         0x200001f0   Data           4  link.o(.data)
    g_link_hops                              0x200001f4   Data           1  link.o(.data)
    g_link_state                             0x200001f5   Data           1  link.o(.data)
    g_link_deal_time                         0x200001f8   Data           4  link.o(.data)
    g_link_is_stable                         0x200001fc   Data           1  link.o(.data)
    .data                                    0x200001fd   Section       12  nwk.o(.data)
    g_segaddr                                0x200001fd   Data           4  nwk.o(.data)
    g_myaddr                                 0x20000201   Data           1  nwk.o(.data)
    g_role                                   0x20000202   Data           1  nwk.o(.data)
    g_sleepmode                              0x20000203   Data           1  nwk.o(.data)
    g_mesh_enable                            0x20000204   Data           1  nwk.o(.data)
    g_transmit_fail_count                    0x20000205   Data           1  nwk.o(.data)
    g_trans_id                               0x20000206   Data           1  nwk.o(.data)
    g_ack_wait_info                          0x20000207   Data           2  nwk.o(.data)
    .data                                    0x2000020c   Section        9  phy.o(.data)
    g_lock_ctrl_buf                          0x2000020c   Data           1  phy.o(.data)
    g_cc1101_id                              0x2000020d   Data           1  phy.o(.data)
    g_lastRecvRFTime                         0x20000210   Data           4  phy.o(.data)
    g_rfAbnormalCount                        0x20000214   Data           1  phy.o(.data)
    .data                                    0x20000216   Section       12  pm25co2.o(.data)
    g_pm25Co2Val                             0x20000216   Data           8  pm25co2.o(.data)
    g_pm25_rcv_count                         0x2000021e   Data           1  pm25co2.o(.data)
    g_pm25_rcv_done                          0x2000021f   Data           1  pm25co2.o(.data)
    g_co2_rcv_count                          0x20000220   Data           1  pm25co2.o(.data)
    g_co2_rcv_done                           0x20000221   Data           1  pm25co2.o(.data)
    .data                                    0x20000224   Section       10  ff.o(.data)
    FatFs                                    0x20000224   Data           8  ff.o(.data)
    fsid                                     0x2000022c   Data           2  ff.o(.data)
    .data                                    0x20000230   Section       13  sdc_diskio.o(.data)
    Stat                                     0x20000230   Data           1  sdc_diskio.o(.data)
    CardType                                 0x20000231   Data           1  sdc_diskio.o(.data)
    .data                                    0x20000240   Section        8  sdcardrecord.o(.data)
    g_lasSDDet                               0x20000240   Data           1  sdcardrecord.o(.data)
    .data                                    0x20000248   Section       20  indoorpid.o(.data)
    g_config                                 0x20000248   Data           4  indoorpid.o(.data)
    g_moduleInfo                             0x2000024c   Data           4  indoorpid.o(.data)
    g_wm_device_status                       0x20000250   Data           4  indoorpid.o(.data)
    g_sht_device_status                      0x20000254   Data           4  indoorpid.o(.data)
    g_sk_device_status                       0x20000258   Data           4  indoorpid.o(.data)
    .data                                    0x2000025c   Section       20  stm32f10x_rcc.o(.data)
    APBAHBPrescTable                         0x2000025c   Data          16  stm32f10x_rcc.o(.data)
    ADCPrescTable                            0x2000026c   Data           4  stm32f10x_rcc.o(.data)
    .data                                    0x20000270   Section        2  dma_stm32f10x.o(.data)
    DMA1_Channel                             0x20000270   Data           1  dma_stm32f10x.o(.data)
    DMA2_Channel                             0x20000271   Data           1  dma_stm32f10x.o(.data)
    .data                                    0x20000274   Section       20  system_stm32f10x.o(.data)
    .bss                                     0x20000288   Section      224  os_timer.o(.bss)
    g_timer_list                             0x20000288   Data         224  os_timer.o(.bss)
    .bss                                     0x20000368   Section      208  hal_aes.o(.bss)
    state                                    0x20000378   Data          16  hal_aes.o(.bss)
    RoundKey                                 0x20000388   Data         176  hal_aes.o(.bss)
    .bss                                     0x20000438   Section       60  hal_led.o(.bss)
    g_ledBlink                               0x20000438   Data          60  hal_led.o(.bss)
    .bss                                     0x20000474   Section       20  haluart.o(.bss)
    g_uartCbs                                0x20000474   Data          20  haluart.o(.bss)
    .bss                                     0x20000488   Section       16  hal_rtc.o(.bss)
    g_rtcTime                                0x20000488   Data          16  hal_rtc.o(.bss)
    .bss                                     0x20000498   Section     2197  cloud_helper.o(.bss)
    g_device_type                            0x20000498   Data          12  cloud_helper.o(.bss)
    g_device_pin                             0x200004a4   Data          33  cloud_helper.o(.bss)
    g_recving_frame_buf                      0x200004c5   Data        1031  cloud_helper.o(.bss)
    g_send_buf                               0x200008cc   Data        1031  cloud_helper.o(.bss)
    g_wechat_devtype                         0x20000cd3   Data          12  cloud_helper.o(.bss)
    g_gm_model                               0x20000cdf   Data          12  cloud_helper.o(.bss)
    g_gm_pin                                 0x20000ceb   Data          33  cloud_helper.o(.bss)
    g_wifiSSID                               0x20000d0c   Data          33  cloud_helper.o(.bss)
    .bss                                     0x20000d30   Section      276  moduletester.o(.bss)
    g_rtc_time                               0x20000d30   Data          24  moduletester.o(.bss)
    g_ConfigButton                           0x20000d48   Data          16  moduletester.o(.bss)
    g_gw_electInfo                           0x20000d58   Data          52  moduletester.o(.bss)
    g_wm_device_status                       0x20000d8c   Data          20  moduletester.o(.bss)
    g_sht_device_status                      0x20000da0   Data          30  moduletester.o(.bss)
    g_sk_device_status                       0x20000dc0   Data          60  moduletester.o(.bss)
    g_updateInfo                             0x20000dfc   Data          40  moduletester.o(.bss)
    g_rmoduleID                              0x20000e24   Data          32  moduletester.o(.bss)
    .bss                                     0x20000e44   Section       16  app.o(.bss)
    g_aes_key                                0x20000e44   Data          16  app.o(.bss)
    .bss                                     0x20000e54   Section      704  device.o(.bss)
    g_devices                                0x20000e54   Data         576  device.o(.bss)
    g_WM_device_status                       0x20001094   Data          20  device.o(.bss)
    g_SHT_device_status                      0x200010a8   Data          30  device.o(.bss)
    g_SK_device_status                       0x200010c8   Data          60  device.o(.bss)
    id                                       0x20001104   Data          16  device.o(.bss)
    .bss                                     0x20001114   Section      256  main_module.o(.bss)
    g_device_info                            0x20001114   Data         256  main_module.o(.bss)
    .bss                                     0x20001214   Section      120  syspoll.o(.bss)
    .bss                                     0x2000128c   Section      400  systimer.o(.bss)
    g_timers                                 0x2000128c   Data         400  systimer.o(.bss)
    .bss                                     0x2000141c   Section     2048  usersys.o(.bss)
    secBuf                                   0x2000141c   Data        2048  usersys.o(.bss)
    .bss                                     0x20001c1c   Section      212  menuconfig.o(.bss)
    g_menuconfigRecv                         0x20001c1c   Data         128  menuconfig.o(.bss)
    g_configInfo                             0x20001c9c   Data          84  menuconfig.o(.bss)
    .bss                                     0x20001cf0   Section      192  link.o(.bss)
    g_records                                0x20001cf0   Data         192  link.o(.bss)
    .bss                                     0x20001db0   Section      580  nwk.o(.bss)
    g_ack_queue                              0x20001db0   Data          24  nwk.o(.bss)
    g_subcache_list                          0x20001dc8   Data         120  nwk.o(.bss)
    g_my_subcache                            0x20001e40   Data          20  nwk.o(.bss)
    g_recv_list                              0x20001e54   Data         352  nwk.o(.bss)
    g_addr_transid                           0x20001fb4   Data          64  nwk.o(.bss)
    .bss                                     0x20001ff4   Section      229  phy.o(.bss)
    trans_longer                             0x20001ff4   Data          12  phy.o(.bss)
    g_ctrl_buf                               0x20002000   Data          23  phy.o(.bss)
    g_tx_buf                                 0x20002017   Data         128  phy.o(.bss)
    g_rx_buf                                 0x20002097   Data          66  phy.o(.bss)
    .bss                                     0x200020dc   Section       36  halsensor.o(.bss)
    g_sensorInfo                             0x200020dc   Data          36  halsensor.o(.bss)
    .bss                                     0x20002100   Section       64  pm25co2.o(.bss)
    g_pm25_rcv_buf                           0x20002100   Data          40  pm25co2.o(.bss)
    g_co2_rcv_buf                            0x20002128   Data          12  pm25co2.o(.bss)
    g_co2_data                               0x20002134   Data          12  pm25co2.o(.bss)
    .bss                                     0x20002140   Section       28  sht20.o(.bss)
    .bss                                     0x2000215c   Section     2312  sdcardrecord.o(.bss)
    fs                                       0x2000215c   Data         560  sdcardrecord.o(.bss)
    fsrc                                     0x2000238c   Data         548  sdcardrecord.o(.bss)
    g_rReport                                0x200025b0   Data         628  sdcardrecord.o(.bss)
    g_recordBuild                            0x20002824   Data         512  sdcardrecord.o(.bss)
    filePath                                 0x20002a24   Data          64  sdcardrecord.o(.bss)
    .bss                                     0x20002a64   Section       30  indoorpid.o(.bss)
    text                                     0x20002a64   Data          30  indoorpid.o(.bss)
    .bss                                     0x20002a84   Section      228  rand.o(.bss)
    .bss                                     0x20002b68   Section       96  libspace.o(.bss)
    HEAP                                     0x20002bc8   Section    10240  startup_stm32f10x_hd.o(HEAP)
    Heap_Mem                                 0x20002bc8   Data       10240  startup_stm32f10x_hd.o(HEAP)
    STACK                                    0x200053c8   Section     6144  startup_stm32f10x_hd.o(STACK)
    Stack_Mem                                0x200053c8   Data        6144  startup_stm32f10x_hd.o(STACK)
    __initial_sp                             0x20006bc8   Data           0  startup_stm32f10x_hd.o(STACK)

    Global Symbols

    Symbol Name                              Value     Ov Type        Size  Object(Section)

    BuildAttributes$$THM_ISAv4$P$D$K$B$S$PE$A:L22UL41UL21$X:L11$S22US41US21$IEEE1$IW$USESV6$~STKCKD$USESV7$~SHL$OTIME$ROPI$IEEEJ$EBA8$UX$STANDARDLIB$REQ8$PRES8$EABIv2 0x00000000   Number         0  anon$$obj.o ABSOLUTE
    __ARM_use_no_argv                        0x00000000   Number         0  main.o ABSOLUTE
    _printf_flags                            0x00000000   Number         0  printf_stubs.o ABSOLUTE
    _printf_return_value                     0x00000000   Number         0  printf_stubs.o ABSOLUTE
    _printf_sizespec                         0x00000000   Number         0  printf_stubs.o ABSOLUTE
    _printf_widthprec                        0x00000000   Number         0  printf_stubs.o ABSOLUTE
    __ARM_exceptions_init                     - Undefined Weak Reference
    __alloca_initialize                       - Undefined Weak Reference
    __arm_preinit_                            - Undefined Weak Reference
    __cpp_initialize__aeabi_                  - Undefined Weak Reference
    __cxa_finalize                            - Undefined Weak Reference
    __sigvec_lookup                           - Undefined Weak Reference
    __user_heap_extent                        - Undefined Weak Reference
    _atexit_init                              - Undefined Weak Reference
    _call_atexit_fns                          - Undefined Weak Reference
    _clock_init                               - Undefined Weak Reference
    _fp_trap_init                             - Undefined Weak Reference
    _fp_trap_shutdown                         - Undefined Weak Reference
    _get_lc_collate                           - Undefined Weak Reference
    _get_lc_monetary                          - Undefined Weak Reference
    _get_lc_time                              - Undefined Weak Reference
    _getenv_init                              - Undefined Weak Reference
    _handle_redirection                       - Undefined Weak Reference
    _initio                                   - Undefined Weak Reference
    _mutex_acquire                            - Undefined Weak Reference
    _mutex_free                               - Undefined Weak Reference
    _mutex_release                            - Undefined Weak Reference
    _printf_mbtowc                            - Undefined Weak Reference
    _printf_wc                                - Undefined Weak Reference
    _signal_finish                            - Undefined Weak Reference
    _signal_init                              - Undefined Weak Reference
    _terminateio                              - Undefined Weak Reference
    __Vectors_Size                           0x00000130   Number         0  startup_stm32f10x_hd.o ABSOLUTE
    __Vectors                                0x08010000   Data           4  startup_stm32f10x_hd.o(RESET)
    __Vectors_End                            0x08010130   Data           0  startup_stm32f10x_hd.o(RESET)
    __main                                   0x08010131   Thumb Code     8  __main.o(!!!main)
    __scatterload                            0x08010139   Thumb Code     0  __scatter.o(!!!scatter)
    __scatterload_rt2                        0x08010139   Thumb Code    44  __scatter.o(!!!scatter)
    __scatterload_rt2_thumb_only             0x08010139   Thumb Code     0  __scatter.o(!!!scatter)
    __scatterload_null                       0x08010147   Thumb Code     0  __scatter.o(!!!scatter)
    __decompress                             0x0801016d   Thumb Code    90  __dczerorl2.o(!!dczerorl2)
    __decompress1                            0x0801016d   Thumb Code     0  __dczerorl2.o(!!dczerorl2)
    __scatterload_zeroinit                   0x080101c9   Thumb Code    28  __scatter_zi.o(!!handler_zi)
    _printf_n                                0x080101e5   Thumb Code     0  _printf_n.o(.ARM.Collect$$_printf_percent$$00000001)
    _printf_percent                          0x080101e5   Thumb Code     0  _printf_percent.o(.ARM.Collect$$_printf_percent$$00000000)
    _printf_p                                0x080101eb   Thumb Code     0  _printf_p.o(.ARM.Collect$$_printf_percent$$00000002)
    _printf_f                                0x080101f1   Thumb Code     0  _printf_f.o(.ARM.Collect$$_printf_percent$$00000003)
    _printf_e                                0x080101f7   Thumb Code     0  _printf_e.o(.ARM.Collect$$_printf_percent$$00000004)
    _printf_g                                0x080101fd   Thumb Code     0  _printf_g.o(.ARM.Collect$$_printf_percent$$00000005)
    _printf_a                                0x08010203   Thumb Code     0  _printf_a.o(.ARM.Collect$$_printf_percent$$00000006)
    _printf_ll                               0x08010209   Thumb Code     0  _printf_ll.o(.ARM.Collect$$_printf_percent$$00000007)
    _printf_i                                0x08010213   Thumb Code     0  _printf_i.o(.ARM.Collect$$_printf_percent$$00000008)
    _printf_d                                0x08010219   Thumb Code     0  _printf_d.o(.ARM.Collect$$_printf_percent$$00000009)
    _printf_u                                0x0801021f   Thumb Code     0  _printf_u.o(.ARM.Collect$$_printf_percent$$0000000A)
    _printf_o                                0x08010225   Thumb Code     0  _printf_o.o(.ARM.Collect$$_printf_percent$$0000000B)
    _printf_x                                0x0801022b   Thumb Code     0  _printf_x.o(.ARM.Collect$$_printf_percent$$0000000C)
    _printf_lli                              0x08010231   Thumb Code     0  _printf_lli.o(.ARM.Collect$$_printf_percent$$0000000D)
    _printf_lld                              0x08010237   Thumb Code     0  _printf_lld.o(.ARM.Collect$$_printf_percent$$0000000E)
    _printf_llu                              0x0801023d   Thumb Code     0  _printf_llu.o(.ARM.Collect$$_printf_percent$$0000000F)
    _printf_llo                              0x08010243   Thumb Code     0  _printf_llo.o(.ARM.Collect$$_printf_percent$$00000010)
    _printf_llx                              0x08010249   Thumb Code     0  _printf_llx.o(.ARM.Collect$$_printf_percent$$00000011)
    _printf_l                                0x0801024f   Thumb Code     0  _printf_l.o(.ARM.Collect$$_printf_percent$$00000012)
    _printf_c                                0x08010259   Thumb Code     0  _printf_c.o(.ARM.Collect$$_printf_percent$$00000013)
    _printf_s                                0x0801025f   Thumb Code     0  _printf_s.o(.ARM.Collect$$_printf_percent$$00000014)
    _printf_lc                               0x08010265   Thumb Code     0  _printf_lc.o(.ARM.Collect$$_printf_percent$$00000015)
    _printf_ls                               0x0801026b   Thumb Code     0  _printf_ls.o(.ARM.Collect$$_printf_percent$$00000016)
    _printf_percent_end                      0x08010271   Thumb Code     0  _printf_percent_end.o(.ARM.Collect$$_printf_percent$$00000017)
    __rt_lib_init                            0x08010275   Thumb Code     0  libinit.o(.ARM.Collect$$libinit$$00000000)
    __rt_lib_init_fp_1                       0x08010277   Thumb Code     0  libinit2.o(.ARM.Collect$$libinit$$00000002)
    __rt_lib_init_heap_2                     0x08010277   Thumb Code     0  libinit2.o(.ARM.Collect$$libinit$$00000005)
    __rt_lib_init_preinit_1                  0x08010277   Thumb Code     0  libinit2.o(.ARM.Collect$$libinit$$00000004)
    __rt_lib_init_heap_1                     0x0801027f   Thumb Code     0  libinit2.o(.ARM.Collect$$libinit$$0000000A)
    __rt_lib_init_rand_2                     0x0801027f   Thumb Code     0  libinit2.o(.ARM.Collect$$libinit$$0000000D)
    __rt_lib_init_user_alloc_1               0x0801027f   Thumb Code     0  libinit2.o(.ARM.Collect$$libinit$$0000000C)
    __rt_lib_init_lc_common                  0x08010283   Thumb Code     0  libinit2.o(.ARM.Collect$$libinit$$0000000F)
    __rt_lib_init_rand_1                     0x08010283   Thumb Code     0  libinit2.o(.ARM.Collect$$libinit$$0000000E)
    __rt_lib_init_lc_collate_1               0x08010289   Thumb Code     0  libinit2.o(.ARM.Collect$$libinit$$00000011)
    __rt_lib_init_lc_ctype_2                 0x08010289   Thumb Code     0  libinit2.o(.ARM.Collect$$libinit$$00000012)
    __rt_lib_init_lc_ctype_1                 0x08010295   Thumb Code     0  libinit2.o(.ARM.Collect$$libinit$$00000013)
    __rt_lib_init_lc_monetary_1              0x08010295   Thumb Code     0  libinit2.o(.ARM.Collect$$libinit$$00000015)
    __rt_lib_init_lc_numeric_2               0x08010295   Thumb Code     0  libinit2.o(.ARM.Collect$$libinit$$00000016)
    __rt_lib_init_alloca_1                   0x0801029f   Thumb Code     0  libinit2.o(.ARM.Collect$$libinit$$0000002E)
    __rt_lib_init_argv_1                     0x0801029f   Thumb Code     0  libinit2.o(.ARM.Collect$$libinit$$0000002C)
    __rt_lib_init_atexit_1                   0x0801029f   Thumb Code     0  libinit2.o(.ARM.Collect$$libinit$$0000001B)
    __rt_lib_init_clock_1                    0x0801029f   Thumb Code     0  libinit2.o(.ARM.Collect$$libinit$$00000021)
    __rt_lib_init_cpp_1                      0x0801029f   Thumb Code     0  libinit2.o(.ARM.Collect$$libinit$$00000032)
    __rt_lib_init_exceptions_1               0x0801029f   Thumb Code     0  libinit2.o(.ARM.Collect$$libinit$$00000030)
    __rt_lib_init_fp_trap_1                  0x0801029f   Thumb Code     0  libinit2.o(.ARM.Collect$$libinit$$0000001F)
    __rt_lib_init_getenv_1                   0x0801029f   Thumb Code     0  libinit2.o(.ARM.Collect$$libinit$$00000023)
    __rt_lib_init_lc_numeric_1               0x0801029f   Thumb Code     0  libinit2.o(.ARM.Collect$$libinit$$00000017)
    __rt_lib_init_lc_time_1                  0x0801029f   Thumb Code     0  libinit2.o(.ARM.Collect$$libinit$$00000019)
    __rt_lib_init_return                     0x0801029f   Thumb Code     0  libinit2.o(.ARM.Collect$$libinit$$00000033)
    __rt_lib_init_signal_1                   0x0801029f   Thumb Code     0  libinit2.o(.ARM.Collect$$libinit$$0000001D)
    __rt_lib_init_stdio_1                    0x0801029f   Thumb Code     0  libinit2.o(.ARM.Collect$$libinit$$00000025)
    __rt_lib_shutdown                        0x080102a1   Thumb Code     0  libshutdown.o(.ARM.Collect$$libshutdown$$00000000)
    __rt_lib_shutdown_cpp_1                  0x080102a3   Thumb Code     0  libshutdown2.o(.ARM.Collect$$libshutdown$$00000002)
    __rt_lib_shutdown_fp_trap_1              0x080102a3   Thumb Code     0  libshutdown2.o(.ARM.Collect$$libshutdown$$00000007)
    __rt_lib_shutdown_heap_1                 0x080102a3   Thumb Code     0  libshutdown2.o(.ARM.Collect$$libshutdown$$0000000F)
    __rt_lib_shutdown_return                 0x080102a3   Thumb Code     0  libshutdown2.o(.ARM.Collect$$libshutdown$$00000010)
    __rt_lib_shutdown_signal_1               0x080102a3   Thumb Code     0  libshutdown2.o(.ARM.Collect$$libshutdown$$0000000A)
    __rt_lib_shutdown_stdio_1                0x080102a3   Thumb Code     0  libshutdown2.o(.ARM.Collect$$libshutdown$$00000004)
    __rt_lib_shutdown_user_alloc_1           0x080102a3   Thumb Code     0  libshutdown2.o(.ARM.Collect$$libshutdown$$0000000C)
    __rt_entry                               0x080102a5   Thumb Code     0  __rtentry.o(.ARM.Collect$$rtentry$$00000000)
    __rt_entry_presh_1                       0x080102a5   Thumb Code     0  __rtentry2.o(.ARM.Collect$$rtentry$$00000002)
    __rt_entry_sh                            0x080102a5   Thumb Code     0  __rtentry4.o(.ARM.Collect$$rtentry$$00000004)
    __rt_entry_li                            0x080102ab   Thumb Code     0  __rtentry2.o(.ARM.Collect$$rtentry$$0000000A)
    __rt_entry_postsh_1                      0x080102ab   Thumb Code     0  __rtentry2.o(.ARM.Collect$$rtentry$$00000009)
    __rt_entry_main                          0x080102af   Thumb Code     0  __rtentry2.o(.ARM.Collect$$rtentry$$0000000D)
    __rt_entry_postli_1                      0x080102af   Thumb Code     0  __rtentry2.o(.ARM.Collect$$rtentry$$0000000C)
    __rt_exit                                0x080102b7   Thumb Code     0  rtexit.o(.ARM.Collect$$rtexit$$00000000)
    __rt_exit_ls                             0x080102b9   Thumb Code     0  rtexit2.o(.ARM.Collect$$rtexit$$00000003)
    __rt_exit_prels_1                        0x080102b9   Thumb Code     0  rtexit2.o(.ARM.Collect$$rtexit$$00000002)
    __rt_exit_exit                           0x080102bd   Thumb Code     0  rtexit2.o(.ARM.Collect$$rtexit$$00000004)
    rand                                     0x080102c5   Thumb Code    48  rand.o(.emb_text)
    NMI_Handler                              0x080102f9   Thumb Code     2  stm32f10x_it.o(.text)
    _maybe_terminate_alloc                   0x080102f9   Thumb Code     0  maybetermalloc1.o(.emb_text)
    HardFault_Handler                        0x080102fb   Thumb Code     4  stm32f10x_it.o(.text)
    MemManage_Handler                        0x080102ff   Thumb Code     4  stm32f10x_it.o(.text)
    BusFault_Handler                         0x08010303   Thumb Code     4  stm32f10x_it.o(.text)
    UsageFault_Handler                       0x08010307   Thumb Code     4  stm32f10x_it.o(.text)
    SVC_Handler                              0x0801030b   Thumb Code     2  stm32f10x_it.o(.text)
    DebugMon_Handler                         0x0801030d   Thumb Code     2  stm32f10x_it.o(.text)
    PendSV_Handler                           0x0801030f   Thumb Code     2  stm32f10x_it.o(.text)
    SysTick_Handler                          0x08010311   Thumb Code     8  stm32f10x_it.o(.text)
    TIM2_IRQHandler                          0x08010319   Thumb Code     2  stm32f10x_it.o(.text)
    TIM3_IRQHandler                          0x0801031b   Thumb Code     2  stm32f10x_it.o(.text)
    TIM4_IRQHandler                          0x0801031d   Thumb Code     2  stm32f10x_it.o(.text)
    NVIC_PriorityGroupConfig                 0x08010321   Thumb Code    10  misc.o(.text)
    NVIC_Init                                0x0801032b   Thumb Code   100  misc.o(.text)
    NVIC_SetVectorTable                      0x0801038f   Thumb Code    14  misc.o(.text)
    NVIC_SystemLPConfig                      0x0801039d   Thumb Code    34  misc.o(.text)
    SysTick_CLKSourceConfig                  0x080103bf   Thumb Code    40  misc.o(.text)
    os_timer_get_systime                     0x080103fd   Thumb Code    14  os_timer.o(.text)
    os_timer_init                            0x0801046d   Thumb Code    24  os_timer.o(.text)
    os_timer_poll                            0x08010485   Thumb Code    12  os_timer.o(.text)
    os_timer_set                             0x08010491   Thumb Code    80  os_timer.o(.text)
    os_timer_is_valid                        0x080104e1   Thumb Code    22  os_timer.o(.text)
    os_timer_reset                           0x080104f7   Thumb Code    24  os_timer.o(.text)
    os_timer_del                             0x0801050f   Thumb Code    22  os_timer.o(.text)
    os_timer_pass_ms                         0x08010525   Thumb Code    38  os_timer.o(.text)
    os_timer_get_nettime                     0x0801054b   Thumb Code    14  os_timer.o(.text)
    os_timer_add_systime                     0x08010559   Thumb Code    30  os_timer.o(.text)
    os_timer_set_nettime                     0x08010577   Thumb Code    14  os_timer.o(.text)
    os_timer_get_interval                    0x08010585   Thumb Code    18  os_timer.o(.text)
    HalInit                                  0x080105ad   Thumb Code   130  hal.o(.text)
    HalPoll                                  0x0801062f   Thumb Code    16  hal.o(.text)
    HalWdtFeed                               0x0801063f   Thumb Code     8  hal.o(.text)
    HalRestart                               0x08010647   Thumb Code    78  hal.o(.text)
    AesCTREncrypt                            0x08011085   Thumb Code   112  hal_aes.o(.text)
    AesCTRDecrypt                            0x080110f5   Thumb Code    36  hal_aes.o(.text)
    AesEncrypt                               0x08011119   Thumb Code   100  hal_aes.o(.text)
    AesDecrypt                               0x0801117d   Thumb Code    58  hal_aes.o(.text)
    hal_flash_write                          0x08011203   Thumb Code   152  hal_flash.o(.text)
    hal_flash_read                           0x0801129b   Thumb Code    28  hal_flash.o(.text)
    HalLedInit                               0x080112b9   Thumb Code    82  hal_led.o(.text)
    HalLedOFF                                0x0801130b   Thumb Code    54  hal_led.o(.text)
    HalLedON                                 0x08011341   Thumb Code    54  hal_led.o(.text)
    HalLedStopBlink                          0x08011377   Thumb Code    26  hal_led.o(.text)
    HalLedSetStatus                          0x08011391   Thumb Code    30  hal_led.o(.text)
    HalLedToggle                             0x080113af   Thumb Code   114  hal_led.o(.text)
    HalLedPoll                               0x080114b3   Thumb Code     8  hal_led.o(.text)
    HalLedGetStatus                          0x080114bb   Thumb Code    74  hal_led.o(.text)
    HalLedIsBlank                            0x08011505   Thumb Code    14  hal_led.o(.text)
    HalLedStartBlink                         0x08011513   Thumb Code    94  hal_led.o(.text)
    hal_rnd_init                             0x0801157d   Thumb Code     2  hal_rnd.o(.text)
    hal_rnd_get                              0x0801157f   Thumb Code     4  hal_rnd.o(.text)
    hal_rnd_seed                             0x08011583   Thumb Code    12  hal_rnd.o(.text)
    hal_rnd_range                            0x0801158f   Thumb Code    32  hal_rnd.o(.text)
    hal_rnd_feed_seed                        0x080115af   Thumb Code    12  hal_rnd.o(.text)
    HalTimerInit                             0x080115c1   Thumb Code    14  hal_timer.o(.text)
    hal_wait_init                            0x08011659   Thumb Code    28  hal_wait.o(.text)
    hal_wait_check                           0x08011675   Thumb Code    20  hal_wait.o(.text)
    hal_wait                                 0x08011689   Thumb Code    48  hal_wait.o(.text)
    hal_wait_us                              0x080116b9   Thumb Code    20  hal_wait.o(.text)
    hal_wait_ms                              0x080116cd   Thumb Code    20  hal_wait.o(.text)
    hal_wdt_init                             0x080116e9   Thumb Code    38  hal_wdt.o(.text)
    hal_wdt_feed                             0x0801170f   Thumb Code     8  hal_wdt.o(.text)
    HalGPIOInitialize                        0x08011737   Thumb Code    60  halgpio.o(.text)
    HalGPIOPoll                              0x08011773   Thumb Code     8  halgpio.o(.text)
    HalSpiInit                               0x08011781   Thumb Code   506  halspi.o(.text)
    HalSpiReadWrite                          0x0801197b   Thumb Code   302  halspi.o(.text)
    _sys_exit                                0x08011ac1   Thumb Code     4  haluart.o(.text)
    fputc                                    0x08011ac5   Thumb Code    40  haluart.o(.text)
    USART1_Configuration                     0x08011aed   Thumb Code   166  haluart.o(.text)
    USART1_Send_Byte                         0x08011b93   Thumb Code    28  haluart.o(.text)
    USART1_Send_String                       0x08011baf   Thumb Code    22  haluart.o(.text)
    USART1_IRQHandler                        0x08011bc5   Thumb Code    54  haluart.o(.text)
    USART2_Configuration                     0x08011bfb   Thumb Code   162  haluart.o(.text)
    USART2_Send_Byte                         0x08011c9d   Thumb Code    28  haluart.o(.text)
    USART2_Send_String                       0x08011cb9   Thumb Code    22  haluart.o(.text)
    USART2_IRQHandler                        0x08011ccf   Thumb Code    54  haluart.o(.text)
    USART3_Configuration                     0x08011d05   Thumb Code   166  haluart.o(.text)
    USART3_Send_Byte                         0x08011dab   Thumb Code    28  haluart.o(.text)
    USART3_Send_String                       0x08011dc7   Thumb Code    22  haluart.o(.text)
    USART3_IRQHandler                        0x08011ddd   Thumb Code    54  haluart.o(.text)
    USART4_Configuration                     0x08011e13   Thumb Code   198  haluart.o(.text)
    USART4_Send_Byte                         0x08011ed9   Thumb Code    28  haluart.o(.text)
    USART4_Send_String                       0x08011ef5   Thumb Code    22  haluart.o(.text)
    UART4_IRQHandler                         0x08011f0b   Thumb Code    54  haluart.o(.text)
    USART5_Configuration                     0x08011f41   Thumb Code   162  haluart.o(.text)
    USART5_Send_Byte                         0x08011fe3   Thumb Code    28  haluart.o(.text)
    USART5_Send_String                       0x08011fff   Thumb Code    22  haluart.o(.text)
    UART5_IRQHandler                         0x08012015   Thumb Code    54  haluart.o(.text)
    HalUartConfig                            0x0801204b   Thumb Code    72  haluart.o(.text)
    HalUartWrite                             0x08012093   Thumb Code    84  haluart.o(.text)
    hal_uart_rcv_poll                        0x080120e7   Thumb Code     2  haluart.o(.text)
    RTC_Configuration                        0x080120fd   Thumb Code   136  hal_rtc.o(.text)
    RTCInit                                  0x08012185   Thumb Code   102  hal_rtc.o(.text)
    Is_Leap_Year                             0x080121eb   Thumb Code    58  hal_rtc.o(.text)
    RTCTransSecCount                         0x08012225   Thumb Code   160  hal_rtc.o(.text)
    RTCTransDate                             0x080122c5   Thumb Code   218  hal_rtc.o(.text)
    GetRTCTime                               0x0801239f   Thumb Code    26  hal_rtc.o(.text)
    SetRTCTime                               0x080123b9   Thumb Code    66  hal_rtc.o(.text)
    RTC_IRQHandler                           0x080123fb   Thumb Code    34  hal_rtc.o(.text)
    ch_init                                  0x080124ad   Thumb Code   136  cloud_helper.o(.text)
    ch_timer_ms                              0x08012541   Thumb Code    12  cloud_helper.o(.text)
    frame_recv_byte                          0x0801254d   Thumb Code   120  cloud_helper.o(.text)
    ch_uart_data_input                       0x080125c5   Thumb Code    26  cloud_helper.o(.text)
    parseUTCTime                             0x08012807   Thumb Code    52  cloud_helper.o(.text)
    data_to_num                              0x080129e1   Thumb Code    24  cloud_helper.o(.text)
    num_to_data                              0x08012ac5   Thumb Code    16  cloud_helper.o(.text)
    ch_handle                                0x08012d0f   Thumb Code   172  cloud_helper.o(.text)
    ch_set_fault                             0x08012dbb   Thumb Code    38  cloud_helper.o(.text)
    ch_request_nettime                       0x08012de1   Thumb Code    16  cloud_helper.o(.text)
    ch_sync_property                         0x08012df1   Thumb Code    48  cloud_helper.o(.text)
    ch_find_ssid                             0x08012e21   Thumb Code    92  cloud_helper.o(.text)
    ch_reset_cloud                           0x08012e7d   Thumb Code    32  cloud_helper.o(.text)
    ch_dev_self_test_ret                     0x08012e9d   Thumb Code    38  cloud_helper.o(.text)
    ch_protocol_test                         0x08012ec3   Thumb Code    38  cloud_helper.o(.text)
    ch_set_wifi_config_type                  0x08012ee9   Thumb Code    32  cloud_helper.o(.text)
    ch_get_wifi_config_type                  0x08012f09   Thumb Code     6  cloud_helper.o(.text)
    ch_get_wifi_signal                       0x08012f0f   Thumb Code     6  cloud_helper.o(.text)
    ch_is_online                             0x08012f15   Thumb Code     6  cloud_helper.o(.text)
    ch_get_wifi_status                       0x08012f1b   Thumb Code     6  cloud_helper.o(.text)
    ch_clear_recv                            0x08012f21   Thumb Code     8  cloud_helper.o(.text)
    ch_send_operation_result                 0x08012f29   Thumb Code    62  cloud_helper.o(.text)
    ch_sync_multi_property                   0x08012f67   Thumb Code    72  cloud_helper.o(.text)
    ch_send_multi_property                   0x08012faf   Thumb Code    50  cloud_helper.o(.text)
    ch_send_history_data_end                 0x08012fe1   Thumb Code    38  cloud_helper.o(.text)
    ch_send_history_data                     0x08013007   Thumb Code   294  cloud_helper.o(.text)
    ch_request_rom_info                      0x0801312d   Thumb Code    26  cloud_helper.o(.text)
    ch_request_rom_data                      0x08013147   Thumb Code    36  cloud_helper.o(.text)
    ch_request_rom_end                       0x0801316b   Thumb Code   238  cloud_helper.o(.text)
    ch_request_module_info                   0x08013259   Thumb Code    16  cloud_helper.o(.text)
    ModuleTesterInit                         0x08013a6f   Thumb Code   606  moduletester.o(.text)
    syncProperties                           0x08013ccf   Thumb Code    64  moduletester.o(.text)
    ModuleTesterPoll                         0x08013e53   Thumb Code    24  moduletester.o(.text)
    GetModuleTesterInfo                      0x08013e6b   Thumb Code     4  moduletester.o(.text)
    GetrModuleID                             0x08013e6f   Thumb Code     4  moduletester.o(.text)
    app_init                                 0x08013f59   Thumb Code    18  app.o(.text)
    app_get_trans_payload                    0x08013f6b   Thumb Code    12  app.o(.text)
    app_get_key                              0x08013f77   Thumb Code    12  app.o(.text)
    app_decrypt                              0x08013f83   Thumb Code    46  app.o(.text)
    app_rf_recv_deal                         0x08013fb1   Thumb Code    56  app.o(.text)
    app_encrypt                              0x08013fe9   Thumb Code    46  app.o(.text)
    app_transmit                             0x08014017   Thumb Code    60  app.o(.text)
    app_poll                                 0x08014053   Thumb Code     8  app.o(.text)
    app_ack_sync_content_cb                  0x0801405b   Thumb Code    16  app.o(.text)
    app_ack_sync_content_set                 0x0801406b   Thumb Code    12  app.o(.text)
    DeviceGetKey                             0x0801407d   Thumb Code     8  device.o(.text)
    DeviceGetId                              0x08014085   Thumb Code    34  device.o(.text)
    DeviceGetMiscData                        0x080140a7   Thumb Code   432  device.o(.text)
    DeviceInit                               0x08014257   Thumb Code   178  device.o(.text)
    DeviceIsOldDevice                        0x08014309   Thumb Code    74  device.o(.text)
    DeviceSetStatus                          0x080145e9   Thumb Code   114  device.o(.text)
    DeviceRFRecvData                         0x080148cd   Thumb Code   910  device.o(.text)
    DeviceSetEnabled                         0x08014c5b   Thumb Code    56  device.o(.text)
    DeviceHandleOperation                    0x08014c93   Thumb Code   610  device.o(.text)
    DeviceDel                                0x08014ef5   Thumb Code   100  device.o(.text)
    delay_ms                                 0x08014f59   Thumb Code    20  device.o(.text)
    DeviceAdd                                0x08014f6d   Thumb Code   464  device.o(.text)
    GatewayRFFoundDevice                     0x0801513d   Thumb Code   500  device.o(.text)
    GatewayInit                              0x080155d5   Thumb Code     8  device.o(.text)
    GatewayRFVersionSet                      0x080155dd   Thumb Code    92  device.o(.text)
    GatewayRFRecvData                        0x08015639   Thumb Code    62  device.o(.text)
    startAddDevice                           0x08015715   Thumb Code    92  device.o(.text)
    gataway_get_wm_info                      0x08015771   Thumb Code    10  device.o(.text)
    gataway_get_sht_info                     0x0801577b   Thumb Code    14  device.o(.text)
    gataway_get_sk_info                      0x08015789   Thumb Code   104  device.o(.text)
    GatewayDeviceAllocedCount                0x080157f1   Thumb Code    38  device.o(.text)
    GatewayDeviceOnlineCount                 0x08015817   Thumb Code    38  device.o(.text)
    main                                     0x08015875   Thumb Code    56  main.o(.text)
    main_module_add_led_blink_count          0x080158ad   Thumb Code    12  main_module.o(.text)
    main_module_enter_work                   0x080158eb   Thumb Code    44  main_module.o(.text)
    main_module_setaddr                      0x08015917   Thumb Code    92  main_module.o(.text)
    main_module_init                         0x08015973   Thumb Code    86  main_module.o(.text)
    _send_searchdevice_broadcast             0x080159c9   Thumb Code    88  main_module.o(.text)
    main_module_enter_upgrade                0x08015a3d   Thumb Code    30  main_module.o(.text)
    main_module_enter_buildnet               0x08015a5b   Thumb Code    74  main_module.o(.text)
    main_module_set_devicelist               0x08015aa5   Thumb Code    56  main_module.o(.text)
    main_module_add_device                   0x08015add   Thumb Code   148  main_module.o(.text)
    main_module_del_device                   0x08015b71   Thumb Code    50  main_module.o(.text)
    main_module_relay_msg_to_device          0x08015ba3   Thumb Code    50  main_module.o(.text)
    main_module_set_args                     0x08015bd5   Thumb Code    10  main_module.o(.text)
    main_module_wakeup_sleep_device          0x08015bdf   Thumb Code    36  main_module.o(.text)
    main_module_set_device_real_count        0x08015c03   Thumb Code     6  main_module.o(.text)
    main_module_get_device_real_count        0x08015c09   Thumb Code     6  main_module.o(.text)
    _response_connect                        0x08015c0f   Thumb Code    18  main_module.o(.text)
    main_module_set_check_mode               0x08015c21   Thumb Code     6  main_module.o(.text)
    main_module_recv_deal                    0x08015c27   Thumb Code   554  main_module.o(.text)
    main_module_get_key                      0x08015e51   Thumb Code    24  main_module.o(.text)
    main_module_poll                         0x08015e69   Thumb Code    32  main_module.o(.text)
    main_module_ack_sync_content_cb          0x08015e89   Thumb Code     2  main_module.o(.text)
    main_module_ack_sync_content_set         0x08015e8b   Thumb Code    34  main_module.o(.text)
    main_module_reset_heartbeat_time         0x08015ead   Thumb Code     2  main_module.o(.text)
    GetWorkChannel                           0x08015eaf   Thumb Code     6  main_module.o(.text)
    mlist_init                               0x08015ef1   Thumb Code    34  mlist.o(.text)
    mlist_find                               0x08015f13   Thumb Code    70  mlist.o(.text)
    mlist_foreach                            0x08015f59   Thumb Code    60  mlist.o(.text)
    mlist_add                                0x08015f95   Thumb Code   100  mlist.o(.text)
    mlist_del                                0x08015ff9   Thumb Code    24  mlist.o(.text)
    mlist_get                                0x08016011   Thumb Code    40  mlist.o(.text)
    mqueue_init                              0x08016039   Thumb Code    18  mqueue.o(.text)
    mqueue_is_full                           0x0801604b   Thumb Code    18  mqueue.o(.text)
    mqueue_in                                0x0801605d   Thumb Code    74  mqueue.o(.text)
    mqueue_is_empty                          0x080160a7   Thumb Code    14  mqueue.o(.text)
    mqueue_first                             0x080160b5   Thumb Code    28  mqueue.o(.text)
    mqueue_out                               0x080160d1   Thumb Code    36  mqueue.o(.text)
    SysButtonInit                            0x080160f5   Thumb Code     8  sysbutton.o(.text)
    SysButtonPoll                            0x08016141   Thumb Code    32  sysbutton.o(.text)
    SysButtonRegister                        0x08016161   Thumb Code    50  sysbutton.o(.text)
    SysButtonUnregister                      0x08016193   Thumb Code    32  sysbutton.o(.text)
    sysPeriodInit                            0x080161b9   Thumb Code    12  syspoll.o(.text)
    sysPeriodPollSet                         0x080161c5   Thumb Code    96  syspoll.o(.text)
    sysPeriodPoll                            0x08016225   Thumb Code    98  syspoll.o(.text)
    sysPeriodPollClear                       0x08016287   Thumb Code     8  syspoll.o(.text)
    SysTimerInit                             0x08016299   Thumb Code     2  systimer.o(.text)
    SysTimerUnSet                            0x080162c3   Thumb Code     8  systimer.o(.text)
    SysTimerSet                              0x080162cb   Thumb Code   118  systimer.o(.text)
    SysTimerPoll                             0x08016341   Thumb Code    74  systimer.o(.text)
    SysTimerUpdate                           0x0801638b   Thumb Code    12  systimer.o(.text)
    SysOSInit                                0x0801639d   Thumb Code     8  usersys.o(.text)
    SysCheckMacChipVersion                   0x080163a5   Thumb Code     4  usersys.o(.text)
    SysInitCompleted                         0x080163a9   Thumb Code     6  usersys.o(.text)
    SysMacChipReset                          0x080163af   Thumb Code     2  usersys.o(.text)
    SysDevicesInit                           0x080163b1   Thumb Code    20  usersys.o(.text)
    SysDelay                                 0x080163c5   Thumb Code    26  usersys.o(.text)
    SysLwIPPeriodicHandle                    0x080163df   Thumb Code     2  usersys.o(.text)
    SysPoll                                  0x080163e1   Thumb Code    20  usersys.o(.text)
    SysFlashWrite                            0x080163f5   Thumb Code    68  usersys.o(.text)
    SysFlashRead                             0x08016439   Thumb Code    28  usersys.o(.text)
    SysUserDataWriteByte                     0x08016455   Thumb Code    22  usersys.o(.text)
    SysUserDataReadByte                      0x0801646b   Thumb Code    20  usersys.o(.text)
    SysUserDataRead                          0x0801647f   Thumb Code    20  usersys.o(.text)
    SysUserDataWrite                         0x08016493   Thumb Code    26  usersys.o(.text)
    SysUserDataEraseAll                      0x080164ad   Thumb Code    14  usersys.o(.text)
    SysRestart                               0x080164bb   Thumb Code    18  usersys.o(.text)
    SysGetUTCTimeSeconds                     0x080164cd   Thumb Code     6  usersys.o(.text)
    SysGetUTCTime                            0x080164d3   Thumb Code    54  usersys.o(.text)
    SysSetUTCTimeSeconds                     0x08016509   Thumb Code    54  usersys.o(.text)
    SysDataPrint                             0x0801653f   Thumb Code    40  usersys.o(.text)
    SysIsLittleEndian                        0x08016567   Thumb Code    20  usersys.o(.text)
    SysTcpSendMutexLock                      0x0801657b   Thumb Code     6  usersys.o(.text)
    SysTcpSendMutexState                     0x08016581   Thumb Code     6  usersys.o(.text)
    SysAtoi                                  0x08016587   Thumb Code   110  usersys.o(.text)
    MenuConfigInit                           0x08016661   Thumb Code   150  menuconfig.o(.text)
    MenuConfigPrintf                         0x0801670b   Thumb Code    58  menuconfig.o(.text)
    MenuConfigPoll                           0x08016d55   Thumb Code   172  menuconfig.o(.text)
    MenuConfigRecv                           0x08016e01   Thumb Code    60  menuconfig.o(.text)
    MenuConfigISStart                        0x08016e3d   Thumb Code     6  menuconfig.o(.text)
    GetConfig                                0x08016e43   Thumb Code     4  menuconfig.o(.text)
    link_init                                0x08016ec5   Thumb Code    40  link.o(.text)
    link_request                             0x08016eed   Thumb Code    76  link.o(.text)
    link_disattach                           0x08016f39   Thumb Code    32  link.o(.text)
    link_add_record                          0x08016f59   Thumb Code    46  link.o(.text)
    link_get_record                          0x08016f87   Thumb Code    36  link.o(.text)
    link_get_father                          0x08016fab   Thumb Code     6  link.o(.text)
    link_is_child                            0x08016fb1   Thumb Code    48  link.o(.text)
    link_is_build                            0x08016fe1   Thumb Code    16  link.o(.text)
    link_recv_cb                             0x08016ff1   Thumb Code   170  link.o(.text)
    link_set_stable                          0x0801709b   Thumb Code     6  link.o(.text)
    link_poll                                0x080170a1   Thumb Code    60  link.o(.text)
    net_init                                 0x080170fd   Thumb Code    18  net.o(.text)
    net_poll                                 0x0801710f   Thumb Code     8  net.o(.text)
    nwk_init                                 0x08017119   Thumb Code    66  nwk.o(.text)
    nwk_set_segaddr                          0x0801715b   Thumb Code     8  nwk.o(.text)
    nwk_get_segaddr                          0x08017163   Thumb Code     4  nwk.o(.text)
    nwk_set_myaddr                           0x08017167   Thumb Code     6  nwk.o(.text)
    nwk_get_myaddr                           0x0801716d   Thumb Code     6  nwk.o(.text)
    nwk_set_role                             0x08017173   Thumb Code    14  nwk.o(.text)
    nwk_set_sleepmode                        0x08017181   Thumb Code     6  nwk.o(.text)
    nwk_transmit                             0x08017243   Thumb Code   480  nwk.o(.text)
    nwk_reply_acks                           0x08017423   Thumb Code   166  nwk.o(.text)
    nwk_transmit_onehop                      0x080174c9   Thumb Code   286  nwk.o(.text)
    nwk_subcache_del                         0x08017659   Thumb Code    32  nwk.o(.text)
    nwk_recv_cb                              0x08017679   Thumb Code   572  nwk.o(.text)
    nwk_get_trans_payload                    0x080178b5   Thumb Code    10  nwk.o(.text)
    nwk_poll                                 0x08017929   Thumb Code   178  nwk.o(.text)
    nwk_get_role                             0x080179db   Thumb Code     6  nwk.o(.text)
    nwk_mesh_enable                          0x080179e1   Thumb Code     6  nwk.o(.text)
    SPI_RF_SendByte                          0x080179fd   Thumb Code    14  phy.o(.text)
    halSpiReadStatus                         0x08017a0b   Thumb Code   114  phy.o(.text)
    halSpiStrobe                             0x08017a7d   Thumb Code    96  phy.o(.text)
    phy_set_rx_state                         0x08017b83   Thumb Code    36  phy.o(.text)
    _rx_dma_cb                               0x08017ba7   Thumb Code   196  phy.o(.text)
    halSpiWriteReg                           0x08017c6b   Thumb Code   104  phy.o(.text)
    phy_rf_config_upgrade                    0x08017cd3   Thumb Code   224  phy.o(.text)
    halSpiReadReg                            0x08017db3   Thumb Code   208  phy.o(.text)
    phy_rx_attenuation                       0x08017e83   Thumb Code    32  phy.o(.text)
    phy_change_pa_power                      0x08017ea3   Thumb Code    24  phy.o(.text)
    halRfWriteRfSettings                     0x08017ebb   Thumb Code   260  phy.o(.text)
    phy_rf_config_normal                     0x08017fbf   Thumb Code     8  phy.o(.text)
    SPI_CC1101_ReadID                        0x08017fdf   Thumb Code    40  phy.o(.text)
    GPIO_GDO0_ENABLE                         0x08018007   Thumb Code    42  phy.o(.text)
    CC1101_POWER_RESET                       0x08018031   Thumb Code   206  phy.o(.text)
    SPI_CC1101_Init                          0x080180ff   Thumb Code   122  phy.o(.text)
    phy_init                                 0x08018179   Thumb Code   102  phy.o(.text)
    halSpiWriteBurstReg                      0x080181df   Thumb Code   190  phy.o(.text)
    halRfSendPacket                          0x0801829d   Thumb Code   188  phy.o(.text)
    GPIO_GDO0_DISABLE                        0x08018359   Thumb Code    42  phy.o(.text)
    phy_transmit_directly                    0x08018383   Thumb Code    48  phy.o(.text)
    phy_transmit_upgrade                     0x080183b3   Thumb Code    94  phy.o(.text)
    phy_transmit                             0x08018411   Thumb Code    60  phy.o(.text)
    phy_set_channel                          0x0801844d   Thumb Code    62  phy.o(.text)
    phy_poll                                 0x0801848b   Thumb Code   152  phy.o(.text)
    phy_get_trans_payload                    0x08018523   Thumb Code     6  phy.o(.text)
    _tx_done                                 0x08018529   Thumb Code    36  phy.o(.text)
    SPI_RF_ReadByte                          0x0801854d   Thumb Code    10  phy.o(.text)
    CC1101_GET_ID                            0x08018557   Thumb Code     6  phy.o(.text)
    halRfSendData                            0x0801855d   Thumb Code    58  phy.o(.text)
    halSpiReadBurstReg                       0x08018597   Thumb Code   136  phy.o(.text)
    halRfReceivePacket                       0x0801861f   Thumb Code   134  phy.o(.text)
    EXTI9_5_IRQHandler                       0x080186a5   Thumb Code   294  phy.o(.text)
    HalSensorInit                            0x080187d9   Thumb Code    12  halsensor.o(.text)
    HalSensorPoll                            0x080187e5   Thumb Code    12  halsensor.o(.text)
    HalGetSensorInfo                         0x080187f1   Thumb Code    42  halsensor.o(.text)
    HalPM25CO2Init                           0x08018921   Thumb Code    42  pm25co2.o(.text)
    HalPM25CO2Poll                           0x08018a13   Thumb Code    12  pm25co2.o(.text)
    HalGetPM25CO2Info                        0x08018a1f   Thumb Code    12  pm25co2.o(.text)
    SHT2x_Delay                              0x08018a89   Thumb Code    28  sht20.o(.text)
    SHT2x_SCL_OUTPUT                         0x08018aa5   Thumb Code    30  sht20.o(.text)
    SHT2x_SDA_OUTPUT                         0x08018ac3   Thumb Code    30  sht20.o(.text)
    SHT2x_I2cStopCondition                   0x08018ae1   Thumb Code    56  sht20.o(.text)
    SHT2x_I2cNoAcknowledge                   0x08018b19   Thumb Code    48  sht20.o(.text)
    SHT2x_SDA_INPUT                          0x08018b49   Thumb Code    24  sht20.o(.text)
    SHT2x_I2cReadByte                        0x08018b61   Thumb Code    88  sht20.o(.text)
    SHT2x_I2cAcknowledge                     0x08018bb9   Thumb Code    48  sht20.o(.text)
    SHT2x_SCL_INPUT                          0x08018be9   Thumb Code    24  sht20.o(.text)
    SHT2x_I2cWriteByte                       0x08018c01   Thumb Code   134  sht20.o(.text)
    SHT2x_I2cStartCondition                  0x08018c87   Thumb Code    56  sht20.o(.text)
    SHT2x_MeasureHumiHM                      0x08018cbf   Thumb Code   212  sht20.o(.text)
    SHT2x_MeasureTempHM                      0x08018d93   Thumb Code   212  sht20.o(.text)
    SHT2x_GetSerialNumber                    0x08018f81   Thumb Code   206  sht20.o(.text)
    SHT2x_SoftReset                          0x0801905d   Thumb Code    30  sht20.o(.text)
    HalSHT20Init                             0x0801907b   Thumb Code    82  sht20.o(.text)
    HalSHT20Poll                             0x080190cd   Thumb Code     2  sht20.o(.text)
    HalGetSHT20Info                          0x080190cf   Thumb Code    16  sht20.o(.text)
    SHT2x_MeasureTempPoll                    0x080190df   Thumb Code   128  sht20.o(.text)
    SHT2x_MeasureHumiPoll                    0x0801915f   Thumb Code   128  sht20.o(.text)
    SHT2x_ReadUserReg                        0x080191df   Thumb Code    46  sht20.o(.text)
    SHT2x_WriteUserReg                       0x0801920d   Thumb Code    36  sht20.o(.text)
    f_mount                                  0x08019eb5   Thumb Code    48  ff.o(.text)
    f_open                                   0x08019ee5   Thumb Code   508  ff.o(.text)
    f_read                                   0x0801a0e1   Thumb Code   380  ff.o(.text)
    f_write                                  0x0801a25d   Thumb Code   444  ff.o(.text)
    f_sync                                   0x0801a419   Thumb Code   180  ff.o(.text)
    f_close                                  0x0801a4cd   Thumb Code    22  ff.o(.text)
    f_lseek                                  0x0801a4e3   Thumb Code   370  ff.o(.text)
    f_opendir                                0x0801a655   Thumb Code   106  ff.o(.text)
    f_readdir                                0x0801a6bf   Thumb Code   120  ff.o(.text)
    f_stat                                   0x0801a737   Thumb Code    58  ff.o(.text)
    f_truncate                               0x0801a771   Thumb Code   154  ff.o(.text)
    f_getfree                                0x0801a80b   Thumb Code   248  ff.o(.text)
    f_unlink                                 0x0801a903   Thumb Code   240  ff.o(.text)
    f_mkdir                                  0x0801a9f3   Thumb Code   446  ff.o(.text)
    f_chmod                                  0x0801abb1   Thumb Code    80  ff.o(.text)
    f_utime                                  0x0801ac01   Thumb Code    86  ff.o(.text)
    f_rename                                 0x0801ac57   Thumb Code   192  ff.o(.text)
    f_mkfs                                   0x0801ad17   Thumb Code  1458  ff.o(.text)
    ffgets                                   0x0801b2c9   Thumb Code    72  ff.o(.text)
    ffputc                                   0x0801b311   Thumb Code    42  ff.o(.text)
    ffputs                                   0x0801b33b   Thumb Code    42  ff.o(.text)
    ffprintf                                 0x0801b365   Thumb Code   438  ff.o(.text)
    SPIx_Init                                0x0801b51d   Thumb Code    14  sdc_diskio.o(.text)
    SPIx_ReadWriteByte                       0x0801b52b   Thumb Code    14  sdc_diskio.o(.text)
    SD_GetResponse                           0x0801b539   Thumb Code    38  sdc_diskio.o(.text)
    SD_WaitDataReady                         0x0801b55f   Thumb Code    98  sdc_diskio.o(.text)
    SD_SendCommand                           0x0801b5c1   Thumb Code   128  sdc_diskio.o(.text)
    SD_SendCommand_NoDeassert                0x0801b641   Thumb Code   106  sdc_diskio.o(.text)
    SD_Idle_Sta                              0x0801b6ab   Thumb Code    74  sdc_diskio.o(.text)
    SD_Init                                  0x0801b6f5   Thumb Code   452  sdc_diskio.o(.text)
    SD_ReceiveData                           0x0801b8b9   Thumb Code    92  sdc_diskio.o(.text)
    SD_GetCID                                0x0801b915   Thumb Code    36  sdc_diskio.o(.text)
    SD_GetCSD                                0x0801b939   Thumb Code    36  sdc_diskio.o(.text)
    SD_GetCapacity                           0x0801b95d   Thumb Code   206  sdc_diskio.o(.text)
    SD_ReadSingleBlock                       0x0801ba2b   Thumb Code    72  sdc_diskio.o(.text)
    MSD_WriteBuffer                          0x0801ba73   Thumb Code   166  sdc_diskio.o(.text)
    MSD_ReadBuffer                           0x0801bb19   Thumb Code   140  sdc_diskio.o(.text)
    SD_WriteSingleBlock                      0x0801bba5   Thumb Code   200  sdc_diskio.o(.text)
    SD_ReadMultiBlock                        0x0801bc6d   Thumb Code   106  sdc_diskio.o(.text)
    SD_WriteMultiBlock                       0x0801bcd7   Thumb Code   230  sdc_diskio.o(.text)
    SD_Read_Bytes                            0x0801bdbd   Thumb Code   196  sdc_diskio.o(.text)
    chk_power                                0x0801bec7   Thumb Code     4  sdc_diskio.o(.text)
    disk_initialize                          0x0801bfb7   Thumb Code    34  sdc_diskio.o(.text)
    disk_status                              0x0801bfd9   Thumb Code    28  sdc_diskio.o(.text)
    disk_read                                0x0801bff5   Thumb Code    82  sdc_diskio.o(.text)
    disk_write                               0x0801c047   Thumb Code    74  sdc_diskio.o(.text)
    disk_ioctl                               0x0801c091   Thumb Code   746  sdc_diskio.o(.text)
    get_fattime                              0x0801c37b   Thumb Code     4  sdc_diskio.o(.text)
    SDCardRecordInit                         0x0801c385   Thumb Code   104  sdcardrecord.o(.text)
    RecordReportStop                         0x0801c595   Thumb Code    32  sdcardrecord.o(.text)
    RecordPraseTs                            0x0801c5b5   Thumb Code   110  sdcardrecord.o(.text)
    SDCardRecordPoll                         0x0801c91b   Thumb Code    46  sdcardrecord.o(.text)
    RecordBuildStart                         0x0801c949   Thumb Code   126  sdcardrecord.o(.text)
    RecordBuild                              0x0801c9c7   Thumb Code    64  sdcardrecord.o(.text)
    RecordBuildEnd                           0x0801ca63   Thumb Code   156  sdcardrecord.o(.text)
    RecordReportStart                        0x0801caff   Thumb Code    68  sdcardrecord.o(.text)
    SDCardGetCap                             0x0801cb43   Thumb Code    86  sdcardrecord.o(.text)
    SDCardWirteModuleInfo                    0x0801cb99   Thumb Code    90  sdcardrecord.o(.text)
    InDoorPidInit                            0x0801cd25   Thumb Code    50  indoorpid.o(.text)
    Indoor_post_all_property                 0x0801d1ad   Thumb Code   718  indoorpid.o(.text)
    Indoor_record_all_property               0x0801d47b   Thumb Code   728  indoorpid.o(.text)
    PropertyInit                             0x0801d765   Thumb Code     8  property.o(.text)
    PropertyPoll                             0x0801d76d   Thumb Code     2  property.o(.text)
    post_all_property                        0x0801d76f   Thumb Code    20  property.o(.text)
    record_all_property                      0x0801d783   Thumb Code    12  property.o(.text)
    BKP_DeInit                               0x0801d791   Thumb Code    16  stm32f10x_bkp.o(.text)
    BKP_TamperPinLevelConfig                 0x0801d7a1   Thumb Code     6  stm32f10x_bkp.o(.text)
    BKP_TamperPinCmd                         0x0801d7a7   Thumb Code     8  stm32f10x_bkp.o(.text)
    BKP_ITConfig                             0x0801d7af   Thumb Code     8  stm32f10x_bkp.o(.text)
    BKP_RTCOutputConfig                      0x0801d7b7   Thumb Code    22  stm32f10x_bkp.o(.text)
    BKP_SetRTCCalibrationValue               0x0801d7cd   Thumb Code    22  stm32f10x_bkp.o(.text)
    BKP_WriteBackupRegister                  0x0801d7e3   Thumb Code    24  stm32f10x_bkp.o(.text)
    BKP_ReadBackupRegister                   0x0801d7fb   Thumb Code    26  stm32f10x_bkp.o(.text)
    BKP_GetFlagStatus                        0x0801d815   Thumb Code    10  stm32f10x_bkp.o(.text)
    BKP_ClearFlag                            0x0801d81f   Thumb Code    18  stm32f10x_bkp.o(.text)
    BKP_GetITStatus                          0x0801d831   Thumb Code    10  stm32f10x_bkp.o(.text)
    BKP_ClearITPendingBit                    0x0801d83b   Thumb Code    18  stm32f10x_bkp.o(.text)
    EXTI_DeInit                              0x0801d855   Thumb Code    28  stm32f10x_exti.o(.text)
    EXTI_Init                                0x0801d871   Thumb Code   142  stm32f10x_exti.o(.text)
    EXTI_StructInit                          0x0801d8ff   Thumb Code    16  stm32f10x_exti.o(.text)
    EXTI_GenerateSWInterrupt                 0x0801d90f   Thumb Code    16  stm32f10x_exti.o(.text)
    EXTI_GetFlagStatus                       0x0801d91f   Thumb Code    22  stm32f10x_exti.o(.text)
    EXTI_ClearFlag                           0x0801d935   Thumb Code     8  stm32f10x_exti.o(.text)
    EXTI_GetITStatus                         0x0801d93d   Thumb Code    34  stm32f10x_exti.o(.text)
    EXTI_ClearITPendingBit                   0x0801d95f   Thumb Code     8  stm32f10x_exti.o(.text)
    FLASH_SetLatency                         0x0801d971   Thumb Code    18  stm32f10x_flash.o(.text)
    FLASH_HalfCycleAccessCmd                 0x0801d983   Thumb Code    22  stm32f10x_flash.o(.text)
    FLASH_PrefetchBufferCmd                  0x0801d999   Thumb Code    22  stm32f10x_flash.o(.text)
    FLASH_Unlock                             0x0801d9af   Thumb Code    12  stm32f10x_flash.o(.text)
    FLASH_UnlockBank1                        0x0801d9bb   Thumb Code    12  stm32f10x_flash.o(.text)
    FLASH_Lock                               0x0801d9c7   Thumb Code    14  stm32f10x_flash.o(.text)
    FLASH_LockBank1                          0x0801d9d5   Thumb Code    14  stm32f10x_flash.o(.text)
    FLASH_GetBank1Status                     0x0801d9e3   Thumb Code    48  stm32f10x_flash.o(.text)
    FLASH_WaitForLastOperation               0x0801da13   Thumb Code    38  stm32f10x_flash.o(.text)
    FLASH_ErasePage                          0x0801da39   Thumb Code    72  stm32f10x_flash.o(.text)
    FLASH_EraseAllPages                      0x0801da81   Thumb Code    68  stm32f10x_flash.o(.text)
    FLASH_WaitForLastBank1Operation          0x0801dac5   Thumb Code    38  stm32f10x_flash.o(.text)
    FLASH_EraseAllBank1Pages                 0x0801daeb   Thumb Code    68  stm32f10x_flash.o(.text)
    FLASH_GetReadOutProtectionStatus         0x0801db2f   Thumb Code    20  stm32f10x_flash.o(.text)
    FLASH_EraseOptionBytes                   0x0801db43   Thumb Code   150  stm32f10x_flash.o(.text)
    FLASH_ProgramWord                        0x0801dbd9   Thumb Code   102  stm32f10x_flash.o(.text)
    FLASH_ProgramHalfWord                    0x0801dc3f   Thumb Code    60  stm32f10x_flash.o(.text)
    FLASH_ProgramOptionByteData              0x0801dc7b   Thumb Code    72  stm32f10x_flash.o(.text)
    FLASH_EnableWriteProtection              0x0801dcc3   Thumb Code   200  stm32f10x_flash.o(.text)
    FLASH_ReadOutProtection                  0x0801dd8b   Thumb Code   156  stm32f10x_flash.o(.text)
    FLASH_UserOptionByteConfig               0x0801de27   Thumb Code    88  stm32f10x_flash.o(.text)
    FLASH_GetUserOptionByte                  0x0801de7f   Thumb Code     8  stm32f10x_flash.o(.text)
    FLASH_GetWriteProtectionOptionByte       0x0801de87   Thumb Code     6  stm32f10x_flash.o(.text)
    FLASH_GetPrefetchBufferStatus            0x0801de8d   Thumb Code    20  stm32f10x_flash.o(.text)
    FLASH_ITConfig                           0x0801dea1   Thumb Code    26  stm32f10x_flash.o(.text)
    FLASH_GetFlagStatus                      0x0801debb   Thumb Code    42  stm32f10x_flash.o(.text)
    FLASH_ClearFlag                          0x0801dee5   Thumb Code     6  stm32f10x_flash.o(.text)
    FLASH_GetStatus                          0x0801deeb   Thumb Code    48  stm32f10x_flash.o(.text)
    GPIO_DeInit                              0x0801df2d   Thumb Code   172  stm32f10x_gpio.o(.text)
    GPIO_AFIODeInit                          0x0801dfd9   Thumb Code    20  stm32f10x_gpio.o(.text)
    GPIO_Init                                0x0801dfed   Thumb Code   278  stm32f10x_gpio.o(.text)
    GPIO_StructInit                          0x0801e103   Thumb Code    16  stm32f10x_gpio.o(.text)
    GPIO_ReadInputDataBit                    0x0801e113   Thumb Code    18  stm32f10x_gpio.o(.text)
    GPIO_ReadInputData                       0x0801e125   Thumb Code     8  stm32f10x_gpio.o(.text)
    GPIO_ReadOutputDataBit                   0x0801e12d   Thumb Code    18  stm32f10x_gpio.o(.text)
    GPIO_ReadOutputData                      0x0801e13f   Thumb Code     8  stm32f10x_gpio.o(.text)
    GPIO_SetBits                             0x0801e147   Thumb Code     4  stm32f10x_gpio.o(.text)
    GPIO_ResetBits                           0x0801e14b   Thumb Code     4  stm32f10x_gpio.o(.text)
    GPIO_WriteBit                            0x0801e14f   Thumb Code    10  stm32f10x_gpio.o(.text)
    GPIO_Write                               0x0801e159   Thumb Code     4  stm32f10x_gpio.o(.text)
    GPIO_PinLockConfig                       0x0801e15d   Thumb Code    18  stm32f10x_gpio.o(.text)
    GPIO_EventOutputConfig                   0x0801e16f   Thumb Code    26  stm32f10x_gpio.o(.text)
    GPIO_EventOutputCmd                      0x0801e189   Thumb Code     6  stm32f10x_gpio.o(.text)
    GPIO_PinRemapConfig                      0x0801e18f   Thumb Code   138  stm32f10x_gpio.o(.text)
    GPIO_EXTILineConfig                      0x0801e219   Thumb Code    66  stm32f10x_gpio.o(.text)
    GPIO_ETH_MediaInterfaceConfig            0x0801e25b   Thumb Code     8  stm32f10x_gpio.o(.text)
    IWDG_WriteAccessCmd                      0x0801e289   Thumb Code     6  stm32f10x_iwdg.o(.text)
    IWDG_SetPrescaler                        0x0801e28f   Thumb Code     6  stm32f10x_iwdg.o(.text)
    IWDG_SetReload                           0x0801e295   Thumb Code     6  stm32f10x_iwdg.o(.text)
    IWDG_ReloadCounter                       0x0801e29b   Thumb Code    10  stm32f10x_iwdg.o(.text)
    IWDG_Enable                              0x0801e2a5   Thumb Code    10  stm32f10x_iwdg.o(.text)
    IWDG_GetFlagStatus                       0x0801e2af   Thumb Code    20  stm32f10x_iwdg.o(.text)
    PWR_DeInit                               0x0801e2c9   Thumb Code    22  stm32f10x_pwr.o(.text)
    PWR_BackupAccessCmd                      0x0801e2df   Thumb Code     6  stm32f10x_pwr.o(.text)
    PWR_PVDCmd                               0x0801e2e5   Thumb Code     6  stm32f10x_pwr.o(.text)
    PWR_PVDLevelConfig                       0x0801e2eb   Thumb Code    18  stm32f10x_pwr.o(.text)
    PWR_WakeUpPinCmd                         0x0801e2fd   Thumb Code     8  stm32f10x_pwr.o(.text)
    PWR_EnterSTOPMode                        0x0801e305   Thumb Code    54  stm32f10x_pwr.o(.text)
    PWR_EnterSTANDBYMode                     0x0801e33b   Thumb Code    42  stm32f10x_pwr.o(.text)
    PWR_GetFlagStatus                        0x0801e365   Thumb Code    20  stm32f10x_pwr.o(.text)
    PWR_ClearFlag                            0x0801e379   Thumb Code    14  stm32f10x_pwr.o(.text)
    RCC_DeInit                               0x0801e395   Thumb Code    64  stm32f10x_rcc.o(.text)
    RCC_HSEConfig                            0x0801e3d5   Thumb Code    70  stm32f10x_rcc.o(.text)
    RCC_GetFlagStatus                        0x0801e41b   Thumb Code    56  stm32f10x_rcc.o(.text)
    RCC_WaitForHSEStartUp                    0x0801e453   Thumb Code    56  stm32f10x_rcc.o(.text)
    RCC_AdjustHSICalibrationValue            0x0801e48b   Thumb Code    20  stm32f10x_rcc.o(.text)
    RCC_HSICmd                               0x0801e49f   Thumb Code     6  stm32f10x_rcc.o(.text)
    RCC_PLLConfig                            0x0801e4a5   Thumb Code    24  stm32f10x_rcc.o(.text)
    RCC_PLLCmd                               0x0801e4bd   Thumb Code     6  stm32f10x_rcc.o(.text)
    RCC_SYSCLKConfig                         0x0801e4c3   Thumb Code    18  stm32f10x_rcc.o(.text)
    RCC_GetSYSCLKSource                      0x0801e4d5   Thumb Code    10  stm32f10x_rcc.o(.text)
    RCC_HCLKConfig                           0x0801e4df   Thumb Code    18  stm32f10x_rcc.o(.text)
    RCC_PCLK1Config                          0x0801e4f1   Thumb Code    18  stm32f10x_rcc.o(.text)
    RCC_PCLK2Config                          0x0801e503   Thumb Code    20  stm32f10x_rcc.o(.text)
    RCC_ITConfig                             0x0801e517   Thumb Code    26  stm32f10x_rcc.o(.text)
    RCC_USBCLKConfig                         0x0801e531   Thumb Code     8  stm32f10x_rcc.o(.text)
    RCC_ADCCLKConfig                         0x0801e539   Thumb Code    18  stm32f10x_rcc.o(.text)
    RCC_LSEConfig                            0x0801e54b   Thumb Code    50  stm32f10x_rcc.o(.text)
    RCC_LSICmd                               0x0801e57d   Thumb Code     6  stm32f10x_rcc.o(.text)
    RCC_RTCCLKConfig                         0x0801e583   Thumb Code    12  stm32f10x_rcc.o(.text)
    RCC_RTCCLKCmd                            0x0801e58f   Thumb Code     8  stm32f10x_rcc.o(.text)
    RCC_GetClocksFreq                        0x0801e597   Thumb Code   192  stm32f10x_rcc.o(.text)
    RCC_AHBPeriphClockCmd                    0x0801e657   Thumb Code    26  stm32f10x_rcc.o(.text)
    RCC_APB2PeriphClockCmd                   0x0801e671   Thumb Code    26  stm32f10x_rcc.o(.text)
    RCC_APB1PeriphClockCmd                   0x0801e68b   Thumb Code    26  stm32f10x_rcc.o(.text)
    RCC_APB2PeriphResetCmd                   0x0801e6a5   Thumb Code    26  stm32f10x_rcc.o(.text)
    RCC_APB1PeriphResetCmd                   0x0801e6bf   Thumb Code    26  stm32f10x_rcc.o(.text)
    RCC_BackupResetCmd                       0x0801e6d9   Thumb Code     8  stm32f10x_rcc.o(.text)
    RCC_ClockSecuritySystemCmd               0x0801e6e1   Thumb Code     6  stm32f10x_rcc.o(.text)
    RCC_MCOConfig                            0x0801e6e7   Thumb Code     6  stm32f10x_rcc.o(.text)
    RCC_ClearFlag                            0x0801e6ed   Thumb Code    14  stm32f10x_rcc.o(.text)
    RCC_GetITStatus                          0x0801e6fb   Thumb Code    20  stm32f10x_rcc.o(.text)
    RCC_ClearITPendingBit                    0x0801e70f   Thumb Code     6  stm32f10x_rcc.o(.text)
    RTC_ITConfig                             0x0801e739   Thumb Code    26  stm32f10x_rtc.o(.text)
    RTC_EnterConfigMode                      0x0801e753   Thumb Code    18  stm32f10x_rtc.o(.text)
    RTC_ExitConfigMode                       0x0801e765   Thumb Code    20  stm32f10x_rtc.o(.text)
    RTC_GetCounter                           0x0801e779   Thumb Code    18  stm32f10x_rtc.o(.text)
    RTC_SetCounter                           0x0801e78b   Thumb Code    26  stm32f10x_rtc.o(.text)
    RTC_SetPrescaler                         0x0801e7a5   Thumb Code    28  stm32f10x_rtc.o(.text)
    RTC_SetAlarm                             0x0801e7c1   Thumb Code    26  stm32f10x_rtc.o(.text)
    RTC_GetDivider                           0x0801e7db   Thumb Code    22  stm32f10x_rtc.o(.text)
    RTC_WaitForLastTask                      0x0801e7f1   Thumb Code    18  stm32f10x_rtc.o(.text)
    RTC_WaitForSynchro                       0x0801e803   Thumb Code    36  stm32f10x_rtc.o(.text)
    RTC_GetFlagStatus                        0x0801e827   Thumb Code    22  stm32f10x_rtc.o(.text)
    RTC_ClearFlag                            0x0801e83d   Thumb Code    16  stm32f10x_rtc.o(.text)
    RTC_GetITStatus                          0x0801e84d   Thumb Code    32  stm32f10x_rtc.o(.text)
    RTC_ClearITPendingBit                    0x0801e86d   Thumb Code    16  stm32f10x_rtc.o(.text)
    SPI_I2S_DeInit                           0x0801e881   Thumb Code    76  stm32f10x_spi.o(.text)
    SPI_Init                                 0x0801e8cd   Thumb Code    60  stm32f10x_spi.o(.text)
    I2S_Init                                 0x0801e909   Thumb Code   226  stm32f10x_spi.o(.text)
    SPI_StructInit                           0x0801e9eb   Thumb Code    24  stm32f10x_spi.o(.text)
    I2S_StructInit                           0x0801ea03   Thumb Code    20  stm32f10x_spi.o(.text)
    SPI_Cmd                                  0x0801ea17   Thumb Code    24  stm32f10x_spi.o(.text)
    I2S_Cmd                                  0x0801ea2f   Thumb Code    24  stm32f10x_spi.o(.text)
    SPI_I2S_ITConfig                         0x0801ea47   Thumb Code    32  stm32f10x_spi.o(.text)
    SPI_I2S_DMACmd                           0x0801ea67   Thumb Code    18  stm32f10x_spi.o(.text)
    SPI_I2S_SendData                         0x0801ea79   Thumb Code     4  stm32f10x_spi.o(.text)
    SPI_I2S_ReceiveData                      0x0801ea7d   Thumb Code     6  stm32f10x_spi.o(.text)
    SPI_NSSInternalSoftwareConfig            0x0801ea83   Thumb Code    30  stm32f10x_spi.o(.text)
    SPI_SSOutputCmd                          0x0801eaa1   Thumb Code    24  stm32f10x_spi.o(.text)
    SPI_DataSizeConfig                       0x0801eab9   Thumb Code    18  stm32f10x_spi.o(.text)
    SPI_TransmitCRC                          0x0801eacb   Thumb Code    10  stm32f10x_spi.o(.text)
    SPI_CalculateCRC                         0x0801ead5   Thumb Code    24  stm32f10x_spi.o(.text)
    SPI_GetCRC                               0x0801eaed   Thumb Code    16  stm32f10x_spi.o(.text)
    SPI_GetCRCPolynomial                     0x0801eafd   Thumb Code     6  stm32f10x_spi.o(.text)
    SPI_BiDirectionalLineConfig              0x0801eb03   Thumb Code    28  stm32f10x_spi.o(.text)
    SPI_I2S_GetFlagStatus                    0x0801eb1f   Thumb Code    18  stm32f10x_spi.o(.text)
    SPI_I2S_ClearFlag                        0x0801eb31   Thumb Code     6  stm32f10x_spi.o(.text)
    SPI_I2S_GetITStatus                      0x0801eb37   Thumb Code    52  stm32f10x_spi.o(.text)
    SPI_I2S_ClearITPendingBit                0x0801eb6b   Thumb Code    20  stm32f10x_spi.o(.text)
    TIM_DeInit                               0x0801eb8d   Thumb Code   424  stm32f10x_tim.o(.text)
    TIM_TimeBaseInit                         0x0801ed35   Thumb Code   122  stm32f10x_tim.o(.text)
    TIM_OC1Init                              0x0801edaf   Thumb Code   132  stm32f10x_tim.o(.text)
    TIM_OC2Init                              0x0801ee33   Thumb Code   154  stm32f10x_tim.o(.text)
    TIM_OC3Init                              0x0801eecd   Thumb Code   150  stm32f10x_tim.o(.text)
    TIM_OC4Init                              0x0801ef63   Thumb Code   182  stm32f10x_tim.o(.text)
    TIM_SetIC4Prescaler                      0x0801f019   Thumb Code    26  stm32f10x_tim.o(.text)
    TIM_SetIC3Prescaler                      0x0801f0b5   Thumb Code    18  stm32f10x_tim.o(.text)
    TIM_SetIC2Prescaler                      0x0801f141   Thumb Code    26  stm32f10x_tim.o(.text)
    TIM_SetIC1Prescaler                      0x0801f1dd   Thumb Code    18  stm32f10x_tim.o(.text)
    TIM_ICInit                               0x0801f25b   Thumb Code   150  stm32f10x_tim.o(.text)
    TIM_PWMIConfig                           0x0801f2f1   Thumb Code   124  stm32f10x_tim.o(.text)
    TIM_BDTRConfig                           0x0801f36d   Thumb Code    32  stm32f10x_tim.o(.text)
    TIM_TimeBaseStructInit                   0x0801f38d   Thumb Code    18  stm32f10x_tim.o(.text)
    TIM_OCStructInit                         0x0801f39f   Thumb Code    20  stm32f10x_tim.o(.text)
    TIM_ICStructInit                         0x0801f3b3   Thumb Code    18  stm32f10x_tim.o(.text)
    TIM_BDTRStructInit                       0x0801f3c5   Thumb Code    40  stm32f10x_tim.o(.text)
    TIM_Cmd                                  0x0801f3ed   Thumb Code    24  stm32f10x_tim.o(.text)
    TIM_CtrlPWMOutputs                       0x0801f405   Thumb Code    30  stm32f10x_tim.o(.text)
    TIM_ITConfig                             0x0801f423   Thumb Code    18  stm32f10x_tim.o(.text)
    TIM_GenerateEvent                        0x0801f435   Thumb Code     4  stm32f10x_tim.o(.text)
    TIM_DMAConfig                            0x0801f439   Thumb Code    10  stm32f10x_tim.o(.text)
    TIM_DMACmd                               0x0801f443   Thumb Code    18  stm32f10x_tim.o(.text)
    TIM_InternalClockConfig                  0x0801f455   Thumb Code    12  stm32f10x_tim.o(.text)
    TIM_SelectInputTrigger                   0x0801f461   Thumb Code    18  stm32f10x_tim.o(.text)
    TIM_ITRxExternalClockConfig              0x0801f473   Thumb Code    24  stm32f10x_tim.o(.text)
    TIM_TIxExternalClockConfig               0x0801f48b   Thumb Code    62  stm32f10x_tim.o(.text)
    TIM_ETRConfig                            0x0801f4c9   Thumb Code    28  stm32f10x_tim.o(.text)
    TIM_ETRClockMode1Config                  0x0801f4e5   Thumb Code    54  stm32f10x_tim.o(.text)
    TIM_ETRClockMode2Config                  0x0801f51b   Thumb Code    32  stm32f10x_tim.o(.text)
    TIM_PrescalerConfig                      0x0801f53b   Thumb Code     6  stm32f10x_tim.o(.text)
    TIM_CounterModeConfig                    0x0801f541   Thumb Code    18  stm32f10x_tim.o(.text)
    TIM_EncoderInterfaceConfig               0x0801f553   Thumb Code    66  stm32f10x_tim.o(.text)
    TIM_ForcedOC1Config                      0x0801f595   Thumb Code    18  stm32f10x_tim.o(.text)
    TIM_ForcedOC2Config                      0x0801f5a7   Thumb Code    26  stm32f10x_tim.o(.text)
    TIM_ForcedOC3Config                      0x0801f5c1   Thumb Code    18  stm32f10x_tim.o(.text)
    TIM_ForcedOC4Config                      0x0801f5d3   Thumb Code    26  stm32f10x_tim.o(.text)
    TIM_ARRPreloadConfig                     0x0801f5ed   Thumb Code    24  stm32f10x_tim.o(.text)
    TIM_SelectCOM                            0x0801f605   Thumb Code    24  stm32f10x_tim.o(.text)
    TIM_SelectCCDMA                          0x0801f61d   Thumb Code    24  stm32f10x_tim.o(.text)
    TIM_CCPreloadControl                     0x0801f635   Thumb Code    24  stm32f10x_tim.o(.text)
    TIM_OC1PreloadConfig                     0x0801f64d   Thumb Code    18  stm32f10x_tim.o(.text)
    TIM_OC2PreloadConfig                     0x0801f65f   Thumb Code    26  stm32f10x_tim.o(.text)
    TIM_OC3PreloadConfig                     0x0801f679   Thumb Code    18  stm32f10x_tim.o(.text)
    TIM_OC4PreloadConfig                     0x0801f68b   Thumb Code    26  stm32f10x_tim.o(.text)
    TIM_OC1FastConfig                        0x0801f6a5   Thumb Code    18  stm32f10x_tim.o(.text)
    TIM_OC2FastConfig                        0x0801f6b7   Thumb Code    26  stm32f10x_tim.o(.text)
    TIM_OC3FastConfig                        0x0801f6d1   Thumb Code    18  stm32f10x_tim.o(.text)
    TIM_OC4FastConfig                        0x0801f6e3   Thumb Code    26  stm32f10x_tim.o(.text)
    TIM_ClearOC1Ref                          0x0801f6fd   Thumb Code    18  stm32f10x_tim.o(.text)
    TIM_ClearOC2Ref                          0x0801f70f   Thumb Code    24  stm32f10x_tim.o(.text)
    TIM_ClearOC3Ref                          0x0801f727   Thumb Code    18  stm32f10x_tim.o(.text)
    TIM_ClearOC4Ref                          0x0801f739   Thumb Code    24  stm32f10x_tim.o(.text)
    TIM_OC1PolarityConfig                    0x0801f751   Thumb Code    18  stm32f10x_tim.o(.text)
    TIM_OC1NPolarityConfig                   0x0801f763   Thumb Code    18  stm32f10x_tim.o(.text)
    TIM_OC2PolarityConfig                    0x0801f775   Thumb Code    26  stm32f10x_tim.o(.text)
    TIM_OC2NPolarityConfig                   0x0801f78f   Thumb Code    26  stm32f10x_tim.o(.text)
    TIM_OC3PolarityConfig                    0x0801f7a9   Thumb Code    26  stm32f10x_tim.o(.text)
    TIM_OC3NPolarityConfig                   0x0801f7c3   Thumb Code    26  stm32f10x_tim.o(.text)
    TIM_OC4PolarityConfig                    0x0801f7dd   Thumb Code    26  stm32f10x_tim.o(.text)
    TIM_CCxCmd                               0x0801f7f7   Thumb Code    30  stm32f10x_tim.o(.text)
    TIM_CCxNCmd                              0x0801f815   Thumb Code    30  stm32f10x_tim.o(.text)
    TIM_SelectOCxM                           0x0801f833   Thumb Code    82  stm32f10x_tim.o(.text)
    TIM_UpdateDisableConfig                  0x0801f885   Thumb Code    24  stm32f10x_tim.o(.text)
    TIM_UpdateRequestConfig                  0x0801f89d   Thumb Code    24  stm32f10x_tim.o(.text)
    TIM_SelectHallSensor                     0x0801f8b5   Thumb Code    24  stm32f10x_tim.o(.text)
    TIM_SelectOnePulseMode                   0x0801f8cd   Thumb Code    18  stm32f10x_tim.o(.text)
    TIM_SelectOutputTrigger                  0x0801f8df   Thumb Code    18  stm32f10x_tim.o(.text)
    TIM_SelectSlaveMode                      0x0801f8f1   Thumb Code    18  stm32f10x_tim.o(.text)
    TIM_SelectMasterSlaveMode                0x0801f903   Thumb Code    18  stm32f10x_tim.o(.text)
    TIM_SetCounter                           0x0801f915   Thumb Code     4  stm32f10x_tim.o(.text)
    TIM_SetAutoreload                        0x0801f919   Thumb Code     4  stm32f10x_tim.o(.text)
    TIM_SetCompare1                          0x0801f91d   Thumb Code     4  stm32f10x_tim.o(.text)
    TIM_SetCompare2                          0x0801f921   Thumb Code     4  stm32f10x_tim.o(.text)
    TIM_SetCompare3                          0x0801f925   Thumb Code     4  stm32f10x_tim.o(.text)
    TIM_SetCompare4                          0x0801f929   Thumb Code     6  stm32f10x_tim.o(.text)
    TIM_SetClockDivision                     0x0801f92f   Thumb Code    18  stm32f10x_tim.o(.text)
    TIM_GetCapture1                          0x0801f941   Thumb Code     6  stm32f10x_tim.o(.text)
    TIM_GetCapture2                          0x0801f947   Thumb Code     6  stm32f10x_tim.o(.text)
    TIM_GetCapture3                          0x0801f94d   Thumb Code     6  stm32f10x_tim.o(.text)
    TIM_GetCapture4                          0x0801f953   Thumb Code     8  stm32f10x_tim.o(.text)
    TIM_GetCounter                           0x0801f95b   Thumb Code     6  stm32f10x_tim.o(.text)
    TIM_GetPrescaler                         0x0801f961   Thumb Code     6  stm32f10x_tim.o(.text)
    TIM_GetFlagStatus                        0x0801f967   Thumb Code    18  stm32f10x_tim.o(.text)
    TIM_ClearFlag                            0x0801f979   Thumb Code     6  stm32f10x_tim.o(.text)
    TIM_GetITStatus                          0x0801f97f   Thumb Code    34  stm32f10x_tim.o(.text)
    TIM_ClearITPendingBit                    0x0801f9a1   Thumb Code     6  stm32f10x_tim.o(.text)
    USART_DeInit                             0x0801f9a9   Thumb Code   134  stm32f10x_usart.o(.text)
    USART_Init                               0x0801fa2f   Thumb Code   210  stm32f10x_usart.o(.text)
    USART_StructInit                         0x0801fb01   Thumb Code    24  stm32f10x_usart.o(.text)
    USART_ClockInit                          0x0801fb19   Thumb Code    34  stm32f10x_usart.o(.text)
    USART_ClockStructInit                    0x0801fb3b   Thumb Code    12  stm32f10x_usart.o(.text)
    USART_Cmd                                0x0801fb47   Thumb Code    24  stm32f10x_usart.o(.text)
    USART_ITConfig                           0x0801fb5f   Thumb Code    74  stm32f10x_usart.o(.text)
    USART_DMACmd                             0x0801fba9   Thumb Code    18  stm32f10x_usart.o(.text)
    USART_SetAddress                         0x0801fbbb   Thumb Code    18  stm32f10x_usart.o(.text)
    USART_WakeUpConfig                       0x0801fbcd   Thumb Code    18  stm32f10x_usart.o(.text)
    USART_ReceiverWakeUpCmd                  0x0801fbdf   Thumb Code    24  stm32f10x_usart.o(.text)
    USART_LINBreakDetectLengthConfig         0x0801fbf7   Thumb Code    18  stm32f10x_usart.o(.text)
    USART_LINCmd                             0x0801fc09   Thumb Code    24  stm32f10x_usart.o(.text)
    USART_SendData                           0x0801fc21   Thumb Code     8  stm32f10x_usart.o(.text)
    USART_ReceiveData                        0x0801fc29   Thumb Code    10  stm32f10x_usart.o(.text)
    USART_SendBreak                          0x0801fc33   Thumb Code    10  stm32f10x_usart.o(.text)
    USART_SetGuardTime                       0x0801fc3d   Thumb Code    16  stm32f10x_usart.o(.text)
    USART_SetPrescaler                       0x0801fc4d   Thumb Code    16  stm32f10x_usart.o(.text)
    USART_SmartCardCmd                       0x0801fc5d   Thumb Code    24  stm32f10x_usart.o(.text)
    USART_SmartCardNACKCmd                   0x0801fc75   Thumb Code    24  stm32f10x_usart.o(.text)
    USART_HalfDuplexCmd                      0x0801fc8d   Thumb Code    24  stm32f10x_usart.o(.text)
    USART_OverSampling8Cmd                   0x0801fca5   Thumb Code    22  stm32f10x_usart.o(.text)
    USART_OneBitMethodCmd                    0x0801fcbb   Thumb Code    24  stm32f10x_usart.o(.text)
    USART_IrDAConfig                         0x0801fcd3   Thumb Code    18  stm32f10x_usart.o(.text)
    USART_IrDACmd                            0x0801fce5   Thumb Code    24  stm32f10x_usart.o(.text)
    USART_GetFlagStatus                      0x0801fcfd   Thumb Code    26  stm32f10x_usart.o(.text)
    USART_ClearFlag                          0x0801fd17   Thumb Code    18  stm32f10x_usart.o(.text)
    USART_GetITStatus                        0x0801fd29   Thumb Code    84  stm32f10x_usart.o(.text)
    USART_ClearITPendingBit                  0x0801fd7d   Thumb Code    52  stm32f10x_usart.o(.text)
    DMA_ChannelInitialize                    0x0801fdb1   Thumb Code   444  dma_stm32f10x.o(.text)
    DMA_ChannelUninitialize                  0x0801ff6d   Thumb Code   334  dma_stm32f10x.o(.text)
    DMA1_Channel1_Event                      0x080200bb   Thumb Code     2  dma_stm32f10x.o(.text)
    DMA1_Channel2_Event                      0x080200bd   Thumb Code     2  dma_stm32f10x.o(.text)
    DMA1_Channel3_Event                      0x080200bf   Thumb Code     2  dma_stm32f10x.o(.text)
    DMA1_Channel4_Event                      0x080200c1   Thumb Code     2  dma_stm32f10x.o(.text)
    DMA1_Channel5_Event                      0x080200c3   Thumb Code     2  dma_stm32f10x.o(.text)
    DMA1_Channel6_Event                      0x080200c5   Thumb Code     2  dma_stm32f10x.o(.text)
    DMA1_Channel7_Event                      0x080200c7   Thumb Code     2  dma_stm32f10x.o(.text)
    DMA2_Channel1_Event                      0x080200c9   Thumb Code     2  dma_stm32f10x.o(.text)
    DMA2_Channel2_Event                      0x080200cb   Thumb Code     2  dma_stm32f10x.o(.text)
    DMA2_Channel3_Event                      0x080200cd   Thumb Code     2  dma_stm32f10x.o(.text)
    DMA2_Channel4_Event                      0x080200cf   Thumb Code     2  dma_stm32f10x.o(.text)
    DMA2_Channel5_Event                      0x080200d1   Thumb Code     2  dma_stm32f10x.o(.text)
    DMA1_Channel1_IRQHandler                 0x080200d3   Thumb Code    22  dma_stm32f10x.o(.text)
    DMA1_Channel2_IRQHandler                 0x080200e9   Thumb Code    24  dma_stm32f10x.o(.text)
    DMA1_Channel3_IRQHandler                 0x08020101   Thumb Code    24  dma_stm32f10x.o(.text)
    DMA1_Channel4_IRQHandler                 0x08020119   Thumb Code    24  dma_stm32f10x.o(.text)
    DMA1_Channel5_IRQHandler                 0x08020131   Thumb Code    24  dma_stm32f10x.o(.text)
    DMA1_Channel6_IRQHandler                 0x08020149   Thumb Code    24  dma_stm32f10x.o(.text)
    DMA1_Channel7_IRQHandler                 0x08020161   Thumb Code    24  dma_stm32f10x.o(.text)
    DMA2_Channel1_IRQHandler                 0x08020179   Thumb Code    26  dma_stm32f10x.o(.text)
    DMA2_Channel2_IRQHandler                 0x08020193   Thumb Code    50  dma_stm32f10x.o(.text)
    DMA2_Channel3_IRQHandler                 0x080201c5   Thumb Code    26  dma_stm32f10x.o(.text)
    DMA2_Channel4_IRQHandler                 0x080201df   Thumb Code    26  dma_stm32f10x.o(.text)
    DMA2_Channel4_5_IRQHandler               0x080201f9   Thumb Code    52  dma_stm32f10x.o(.text)
    Reset_Handler                            0x08020275   Thumb Code     8  startup_stm32f10x_hd.o(.text)
    ADC1_2_IRQHandler                        0x0802028f   Thumb Code     0  startup_stm32f10x_hd.o(.text)
    ADC3_IRQHandler                          0x0802028f   Thumb Code     0  startup_stm32f10x_hd.o(.text)
    CAN1_RX1_IRQHandler                      0x0802028f   Thumb Code     0  startup_stm32f10x_hd.o(.text)
    CAN1_SCE_IRQHandler                      0x0802028f   Thumb Code     0  startup_stm32f10x_hd.o(.text)
    EXTI0_IRQHandler                         0x0802028f   Thumb Code     0  startup_stm32f10x_hd.o(.text)
    EXTI15_10_IRQHandler                     0x0802028f   Thumb Code     0  startup_stm32f10x_hd.o(.text)
    EXTI1_IRQHandler                         0x0802028f   Thumb Code     0  startup_stm32f10x_hd.o(.text)
    EXTI2_IRQHandler                         0x0802028f   Thumb Code     0  startup_stm32f10x_hd.o(.text)
    EXTI3_IRQHandler                         0x0802028f   Thumb Code     0  startup_stm32f10x_hd.o(.text)
    EXTI4_IRQHandler                         0x0802028f   Thumb Code     0  startup_stm32f10x_hd.o(.text)
    FLASH_IRQHandler                         0x0802028f   Thumb Code     0  startup_stm32f10x_hd.o(.text)
    FSMC_IRQHandler                          0x0802028f   Thumb Code     0  startup_stm32f10x_hd.o(.text)
    I2C1_ER_IRQHandler                       0x0802028f   Thumb Code     0  startup_stm32f10x_hd.o(.text)
    I2C1_EV_IRQHandler                       0x0802028f   Thumb Code     0  startup_stm32f10x_hd.o(.text)
    I2C2_ER_IRQHandler                       0x0802028f   Thumb Code     0  startup_stm32f10x_hd.o(.text)
    I2C2_EV_IRQHandler                       0x0802028f   Thumb Code     0  startup_stm32f10x_hd.o(.text)
    PVD_IRQHandler                           0x0802028f   Thumb Code     0  startup_stm32f10x_hd.o(.text)
    RCC_IRQHandler                           0x0802028f   Thumb Code     0  startup_stm32f10x_hd.o(.text)
    RTCAlarm_IRQHandler                      0x0802028f   Thumb Code     0  startup_stm32f10x_hd.o(.text)
    SDIO_IRQHandler                          0x0802028f   Thumb Code     0  startup_stm32f10x_hd.o(.text)
    SPI1_IRQHandler                          0x0802028f   Thumb Code     0  startup_stm32f10x_hd.o(.text)
    SPI2_IRQHandler                          0x0802028f   Thumb Code     0  startup_stm32f10x_hd.o(.text)
    SPI3_IRQHandler                          0x0802028f   Thumb Code     0  startup_stm32f10x_hd.o(.text)
    TAMPER_IRQHandler                        0x0802028f   Thumb Code     0  startup_stm32f10x_hd.o(.text)
    TIM1_BRK_IRQHandler                      0x0802028f   Thumb Code     0  startup_stm32f10x_hd.o(.text)
    TIM1_CC_IRQHandler                       0x0802028f   Thumb Code     0  startup_stm32f10x_hd.o(.text)
    TIM1_TRG_COM_IRQHandler                  0x0802028f   Thumb Code     0  startup_stm32f10x_hd.o(.text)
    TIM1_UP_IRQHandler                       0x0802028f   Thumb Code     0  startup_stm32f10x_hd.o(.text)
    TIM5_IRQHandler                          0x0802028f   Thumb Code     0  startup_stm32f10x_hd.o(.text)
    TIM6_IRQHandler                          0x0802028f   Thumb Code     0  startup_stm32f10x_hd.o(.text)
    TIM7_IRQHandler                          0x0802028f   Thumb Code     0  startup_stm32f10x_hd.o(.text)
    TIM8_BRK_IRQHandler                      0x0802028f   Thumb Code     0  startup_stm32f10x_hd.o(.text)
    TIM8_CC_IRQHandler                       0x0802028f   Thumb Code     0  startup_stm32f10x_hd.o(.text)
    TIM8_TRG_COM_IRQHandler                  0x0802028f   Thumb Code     0  startup_stm32f10x_hd.o(.text)
    TIM8_UP_IRQHandler                       0x0802028f   Thumb Code     0  startup_stm32f10x_hd.o(.text)
    USBWakeUp_IRQHandler                     0x0802028f   Thumb Code     0  startup_stm32f10x_hd.o(.text)
    USB_HP_CAN1_TX_IRQHandler                0x0802028f   Thumb Code     0  startup_stm32f10x_hd.o(.text)
    USB_LP_CAN1_RX0_IRQHandler               0x0802028f   Thumb Code     0  startup_stm32f10x_hd.o(.text)
    WWDG_IRQHandler                          0x0802028f   Thumb Code     0  startup_stm32f10x_hd.o(.text)
    __user_initial_stackheap                 0x08020291   Thumb Code     0  startup_stm32f10x_hd.o(.text)
    SystemInit                               0x08020393   Thumb Code    78  system_stm32f10x.o(.text)
    SystemCoreClockUpdate                    0x080203e1   Thumb Code   142  system_stm32f10x.o(.text)
    malloc                                   0x08020495   Thumb Code    94  h1_alloc.o(.text)
    free                                     0x080204f3   Thumb Code    78  h1_free.o(.text)
    vsprintf                                 0x08020541   Thumb Code    32  vsprintf.o(.text)
    __2printf                                0x08020565   Thumb Code    20  __2printf.o(.text)
    __2sprintf                               0x0802057d   Thumb Code    38  __2sprintf.o(.text)
    _printf_pre_padding                      0x080205a9   Thumb Code    44  _printf_pad.o(.text)
    _printf_post_padding                     0x080205d5   Thumb Code    34  _printf_pad.o(.text)
    _printf_str                              0x080205f7   Thumb Code    82  _printf_str.o(.text)
    _printf_int_dec                          0x08020649   Thumb Code   104  _printf_dec.o(.text)
    _printf_longlong_hex                     0x080206c1   Thumb Code    86  _printf_hex_int_ll_ptr.o(.text)
    _printf_int_hex                          0x08020717   Thumb Code    28  _printf_hex_int_ll_ptr.o(.text)
    _printf_ll_hex                           0x08020733   Thumb Code    12  _printf_hex_int_ll_ptr.o(.text)
    _printf_hex_ptr                          0x0802073f   Thumb Code    18  _printf_hex_int_ll_ptr.o(.text)
    __printf                                 0x08020755   Thumb Code   388  __printf_flags_ss_wp.o(.text)
    atoi                                     0x080208dd   Thumb Code    26  atoi.o(.text)
    srand                                    0x080208f9   Thumb Code    42  rand.o(.text)
    _rand_init                               0x08020923   Thumb Code     4  rand.o(.text)
    strchr                                   0x08020935   Thumb Code    20  strchr.o(.text)
    strstr                                   0x08020949   Thumb Code    36  strstr.o(.text)
    memcmp                                   0x0802096d   Thumb Code    88  memcmp.o(.text)
    strcpy                                   0x080209c5   Thumb Code    72  strcpy.o(.text)
    strlen                                   0x08020a0d   Thumb Code    62  strlen.o(.text)
    __aeabi_memcpy                           0x08020a4b   Thumb Code     0  rt_memcpy_v6.o(.text)
    __rt_memcpy                              0x08020a4b   Thumb Code   138  rt_memcpy_v6.o(.text)
    _memcpy_lastbytes                        0x08020ab1   Thumb Code     0  rt_memcpy_v6.o(.text)
    __aeabi_memcpy4                          0x08020ad5   Thumb Code     0  rt_memcpy_w.o(.text)
    __aeabi_memcpy8                          0x08020ad5   Thumb Code     0  rt_memcpy_w.o(.text)
    __rt_memcpy_w                            0x08020ad5   Thumb Code   100  rt_memcpy_w.o(.text)
    _memcpy_lastbytes_aligned                0x08020b1d   Thumb Code     0  rt_memcpy_w.o(.text)
    __aeabi_memset                           0x08020b39   Thumb Code    16  aeabi_memset.o(.text)
    __aeabi_memclr                           0x08020b49   Thumb Code     0  rt_memclr.o(.text)
    __rt_memclr                              0x08020b49   Thumb Code    68  rt_memclr.o(.text)
    _memset                                  0x08020b4d   Thumb Code     0  rt_memclr.o(.text)
    __aeabi_memclr4                          0x08020b8d   Thumb Code     0  rt_memclr_w.o(.text)
    __aeabi_memclr8                          0x08020b8d   Thumb Code     0  rt_memclr_w.o(.text)
    __rt_memclr_w                            0x08020b8d   Thumb Code    78  rt_memclr_w.o(.text)
    _memset_w                                0x08020b91   Thumb Code     0  rt_memclr_w.o(.text)
    strcmp                                   0x08020bdd   Thumb Code   128  strcmpv7m.o(.text)
    __use_two_region_memory                  0x08020c5d   Thumb Code     2  heapauxi.o(.text)
    __rt_heap_escrow                         0x08020c5f   Thumb Code     2  heapauxi.o(.text)
    __rt_heap_expand                         0x08020c61   Thumb Code     2  heapauxi.o(.text)
    __rt_heap_descriptor                     0x08020c65   Thumb Code     8  rt_heap_descriptor_intlibspace.o(.text)
    __aeabi_errno_addr                       0x08020c6d   Thumb Code     8  rt_errno_addr_intlibspace.o(.text)
    __errno$intlibspace                      0x08020c6d   Thumb Code     0  rt_errno_addr_intlibspace.o(.text)
    __rt_errno_addr$intlibspace              0x08020c6d   Thumb Code     0  rt_errno_addr_intlibspace.o(.text)
    __use_no_heap                            0x08020c75   Thumb Code     2  hguard.o(.text)
    __heap$guard                             0x08020c77   Thumb Code     2  hguard.o(.text)
    _terminate_user_alloc                    0x08020c79   Thumb Code     2  init_alloc.o(.text)
    _init_user_alloc                         0x08020c7b   Thumb Code     2  init_alloc.o(.text)
    __Heap_Full                              0x08020c7d   Thumb Code    34  init_alloc.o(.text)
    __Heap_Broken                            0x08020c9f   Thumb Code     6  init_alloc.o(.text)
    _init_alloc                              0x08020ca5   Thumb Code    94  init_alloc.o(.text)
    __Heap_Initialize                        0x08020d03   Thumb Code    10  h1_init.o(.text)
    __Heap_DescSize                          0x08020d0d   Thumb Code     4  h1_init.o(.text)
    _printf_truncate_signed                  0x08020d11   Thumb Code    18  _printf_truncate.o(.text)
    _printf_truncate_unsigned                0x08020d23   Thumb Code    18  _printf_truncate.o(.text)
    _printf_int_common                       0x08020d35   Thumb Code   178  _printf_intcommon.o(.text)
    _printf_charcount                        0x08020de7   Thumb Code    40  _printf_charcount.o(.text)
    __lib_sel_fp_printf                      0x08020e0f   Thumb Code     2  _printf_fp_dec.o(.text)
    _printf_fp_dec_real                      0x08020fbd   Thumb Code   620  _printf_fp_dec.o(.text)
    _printf_char_common                      0x08021233   Thumb Code    32  _printf_char_common.o(.text)
    _sputc                                   0x08021259   Thumb Code    10  _sputc.o(.text)
    _printf_cs_common                        0x08021263   Thumb Code    20  _printf_char.o(.text)
    _printf_char                             0x08021277   Thumb Code    16  _printf_char.o(.text)
    _printf_string                           0x08021287   Thumb Code     8  _printf_char.o(.text)
    _printf_char_file                        0x08021291   Thumb Code    32  _printf_char_file.o(.text)
    _printf_wctomb                           0x080212b5   Thumb Code   182  _printf_wctomb.o(.text)
    _printf_longlong_dec                     0x08021371   Thumb Code   108  _printf_longlong_dec.o(.text)
    _printf_longlong_oct                     0x080213ed   Thumb Code    68  _printf_oct_int_ll.o(.text)
    _printf_int_oct                          0x08021431   Thumb Code    24  _printf_oct_int_ll.o(.text)
    _printf_ll_oct                           0x08021449   Thumb Code    12  _printf_oct_int_ll.o(.text)
    strtol                                   0x0802145d   Thumb Code   112  strtol.o(.text)
    __user_libspace                          0x080214cd   Thumb Code     8  libspace.o(.text)
    __user_perproc_libspace                  0x080214cd   Thumb Code     0  libspace.o(.text)
    __user_perthread_libspace                0x080214cd   Thumb Code     0  libspace.o(.text)
    __rt_ctype_table                         0x080214d5   Thumb Code    16  rt_ctype_table.o(.text)
    __rt_locale                              0x080214e5   Thumb Code     8  rt_locale_intlibspace.o(.text)
    __Heap_ProvideMemory                     0x080214ed   Thumb Code    52  h1_extend.o(.text)
    _ll_udiv10                               0x08021521   Thumb Code   138  lludiv10.o(.text)
    _printf_fp_hex_real                      0x080215ad   Thumb Code   756  _printf_fp_hex.o(.text)
    _printf_fp_infnan                        0x080218a9   Thumb Code   112  _printf_fp_infnan.o(.text)
    _printf_lcs_common                       0x08021929   Thumb Code    20  _printf_wchar.o(.text)
    _printf_wchar                            0x0802193d   Thumb Code    16  _printf_wchar.o(.text)
    _printf_wstring                          0x0802194d   Thumb Code     8  _printf_wchar.o(.text)
    _strtoul                                 0x08021955   Thumb Code   158  _strtoul.o(.text)
    _btod_etento                             0x080219f5   Thumb Code   216  bigflt0.o(.text)
    ferror                                   0x08021ad1   Thumb Code     8  ferror.o(.text)
    _wcrtomb                                 0x08021ad9   Thumb Code    64  _wcrtomb.o(.text)
    __rt_SIGRTMEM                            0x08021b19   Thumb Code    14  defsig_rtmem_outer.o(.text)
    __I$use$semihosting                      0x08021b27   Thumb Code     0  use_no_semi.o(.text)
    __use_no_semihosting_swi                 0x08021b27   Thumb Code     2  use_no_semi.o(.text)
    __semihosting_library_function           0x08021b29   Thumb Code     0  indicate_semi.o(.text)
    __user_setup_stackheap                   0x08021b29   Thumb Code    74  sys_stackheap_outer.o(.text)
    _chval                                   0x08021b73   Thumb Code    28  _chval.o(.text)
    exit                                     0x08021b8f   Thumb Code    18  exit.o(.text)
    __sig_exit                               0x08021ba1   Thumb Code    10  defsig_exit.o(.text)
    __rt_SIGRTMEM_inner                      0x08021bad   Thumb Code    22  defsig_rtmem_inner.o(.text)
    __default_signal_display                 0x08021bfd   Thumb Code    50  defsig_general.o(.text)
    _ttywrch                                 0x08021c2f   Thumb Code    14  sys_wrch.o(.text)
    _btod_d2e                                0x08021c3d   Thumb Code    62  btod.o(CL$$btod_d2e)
    _d2e_denorm_low                          0x08021c7b   Thumb Code    70  btod.o(CL$$btod_d2e_denorm_low)
    _d2e_norm_op1                            0x08021cc1   Thumb Code    96  btod.o(CL$$btod_d2e_norm_op1)
    __btod_div_common                        0x08021d21   Thumb Code   696  btod.o(CL$$btod_div_common)
    _e2e                                     0x08022059   Thumb Code   198  btod.o(CL$$btod_e2e)
    _btod_ediv                               0x0802211f   Thumb Code    40  btod.o(CL$$btod_ediv)
    _btod_emul                               0x08022147   Thumb Code    40  btod.o(CL$$btod_emul)
    __btod_mult_common                       0x0802216f   Thumb Code   580  btod.o(CL$$btod_mult_common)
    __ARM_fpclassify                         0x080223b3   Thumb Code    40  fpclassify.o(i.__ARM_fpclassify)
    _is_digit                                0x080223db   Thumb Code    14  __printf_wp.o(i._is_digit)
    _get_lc_numeric                          0x080223e9   Thumb Code    44  lc_numeric_c.o(locale$$code)
    _get_lc_ctype                            0x08022415   Thumb Code    44  lc_ctype_c.o(locale$$code)
    __aeabi_d2f                              0x08022441   Thumb Code     0  d2f.o(x$fpl$d2f)
    _d2f                                     0x08022441   Thumb Code    98  d2f.o(x$fpl$d2f)
    __aeabi_dadd                             0x080224a5   Thumb Code     0  daddsub_clz.o(x$fpl$dadd)
    _dadd                                    0x080224a5   Thumb Code   332  daddsub_clz.o(x$fpl$dadd)
    __aeabi_dmul                             0x080225f5   Thumb Code     0  dmul.o(x$fpl$dmul)
    _dmul                                    0x080225f5   Thumb Code   332  dmul.o(x$fpl$dmul)
    __fpl_dnaninf                            0x08022749   Thumb Code   156  dnaninf.o(x$fpl$dnaninf)
    __fpl_dretinf                            0x080227e5   Thumb Code    12  dretinf.o(x$fpl$dretinf)
    __aeabi_dsub                             0x080227f1   Thumb Code     0  daddsub_clz.o(x$fpl$dsub)
    _dsub                                    0x080227f1   Thumb Code   464  daddsub_clz.o(x$fpl$dsub)
    __aeabi_f2d                              0x080229c5   Thumb Code     0  f2d.o(x$fpl$f2d)
    _f2d                                     0x080229c5   Thumb Code    86  f2d.o(x$fpl$f2d)
    __aeabi_fadd                             0x08022a1d   Thumb Code     0  faddsub_clz.o(x$fpl$fadd)
    _fadd                                    0x08022a1d   Thumb Code   196  faddsub_clz.o(x$fpl$fadd)
    __aeabi_f2uiz                            0x08022ae1   Thumb Code     0  ffixu.o(x$fpl$ffixu)
    _ffixu                                   0x08022ae1   Thumb Code    62  ffixu.o(x$fpl$ffixu)
    __aeabi_ui2f                             0x08022b21   Thumb Code     0  fflt_clz.o(x$fpl$ffltu)
    _ffltu                                   0x08022b21   Thumb Code    38  fflt_clz.o(x$fpl$ffltu)
    __aeabi_fmul                             0x08022b49   Thumb Code     0  fmul.o(x$fpl$fmul)
    _fmul                                    0x08022b49   Thumb Code   258  fmul.o(x$fpl$fmul)
    __fpl_fnaninf                            0x08022c4b   Thumb Code   140  fnaninf.o(x$fpl$fnaninf)
    __fpl_fretinf                            0x08022cd7   Thumb Code    10  fretinf.o(x$fpl$fretinf)
    __aeabi_fsub                             0x08022ce1   Thumb Code     0  faddsub_clz.o(x$fpl$fsub)
    _fsub                                    0x08022ce1   Thumb Code   234  faddsub_clz.o(x$fpl$fsub)
    _printf_fp_dec                           0x08022dcb   Thumb Code     4  printf1.o(x$fpl$printf1)
    _printf_fp_hex                           0x08022dcf   Thumb Code     4  printf2.o(x$fpl$printf2)
    __I$use$fp                               0x08022dd2   Number         0  usenofp.o(x$fpl$usenofp)
    mon_table                                0x080230dc   Data          12  hal_rtc.o(.constdata)
    tFwVersion                               0x08023243   Data           4  menuconfig.o(.constdata)
    g_cmd_get_co2                            0x08023294   Data           9  pm25co2.o(.constdata)
    Region$$Table$$Base                      0x0802349c   Number         0  anon$$obj.o(Region$$Table)
    Region$$Table$$Limit                     0x080234bc   Number         0  anon$$obj.o(Region$$Table)
    __ctype                                  0x080234e5   Data           0  lc_ctype_c.o(locale$$data)
    __stdout                                 0x2000011c   Data           4  haluart.o(.data)
    g_module_ready                           0x2000014c   Data           1  cloud_helper.o(.data)
    g_LwIPLocalTime                          0x2000018c   Data           4  usersys.o(.data)
    timingdelay                              0x20000190   Data           4  usersys.o(.data)
    devMAC                                   0x20000194   Data           6  usersys.o(.data)
    SysIsWdtResetStartup                     0x2000019a   Data           1  usersys.o(.data)
    Timer1                                   0x20000234   Data           4  sdc_diskio.o(.data)
    Timer2                                   0x20000238   Data           4  sdc_diskio.o(.data)
    SD_Type                                  0x2000023c   Data           1  sdc_diskio.o(.data)
    g_lastReportTime                         0x20000244   Data           4  sdcardrecord.o(.data)
    SystemCoreClock                          0x20000274   Data           4  system_stm32f10x.o(.data)
    AHBPrescTable                            0x20000278   Data          16  system_stm32f10x.o(.data)
    iv                                       0x20000368   Data          16  hal_aes.o(.bss)
    g_sys_poll                               0x20001214   Data         120  syspoll.o(.bss)
    g_sht2x_param                            0x20002140   Data          28  sht20.o(.bss)
    _random_number_data                      0x20002a84   Data         228  rand.o(.bss)
    __libspace_start                         0x20002b68   Data          96  libspace.o(.bss)
    __temporary_stack_top$libspace           0x20002bc8   Data           0  libspace.o(.bss)



==============================================================================

Memory Map of the image

  Image Entry point : 0x08010131

  Load Region LR_IROM1 (Base: 0x08010000, Size: 0x00013770, Max: 0x00040000, ABSOLUTE, COMPRESSED[0x00013638])

    Execution Region ER_IROM1 (Exec base: 0x08010000, Load base: 0x08010000, Size: 0x000135e8, Max: 0x00040000, ABSOLUTE)

    Exec Addr    Load Addr    Size         Type   Attr      Idx    E Section Name        Object

    0x08010000   0x08010000   0x00000130   Data   RO         1884    RESET               startup_stm32f10x_hd.o
    0x08010130   0x08010130   0x00000008   Code   RO         2080  * !!!main             c_w.l(__main.o)
    0x08010138   0x08010138   0x00000034   Code   RO         2442    !!!scatter          c_w.l(__scatter.o)
    0x0801016c   0x0801016c   0x0000005a   Code   RO         2440    !!dczerorl2         c_w.l(__dczerorl2.o)
    0x080101c6   0x080101c6   0x00000002   PAD
    0x080101c8   0x080101c8   0x0000001c   Code   RO         2444    !!handler_zi        c_w.l(__scatter_zi.o)
    0x080101e4   0x080101e4   0x00000000   Code   RO         2048    .ARM.Collect$$_printf_percent$$00000000  c_w.l(_printf_percent.o)
    0x080101e4   0x080101e4   0x00000006   Code   RO         2174    .ARM.Collect$$_printf_percent$$00000001  c_w.l(_printf_n.o)
    0x080101ea   0x080101ea   0x00000006   Code   RO         2175    .ARM.Collect$$_printf_percent$$00000002  c_w.l(_printf_p.o)
    0x080101f0   0x080101f0   0x00000006   Code   RO         2047    .ARM.Collect$$_printf_percent$$00000003  c_w.l(_printf_f.o)
    0x080101f6   0x080101f6   0x00000006   Code   RO         2178    .ARM.Collect$$_printf_percent$$00000004  c_w.l(_printf_e.o)
    0x080101fc   0x080101fc   0x00000006   Code   RO         2179    .ARM.Collect$$_printf_percent$$00000005  c_w.l(_printf_g.o)
    0x08010202   0x08010202   0x00000006   Code   RO         2180    .ARM.Collect$$_printf_percent$$00000006  c_w.l(_printf_a.o)
